:020000040800F2
:10000000B0210020BD020008872D0008F928000853
:10001000852D00089F140008AD3000080000000086
:1000200000000000000000000000000025020008A1
:10003000D11400080000000069020008892F0008A0
:10004000D7020008D7020008D7020008D70200082C
:10005000D7020008D7020008D7020008D70200081C
:10006000D7020008D7020008D7020008D70200080C
:10007000D7020008D7020008D7020008D7020008FC
:10008000D7020008D7020008D7020008D7020008EC
:10009000D7020008D7020008D7020008D7020008DC
:1000A000D7020008D7020008D7020008D7020008CC
:1000B00015300008D7020008D7020008D702000850
:1000C000D7020008D7020008D7020008D7020008AC
:1000D000D7020008D7020008D7020008D70200089C
:1000E000D7020008D7020008D7020008D70200088C
:1000F000D7020008D7020008D7020008D70200087C
:10010000D7020008D7020008D7020008D70200086B
:10011000D7020008D7020008D7020008D70200085B
:10012000D7020008D7020008D7020008D70200084B
:1001300000F002F800F067F80AA090E8000C824492
:100140008344AAF10107DA4501D100F05CF8AFF26F
:10015000090EBAE80F0013F0010F18BFFB1A43F0A5
:1001600001031847D46F0000F46F00000A444FF0F9
:10017000000C10F8013B13F0070408BF10F8014B06
:100180001D1108BF10F8015B641E05D010F8016B4B
:10019000641E01F8016BF9D113F0080F1EBF10F8AF
:1001A000014BAD1C0C1B09D16D1E58BF01F801CBD2
:1001B000FAD505E014F8016B01F8016B6D1EF9D555
:1001C0009142D6D37047000000230024002500266A
:1001D000103A28BF78C1FBD8520728BF30C148BFAA
:1001E0000B607047662905F04E80002070471FB5F0
:1001F00000F018FC04000020002104F083FDE06002
:100200001FBD10B510BD00F00DFD1146FFF7EFFF4B
:1002100002F0C6FF00F02BFD03B4FFF7F2FF03BCB2
:1002200000F06EFD224B19680868B0E8F00F80F30B
:100230000988BFF36F8F4FF0000080F311884EF0F4
:100240000D0E70470000000006480068006880F34B
:10025000088862B661B6BFF34F8FBFF36F8F00DFC0
:1002600000BF00BF08ED00E0EFF30980BFF36F8F20
:100270000F4B1A6820E9F00F106008B54FF05000DE
:1002800080F31188BFF34F8FBFF36F8F04F04AF8EC
:100290004FF0000080F31188BDE808401968086835
:1002A000B0E8F00F80F30988BFF36F8F704700BF8D
:1002B0000C010020EFF305807047000009488047DB
:1002C00009480047FEE7FEE7FEE7FEE7FEE7FEE738
:1002D000FEE7FEE7FEE7FEE704480549054A064B50
:1002E000704700001330000831010008B01B0020E7
:1002F000B0210020B01D0020B01D00200FB41CB59F
:10030000074B06AA7B4469460090059800F01DFB48
:100310000020694600F02CFB1CBC5DF814FB0000BB
:10032000690600002DE9F0474FF0000A89460446AF
:10033000C0F820A02046E1688847002876D025280C
:1003400006D0D4E901219047206A401C2062F1E7E1
:10035000E168204600258847C4F81CA0064600270F
:10036000C4F818A02A2E09D0304602F0C4FE38B3D3
:1003700004EB8708303EC8F8186019E059F8041BF0
:10038000204604EB87029161E1688847012F064609
:1003900018D1E069002820DA25F020051DE0D8F802
:1003A000180000EB800006EB40003038C8F8180059
:1003B0002046E1688847064602F09DFE0028EED1FF
:1003C000012F0AD02E2E08D12046E16888477F1CD5
:1003D0000646022F45F02005C4DBA069002803DA99
:1003E000404245F00105A061E80701D025F0100565
:1003F000B6B1A6F14100192802D8203645F40065AF
:100400004A463146204625604D46FFF7EBFE58B17F
:10041000012806D0ED1D25F0070000F1080989E745
:1004200004E005F1040985E730468AE7206ABDE863
:10043000F087032A40F2308010F0030C00F01580A2
:1004400011F8013BBCF1020F624498BF11F801CBD7
:1004500000F8013B38BF11F8013BA2F1040298BF3C
:1004600000F801CB38BF00F8013B11F0030300F0A6
:100470008482083AC0F0088051F8043B083A51F8E9
:1004800004CBA0E80810F5E7121D5CBF51F8043B4F
:1004900040F8043BAFF30080D20724BF11F8013BC2
:1004A00011F801CB48BF11F8012B24BF00F8013B24
:1004B00000F801CB48BF00F8012B704702F0FF03A2
:1004C00043EA032242EA024200F08BBA4FF00002F4
:1004D00000B5134694469646203922BFA0E80C503A
:1004E000A0E80C50B1F12001BFF4F7AF090728BF15
:1004F000A0E80C5048BF0CC05DF804EB890028BF91
:1005000040F8042B08BF704748BF20F8022B11F0B9
:10051000804F18BF00F8012B704770477047704735
:1005200070472DE9FF4F0C461E464FF0FF378BB04A
:10053000D2E90001DDF860800A908A46C1F30A55CD
:1005400005B93D46002108464FF00000BAF1000F02
:1005500000F4400005DA00EB80004FF4400101EAAE
:1005600050004FEA9059B9F1010F00DDB9460A98E1
:1005700050EA4A000ED044F61050A5F2FF3545432C
:100580002F14B8F1000F1ED07542291E1EDDC9F1CF
:1005900000021CE0B8F1010F4FF0000001D0302143
:1005A00003E0F24305E02154401CB042FBDB30463F
:1005B0000022002121540B99C1F80880C1E90020D4
:1005C0000FB0BDE8F08FBD1B6D1CDEE74A4600DAB8
:1005D000694206A800F0B0FA06AB93E8070003AB47
:1005E00083E8070050460A9900F091FB8DE8070068
:1005F000A0F500501F3800900398002D0ADD42F24C
:100600001F014A460844002303A90390684600F0EE
:10061000FAFD09E0A0F500504A461F38002303A95F
:100620000390684600F004FE8DE807000004000C0B
:1006300003D04FF0FF30410800E01046B8F1000F42
:1006400003D00022009215461EE0751E05D400F06E
:10065000EDF9303262556D1EF9D5B34601220843DB
:1006600002D000227F1C04E02078302801D1002233
:100670007F1E002A099784D01DE0112D07DA00F0B3
:10068000D5F9303262556D1C50EA0102F5D10843AC
:1006900002D00098C8B10EE00021681E05E0235C7E
:1006A000625C63542254401E491C8142F7DBAB4616
:1006B000A81B401E0990002004F80B000B98099A13
:1006C000C0F80880C0E9002B7AE711264FF0000837
:1006D00057E72DE9F04F88460446D21D22F0070166
:1006E00091B0D1E90001CDE90A0102F0E0FC024637
:1006F0000B98C00F01D02D2007E02068810701D59D
:100700002B2002E0202101EAC000032A099001D039
:10071000072A05DB03464146204600F0CDF90BE1F0
:100720002078800601D5E06900E00620B8F1650F69
:10073000814606D0B8F1660F18D0B8F1670F70D1B6
:1007400031E00020B9F1110F009001DB112301E02D
:1007500009F101030AAA01A90CA8FFF7E2FEDDE9ED
:100760000C70002609F10105834647E001204B4645
:1007700000904FF000470AAA01A90CA8FFF7D1FE8C
:10078000DDE90DB00C995D46002610B909F10100B4
:100790000D18B9EB050003D4C0F1FF3609F10105CE
:1007A000A5EB09002BE0B9F1010F01DA4FF00109C7
:1007B0000020B9F1110F0090484601DD112300E03F
:1007C00003460AAA01A90CA8FFF7ABFEDDE90C70ED
:1007D0004D4600268346207800070AD4AB4500DA50
:1007E0005D4601A8012D04DD411911F8011C3029D5
:1007F00007D04F4502DA17F1040F04DA01208246D0
:100800000FE06D1EEEE7002F02DCED1B3E4403E01F
:10081000781CA84200DD7D1CB81B00F1010A4FF0D6
:1008200000472078000703D4AA4501DB4FF0FF3AC8
:100830000021B7F1004F0DF143088DF8431024D08B
:1008400002202B23002F01DA7F422D230A21021ED2
:10085000A0F1010000DC5FB197FBF1FC97FBF1F226
:1008600001FB1C7C17460CF1300C08F801CDEEE7BB
:10087000A8F1010003702188090501D5452100E098
:100880006521A0F1010800F8011C09980FA9A1EB4E
:100890000807FF1D00B10120411901EBEA70A169B1
:1008A0003844081A401EA0612078C00602D42046B1
:1008B000AFF30080099828B1D4E901219047206A5C
:1008C000401C20622078C00622D52046AFF300806D
:1008D0001EE0002E04DBB34502DD01A8805D00E0D0
:1008E0003020D4E901219047206A401C2062761C08
:1008F000AAF101005FEA000A0AD100F093F8C0688B
:100900000168405CD4E901219047206A401C2062C4
:10091000281EA5F10105DCDC07E0D4E9012118F867
:10092000010B9047206A401C2062381EA7F1010786
:10093000F3DC2046AFF30080032011B041E6000055
:1009400001694A1C02610878704700B58FB0CDE993
:1009500001310021059105497944CDE90310114683
:100960006846FFF7DFFC0FB000BD0000E5FFFFFFAA
:100970000A6802F8010B0A60704710B5203AC0F00F
:100980000B80B1E81850203AA0E81850B1E8185090
:10099000A0E81850BFF4F5AF5FEA027C24BFB1E8CD
:1009A0001850A0E8185044BF18C918C0BDE810403E
:1009B0005FEA827C24BF51F8043B40F8043B08BF47
:1009C0007047D20728BF31F8023B48BF11F8012B0E
:1009D00028BF20F8023B48BF00F8012B70474FF0BA
:1009E00000020429C0F0128010F0030C3FF470AD37
:1009F000CCF1040CBCF1020F18BF00F8012BA8BF0A
:100A000020F8022BA1EB0C01FFF762BD5FEAC17C6D
:100A100024BF00F8012B00F8012B48BF00F8012B80
:100A200070470000004870476C1B002030B5B0F1E3
:100A30000A024FEA900E71F100034EEA817EB0EB9C
:100A40000E0061EB91014FEA101E4EEA017E10EBA1
:100A50000E0041EB11114FEA102E4EEA016E10EB21
:100A60000E0041EB11214FEA104E4EEA014E10EB01
:100A70000E0041EB1141401841F100014FEAD00056
:100A800040EA41704FEAD10110EB80054FEA810442
:100A900044EA907444EB01046D1944EB0404521BC6
:100AA000A3414FF0000348BF0A3200D530BD401CBF
:100AB00041F1000130BD00002DE9F0411F46044620
:100AC00003260168072A01F4006004DB08B116A5BB
:100AD00005E016A503E008B115A500E015A521F075
:100AE00010002060A069C01EA0610FB1401EA0616F
:100AF0002046AFF300804FB1D4E90121384690473A
:100B0000206A401C2062C01C206206E0206AFAE7CE
:100B1000D4E9012115F8010B9047761EF8D2204642
:100B2000AFF30080BDE8F0814E414E006E616E0073
:100B3000494E4600696E66002DE9F047814616462B
:100B40008AB0354878440DC88DE80D0032487844A5
:100B5000801C03AC0DC884E80D0041F69B300844AE
:100B6000372190FBF1F290FBF1F5A5F1800501FB37
:100B700012041B3C02D56442012000E00020DFF893
:100B800098A080460027FA44AAF1BE0A0EE0E007CA
:100B90000AD03246684607EB470101230AEB810180
:100BA00000F046FB8DE8070064107F1C002CEED19E
:100BB000194F7F44AE3F19E0E80715D007EB04104A
:100BC0000DF1180A90E80E008AE80E00C068F042A5
:100BD00001D1981908903246012306A903A800F014
:100BE00027FB03AB83E807006D10641C002DE3D1E5
:100BF0004FF0010332466946B8F1000F03A802D056
:100C000000F001FB01E000F013FBC9E90001C9F8A5
:100C100008200AB0BDE8F087CC65000000487047A6
:100C20004C1B00207546FFF7F9FFAE4605006946EC
:100C3000534620F00700854618B020B5FFF74CFB5F
:100C4000BDE820404FF000064FF000074FF00008CD
:100C50004FF0000B21F00701AC46ACE8C009ACE84E
:100C6000C009ACE8C009ACE8C0098D46704710B5B2
:100C70000446AFF300802046BDE81040FFF7CCBA31
:100C80004FF0013C50F8042B51F8043B9A4221D11B
:100C9000A2EB0C03934313EACC1317D150F8042BA7
:100CA00051F8043B9A4215D1A2EB0C03934313EA8B
:100CB000CC130BD150F8042B51F8043B9A4209D1C4
:100CC000A2EB0C03934313EACC13DBD04FF00000EC
:100CD000704700BFD01A01BAB1FA81F101F01801D2
:100CE00022FA01F0CB40C1F12001DBB2C0B2C01A40
:100CF0002CFA01F3D11A914311EAC311E6D17047DE
:100D000001491820ABBEFEE72600020070475FEAEB
:100D1000400C08BF91F0000F4FEA8C234FEAC1222C
:100D200043EA51514FEA1C5018BF00F5F0404FEA1A
:100D3000300018BF41F000415FEA6C5C00F0298090
:100D4000BCF1FF3F08BF40F080407047130C06BF66
:100D500012044FF0100C4FF0000C130E04BF1202DF
:100D60000CF1080C130F04BF12010CF1040C930FCB
:100D700004BF92000CF1020CD30F04BF52000CF11F
:100D8000010C11464FF00002A0F11F00A0EB0C0077
:100D9000704711F0004F08BF704731F000413FF439
:100DA000D5AF0B0C06BF09044FF0100C4FF0000C30
:100DB0000B0E04BF09020CF1080C0B0F04BF090154
:100DC0000CF1040C8B0F04BF89000CF1020CCB0F4B
:100DD00004BF49000CF1010CCCF12003A0EB0C0086
:100DE00022FA03F302FA0CF241EA030100F10100D6
:100DF000704720F07F4C80EA030023F07F47ACEB84
:100E0000070303F57C5300F0004003F1FF032DE9D5
:100E100080494FEA154B09B44FEA144325EA0B4EBB
:100E200024EA03480FF2042606EB132749083E780C
:100E30005FEA320203FB0667C7F5000707FB06F609
:100E40004FEA54374FEAD64606F1020607FB066C16
:100E5000CCF1005C4FEA1C472CEA074C07FB06F478
:100E60000CFB06F504EB15464FEA961634BF00203E
:100E70004FF000404FEAD13706FB07FC4FEA1C4C0D
:100E80000CFB0BF7D21B03FB0CF761EB07010CFB10
:100E90000EF7B0EB074072EB17420CFB08F734BFBC
:100EA000A2EB0742B2EB074261EB17414FEA0C4459
:100EB0004FEA910706FB07FC4FEA1C4C0CFB0BF7B3
:100EC000B0EBC74072EB573203FB0CF734BFA2EB19
:100ED000C742B2EBC74261EB57310CFB0EF7B0EBE8
:100EE000C70072EB57720CFB08F734BFA2EBC702C6
:100EF000B2EBC70261EB5771039F4FEA816141EA90
:100F0000921104EBCC044FEAD1374FEA826206FB20
:100F100007FC42EA90124FEA80604FEA1C4C0CFB3F
:100F20000BF7D21B03FB0CF761EB07010CFB0EF771
:100F3000B0EB074072EB17420CFB08F734BFA2EB93
:100F40000742B2EB074261EB17414FEA8C554FEA7B
:100F5000910704EB9C2406FB07FC4FEA1C4C0CFB9E
:100F60000BF7B0EBC74072EB573203FB0CF734BF03
:100F7000A2EBC742B2EBC74261EB57310CFB0EF755
:100F8000B0EBC70072EB57720CFB08F734BFA2EB53
:100F9000C702B2EBC70261EB577115EB4C254FEA64
:100FA000816141EA92114FEA82624FEAD13742EA07
:100FB000901206FB07FC44F100044FEA80604FEA00
:100FC0001C4C0CFB0BF7D21B03FB0CF761EB07016E
:100FD0000CFB0EF7B0EB074072EB17420CFB08F767
:100FE00034BFA2EB0742B2EB074261EB174115EBAE
:100FF0001C154FEA813141EA92414FEA823242EABE
:1010000090424FEA80304FEA0C7644F1000448EAFF
:1010100003434EEA0B484FF0000EB2EB080C71EBA5
:10102000030724BF624639464EEB0E0E4FF0000B0D
:101030000018524149414BEB0B0BB2EB080C71EB22
:1010400003077BF1000B24BF624639464EEB0E0EC0
:101050004FF0000B0018524149414BEB0B0BB2EB28
:10106000080C71EB03077BF1000B24BF6246394685
:101070004EEB0E0E51EA020718BF46F0010616EBC2
:101080000E7655F1000254F1000103D5BDE8890147
:10109000BDE80088BDE88901BDE80048B6195241A5
:1010A00041EB0101A3F10103704780807F7E7D7CCD
:1010B0007B7A7978777676757473727171706F6EEA
:1010C0006E6D6C6C6B6A6A69686867666665646495
:1010D000636362616160605F5F5E5E5D5D5C5C5B1F
:1010E0005B5A5A595958585757565655555554548E
:1010F000535352525251515050504F4F4F4E4E4DEC
:101100004D4D4C4C4C4B4B4B4A4A4A494949484837
:101110004847474747464646454545444444444377
:1011200043434342424242414141002B9C4630D41A
:1011300077002BD01CB54FEA370703B44FF01000EF
:101140004FF01001BAF1000F06D0BCF1000FDCBF68
:1011500040F0080040F008014FF000000FBCBDE86F
:1011600010400BF1010BBBF1010F08BF5FEA17073D
:1011700022BF12F1010211F101014FF0004143F1D0
:10118000000300F0004043EA00007047F9D357081D
:10119000D0E746EA064613F1400F4FEA16461FDD38
:1011A00013F1200FDFBF16430A46002120335B42B4
:1011B000BED0C3F1200746EA064602FA07F74FEA17
:1011C000164646EA0706C3F1200722FA03F201FA9F
:1011D00007F721FA03F14FF0000342EA0702A7E7FD
:1011E00046EA020646EA06464FEA164646EA01067F
:1011F000BCBF46EA0646360C4FF000034FF0000233
:101200004FF0000194E72DE9804C9A46934670B464
:1012100091E8380007C831EA400C48BF34EA430C73
:1012200003D5FFF7E6FDFFF780FFF0BCBDE8008CBB
:101230002DE9804C9A46934670B491E8380007C86F
:1012400010F0804F08BF13F0804F03D100F005F875
:10125000FFF76BFFF0BCBDE8008C20F07F4780EA11
:10126000030023F07F4C07EB0C03A3F57C5300F045
:101270000040A3F1FE0392F0000F00F0B38095F060
:10128000000F00F077802DE901494FEA11404FEA45
:10129000144621EA004800FB06FC24EA064708FB46
:1012A00006F607FB08F800FB07F718EB06484CEBBF
:1012B000164C4FEA124B18EB07484FEA15464CEB19
:1012C000174022EA0B4E0BFB06FC25EA06470EFBF5
:1012D00006F607FB0EFE0BFB07F71EEB064E4CEB6C
:1012E000164C4FF000061EEB074E4CEB174B18EB5D
:1012F0000B0840F1000018EB0E0B58EB000840F112
:1013000000008F1A4FF000013CBFC943661B14BF99
:10131000B5EB040C00213CBFC943F61B4FEA174450
:101320004EEA8E0E27EA04454FEA1C4704FB07628B
:101330002CEA074C05FB07F70CFB05F604FB0CFC3D
:1013400016EB074642EB174216EB0C4642EB1C42EB
:101350001BEB060658EB0202414146EA9E0601D508
:10136000BDE80189B619524141EB0101A3F1010326
:10137000BDE801894FEA14454FEA114724EA0546C2
:1013800021EA074C05FB07F406FB07F70CFB06F107
:1013900005FB0CFC11EB074144EB17444FEA1247E5
:1013A00011EB0C4144EB1C4422EA074C05FB07F20D
:1013B00006FB07F70CFB06F605FB0CFC16EB0746D5
:1013C00042EB174216EB0C4642EB1C456A1854F1EF
:1013D000000148BF7047B619524141EB0101A3F12A
:1013E0000103704795F0000F37D04FEA11424FEAE2
:1013F000144721EA024624EA074C02FB07F106FBE8
:1014000007F70CFB06F402FB0CFC14EB074441EB62
:1014100017414FEA154714EB0C4441EB1C4125EAF8
:10142000074C02FB07F506FB07F70CFB06F602FB71
:101430000CFC16EB074645EB174516EB0C4645EB47
:101440001C42121951F1000148BF7047B6195241B0
:1014500041EB0101A3F1010370474FEA14454FEA44
:10146000114724EA054621EA074C05FB07F106FB74
:1014700007F70CFB06F24FF0000605FB0CFC12EB25
:10148000074241EB174112EB0C4251EB1C4148BFA4
:101490007047921841EB0101A3F101037047FEE789
:1014A00030B50346002208463124995C48400021AB
:1014B000050602D584EA400000E04000491CC9B29C
:1014C000C0B20829F4D3521CD2B2022AEDD330BDE7
:1014D000704772B6FEE7000010B586B0002100919B
:1014E000019102914B1E0391F0B3264C02682649EC
:1014F000A24207D18A6942F004028A61896901F037
:1015000004012AE0214CA24207D18A6942F0080274
:101510008A61896901F008011FE01D4CA24207D1D0
:101520008A6942F010028A61896901F0100114E0B1
:10153000184CA24207D18A6942F020028A61896967
:1015400001F0200109E0144CA24218D18A6942F04E
:1015500040028A61896901F040010491818800910B
:1015600081680191C16800E009E00291016903917D
:101570000068694600F090F8002006B010BD1846DB
:10158000FBE700000008014000100240000C014091
:1015900000100140001401400018014010B5040083
:1015A0004FF0FF3008D0A168012905D0A18820683C
:1015B00000F06EF92075002010BD10B528B18188AB
:1015C000006800F06AF9002010BD4FF0FF3010BD38
:1015D00010B530B181880068012200F066F9002062
:1015E00010BD4FF0FF3010BD10B530B181880068DC
:1015F000002200F05AF9002010BD4FF0FF3010BD5E
:101600002DE9F0410E4615460446FF21FFF748FF3D
:10161000A178884206D1FF21E01CFFF741FF6179E4
:10162000884202D00120BDE8F081208840BA03F052
:10163000D5FC0C4F394603F00FFC0B4903F0E2FCDC
:101640000A4903F0A7FB3060B4F8030040BA03F086
:10165000C5FC394603F000FC054903F0D3FC2860C3
:101660000020E0E700FF7F4700002F43000034C266
:101670000000C84270B5044600F01CF90546601C25
:1016800002D004480078044400F014F9401BA04242
:10169000FAD370BDFC0000202DE9F84FDFF8C891A7
:1016A0000024A9F1040B23460F2709F1040AABF12A
:1016B000040ED1E00125A54006EA0502AA4276D132
:1016C000DFF8A8C14E68A6EB0C0866452BD00DDCF0
:1016D000032E34D005DC36B3012E19D0022E2FD1C3
:1016E0001BE0112E16D0122E2AD119E0B8F5881F52
:1016F00019D006DCB8F5803F15D0B8F5801F1FD192
:1017000011E0B8F5001F0ED0B8F5041F18D10AE09B
:10171000CB6815E0CB681B1D12E0CB6808330FE0E7
:10172000CB680C330CE08B682BB1012B4FF0080316
:1017300003D0456104E0042302E0056100E00023DA
:10174000FF2A01D8064601E000F104064FEA8405AD
:1017500001D9A5F12005D6F8008007FA05FC28EA92
:101760000C0803FA05F548EA0508C6F800804D683C
:10177000ED0070D53E4DAE6946F00106AE61AD6933
:1017800024F0030605F0010500953A4D06EB050C23
:10179000DCF80850A607360F07FA06F825EA080510
:1017A000DFF8D480404503D14FF0000825E052E037
:1017B000DFF8C880404502D14FF001081DE0DFF896
:1017C000C080404502D14FF0020816E0DFF8B48037
:1017D000404502D14FF003080FE0DFF8AC804045F0
:1017E00002D14FF0040808E0DFF8A080404502D1A4
:1017F0004FF0050801E04FF0060808FA06F848EA3D
:101800000508CCF808804D68D9F80060ED024D4617
:1018100001D5164300E096432E604D68DAF800606B
:10182000AD02554601D5164300E096432E604D6843
:10183000DBF80060AD035D4601D5164300E096433A
:101840002E604D68DEF80060ED03754601D5164345
:1018500000E096432E60641C0A681646E2407FF45E
:1018600029AFBDE8F88F0000080401400000111006
:10187000001002400000014000080140000C01403F
:10188000001001400014014000180140001C0140FC
:101890008068084000D001207047C26821EA020336
:1018A0000A4043EA0241016170470AB10161704791
:1018B0000904FBE70148806870470000FC00002035
:1018C00070B5040025D094F83D00002520B984F8B7
:1018D0003C50204600F076FA242084F83D00206831
:1018E000016821F0010101602068016841F40041B4
:1018F00001602068016821F40041016000F000FCF3
:101900004D4A6168914201D84C4900E04C498842F7
:1019100001D2012070BD4B492368B0FBF1F15E6834
:1019200026F03F060E435E606368934206D94FF48B
:10193000967359434FF47A73B1FBF3F12368491C52
:101940001E6A26F03F06314319626168914210D841
:101950004900401EB0FBF1F2521CC2F30B02042AF4
:1019600001D2042022E0B0FBF1F0401CC0F30B00D8
:101970001CE0A268F2B301EBC10303EB0116431EA6
:10198000B3FBF6F35B1C43F480431B0549D092B3D1
:1019900001EBC10202EB0111401EB0FBF1F0401C53
:1019A000C0F30B0040F4804040F400402168CA6955
:1019B0004CF6FF739A431043C861D4E90710014302
:1019C0002068026822F0C00211430160D4E90301DB
:1019D00001432068826848F2FF339A4311438160D3
:1019E000D4E9050108432168CA6822F0FF021043C8
:1019F000C86001E00EE016E02068016841F00101D6
:101A000001602564202084F83D00256384F83E5061
:101A1000002070BD01EB4106431EB3FBF6F35B1CD7
:101A2000B3E70120C2E701EB4101401EB0FBF1F03A
:101A3000401CC0F30B00B7E7A086010080841E00A5
:101A400000093D0040420F002DE9F84F0025DDF868
:101A50002890984617468A4604460095FFF72AFFC5
:101A6000064694F83D0020287AD1192301228649A0
:101A70002046009601F048F80028F5D194F83C0083
:101A800001286DD0012084F83C0020680168C90756
:101A900003D1016841F0010101602068016821F46F
:101AA00000610160222084F83D00102084F83E008F
:101AB00025646762A4F82A80608D20857348E062FF
:101AC00033464A465146204600F02EFF00287CD17E
:101AD000208DDFF8BC81202768B1012814D00228AE
:101AE000206801681ED041F480610160206841696E
:101AF00080690090BBE020684169816900910168BC
:101B000041F400710160B2E02068016821F4806155
:101B1000016072B62068416981690091016841F4F1
:101B200000710AE041F40061016072B62068416909
:101B300081690091016821F48061016062B696E0DC
:101B4000032865D801280CD002284B464FF000022C
:101B50004146204600960BD000F0D6FFA8BB0CE013
:101B600090E032464946204601F074F868BB71E0C7
:101B700000F0CAFF48BB72B633E02068016821F468
:101B80008061016072B620680069616A0870606AED
:101B9000401C6062208D401E2085608D401E608547
:101BA0003C4846F2A8110068B0FBF1F0C0EBC00061
:101BB00000EB80000090401E009007D02068406934
:101BC000C04340070DD50098F5E727E044F8305FA3
:101BD0006773A573206940F02000206162B6257309
:101BE0001CE02068016841F4007101602068006910
:101BF000616A0870606A401C6062218D491E2185FF
:101C0000618D491E618562B621680969017025E010
:101C100032464946204601F01DF810B10120BDE8CA
:101C2000F88F20680069616A0870606A401C606211
:101C3000208D401E81B22185608D401E6085206808
:101C40004269D243520712D4032903D1016821F417
:101C50008061016020680069616A0870606A401CE8
:101C60006062208D401E2085608D401E6085208D25
:101C700000287FF465AF84F83D7084F83E5084F806
:101C80003C50CCE70220CAE7020010000000FFFF32
:101C900004000100080100202DE9F84F1F4690467E
:101CA0008A460446DDF82890FFF704FE054694F8BE
:101CB0003D0020287FD1192301224049204600956C
:101CC00000F022FF002876D194F83C00012872D061
:101CD000012084F83C0020680168C90703D101682D
:101CE00041F0010101602068016821F40061016098
:101CF000212084F83D00102084F83E000026266450
:101D0000C4F824806785608D20852D48E0622B46CD
:101D10004A465146204600F07DFE90B92068416950
:101D20008069009036E02A464946204600F0CAFF06
:101D300050B1206C042804D12068016841F400717E
:101D400001600120BDE8F88F606A216800780861B1
:101D5000606A401C6062618D491E6185218D491E4B
:101D600089B2218522685369DB435B070BD451B1EB
:101D700000781061606A401C6062608D401E608562
:101D8000208D401E20852A464946204600F090FEC0
:101D90000028CED1208D0028C5D154F83D0B016814
:101DA00041F400710160202004F81E09E67766778F
:101DB0000020C7E7FFE70220C4E700000200100090
:101DC0000000FFFF10B586B0002100910191029143
:101DD00003910068104988421BD1104CA06940F063
:101DE0000800A061A069694600F0080004904FF463
:101DF0004060009012200190032003900848FFF7F4
:101E00004BFCE06940F48000E061E06900F4800090
:101E1000049006B010BD00000058004000100240C1
:101E2000000C0140024881680278114481607047CB
:101E3000FC000020074810B5016841F01001016066
:101E4000032000F095F80F2000F006F800F03EF8AF
:101E5000002010BD0020024000B5014687B00022DE
:101E60001C2000F065F81C2000F054F81448C169EB
:101E700041F00101C161C06905A900F001000690AF
:101E8000684600F01DF900F03BF90E494000B0FB38
:101E9000F1F10D484FF08042491E0260416040F26E
:101EA000E7320021C0E90321816000F002FC10B19B
:101EB000012007B000BD044800F02AFCF9E700004B
:101EC0000010024040420F00840100200F4808B576
:101ED000816941F001018161816901F00101009195
:101EE000C16941F08051C161C069002200F0805099
:101EF00000900F21901E00F01BF80548416821F06A
:101F0000E06141F00071416008BD00000010024036
:101F100000000140002809DB00F01F020121914070
:101F20004009800000F1E020C0F800117047000077
:101F3000F0B40E4B1B680C46C3F30223C3F1070534
:101F4000042D00D90425191D072901D2002300E022
:101F5000DB1E012606FA05F1491E214099409E40EC
:101F6000761E16403143F0BC01F0B5B80CED00E030
:101F7000064900F0070208684FF6FF03184040EAE0
:101F80000220034A10430860704700000CED00E097
:101F90000000FA052DE9F0470F46050061D0434ED9
:101FA000306800F00700B84209D2306820F007001E
:101FB00038433060306800F00700B84251D12868DB
:101FC0003B4C810712D5400703D5606840F4E060C0
:101FD00060602878000703D5606840F46050606056
:101FE0006068A96820F0F000084360602878C007A6
:101FF00028D06868012810D02168022810D08907ED
:1020000000292EDA616821F0030101436160FFF7C6
:1020100051FC804641F288390DE021688903EFE7E1
:102020008901EDE7FFF746FCA0EB0801494502D91D
:102030000320BDE8F0876068696800F00C00B0EB31
:10204000810FEFD1306800F00700B8420BD930683B
:1020500020F0070038433060306800F00700B842D5
:1020600001D00120E5E72878400705D56068E968D8
:1020700020F4E060084360602878000706D56068B7
:10208000296920F4605040EAC100606000F048F81F
:102090006168084AC1F30311515CC84006490860F1
:1020A00006480068FFF7D8FE0020C2E70020024083
:1020B000001002407E70000808010020000100208E
:1020C0000F2202600C4A536803F003034360536815
:1020D00003F0F0038360536803F4E063C360526865
:1020E0004FF4E06303EAD20202610448006800F0A2
:1020F0000700086070470000001002400020024006
:102100000448054900684968044AC1F30221515C4A
:10211000C840704708010020001002408E7000087F
:102120000E4A51680E4801F00C03042B11D0082B05
:102130000FD10C48C1F38343C903C05C0AD5516871
:10214000084AC1F34041921E515C054A5043B0FB1E
:10215000F1F0704704494843704700000010024006
:1021600000127A006E70000800093D002DE9F84F5A
:10217000040070D02078C04DC00749D06868C0F313
:102180008100012807D06868C0F38100022809D1C6
:102190006868C00306D52868800339D560680028C0
:1021A000E7D035E06068B0F5803F0BD010B1B0F5F6
:1021B000A02F11D0286820F480302860286820F4EF
:1021C000802002E0286840F480302860606890B188
:1021D000FFF770FB06460AE0286840F4802028607C
:1021E000F0E700BFFFF766FB801B642873D8286800
:1021F0008003F7D50CE0FFF75DFB064605E000BF66
:10220000FFF758FB801B6428F0D828688003F7D4B8
:1022100020789A4E80074FF001094FF0000839D519
:10222000686810F00C0F07D06868C0F381000228BE
:1022300009D16868C00306D42868800714D52069CE
:10224000012808D110E02069B0B1C6F80090FFF76E
:1022500031FB074605E00AE1FFF72CFBC01B022813
:10226000C4D828688007F7D52868616920F0F8008D
:1022700040EAC10028600DE0C6F80080FFF71AFBB5
:10228000074604E0FFF716FBC01B022823D8286886
:102290008007F7D4207800072CD57948A169D9B1F7
:1022A000C0F80090FFF706FB074604E0FFF702FBCB
:1022B000C01B02280FD8686A8007F7D571484FF411
:1022C000FA510068B0FBF1F0009000BF0098411E89
:1022D0000091FAD20EE080E0C0F80080FFF7EAFA41
:1022E000074604E0FFF7E6FAC01B022875D8686AC3
:1022F0008007F7D42078400760D5E8690027C00040
:1023000008D4E86940F08050E861E869012700F0EE
:10231000805000905C480168C90513D40168834669
:1023200041F480710160FFF7C5FA824606E000BF04
:10233000FFF7C0FAA0EB0A0064284ED8DBF80000D3
:10234000C005F5D5E06801280AD008B1052813D0EA
:10235000286A20F001002862286A20F0040002E0C8
:10236000286A40F001002862E06841F2883B98B199
:10237000FFF7A0FA82460BE0286A40F004002862CA
:10238000EEE700BFFFF796FAA0EB0A0159455AD8CD
:10239000286A8007F6D50CE0FFF78CFA824605E044
:1023A000FFF788FAA0EB0A0159454CD8286A800744
:1023B000F6D41FB1E86920F08050E861E06988B385
:1023C0006968C1F38101022944D00228C6F86080FF
:1023D00004D0FFF76FFA044638E034E0FFF76AFAFA
:1023E000074604E0FFF766FAC01B02282BD82868CE
:1023F0008001F7D4206AB0F5803F05D16868A168F4
:1024000020F4003008436860D4E908010843696893
:1024100021F4741108436860C6F86090FFF74AFA27
:10242000044606E025E000BFFFF744FA001B02283F
:1024300009D828688001F7D51BE000BFFFF73AFAFA
:10244000001B022802D90320BDE8F88F286880010C
:10245000F4D40EE00128F7D06868226A00F48031D5
:10246000914204D1616A00F47010884201D00120C9
:10247000EAE70020E8E700000010024000004242C6
:1024800080044242080100200070004070B5040042
:1024900009D0606A002540B125616561A56294F8A4
:1024A000510040B10CE0012070BD6068B0F5827F42
:1024B000F4D0E561F2E784F85050204600F03FF890
:1024C000022084F851002068016821F04001016079
:1024D000A088218900F4827001F404410843A18995
:1024E00001F400610843217C01F002010843217DD1
:1024F00001F001010843218B01F400710843217FA1
:1025000001F03801084394F8201001F080010843DD
:10251000218D01F40051084321680860A06904215D
:1025200001EA1040216848602068C16921F4006117
:10253000C1616565012084F85100002070BD7047BD
:102540002DE9F84F044690F85000002698461546AD
:102550008A4601280CD0012784F85070FFF7AAF9A9
:10256000814694F85100B346012804D002269AE02F
:102570000220BDE8F88FBAF1000F6FD0002D6DD0AA
:10258000032084F85100C4F854B0C4F830A0A586E4
:10259000E586C4F838B0A4F83CB0A4F83EB0C4F85E
:1025A00044B0C4F840B0A068B0F5004F09D120682D
:1025B000016821F0400101602068016841F4804118
:1025C000016020680168490603D4016841F04001B8
:1025D0000160E068B0F5006F606803D058B3012D6A
:1025E00029D049E008B1012D1FD1206B2168008856
:1025F000C86006E020688168890709D5216B0988D1
:10260000C160206B801C2063E08E401EE0860CE0E1
:10261000FFF750F9A0EB0901414503D3B8F1FF3FA3
:1026200003D006E0B8F1000F03D0E08E0028E1D11E
:1026300025E0032635E0206B21680078087306E06A
:102640002068816889070AD5216B09780173206B9E
:10265000401C2063E08E401EE0860DE01FE0FFF787
:1026600029F9A0EB0901414503D3B8F1FF3F03D09D
:10267000DFE7B8F1000FDCD0E08E0028E0D14A4659
:102680004146204600F080FB08B120206065A0682C
:1026900018B92068C16880680090606D08B1012693
:1026A00001E084F8517084F850B0304661E770471B
:1026B000704710B5040003D094F83D0010B107E056
:1026C000012010BD002084F83C00204600F01EF8D8
:1026D000022084F83D00211D206800F0A1FC0120AB
:1026E00084F8460084F83E0084F83F0084F84000F7
:1026F00084F8410084F8420084F8430084F84400E0
:1027000084F8450084F83D00002010BD70470000AB
:1027100090F83D10012901D001207047022180F876
:102720003D100168CA6842F00102CA6000680E49A3
:1027300088420ED00D4988420BD0B0F1804F08D0AE
:102740000B49884205D00B49884202D00A49884289
:1027500004D1816801F00701062903D0016841F026
:102760000101016000207047002C0140003401404D
:102770000004004000080040000C0040704770B5A5
:102780000446006801694FF00005C943890715D464
:10279000C168C943890711D4E91E0161012020776E
:1027A000206880698007204602D0FFF7E7FF04E039
:1027B00000F098F8204600F096F825772068016927
:1027C000C943490717D4C168C943490713D46FF0F7
:1027D00004010161022020772068806910F4407FA5
:1027E000204602D0FFF7CAFF04E000F07BF8204645
:1027F00000F079F8257720680169C943090716D4E4
:10280000C168C943090712D46FF0080101610420AF
:1028100020772068C0698007204602D0FFF7AEFF0E
:1028200004E000F05FF8204600F05DF825772068AE
:102830000169C943C90617D4C168C943C90613D47D
:102840006FF010010161082020772068C06910F442
:10285000407F204602D0FFF791FF04E000F042F8ED
:10286000204600F040F8257720680169C943C90770
:1028700008D1C168C943C90704D1891E0161204636
:1028800000F032F820680169C943090609D4C1681B
:10289000C943090605D46FF0800101612046FFF7A6
:1028A00006FF20680169C943490609D4C168C943C4
:1028B000490605D46FF040010161204600F01BF885
:1028C00020680169C94389060BD4C168C9438906D8
:1028D00007D46FF0200101612046BDE87040FFF78A
:1028E000E7BE70BD704770470068B0F1804F01D1FE
:1028F000FFF798BA70477047FEE701684A69D2430C
:1029000052050FD46FF480624A61002140F8301FF5
:10291000202242738173026942F004020261017352
:1029200001207047002070472DE9F84F0446C06A27
:102930001E4693460D4621680A6842F480620A608A
:10294000082807D0012805D010F5803F02D0206B61
:10295000112804D12068016841F4807101604FF0B2
:1029600001195B46002249462046009600F0CCF84B
:102970004FF4007840B120680068C00501D5C4F864
:1029800040800320BDE8F88F2069DFF884A0B0F50F
:10299000804F0FD00620216800EAD51747F0F000DD
:1029A000086133465A460AF10601204600F0F4F861
:1029B00058BB03E0E8B240F001001CE02168E8B237
:1029C000086133465A465146204600F0E5F8E0B922
:1029D0002068416981690091016841F4807101605A
:1029E0005B46002249462046009600F08DF80028FC
:1029F000C1D147F0F1002168086133465A4651467B
:102A0000204600F0C9F80028BCD00120BAE7000039
:102A100002000100F8B50446C06A1E460D4617467E
:102A2000082807D0012805D010F5803F02D0206B80
:102A3000122804D12068016841F4807101601346B6
:102A400000224FF001112046009600F05DF840B1E1
:102A500020680068C00502D54FF400702064032090
:102A6000F8BD2069B0F5804F0ED00620216800EA3D
:102A7000D51040F0F000086133463A460B49204635
:102A800000F08AF878B902E005F0FE0000E0E8B254
:102A900021680861054933463A46891F204600F0FF
:102AA0007BF80028DCD00120F8BD00000800010000
:102AB00070B516460D4604461EE02046FFF71DFF82
:102AC00008B1012070BD681C16D0FEF7F3FE801B14
:102AD000A84200D885B920684069C04340070BD59B
:102AE000002044F8300F20216173A073216941F068
:102AF000200121612073E4E720684069C04340075A
:102B0000DBD4002070BD00002DE9F0479846174641
:102B10000D460446C1F30746DDF820902AE000BFC9
:102B2000B8F1FF3F26D0FEF7C5FEA0EB09014145F5
:102B300002D8B8F1000F1DD12068012E16D080698F
:102B400025EA00000004000C12D00020B84211D188
:102B5000002044F8300F20216173A073216941F0F7
:102B60002001216120730120BDE8F0874069E7E77B
:102B70000120EBE72068012E0AD0806925EA0000D9
:102B80000004000C06D00020B842C9D00020EBE7BA
:102B90004069F3E70120F7E72DE9F047984616462C
:102BA0000D4604464FF000094FF0200AC1F30747D5
:102BB00023E020684069C043400515D420680168BF
:102BC00041F40071016021686FF480604861C4F8CD
:102BD000309084F83DA084F83E90216C41F00401CF
:102BE000216484F83C9021E0701C06D0FEF762FE60
:102BF000A0EB0800B04203D816B1012F1FD021E08E
:102C00002068012F15D0806925EA00000004000C1F
:102C100018D000BF44F8309F84F80DA084F80E90BF
:102C2000216941F02001216184F80C900120BDE868
:102C3000F087406925EA00000004000CEAD1206812
:102C4000406901E02068806925EA00000004000C6A
:102C5000AFD1ECE72DE9F041002590460E46044641
:102C6000202728E04069C043C0060CD454F8301B2C
:102C70006FF01000486144F810596777A577206A13
:102C80002062257714E0FEF715FEA0EB0800B042A5
:102C900000D886B920684069C04340060BD544F887
:102CA000305F6773A573206940F0200020612573B1
:102CB0000120BDE8F08120684169C9434906D1D4AB
:102CC0000020F6E770B516460D4604461EE0204685
:102CD000FFF713FE08B1012070BD681C16D0FEF787
:102CE000E9FD801BA84200D885B920684069C0432F
:102CF00000060BD5002044F8300F20216173A0732B
:102D0000216941F0200121612073E4E720684069D6
:102D1000C0430006DBD4002070BD000010B500F0F9
:102D20006BFA00F017FA044A0021044800F01CFC7A
:102D30000349886010BD00008C520008612E000815
:102D4000180000200D4810B50B4901600C49416086
:102D500000214FF480428160C0E90312416181612A
:102D6000C1610162FEF7ACFD002803D0BDE8104050
:102D7000FEF7AFBB10BD0000005800402402002049
:102D8000A0860100FEE7FEE738B50B460092044638
:102D90000022802100F008F8002804D0606D40F087
:102DA00020006065032038BD2DE9F8431E4691469A
:102DB00088460446089DFEF77DFD401B351AFEF748
:102DC00079FD074625480068C0F3CB30684338E0FA
:102DD000701C37D0FEF76EFDC01BA84203D215B1A0
:102DE000009860B32CE02068416821F0E001416068
:102DF0006068B0F5827F0BD1A068B0F5004F02D0BB
:102E0000B0F5806F04D12068016821F040010160B5
:102E1000A06AB0F5005F09D12068016821F4005173
:102E200001602068016841F400510160012084F8CC
:102E30005100002084F850000320BDE8F8830025ED
:102E4000401E00902068816838EA010004D000210B
:102E50004945BDD10020F0E70121F9E70801002034
:102E60001FB500243648FEF737FB364A4F266D461D
:102E700007CA8DE8070034A00068039055F82400C5
:102E8000FEF72AFB641CE4B2032CF7D306232FA21F
:102E90000421012000F0F2FA062330A202210320CF
:102EA00000F0ECFA06232FA20221042000F0E6FA3B
:102EB00006232EA20F21032000F0E0FA06232DA204
:102EC0000F21042000F0DAFA06232CA20F2105209E
:102ED00000F0D4FADFF8AC8003AF2A49091D081FBF
:102EE00000F010F90623444607210320D8F80020FB
:102EF00000F0E6FA062307210420626800F0A6FA33
:102F00005FF0000455F8240000F03EF9012802D0DB
:102F1000022802D002E02A2600E04F26385D062370
:102F20003246152100F002FA641CE4B2032CE9D306
:102F30000348FEF742FB0120FEF79CFBCDE70000B3
:102F400000000020B05200080304050053637265BE
:102F5000656E20436F6E74656E743A0054656D70D3
:102F60003A20000048756D693A2000004B657931C0
:102F70003A202A004B6579323A202A004B65793392
:102F80003A202A001800002010B5502080F3118844
:102F9000BFF34F8FBFF36F8F01F012FD18B10449DB
:102FA0004FF080500860002080F3118810BD0000B1
:102FB00004ED00E030B58FB028216846FDF786FAB1
:102FC00014210AA8FDF782FA01210804CDE90010B6
:102FD0000024029402250491CDE907504FF4E0103B
:102FE00009906846FFF7C2F808B172B6FEE70F20F5
:102FF000CDE90A054FF48060CDE90C4002210AA812
:103000000E94FEF7C7FF002801D072B6FEE70FB09E
:1030100030BD70470148FFF7B2BB000084010020BB
:10302000F0B502681C4B1D4D1D4E1E4F1E4C4FF03F
:10303000804C984209D0A04207D0604505D0A842F4
:1030400003D0B04201D0B84204D122F0700E4A68D9
:1030500042EA0E02984209D0A04207D0604505D04E
:10306000A84203D0B04201D0B84203D122F4407547
:10307000CA682A434D6922F080022A4302608A68A6
:10308000C2620A688262984201D0A04201D10969F5
:10309000016301214161F0BD002C014000040040AA
:1030A00000080040000C004000340140FEE74900E9
:1030B00050EAC12018BF04204A0D18BF40F001009B
:1030C00040F2FF72B2EB515F08BF40F002000128EE
:1030D00008BF052070470907090E002804DB00F12E
:1030E000E02080F80014704700F00F0000F1E020AD
:1030F00080F8141D704730380A2801D2012070472B
:10310000002070477FB5064610A00D4600684FF4BA
:103110007A740390022303AA882100940C48FEF7D6
:10312000BBFD38B9062301AA892109480094FEF79E
:103130008BFC10B1012004B070BD2A46314601A8B5
:10314000FEF75EFA0028F6D00220F4E7E000000067
:10315000240200201CB50AA00223006801904FF44D
:103160007A70009001AA88210648FEF795FD08B103
:1031700001201CBD0F20FEF77DFA00201CBD0000C1
:10318000213000002402002010B50446FEF706FAA4
:10319000401C02D0207D08B1022010BD012010BDCE
:1031A000FEF748FEFFF706FFFFF7CCFD00F0A0F9A1
:1031B000FFF7B4FD00F0B8F9FEE7000010B5A0B0CD
:1031C00000240021204600F09BF880216846FDF78E
:1031D0007DF980226946074800F0D7FE80226946C3
:1031E000044800F0D2FE641CE4B2082CE9D320B0FD
:1031F00010BD00008400002010B5404800F026FEFD
:103200006420FEF737FA3D4800F090FE6420FEF798
:1032100031FAAE21394800F0ACFE0021374800F009
:10322000A8FE1021354800F0A4FE4021334800F0EC
:10323000A0FE8121314800F09CFECF212F4800F0F4
:1032400098FEA1212D4800F094FEC8212B4800F0E3
:1032500090FEA621294800F08CFEA821274800F006
:1032600088FE3F21254800F084FED321234800F04A
:1032700080FE0021214800F07CFED5211F4800F08F
:1032800078FE80211D4800F074FED9211B4800F013
:1032900070FEF121194800F06CFEDA21174800F0A9
:1032A00068FE1221154800F064FEDB21134800F08F
:1032B00060FE4021114800F05CFE20210F4800F024
:1032C00058FE02210D4800F054FE8D210B4800F0FD
:1032D00050FE1421094800F04CFEA421074800F0DC
:1032E00048FEA621054800F044FEAF21034800F047
:1032F00040FEBDE81040FFF761BF000084000020E1
:1033000010B50C4640F0B001074800F032FE102026
:1033100040EA1411044800F02CFE04F00F01BDE84F
:103320001040014800F025BE840000202DE9F04740
:10333000A2F1200404F0FF09A1F1010808EB480400
:103340004FEA440CA2F12004461EE4B204EB440709
:10335000062B0DD04400A41EE5B26D1C0C2B12D020
:10336000102B25D0182B3AD0BDE8F0470823DDE715
:10337000314A0CF0FF01F0B202EB4704FFF7C0FF47
:103380000622214653E02D49E0B20CF0FF0601EB86
:1033900087043146FFF7B4FF06222146284800F093
:1033A000F4FDE8B23146FFF7ABFF0622A11D3EE077
:1033B000C8000838C6B2234AE0B202EB091431460D
:1033C000FFF79EFF082221461D4800F0DEFDE8B20F
:1033D0003146FFF795FF082204F1080127E008EBCA
:1033E00048008006050E06EB4600C4B2164909EBFC
:1033F000C90001EB800629462046FFF781FF0C2219
:1034000031460F4800F0C1FD601CC0B22946FFF7ED
:1034100077FF0C2206F10C01094800F0B6FDA41C50
:10342000E0B22946FFF76CFF0C2206F11801BDE857
:10343000F047034800F0A9BDBC520008E45400085E
:103440008400002058590008485F00087FB50646F0
:103450001C460D46104601F071FC02460B4605A1C4
:103460006846FCF74BFF23466A462946304600F083
:1034700005F87FBD252E3166252500002DE9F04792
:103480001F46164688468146062B05D00C2F03D0D2
:10349000102F01D0182F01D0012500E002250024B3
:1034A00009E000BF04FB0580C1B23B464846FFF778
:1034B0003DFF641CE4B2325D002AF3D1BDE8F08721
:1034C0007FB506461C460D46104601F037FC024605
:1034D0000B4605A16846FCF711FF23466A462946BC
:1034E0003046FFF7CBFF7FBD252E3166430000003D
:1034F000EFF3058058B9EFF3108040B90949086827
:10350000022801D030B109E0EFF3118030B16FF043
:103510000500704701200860002070474FF0FF3021
:10352000704700005C01002010B5EFF3058060B922
:10353000EFF3108048B90B490868022802D001282F
:1035400006D00BE0EFF3118040B16FF0050010BD25
:103550000220086000F09AFE002010BD4FF0FF30FE
:1035600010BD00005C010020F0B585B04FEA0103FA
:103570004FF00004EFF305810394A1BBEFF310813A
:1035800089BB21490968022902D1EFF3118151BB9E
:1035900048B3802618218DF8104004AD42B3176857
:1035A00007B13D4697691FB139467F1E382F02D2B9
:1035B0001779FF0702D0002005B0F0BD576907B1A9
:1035C000BE08D2F808C0BCF1000F0DD0D4685C2C46
:1035D00018D312693AB137B18DE806103246294640
:1035E00001F0AFF903900DE0D7685FB912694AB9ED
:1035F00003AACDE90012B2B2294601F075F90128FB
:1036000000D003940398D7E75C0100202DE9F04136
:10361000134C0F46054666692068001D00F0C4FC87
:10362000681C07D137B12168BDE8F0410D48091D7C
:1036300000F00ABD20683544B5424560216805D2D6
:10364000A068BDE8F041091D00F0E6BC6068091DF6
:1036500000F0E2FC206B854200D22563BDE8F081DA
:103660000C010020680700202DE9F041054600F01C
:10367000F7FC2D4C2069401C206120682B4F10B1B5
:10368000E06930B32BE025602069012827D10026AE
:1036900006EB860007EB800000F0B0FC761C382EAD
:1036A000F6D3234800F0AAFC2148143000F0A6FC11
:1036B0001F48283000F0A2FC1D483C3000F09EFC62
:1036C0001B48503000F09AFC194860601430A0602C
:1036D00005E02068E96AC06A884200D82560E06A8F
:1036E000401CE0626864E86AA169884200D9A06170
:1036F00000EB800007EB8000291D00F0A5FC00F026
:10370000CFFCE06900280CD02068E96AC06A8842D2
:1037100007D208494FF080500860BFF34F8FBFF3C6
:103720006F8FBDE8F08100000C010020B80200207E
:103730001807002004ED00E038B500F091FC104CB3
:10374000A068C8B90F4800F059FC0E48143000F0CA
:1037500055FC0C482060143060600A4B0020283370
:10376000009003F1500210210A2000F061FEA060D9
:1037700010B105A100F012FDBDE8384000F090BC8A
:10378000480100207C070020546D725100000000A9
:1037900030B4026C0B46002A0BD0C1681144C160E2
:1037A0004468A14201D30168C16030BC1846FCF7EF
:1037B00040BE30BC70472DE9F041856B174604468A
:1037C0000026026C82B1C7B1E068FCF732FEE16806
:1037D000206C091AE1602268914202D26168081ADD
:1037E000E060022F16D017E02068A8B9606801F0E9
:1037F0004BF90646002060600EE0A068FCF719FE59
:10380000216CA0680844A0606168884204D32068E5
:10381000A06001E005B16D1E6D1CA5633046BDE8DA
:10382000F08110B5044690F8590058B101280CD029
:1038300002280FD0502080F31188BFF34F8FBFF3C1
:103840006F8FFEE7206B00F03FFC2046BDE8104084
:1038500000F03ABC10BD000010484FF44061420730
:1038600006D0C01D0D4920F00700411AC1F5406186
:103870000B4A00230144C2E900030839103A21F041
:10388000070111604B600B600B1AC0E900139360D5
:103890004FF000405360D060704700004C0F002094
:1038A00070010020144E154CA6F29C474FF0805832
:1038B000DFF84C9012E000BF00F0D2FBF068C56862
:1038C000281D00F071FB2069401E2061E068401E49
:1038D000E06000F0E5FB2846FFF7A3FFE068002862
:1038E000EAD138680128F9D9C9F80080BFF34F8FB1
:1038F000BFF36F8FF2E70000540700200C01002097
:1039000004ED00E070B51D46049C51B1C4F80020E0
:10391000C4E90F010121204600F0BEFD84F84C509F
:1039200070BD2460F4E72DE9F0470E46DDE9098417
:103930001746824691009946089DA522206BFCF708
:10394000BDFD6FF00301206B01EB8701084420F0FF
:103950000707780707D0502080F31188BFF34F8FF7
:10396000BFF36F8FFEE72218315C82F83410315CB0
:1039700011B1401C1028F6D3002684F84360382D7E
:1039800000D33725E562C4E91356201D00F041FB42
:1039900004F1180000F03DFB2461C5F138006462B9
:1039A000A061666584F858604A465146384600F082
:1039B0003BFA2060B8F1000F01D0C8F80040BDE824
:1039C000F087000030B5114900E011460A688242D4
:1039D000FBD34B685C18844203D1406818444860AC
:1039E000084643681C18944209D1084C103C2468CE
:1039F000A24209D052681A4442600A681268026002
:103A0000814200D0086030BD0460F9E770010020F9
:103A100070B5002441600B4D0061914206D8D11A67
:103A20008269914206D2011D686807E09A4203D27A
:103A3000994201D3012403E0011D286800F0ECFA4B
:103A4000204670BD4801002010B5044600F008FB78
:103A5000A06B28B15FF0000400F022FB204610BDEF
:103A60000124F9E730B589B0304D55E004980028BD
:103A700006DADDE90601059A9047049800284BDB39
:103A8000069C606910B1201D00F08EFA02A800F0BB
:103A9000B9F8024604980A283ED2DFE800F005058E
:103AA000053D263705053D260598A16903460144D5
:103AB0002046FFF7ADFF00B3616A20468847E06902
:103AC000012829D1002000900598A16900234218FF
:103AD0001946204601F0E2F878B9502080F31188A9
:103AE000BFF34F8FBFF36F8FFEE70598A06128B13A
:103AF000811813462046FFF78BFF0DE0502080F31E
:103B00001188BFF34F8FBFF36F8FFEE794F82C003F
:103B100010B9204600F0D8FA002204A9A86800F0E5
:103B20000DFE0028A2D109B030BD000048010020E0
:103B30002DE9FC410F46054600F0ECFB01A800F022
:103B400061F80446019818B101F016F8BDE8FC814F
:103B5000224EAFB170680068A8B30027291B3A460F
:103B6000B06800F02FFB01F007F80028EED11C49E7
:103B70004FF080500860BFF34F8FBFF36F8FE5E7C2
:103B8000A542EBD800F0F8FF30682746C068C4684B
:103B9000201D00F009FAE069012810D1A0692B4628
:103BA00041193A462046FFF733FF40B10020034653
:103BB000014600902A46204601F070F820B1616A63
:103BC00020468847C2E707E0502080F31188BFF302
:103BD0004F8FBFF36F8FFEE70127BFE7480100203B
:103BE00004ED00E006484168096829B14168C968E8
:103BF000C9684968016370474FF0FF31FAE7000078
:103C00000C01002070B5054600F0D4FE064E0446B7
:103C10003069844203D200F009F8012000E000205E
:103C200028602046346170BD48010020F8B5194D68
:103C30001FE0C068C4680668201D00F0B5F9616A1D
:103C400020468847E069012813D1A0693044B0427A
:103C500006D924616060211D286800F0DDF908E0C4
:103C600000200346014600903246204601F016F837
:103C700038B1286801680029DBD16968C5E90010FE
:103C8000F8BD502080F31188BFF34F8FBFF36F8FC3
:103C9000FEE700004801002008484068401C4FF043
:103CA000500080F3118804D0BFF34F8FBFF36F8FA4
:103CB000FEE7BFF34F8FBFF36F8FFEE77801002061
:103CC000074C2068016841B1C0680021D0F80000AD
:103CD000FFF72EFFFFF7C6FEF3E701210020F7E70D
:103CE000480100202DE9F041044600F0B9F994F9AB
:103CF000455004F1240609E0606A48B1304600F0FE
:103D000003FF08B100F088FA6D1E6DB2002DF3DCE0
:103D10004FF0FF3684F8456000F0C2F900F0A0F9DA
:103D200094F9445004F1100709E0206948B138467D
:103D300000F0EAFE08B100F06FFA6D1E6DB2002DC2
:103D4000F3DC84F84460BDE8F04100F0A9B900005C
:103D50002DE9F0410546002700F0DCFA314E3068CD
:103D600008B9FFF779FDF06805424BD1C5B30835B6
:103D700068070ED005F00700C0F108000544680789
:103D800007D0502080F31188BFF34F8FBFF36F8FA0
:103D9000FEE72DB37068854234D8224810300146C2
:103DA0000C6801E020460C466168A94202D22168F5
:103DB0000029F7D131688C4224D00768216801605E
:103DC00060680837411B10290FD96019420708D0D5
:103DD000502080F31188BFF34F8FBFF36F8FFEE742
:103DE00010E041606560FFF7EDFD61687068401AA2
:103DF0007060B268904200D2B060F0680143002069
:103E0000C4E9000100F0B8FE780707D0502080F325
:103E10001188BFF34F8FBFF36F8FFEE73846BDE8C1
:103E2000F08100006001002010B5031F4FF0807486
:103E30001C601B1F21F001011960191F024B0B6050
:103E4000143940380A6010BD993C000838B50400A8
:103E50004FF0FF355DD0314A61693148914207D159
:103E6000816941F480518161816901F4805114E0DC
:103E70002C4A914207D1C16941F48041C161C169B5
:103E800001F4804109E0284A914244D1C16941F4DA
:103E90000041C161C16901F400410091816941F0B3
:103EA00001018161806900F001000090A068FDF7C8
:103EB00013FB2068FDF710FBE068FDF70DFB606861
:103EC000FDF70AFBD4E90401016021694FF4827017
:103ED000486021694FF40040886021690020C86073
:103EE000226902211161226901215161226949027D
:103EF00091612169C861216908622169486221696B
:103F0000886221690A20C8622069FEF7BFFA00288A
:103F100000D0284638BD6FF0010038BD00300140A8
:103F20000010024000380040003C004010B504463C
:103F3000C068FDF74DFB0A20FDF79CFBE068FDF72C
:103F400053FB0A20FDF796FBE068FDF741FB0A20D2
:103F5000FDF790FB002010BD13B538B10069FF23B9
:103F6000012201A9FEF7ECFA40B21CBD4FF0FF3070
:103F70001CBD70B504460D464068FDF735FB29466B
:103F80002046FFF7E9FF002070BD70B504461546D6
:103F90000E464068FDF71CFBFF232A463146206988
:103FA000FEF7CEFA002070BDD0E9013201699A60B7
:103FB000D0E901235A604A68824201D182684A608E
:103FC000002202610868401E08600868704700000F
:103FD000034B036003F15C000860802010607047B1
:103FE00094080020044B036003F15C0008604FF468
:103FF0008070106070470000F00A002000F1080196
:104000004FF0FF32C0E90112C1600161002101607F
:10401000704700210161704730B50B685A1C02D00F
:1040200000F1080202E0026904E0224654682568B3
:104030009D42FAD953684B6099608A60516008616B
:104040000168491C016030BD42684A6093688B601A
:1040500093685960916008610168491C016070476C
:10406000502080F31188BFF34F8FBFF36F8F0A4941
:104070004868401C486001280CD10848006810F0CE
:10408000FF0F07D0502080F31188BFF34F8FBFF38D
:104090006F8FFEE7704700007801002004ED00E01C
:1040A0000849486828B1401E486001D180F3118852
:1040B0007047502080F31188BFF34F8FBFF36F8F8D
:1040C000FEE700007801002070B5002827D0144DCD
:1040D000A0F108046168E868014207D1502080F32C
:1040E0001188BFF34F8FBFF36F8FFEE722683AB19D
:1040F000502080F31188BFF34F8FBFF36F8FFEE71F
:104100008143616000F006F960686968084468608E
:104110002046FFF757FCBDE8704000F02DBD70BD94
:10412000600100204FF0E02000210161816105491C
:104130004FF47A720968B1FBF2F1491E416107211F
:10414000016170470801002010B5FCF7B3F8114970
:1041500010280ED300F1E02090F8F0030A78904286
:1041600007D2502080F31188BFF34F8FBFF36F8FBA
:10417000FEE709480068896800F4E060884207D9D2
:10418000502080F31188BFF34F8FBFF36F8FFEE78E
:1041900010BD0000780100200CED00E010B5084BC8
:1041A000002200BF53F832401CB1521C082AF9D338
:1041B00010BD43F8321003EBC201486010BD00008F
:1041C0007802002070B515460E460446FFF748FFFA
:1041D00094F944100020491C01D184F8440094F95A
:1041E0004510491C01D184F84500FFF759FFA06B29
:1041F00028B92A46314604F1240000F02BF8204665
:10420000BDE87040FFF76EBD02498A6A02604969E5
:10421000416070470C01002001490120486270474D
:104220000C01002010B50C4650B10949096818313D
:10423000FFF7F2FE2046BDE810400121FFF7E6B986
:10424000502080F31188BFF34F8FBFF36F8FFEE7CD
:104250000C01002070B514460D4668B10A49096882
:104260001831FFF7F1FE0CB14FF0FF35214628461B
:10427000BDE87040FFF7CAB9502080F31188BFF342
:104280004F8FBFF36F8FFEE70C01002030B587B072
:104290000024039405AA04A903A80494FFF798FE38
:1042A000DDE903010094CDE90110002315A11748B1
:1042B000059A00F046FB164D002868631FD000F0F9
:1042C000BDFC012809D0401C19D1502080F3118871
:1042D000BFF34F8FBFF36F8FFEE7502080F311883D
:1042E000BFF34F8FBFF36F8F4FF0FF302863012074
:1042F000E8616C6107B0BDE8304000F045B807B038
:1043000030BD000049444C4500000000A5380008BD
:104310000C0100200248816B491C8163704700003A
:104320000C010020164810B5816B11B101214162CA
:1043300010BD002141628169124A01E0B9B1491EF4
:1043400001EB810352F82330002BF7D001EB8103FE
:1043500002EB830202F1080453685B685360A342D6
:1043600001D15B685360DA680260816110BD502042
:1043700080F31188BFF34F8FBFF36F8FFEE700000C
:104380000C010020B80200201CB5264908780190D5
:10439000FF20087008788DF800009DF800009DF857
:1043A000002000F0F000904207D0502080F31188E8
:1043B000BFF34F8FBFF36F8FFEE79DF800001A4BDE
:1043C00000F0500018700720986005E09DF800206C
:1043D00052008DF80020401E9DF800201206F5D4F2
:1043E0009860032807D0502080F31188BFF34F8FC7
:1043F000BFF36F8FFEE74FF440709860019808702C
:104400000A48016841F470010160016841F070419F
:104410000160FFF787FE00205860FBF715FF0020C2
:104420001CBD000000E400E07801002020ED00E069
:1044300038B5049D18B153B1CAB181B120E0502004
:1044400080F31188BFF34F8FBFF36F8FFEE75020CB
:1044500080F31188BFF34F8FBFF36F8FFEE75020BB
:1044600080F31188BFF34F8FBFF36F8FFEE739B131
:10447000502080F31188BFF34F8FBFF36F8FFEE79B
:1044800050241C46012384F846302B460094FFF745
:1044900039FA204638BD000070B50D46040025D01D
:1044A000FFF7DEFDD4E90F20216802FB00116160F7
:1044B0000021A1632168A1600A46D4E90F01401ED2
:1044C00000FB0121E16021464FF0FF3001F8440F6D
:1044D000487004F110008DB1FFF790FD04F1240045
:1044E000FFF78CFDFFF7DCFD012070BD502080F34D
:1044F0001188BFF34F8FBFF36F8FFEE7216900294B
:10450000F0D000F001FB0028ECD004494FF08050BF
:104510000860BFF34F8FBFF36F8FE3E704ED00E058
:104520002DE9FF4782B01D468A464FF0000804007F
:1045300003D0BAF1000F08D011E0502080F31188A9
:10454000BFF34F8FBFF36F8FFEE7206C38B1502061
:1045500080F31188BFF34F8FBFF36F8FFEE7022DFB
:104560000AD1E06B012807D0502080F31188BFF3F7
:104570004F8FBFF36F8FFEE700F00EFA3F4F4FF003
:1045800000094FF0805648B9049838B1502080F3A4
:104590001188BFF34F8FBFF36F8FFEE7FFF760FD0A
:1045A000A06BE16B884207D3022D05D00498D0B1EF
:1045B000B8F1000F1AD01EE02A4651462046FFF7F8
:1045C000FAF8616A19B104F1240000F09DFA20B1F3
:1045D0003E60BFF34F8FBFF36F8FFFF761FD012088
:1045E00006B0BDE8F087FFF75BFD22E06846FFF705
:1045F0000BFE4FF00108FFF753FDFFF78BFEFFF7AF
:104600002FFD94F94400401C01D184F8449094F9A2
:104610004500401C01D184F84590FFF741FD04A9F5
:10462000684600F027F930B12046FFF75BFB00F049
:10463000A3FA0020D4E7FFF713FDA06BE16B8842DB
:1046400013D1FFF72DFD04F110000499FFF7EAFDE7
:104650002046FFF747FB00F08FFA00289ED13E600E
:10466000BFF34F8FBFF36F8F98E7FFF719FD204619
:10467000FFF738FB00F080FA90E7000004ED00E05F
:104680002DE9F0471F4690468946040003D0B9F152
:10469000000F08D011E0502080F31188BFF34F8F36
:1046A000BFF36F8FFEE7206C38B1502080F3118884
:1046B000BFF34F8FBFF36F8FFEE7022F0AD1E06B7E
:1046C000012807D0502080F31188BFF34F8FBFF32C
:1046D0006F8FFEE7FFF738FD5020EFF3118680F370
:1046E0001188BFF34F8FBFF36F8FA06BE16B8842D0
:1046F00006D3022F04D0002086F31188BDE8F0878E
:1047000094F945503A4649462046FFF754F8681C4C
:1047100004D06D1C84F845500120EDE7606A002844
:10472000FAD004F1240000F0EFF90028F4D0B8F139
:10473000000FF1D00121C8F80010EDE72DE9F7478F
:10474000002683B08A46040003D0BAF1000F08D0D7
:1047500011E0502080F31188BFF34F8FBFF36F8FAC
:10476000FEE7206C38B1502080F31188BFF34F8FE3
:10477000BFF36F8FFEE700F00FF9DFF8F4804FF022
:1047800000094FF0805748B9059838B1502080F3A0
:104790001188BFF34F8FBFF36F8FFEE7FFF760FC09
:1047A000A56BC5B151462046FEF7F2FF6D1EA5630D
:1047B000206950B104F1100000F0A6F928B1C8F842
:1047C0000070BFF34F8FBFF36F8FFFF769FC0120BD
:1047D00006B0BDE8F087059808B11EB106E0FFF706
:1047E0005FFC27E06846FFF70FFD0126FFF758FC46
:1047F000FFF790FDFFF734FC94F94400401C01D111
:1048000084F8449094F94500401C01D184F8459007
:10481000FFF746FC05A9684600F02CF80028204662
:104820000AD0FFF75FFA00F0A7F92046FFF70CF96E
:104830000028B3D00020CBE7FFF706F990B104F1D0
:1048400024000599FFF7EEFC2046FFF74BFA00F035
:1048500093F90028A2D1C8F80070BFF34F8FBFF3BF
:104860006F8F9BE72046FFF73DFA00F085F995E74B
:1048700004ED00E02DE9F0410C46050011D0C4B173
:10488000FFF7EEFB174B5A696E682068911B471CB7
:1048900017D02F689B6A9F4219D0964217D80124DF
:1048A00010E0502080F31188BFF34F8FBFF36F8F5C
:1048B000FEE7502080F31188BFF34F8FBFF36F8F57
:1048C000FEE70024FFF7ECFB2046BDE8F0818842BC
:1048D00005D9401A20602846FFF796FCF1E7002032
:1048E0002060DCE70C0100202DE9FF5F8346DDE955
:1048F0000E87994616468A469000FFF729FA05006A
:104900001CD05C20FFF724FA040014D0002025639B
:1049100084F85900CDE90240CDE900874B46324684
:1049200051465846FEF7FFFF2046FEF79DFE012048
:1049300004B0BDE8F09F2846FFF7C6FB4FF0FF30FC
:10494000F6E7F0B585B0DDE90B640A9DA6B1DCB1F0
:104950005C2700972663022684F85960002604AF7E
:10496000CDE90246CDE90057FEF7DDFF2046FEF710
:104970007BFE049805B0F0BD502080F31188BFF392
:104980004F8FBFF36F8FFEE7502080F31188BFF386
:104990004F8FBFF36F8FFEE70548C16919B1806B78
:1049A00018B10020704701207047022070470000B6
:1049B0000C01002001484069704700000C010020F4
:1049C0002DE9F0412E4C0027A06B40B1206A401C1D
:1049D0002062606A00B101273846BDE8F08166694F
:1049E000761C666113D16068006838B1502080F38E
:1049F0001188BFF34F8FBFF36F8FFEE76068A16828
:104A00006160A060A06A401CA062FFF7EBF8206B19
:104A1000DFF87080864209D36068006880B1606802
:104A2000C068C568686886420DD220632068C06A85
:104A300000EB800158F821000128CAD90127C8E7F6
:104A40004FF0FF30F1E7281DFFF7AEFAA86A18B162
:104A500005F11800FFF7A8FAE86AA169884200D9B1
:104A6000A06100EB800108EB8100291DFFF7ECFA43
:104A7000E86A2168C96A8842CED30127CCE70000E2
:104A80000C010020B802002070B504004FF00001B6
:104A900033D01B4D2868844207D0502080F3118802
:104AA000BFF34F8FBFF36F8FFEE7206D38B1401E0D
:104AB0002065E36CE26A9A421FD040B11DE05020AD
:104AC00080F31188BFF34F8FBFF36F8FFEE7201D78
:104AD000FFF76AFAE06CE062C0F13800A061E06ABA
:104AE000A969884200D9A861064900EB800001EB62
:104AF0008000211DFFF7A8FA0121084670BD0000C3
:104B00000C010020B802002070B5C068C46854B120
:104B100004F118000646FFF747FA144DA86B50B190
:104B20003146134815E0502080F31188BFF34F8FB2
:104B3000BFF36F8FFEE7201DFFF736FAE06AA96921
:104B4000884200D9A8610B4900EB800001EB80008E
:104B5000211DFFF779FAE06A2968C96A884202D9FB
:104B60000120686270BD002070BD00000C010020B3
:104B700040070020B80200202DE9F0472C4D00240A
:104B80002746A86B38B1FFF76BFAA86B401EA863E5
:104B9000A86B40B146E0502080F31188BFF34F8FDF
:104BA000BFF36F8FFEE72969224E0120D1B3A6F52E
:104BB000916980463068E0B1F068C46804F118007B
:104BC000FFF7F2F9201DFFF7EFF9E06AA9698842C3
:104BD00000D9A86100EB800109EB8100211DFFF7DE
:104BE00033FAE06A2968C96A8842E3D3C5F82480A9
:104BF000E0E70CB1FEF7F6FF2C6A4CB14FEA08066D
:104C0000FFF7DEFE00B16E62641EF9D1002028625B
:104C1000686A38B10849012738070860BFF34F8F29
:104C2000BFF36F8FFFF73CFA3846BDE8F08700000E
:104C30000C0100204007002004ED00E010B586B014
:104C4000FEF77AFD114CA068B8B1002003900490E3
:104C500005AA04A903A8FFF7C5F9DDE9032102208D
:104C60008DE8070000230AA10B48059AFFF769FEAB
:104C7000E06010B106B0012010BD502080F3118813
:104C8000BFF34F8FBFF36F8FFEE700004801002096
:104C9000546D722053766300C13C00082DE9FF413A
:104CA0001E46134602000A9D4FF0000016D0144C19
:104CB000A768002F0FD0CDE900130292062917DA5A
:104CC000FFF76AFE02284FF000030FD0002269466A
:104CD000A068FFF725FC04B0BDE8F081502080F308
:104CE0001188BFF34F8FBFF36F8FFEE72A46EEE7C1
:104CF0000023324669463846FFF7C2FCEBE7000066
:104D00004801002010B500290AD00878002807D0F3
:104D100005487844FBF7B4FF002801D0002010BDFF
:104D20000248784410BD0000462400003E240000E4
:104D30000808A0F500114FEA3101704743004FEA1F
:104D4000D30C4FEA3C0C43401FBF40070CF16051AD
:104D500013F0FE4F70471CF0006F03D100200CF0E1
:104D6000004170470CF0004343EA507010B540EA30
:104D7000CC0000F0C8F900BF000000924FEA00012B
:104D8000FFF7D6BF4FF000414FF00000A1F5002122
:104D90007047000090EA010F48BF81F0004100F128
:104DA0000482421A3CBF801A89184FEAD0524FF051
:104DB0007F4C1CEA410FA2EBD15318BF9CEA026F53
:104DC00000F03B804FF0004C4CEA00204CEA0121FF
:104DD00021FA03FC10EB0C0C1ED202F1FF325FEA49
:104DE0001C2040EBC25038BF70471CF07F0F4FEAC9
:104DF000400C18BFBCF17F4F38BF7047C3F1200390
:104E0000994008BF20F00100BCF17F4F38BF7047C8
:104E1000A0F1C04000F0BDB94FEA3C00000A40EBF1
:104E2000C25028BF1CF0FF0F4FEA400CE6D018BF5D
:104E3000BCF17F4F38BF7047EAE79CEA026F05D0AC
:104E400010EA5C0F08BF00F00040704710B500F09A
:104E50005AF900BF64FBBE3E4FF47F0C1CEAD0122F
:104E60001EBF1CEAD11392EA0C0F93EA0C0F00F05C
:104E7000858090EA010F48BF42F4807240F4000C34
:104E800041F400002CF07F4120F07F4000B58142CA
:104E9000A2EB03020FF2081CACEB504EC0F1000075
:104EA0009EF800E04FEA4E0E00FB0EFC38BF4900B2
:104EB0004FEA2C1C02F5FA020CFB0EF34FEACE1E51
:104EC0004FEA112C4FEAC1210EEB635E42EB224206
:104ED0000EFB0CFC4FEA1C5300FB03114FEA112C94
:104EE0004FEA01310EFB0CFC4FEADC4C00FB0C11CD
:104EF000C14228BF09184CEB03335DF804EB10EBFB
:104F0000410143EBC250B2F57C0F38BF704729D541
:104F100012F0F00F1CBF00F1C04000F000407047DD
:104F2000008182838485868788898B8C8D8E8F9182
:104F30009293959697999A9C9D9FA0A2A3A5A7A8A6
:104F4000AAACAEB0B2B3B5B7B9BCBEC0C2C5C7C9D2
:104F5000CCCED1D4D7D9DCDFE2E6E9ECF0F3F7FA36
:104F6000FE0000004FEA400C0CF1807CBCF17E4F4B
:104F700028BF7047B0F1C04000F00BB990EA010FB4
:104F80000CEAD11348BF42F48072624538BF6345D2
:104F900007D213F47F0F16D080EA010000F0004022
:104FA000704710B500F0AFF8097EFC3E00F005B880
:104FB00080EA010000F00040704780EA010000F044
:104FC000004000F0E6B812F47F0F04BF02487047BB
:104FD00080EA010000F0DDB80000C07FB0FA80F385
:104FE00010FA03F2C3F19D030AD0D90501EB122098
:104FF000530638BF704700F1010008BF20F00100E0
:10500000704700004FF47F0C1CEAD0121EBF1CEA50
:10501000D11392EA0C0F93EA0C0F00F0478090EA4C
:10502000010F48BF42F480724FF0004C4CEA002060
:105030004CEA012102EB0302A0FB0113A2F50002DE
:10504000002918BF43F001035B0028BF4FEA330378
:1050500042EB22425FEA132C4CEBC2502EBFBCEB5A
:10506000436FB2F57C0F70474FEA036CBCF1004F01
:1050700008BF20F00100B2F57C0F38BF70470BD598
:1050800082F0FF0212F5803FC8BF704700F1C040B8
:10509000D8BF00F00040704700F5000C5FEA4C0CF0
:1050A00048BF7047B0F1C04000F073B890EA010FFC
:1050B0000CEAD11348BF42F48072624538BF6345A1
:1050C00004D280EA010000F00040704710B500F003
:1050D0001AF800BF8900013E00F007B800F009B8D7
:1050E0005FEA410C5FEA1C6C08D080EA010000F026
:1050F00050B85FEA400C5FEA1C6CF6D14FF00040FC
:10510000A0F5800070470EF1020E2EF0030E5EF83F
:10511000044B244204D44FEA4102B2F17F4F11D82C
:105120004FEA4003B3F17F4F0CD80ED14FEAD07C49
:10513000B2F17F4F0CEB4C0C0CF1020C08BF4CEBA6
:10514000D17C04E04FF0080C01E04FEAD17C0CEB7D
:105150004C0324FA03F404F00704B4F1040C06D25F
:105160000EEB840CBDE810404CF0010C6047DFE80A
:105170000CF0070802024FF00040A0F5800010BDBF
:105180000846420018BFD2F1807288BF00F000408C
:1051900010BDFF2141EAD050C005704790EA010FD1
:1051A00048BF81F000413FF5FCAD421A04D882F0BF
:1051B0000042A0EB020011444FEAD0524FF07F4C66
:1051C0001CEA410FA2EBD15318BF9CEA026F4AD0F0
:1051D0004FF0004C4CEA00204CEA012121FA03FC7C
:1051E000B0EB0C0C0FD412F0FE0F36D05FEA4C007F
:1051F0001DD5001240EBC25038BF70471CF03F0F66
:1052000018BF70470BE0A2F101025FEA1C2040EBDF
:10521000C25038BF70471CF07F0F18BF7047C3F1F2
:105220002003994014BF401E20F001007047800801
:105230004FEA122308BF7047B0FA80FCA2EB0C02C1
:10524000CCF1280C60FA0CF093EA122F04BF00EBAB
:10525000C25070474FEAC3707047130A5FEADC1010
:1052600008BF7047F6E79CEA026F04D010EA5C0FB3
:1052700008BF0020704710B5FFF745FF40DFF63E3E
:1052800081F000407047FBF724BA00002C71000841
:10529000000000000000000000000000000000000E
:1052A00000020000180000000000000000000000E4
:1052B000B4000020CC000020E4000020000000002A
:1052C00000000000002F000000000700070000148D
:1052D0007F147F1400242A7F2A120062640813239B
:1052E00000364955225000000503000000001C2232
:1052F0004100000041221C000014083E0814000870
:10530000083E0808000000A060000008080808081F
:10531000000060600000002010080402003E5149B7
:10532000453E0000427F4000004261514946002155
:1053300041454B31001814127F100027454545396F
:10534000003C4A49493000017109050300364949CA
:10535000493600064949291E000036360000000083
:1053600056360000000814224100001414141414CE
:105370000000412214080002015109060032495977
:10538000513E007C1211127C007F49494936003E93
:1053900041414122007F4141221C007F494949414E
:1053A000007F09090901003E4149497A007F080848
:1053B000087F0000417F4100002040413F01007F05
:1053C00008142241007F40404040007F020C027FD1
:1053D000007F0408107F003E4141413E007F0909E3
:1053E0000906003E4151215E007F09192946004609
:1053F000494949310001017F0101003F4040403FE0
:10540000001F2040201F003F4038403F0063140829
:105410001463000708700807006151494543000004
:105420007F41410000552A552A55000041417F0027
:10543000000402010204004040404040000001021C
:105440000400002054545478007F48444438003805
:105450004444442000384444487F0038545454188D
:1054600000087E0901020018A4A4A47C007F08049F
:1054700004780000447D4000004080847D00007F6F
:10548000102844000000417F4000007C041804788C
:10549000007C0804047800384444443800FC242488
:1054A00024180018242418FC007C08040408004870
:1054B0005454542000043F444020003C4040207C91
:1054C000001C2040201C003C4030403C0044281080
:1054D0002844001CA0A0A07C004464544C44141434
:1054E000141414140000000000000000000000006C
:1054F0000000FC000000000002000000000C020C94
:10550000020000000000000090D0BCD0BC9000035E
:10551000000300001824FE448C000302070201006F
:105520001824D8B04C80000300010201C038E438D0
:10553000E000010202010202080600000000000073
:1055400000000000000000F8040200000001020456
:10555000000204F800000004020100009060F860FE
:1055600090000000010000002020FC20200000002E
:10557000010000000000000000000806000000001C
:10558000202020202000000000000000000000007B
:1055900000000002000000000080601C0200040304
:1055A00000000000F8040404F800010202020100F7
:1055B0000008FC00000000020302000018844424DC
:1055C000180003020202020008042424D800010289
:1055D0000202010040B088FC8000000000030200CD
:1055E0003C242424C400010202020100F824242CDB
:1055F000C0000102020201000C04E41C04000000CF
:1056000003000000D8242424D80001020202010073
:1056100038444444F8000003020201000000100076
:105620000000000002000000000020000000000058
:105630000600000000205088040200000000010263
:1056400090909090900000000000000000020488FC
:1056500050200002010000001804C42418000000BB
:1056600002000000F804E494F800010202020200C3
:1056700000E09CF0800002030000030204FC2424EC
:10568000D800020302020100F80404040C00010225
:105690000202010004FC0404F800020302020100FB
:1056A00004FC24740C0002030202030004FC2474B2
:1056B0000C00020302000000F0080444CC4000018A
:1056C0000202010004FC2020FC040203000003028B
:1056D0000404FC040400020203020200000404FCAF
:1056E000040406040403000004FC24D00C04020398
:1056F0000200030204FC0400000002030202020391
:10570000FC3CC03CFC0003000300030004FC30C46C
:10571000FC04020302000300F8040404F800010280
:105720000202010004FC242418000203020000000D
:10573000F8848404F80001020207050004FC2464D4
:105740009800020302000302182424448C00030280
:10575000020201000C04FC040C0000020302000021
:1057600004FC0000FC04000102020100047C80E053
:105770001C040000030000001CE03CE01C000003CF
:1057800000030000049C609C04000203000302006C
:10579000041CE01C04000002030200000C84641CD2
:1057A00004000203020203000000FE0202000000E7
:1057B00007040400000E30C00000000000010200D9
:1057C000000202FE000000040407000000040204BE
:1057D00000000000000000000000000000000808B9
:1057E0000808080800000200000000000000000097
:1057F0000040A0A0C00000010202030204FC20201F
:10580000C00000030202010000C02020600000016F
:105810000202020000C02024FC0000010202030278
:1058200000C0A0A0C0000001020202000020F82475
:1058300024040002030202000040A0A06020000730
:105840000A0A0A0404FC2020C0000203020003022A
:105850000020E4000000000203020000000020E439
:10586000000008080807000004FC80E02020020374
:10587000020003020404FC00000002020302020012
:10588000E020E020C00003000300030020E020200F
:10589000C00002030200030200C02020C00000017B
:1058A0000202010020E02020C000080F0A020100CF
:1058B00000C02020E0000001020A0F0820E0402084
:1058C00020000203020000000060A0A020000002EF
:1058D000020203000020F820000000000102020084
:1058E00020E00020E00000010202030220E020800E
:1058F00060200000030100006080E0806000000381
:10590000000300002060806020000203000302000A
:1059100020E0208060200808070100000020A0602F
:105920002000000203020200000020DE020000004E
:1059300000070400000000FF00000000000F00004E
:105940000002DE2000000004070000000201020443
:105950000402000000000000000000000000000041
:105960000000000000000000000000F8000000003F
:10597000000000333000000000100C06100C060080
:10598000000000000000000040C07840C0784000E7
:10599000043F04043F040400007088FC0830000049
:1059A000001820FF211E0000F008F000E0180000A1
:1059B00000211C031E211E0000F00888700000005A
:1059C0001E2123241927211010160E0000000000AC
:1059D0000000000000000000000000E018040200C9
:1059E000000000071820400000020418E00000003A
:1059F0000040201807000000404080F08040400038
:105A00000202010F01020200000000F0000000008D
:105A10000101011F01010100000000000000000061
:105A200080B07000000000000000000000000000D6
:105A3000000101010101010100000000000000005F
:105A400000303000000000000000000080601804FA
:105A5000006018060100000000E010080810E000D7
:105A6000000F102020100F00001010F800000000A0
:105A70000020203F202000000070080808887000E7
:105A80000030282422213000003008888848300067
:105A90000018202020110E000000C02010F8000087
:105AA00000070424243F240000F808888808080020
:105AB0000019212020110E0000E010888818000035
:105AC000000F112020110E0000380808C838080007
:105AD0000000003F00000000007088080888700087
