:020000040800F2
:1000000080220020BD02000813330008C92C00081C
:10001000113300089F1400081B370008000000007F
:1000200000000000000000000000000025020008A1
:10003000D11400080000000069020008ED33000838
:10004000D7020008D7020008D7020008D70200082C
:10005000D7020008D7020008D7020008D70200081C
:10006000D7020008D7020008D7020008D70200080C
:10007000D7020008D7020008D7020008D7020008FC
:10008000D7020008D7020008D7020008D7020008EC
:10009000D7020008D7020008D7020008D7020008DC
:1000A000D7020008D7020008D7020008D7020008CC
:1000B00079340008D7020008D7020008D7020008E8
:1000C000D7020008D7020008D7020008D7020008AC
:1000D000D7020008D7020008D7020008D70200089C
:1000E000D7020008D7020008D7020008D70200088C
:1000F000D7020008D7020008D7020008D70200087C
:10010000D7020008D7020008D7020008D70200086B
:10011000D7020008D7020008D7020008D70200085B
:10012000D7020008D7020008D7020008D70200084B
:1001300000F002F800F067F80AA090E8000C824492
:100140008344AAF10107DA4501D100F05CF8AFF26F
:10015000090EBAE80F0013F0010F18BFFB1A43F0A5
:100160000103184708800000288000000A444FF06F
:10017000000C10F8013B13F0070408BF10F8014B06
:100180001D1108BF10F8015B641E05D010F8016B4B
:10019000641E01F8016BF9D113F0080F1EBF10F8AF
:1001A000014BAD1C0C1B09D16D1E58BF01F801CBD2
:1001B000FAD505E014F8016B01F8016B6D1EF9D555
:1001C0009142D6D37047000000230024002500266A
:1001D000103A28BF78C1FBD8520728BF30C148BFAA
:1001E0000B607047662906F02280002070471FB51B
:1001F00000F018FC04000020002105F057FDE0602D
:100200001FBD10B510BD00F00DFD1146FFF7EFFF4B
:1002100003F0F2FB00F02BFD03B4FFF7F2FF03BC89
:1002200000F06EFD224B19680868B0E8F00F80F30B
:100230000988BFF36F8F4FF0000080F311884EF0F4
:100240000D0E70470000000006480068006880F34B
:10025000088862B661B6BFF34F8FBFF36F8F00DFC0
:1002600000BF00BF08ED00E0EFF30980BFF36F8F20
:100270000F4B1A6820E9F00F106008B54FF05000DE
:1002800080F31188BFF34F8FBFF36F8F04F08AFEA6
:100290004FF0000080F31188BDE808401968086835
:1002A000B0E8F00F80F30988BFF36F8F704700BF8D
:1002B00094010020EFF30580704700000948804753
:1002C00009480047FEE7FEE7FEE7FEE7FEE7FEE738
:1002D000FEE7FEE7FEE7FEE704480549054A064B50
:1002E000704700007734000831010008801C0020AE
:1002F00080220020801E0020801E00200FB41CB52C
:10030000074B06AA7B4469460090059800F01DFB48
:100310000020694600F02CFB1CBC5DF814FB0000BB
:10032000690600002DE9F0474FF0000A89460446AF
:10033000C0F820A02046E1688847002876D025280C
:1003400006D0D4E901219047206A401C2062F1E7E1
:10035000E168204600258847C4F81CA0064600270F
:10036000C4F818A02A2E09D0304603F0FBF938B3A0
:1003700004EB8708303EC8F8186019E059F8041BF0
:10038000204604EB87029161E1688847012F064609
:1003900018D1E069002820DA25F020051DE0D8F802
:1003A000180000EB800006EB40003038C8F8180059
:1003B0002046E1688847064603F0D4F90028EED1CC
:1003C000012F0AD02E2E08D12046E16888477F1CD5
:1003D0000646022F45F02005C4DBA069002803DA99
:1003E000404245F00105A061E80701D025F0100565
:1003F000B6B1A6F14100192802D8203645F40065AF
:100400004A463146204625604D46FFF7EBFE58B17F
:10041000012806D0ED1D25F0070000F1080989E745
:1004200004E005F1040985E730468AE7206ABDE863
:10043000F087032A40F2308010F0030C00F01580A2
:1004400011F8013BBCF1020F624498BF11F801CBD7
:1004500000F8013B38BF11F8013BA2F1040298BF3C
:1004600000F801CB38BF00F8013B11F0030300F0A6
:100470008482083AC0F0088051F8043B083A51F8E9
:1004800004CBA0E80810F5E7121D5CBF51F8043B4F
:1004900040F8043BAFF30080D20724BF11F8013BC2
:1004A00011F801CB48BF11F8012B24BF00F8013B24
:1004B00000F801CB48BF00F8012B704702F0FF03A2
:1004C00043EA032242EA024200F08BBA4FF00002F4
:1004D00000B5134694469646203922BFA0E80C503A
:1004E000A0E80C50B1F12001BFF4F7AF090728BF15
:1004F000A0E80C5048BF0CC05DF804EB890028BF91
:1005000040F8042B08BF704748BF20F8022B11F0B9
:10051000804F18BF00F8012B704770477047704735
:1005200070472DE9FF4F0C461E464FF0FF378BB04A
:10053000D2E90001DDF860800A908A46C1F30A55CD
:1005400005B93D46002108464FF00000BAF1000F02
:1005500000F4400005DA00EB80004FF4400101EAAE
:1005600050004FEA9059B9F1010F00DDB9460A98E1
:1005700050EA4A000ED044F61050A5F2FF3545432C
:100580002F14B8F1000F1ED07542291E1EDDC9F1CF
:1005900000021CE0B8F1010F4FF0000001D0302143
:1005A00003E0F24305E02154401CB042FBDB30463F
:1005B0000022002121540B99C1F80880C1E90020D4
:1005C0000FB0BDE8F08FBD1B6D1CDEE74A4600DAB8
:1005D000694206A800F0B0FA06AB93E8070003AB47
:1005E00083E8070050460A9900F091FB8DE8070068
:1005F000A0F500501F3800900398002D0ADD42F24C
:100600001F014A460844002303A90390684600F0EE
:10061000FAFD09E0A0F500504A461F38002303A95F
:100620000390684600F004FE8DE807000004000C0B
:1006300003D04FF0FF30410800E01046B8F1000F42
:1006400003D00022009215461EE0751E05D400F06E
:10065000EDF9303262556D1EF9D5B34601220843DB
:1006600002D000227F1C04E02078302801D1002233
:100670007F1E002A099784D01DE0112D07DA00F0B3
:10068000D5F9303262556D1C50EA0102F5D10843AC
:1006900002D00098C8B10EE00021681E05E0235C7E
:1006A000625C63542254401E491C8142F7DBAB4616
:1006B000A81B401E0990002004F80B000B98099A13
:1006C000C0F80880C0E9002B7AE711264FF0000837
:1006D00057E72DE9F04F88460446D21D22F0070166
:1006E00091B0D1E90001CDE90A0103F017F8024603
:1006F0000B98C00F01D02D2007E02068810701D59D
:100700002B2002E0202101EAC000032A099001D039
:10071000072A05DB03464146204600F0CDF90BE1F0
:100720002078800601D5E06900E00620B8F1650F69
:10073000814606D0B8F1660F18D0B8F1670F70D1B6
:1007400031E00020B9F1110F009001DB112301E02D
:1007500009F101030AAA01A90CA8FFF7E2FEDDE9ED
:100760000C70002609F10105834647E001204B4645
:1007700000904FF000470AAA01A90CA8FFF7D1FE8C
:10078000DDE90DB00C995D46002610B909F10100B4
:100790000D18B9EB050003D4C0F1FF3609F10105CE
:1007A000A5EB09002BE0B9F1010F01DA4FF00109C7
:1007B0000020B9F1110F0090484601DD112300E03F
:1007C00003460AAA01A90CA8FFF7ABFEDDE90C70ED
:1007D0004D4600268346207800070AD4AB4500DA50
:1007E0005D4601A8012D04DD411911F8011C3029D5
:1007F00007D04F4502DA17F1040F04DA01208246D0
:100800000FE06D1EEEE7002F02DCED1B3E4403E01F
:10081000781CA84200DD7D1CB81B00F1010A4FF0D6
:1008200000472078000703D4AA4501DB4FF0FF3AC8
:100830000021B7F1004F0DF143088DF8431024D08B
:1008400002202B23002F01DA7F422D230A21021ED2
:10085000A0F1010000DC5FB197FBF1FC97FBF1F226
:1008600001FB1C7C17460CF1300C08F801CDEEE7BB
:10087000A8F1010003702188090501D5452100E098
:100880006521A0F1010800F8011C09980FA9A1EB4E
:100890000807FF1D00B10120411901EBEA70A169B1
:1008A0003844081A401EA0612078C00602D42046B1
:1008B000AFF30080099828B1D4E901219047206A5C
:1008C000401C20622078C00622D52046AFF300806D
:1008D0001EE0002E04DBB34502DD01A8805D00E0D0
:1008E0003020D4E901219047206A401C2062761C08
:1008F000AAF101005FEA000A0AD100F093F8C0688B
:100900000168405CD4E901219047206A401C2062C4
:10091000281EA5F10105DCDC07E0D4E9012118F867
:10092000010B9047206A401C2062381EA7F1010786
:10093000F3DC2046AFF30080032011B041E6000055
:1009400001694A1C02610878704700B58FB0CDE993
:1009500001310021059105497944CDE90310114683
:100960006846FFF7DFFC0FB000BD0000E5FFFFFFAA
:100970000A6802F8010B0A60704710B5203AC0F00F
:100980000B80B1E81850203AA0E81850B1E8185090
:10099000A0E81850BFF4F5AF5FEA027C24BFB1E8CD
:1009A0001850A0E8185044BF18C918C0BDE810403E
:1009B0005FEA827C24BF51F8043B40F8043B08BF47
:1009C0007047D20728BF31F8023B48BF11F8012B0E
:1009D00028BF20F8023B48BF00F8012B70474FF0BA
:1009E00000020429C0F0128010F0030C3FF470AD37
:1009F000CCF1040CBCF1020F18BF00F8012BA8BF0A
:100A000020F8022BA1EB0C01FFF762BD5FEAC17C6D
:100A100024BF00F8012B00F8012B48BF00F8012B80
:100A200070470000004870473C1C002030B5B0F112
:100A30000A024FEA900E71F100034EEA817EB0EB9C
:100A40000E0061EB91014FEA101E4EEA017E10EBA1
:100A50000E0041EB11114FEA102E4EEA016E10EB21
:100A60000E0041EB11214FEA104E4EEA014E10EB01
:100A70000E0041EB1141401841F100014FEAD00056
:100A800040EA41704FEAD10110EB80054FEA810442
:100A900044EA907444EB01046D1944EB0404521BC6
:100AA000A3414FF0000348BF0A3200D530BD401CBF
:100AB00041F1000130BD00002DE9F0411F46044620
:100AC00003260168072A01F4006004DB08B116A5BB
:100AD00005E016A503E008B115A500E015A521F075
:100AE00010002060A069C01EA0610FB1401EA0616F
:100AF0002046AFF300804FB1D4E90121384690473A
:100B0000206A401C2062C01C206206E0206AFAE7CE
:100B1000D4E9012115F8010B9047761EF8D2204642
:100B2000AFF30080BDE8F0814E414E006E616E0073
:100B3000494E4600696E66002DE9F047814616462B
:100B40008AB0354878440DC88DE80D0032487844A5
:100B5000801C03AC0DC884E80D0041F69B300844AE
:100B6000372190FBF1F290FBF1F5A5F1800501FB37
:100B700012041B3C02D56442012000E00020DFF893
:100B800098A080460027FA44AAF1BE0A0EE0E007CA
:100B90000AD03246684607EB470101230AEB810180
:100BA00000F046FB8DE8070064107F1C002CEED19E
:100BB000194F7F44AE3F19E0E80715D007EB04104A
:100BC0000DF1180A90E80E008AE80E00C068F042A5
:100BD00001D1981908903246012306A903A800F014
:100BE00027FB03AB83E807006D10641C002DE3D1E5
:100BF0004FF0010332466946B8F1000F03A802D056
:100C000000F001FB01E000F013FBC9E90001C9F8A5
:100C100008200AB0BDE8F087E07500000048704782
:100C20001C1C00207546FFF7F9FFAE46050069461B
:100C3000534620F00700854618B020B5FFF74CFB5F
:100C4000BDE820404FF000064FF000074FF00008CD
:100C50004FF0000B21F00701AC46ACE8C009ACE84E
:100C6000C009ACE8C009ACE8C0098D46704710B5B2
:100C70000446AFF300802046BDE81040FFF7CCBA31
:100C80004FF0013C50F8042B51F8043B9A4221D11B
:100C9000A2EB0C03934313EACC1317D150F8042BA7
:100CA00051F8043B9A4215D1A2EB0C03934313EA8B
:100CB000CC130BD150F8042B51F8043B9A4209D1C4
:100CC000A2EB0C03934313EACC13DBD04FF00000EC
:100CD000704700BFD01A01BAB1FA81F101F01801D2
:100CE00022FA01F0CB40C1F12001DBB2C0B2C01A40
:100CF0002CFA01F3D11A914311EAC311E6D17047DE
:100D000001491820ABBEFEE72600020070475FEAEB
:100D1000400C08BF91F0000F4FEA8C234FEAC1222C
:100D200043EA51514FEA1C5018BF00F5F0404FEA1A
:100D3000300018BF41F000415FEA6C5C00F0298090
:100D4000BCF1FF3F08BF40F080407047130C06BF66
:100D500012044FF0100C4FF0000C130E04BF1202DF
:100D60000CF1080C130F04BF12010CF1040C930FCB
:100D700004BF92000CF1020CD30F04BF52000CF11F
:100D8000010C11464FF00002A0F11F00A0EB0C0077
:100D9000704711F0004F08BF704731F000413FF439
:100DA000D5AF0B0C06BF09044FF0100C4FF0000C30
:100DB0000B0E04BF09020CF1080C0B0F04BF090154
:100DC0000CF1040C8B0F04BF89000CF1020CCB0F4B
:100DD00004BF49000CF1010CCCF12003A0EB0C0086
:100DE00022FA03F302FA0CF241EA030100F10100D6
:100DF000704720F07F4C80EA030023F07F47ACEB84
:100E0000070303F57C5300F0004003F1FF032DE9D5
:100E100080494FEA154B09B44FEA144325EA0B4EBB
:100E200024EA03480FF2042606EB132749083E780C
:100E30005FEA320203FB0667C7F5000707FB06F609
:100E40004FEA54374FEAD64606F1020607FB066C16
:100E5000CCF1005C4FEA1C472CEA074C07FB06F478
:100E60000CFB06F504EB15464FEA961634BF00203E
:100E70004FF000404FEAD13706FB07FC4FEA1C4C0D
:100E80000CFB0BF7D21B03FB0CF761EB07010CFB10
:100E90000EF7B0EB074072EB17420CFB08F734BFBC
:100EA000A2EB0742B2EB074261EB17414FEA0C4459
:100EB0004FEA910706FB07FC4FEA1C4C0CFB0BF7B3
:100EC000B0EBC74072EB573203FB0CF734BFA2EB19
:100ED000C742B2EBC74261EB57310CFB0EF7B0EBE8
:100EE000C70072EB57720CFB08F734BFA2EBC702C6
:100EF000B2EBC70261EB5771039F4FEA816141EA90
:100F0000921104EBCC044FEAD1374FEA826206FB20
:100F100007FC42EA90124FEA80604FEA1C4C0CFB3F
:100F20000BF7D21B03FB0CF761EB07010CFB0EF771
:100F3000B0EB074072EB17420CFB08F734BFA2EB93
:100F40000742B2EB074261EB17414FEA8C554FEA7B
:100F5000910704EB9C2406FB07FC4FEA1C4C0CFB9E
:100F60000BF7B0EBC74072EB573203FB0CF734BF03
:100F7000A2EBC742B2EBC74261EB57310CFB0EF755
:100F8000B0EBC70072EB57720CFB08F734BFA2EB53
:100F9000C702B2EBC70261EB577115EB4C254FEA64
:100FA000816141EA92114FEA82624FEAD13742EA07
:100FB000901206FB07FC44F100044FEA80604FEA00
:100FC0001C4C0CFB0BF7D21B03FB0CF761EB07016E
:100FD0000CFB0EF7B0EB074072EB17420CFB08F767
:100FE00034BFA2EB0742B2EB074261EB174115EBAE
:100FF0001C154FEA813141EA92414FEA823242EABE
:1010000090424FEA80304FEA0C7644F1000448EAFF
:1010100003434EEA0B484FF0000EB2EB080C71EBA5
:10102000030724BF624639464EEB0E0E4FF0000B0D
:101030000018524149414BEB0B0BB2EB080C71EB22
:1010400003077BF1000B24BF624639464EEB0E0EC0
:101050004FF0000B0018524149414BEB0B0BB2EB28
:10106000080C71EB03077BF1000B24BF6246394685
:101070004EEB0E0E51EA020718BF46F0010616EBC2
:101080000E7655F1000254F1000103D5BDE8890147
:10109000BDE80088BDE88901BDE80048B6195241A5
:1010A00041EB0101A3F10103704780807F7E7D7CCD
:1010B0007B7A7978777676757473727171706F6EEA
:1010C0006E6D6C6C6B6A6A69686867666665646495
:1010D000636362616160605F5F5E5E5D5D5C5C5B1F
:1010E0005B5A5A595958585757565655555554548E
:1010F000535352525251515050504F4F4F4E4E4DEC
:101100004D4D4C4C4C4B4B4B4A4A4A494949484837
:101110004847474747464646454545444444444377
:1011200043434342424242414141002B9C4630D41A
:1011300077002BD01CB54FEA370703B44FF01000EF
:101140004FF01001BAF1000F06D0BCF1000FDCBF68
:1011500040F0080040F008014FF000000FBCBDE86F
:1011600010400BF1010BBBF1010F08BF5FEA17073D
:1011700022BF12F1010211F101014FF0004143F1D0
:10118000000300F0004043EA00007047F9D357081D
:10119000D0E746EA064613F1400F4FEA16461FDD38
:1011A00013F1200FDFBF16430A46002120335B42B4
:1011B000BED0C3F1200746EA064602FA07F74FEA17
:1011C000164646EA0706C3F1200722FA03F201FA9F
:1011D00007F721FA03F14FF0000342EA0702A7E7FD
:1011E00046EA020646EA06464FEA164646EA01067F
:1011F000BCBF46EA0646360C4FF000034FF0000233
:101200004FF0000194E72DE9804C9A46934670B464
:1012100091E8380007C831EA400C48BF34EA430C73
:1012200003D5FFF7E6FDFFF780FFF0BCBDE8008CBB
:101230002DE9804C9A46934670B491E8380007C86F
:1012400010F0804F08BF13F0804F03D100F005F875
:10125000FFF76BFFF0BCBDE8008C20F07F4780EA11
:10126000030023F07F4C07EB0C03A3F57C5300F045
:101270000040A3F1FE0392F0000F00F0B38095F060
:10128000000F00F077802DE901494FEA11404FEA45
:10129000144621EA004800FB06FC24EA064708FB46
:1012A00006F607FB08F800FB07F718EB06484CEBBF
:1012B000164C4FEA124B18EB07484FEA15464CEB19
:1012C000174022EA0B4E0BFB06FC25EA06470EFBF5
:1012D00006F607FB0EFE0BFB07F71EEB064E4CEB6C
:1012E000164C4FF000061EEB074E4CEB174B18EB5D
:1012F0000B0840F1000018EB0E0B58EB000840F112
:1013000000008F1A4FF000013CBFC943661B14BF99
:10131000B5EB040C00213CBFC943F61B4FEA174450
:101320004EEA8E0E27EA04454FEA1C4704FB07628B
:101330002CEA074C05FB07F70CFB05F604FB0CFC3D
:1013400016EB074642EB174216EB0C4642EB1C42EB
:101350001BEB060658EB0202414146EA9E0601D508
:10136000BDE80189B619524141EB0101A3F1010326
:10137000BDE801894FEA14454FEA114724EA0546C2
:1013800021EA074C05FB07F406FB07F70CFB06F107
:1013900005FB0CFC11EB074144EB17444FEA1247E5
:1013A00011EB0C4144EB1C4422EA074C05FB07F20D
:1013B00006FB07F70CFB06F605FB0CFC16EB0746D5
:1013C00042EB174216EB0C4642EB1C456A1854F1EF
:1013D000000148BF7047B619524141EB0101A3F12A
:1013E0000103704795F0000F37D04FEA11424FEAE2
:1013F000144721EA024624EA074C02FB07F106FBE8
:1014000007F70CFB06F402FB0CFC14EB074441EB62
:1014100017414FEA154714EB0C4441EB1C4125EAF8
:10142000074C02FB07F506FB07F70CFB06F602FB71
:101430000CFC16EB074645EB174516EB0C4645EB47
:101440001C42121951F1000148BF7047B6195241B0
:1014500041EB0101A3F1010370474FEA14454FEA44
:10146000114724EA054621EA074C05FB07F106FB74
:1014700007F70CFB06F24FF0000605FB0CFC12EB25
:10148000074241EB174112EB0C4251EB1C4148BFA4
:101490007047921841EB0101A3F101037047FEE789
:1014A00030B50346002208463124995C48400021AB
:1014B000050602D584EA400000E04000491CC9B29C
:1014C000C0B20829F4D3521CD2B2022AEDD330BDE7
:1014D000704772B6FEE7000010B586B0002100919B
:1014E000019102914B1E0391F0B3264C02682649EC
:1014F000A24207D18A6942F004028A61896901F037
:1015000004012AE0214CA24207D18A6942F0080274
:101510008A61896901F008011FE01D4CA24207D1D0
:101520008A6942F010028A61896901F0100114E0B1
:10153000184CA24207D18A6942F020028A61896967
:1015400001F0200109E0144CA24218D18A6942F04E
:1015500040028A61896901F040010491818800910B
:1015600081680191C16800E009E00291016903917D
:101570000068694600F086F8002006B010BD1846E5
:10158000FBE700000008014000100240000C014091
:1015900000100140001401400018014010B5040083
:1015A0004FF0FF3008D0A168012905D0A18820683C
:1015B00000F064F92075002010BD10B530B18188AD
:1015C0000068012200F05FF9002010BD4FF0FF30ED
:1015D00010BD10B530B181880068002200F053F9C9
:1015E000002010BD4FF0FF3010BD00002DE9F0418C
:1015F0000E4615460446FF21FFF752FFA1788842A8
:1016000006D1FF21E01CFFF74BFF6179884202D031
:101610000120BDE8F081208840BA04F0B3FC0C4FF3
:10162000394604F0EDFB0B4904F0C0FC0A4904F014
:1016300085FB3060B4F8030040BA04F0A3FC3946DF
:1016400004F0DEFB054904F0B1FC28600020E0E76F
:1016500000FF7F4700002F43000034C20000C84253
:1016600070B5044600F014F90546601C02D0044829
:101670000078044400F00CF9401BA042FAD370BD7E
:10168000840100202DE9F84FDFF8C8910024A9F16A
:10169000040B23460F2709F1040AABF1040ED1E035
:1016A0000125A54006EA0502AA4276D1DFF8A8C1C5
:1016B0004E68A6EB0C0866452BD00DDC032E34D00B
:1016C00005DC36B3012E19D0022E2FD11BE0112ECE
:1016D00016D0122E2AD119E0B8F5881F19D006DCD1
:1016E000B8F5803F15D0B8F5801F1FD111E0B8F5CF
:1016F000001F0ED0B8F5041F18D10AE0CB6815E022
:10170000CB681B1D12E0CB6808330FE0CB680C33AD
:101710000CE08B682BB1012B4FF0080303D045611F
:1017200004E0042302E0056100E00023FF2A01D861
:10173000064601E000F104064FEA840501D9A5F14F
:101740002005D6F8008007FA05FC28EA0C0803FA01
:1017500005F548EA0508C6F800804D68ED0070D52B
:101760003E4DAE6946F00106AE61AD6924F0030658
:1017700005F0010500953A4D06EB050CDCF8085024
:10178000A607360F07FA06F825EA0805DFF8D48021
:10179000404503D14FF0000825E052E0DFF8C88053
:1017A000404502D14FF001081DE0DFF8C080404500
:1017B00002D14FF0020816E0DFF8B480404502D1B4
:1017C0004FF003080FE0DFF8AC80404502D14FF046
:1017D000040808E0DFF8A080404502D14FF005087A
:1017E00001E04FF0060808FA06F848EA0508CCF8C8
:1017F00008804D68D9F80060ED024D4601D51643CA
:1018000000E096432E604D68DAF80060AD02554660
:1018100001D5164300E096432E604D68DBF800606A
:10182000AD035D4601D5164300E096432E604D683A
:10183000DEF80060ED03754601D5164300E09643DF
:101840002E60641C0A681646E2407FF429AFBDE8AA
:10185000F88F000008040140000011100010024041
:101860000000014000080140000C01400010014050
:101870000014014000180140001C0140806808402D
:1018800000D0012070470AB1016170470904FBE7ED
:1018900001488068704700008401002070B5040092
:1018A00025D094F83D00002520B984F83C5020460E
:1018B00000F076FA242084F83D002068016821F0C9
:1018C000010101602068016841F400410160206865
:1018D000016821F40041016000F000FC4D4A61689C
:1018E000914201D84C4900E04C49884201D2012084
:1018F00070BD4B492368B0FBF1F15E6826F03F06EE
:101900000E435E606368934206D94FF49673594361
:101910004FF47A73B1FBF3F12368491C1E6A26F079
:101920003F06314319626168914210D84900401E58
:10193000B0FBF1F2521CC2F30B02042A01D20420C4
:1019400022E0B0FBF1F0401CC0F30B001CE0A268E9
:10195000F2B301EBC10303EB0116431EB3FBF6F335
:101960005B1C43F480431B0549D092B301EBC102D9
:1019700002EB0111401EB0FBF1F0401CC0F30B0064
:1019800040F4804040F400402168CA694CF6FF737F
:101990009A431043C861D4E90710014320680268E4
:1019A00022F0C00211430160D4E903010143206821
:1019B000826848F2FF339A4311438160D4E90501FC
:1019C00008432168CA6822F0FF021043C86001E0A2
:1019D0000EE016E02068016841F001010160256415
:1019E000202084F83D00256384F83E50002070BD1F
:1019F00001EB4106431EB3FBF6F35B1CB3E701208A
:101A0000C2E701EB4101401EB0FBF1F0401CC0F306
:101A10000B00B7E7A086010080841E0000093D008E
:101A200040420F002DE9F84F0025DDF82890984638
:101A300017468A4604460095FFF72AFF064694F8A3
:101A40003D0020287AD1192301228649204600969C
:101A500001F042FA0028F5D194F83C0001286DD03D
:101A6000012084F83C0020680168C90703D101689F
:101A700041F0010101602068016821F4006101600A
:101A8000222084F83D00102084F83E00256467621F
:101A9000A4F82A80608D20857348E06233464A4668
:101AA0005146204601F028F900287CD1208DDFF82E
:101AB000BC81202768B1012814D002282068016861
:101AC0001ED041F480610160206841698069009006
:101AD000BBE02068416981690091016841F40071AF
:101AE0000160B2E02068016821F48061016072B693
:101AF0002068416981690091016841F400710AE040
:101B000041F40061016072B6206841698169009109
:101B1000016821F48061016062B696E0032865D80F
:101B200001280CD002284B464FF0000241462046C7
:101B300000960BD001F0D0F9A8BB0CE090E0324643
:101B40004946204601F06EFA68BB71E001F0C4F925
:101B500048BB72B633E02068016821F480610160FF
:101B600072B620680069616A0870606A401C606231
:101B7000208D401E2085608D401E60853C4846F2C9
:101B8000A8110068B0FBF1F0C0EBC00000EB8000D2
:101B90000090401E009007D020684069C043400775
:101BA0000DD50098F5E727E044F8305F6773A5731B
:101BB000206940F02000206162B625731CE0206897
:101BC000016841F40071016020680069616A087071
:101BD000606A401C6062218D491E2185618D491E0D
:101BE000618562B621680969017025E0324649467F
:101BF000204601F017FA10B10120BDE8F88F2068E7
:101C00000069616A0870606A401C6062208D401E35
:101C100081B22185608D401E608520684269D24373
:101C2000520712D4032903D1016821F480610160B5
:101C300020680069616A0870606A401C6062208DDB
:101C4000401E2085608D401E6085208D00287FF419
:101C500065AF84F83D7084F83E5084F83C50CCE782
:101C60000220CAE7020010000000FFFF040001008C
:101C7000900100202DE9F84F1F4690468A46044601
:101C8000DDF82890FFF704FE054694F83D00202873
:101C90007FD11923012240492046009501F01CF90B
:101CA000002876D194F83C00012872D0012084F8F5
:101CB0003C0020680168C90703D1016841F00101B7
:101CC00001602068016821F400610160212084F82E
:101CD0003D00102084F83E0000262664C4F82480CD
:101CE0006785608D20852D48E0622B464A46514627
:101CF000204601F077F890B920684169806900902A
:101D000036E02A464946204601F0C4F950B1206C1D
:101D1000042804D12068016841F4007101600120A9
:101D2000BDE8F88F606A216800780861606A401C2D
:101D30006062618D491E6185218D491E89B22185B0
:101D400022685369DB435B070BD451B10078106103
:101D5000606A401C6062608D401E6085208D401E60
:101D600020852A464946204601F08AF80028CED12F
:101D7000208D0028C5D154F83D0B016841F4007155
:101D80000160202004F81E09E67766770020C7E787
:101D9000FFE70220C4E70000020010000000FFFF80
:101DA00010B586B000210091019102910391006865
:101DB000104988421BD1104CA06940F00800A06176
:101DC000A069694600F0080004904FF4406000905C
:101DD00012200190032003900848FFF753FCE069AC
:101DE00040F48000E061E06900F48000049006B0F7
:101DF00010BD00000058004000100240000C0140DF
:101E00000248816802781144816070478401002093
:101E1000074810B5016841F010010160032000F08F
:101E200095F80F2000F006F800F03EF8002010BDF5
:101E30000020024000B5014687B000221C2000F0BF
:101E400065F81C2000F054F81448C16941F0010104
:101E5000C161C06905A900F001000690684600F064
:101E60001DF900F03BF90E494000B0FBF1F10D48BF
:101E70004FF08042491E0260416040F2E73200218B
:101E8000C0E90321816000F0C1FC10B1012007B05E
:101E900000BD044800F0FCFCF9E70000001002401F
:101EA00040420F000C0200200F4808B5816941F044
:101EB00001018161816901F001010091C16941F075
:101EC0008051C161C069002200F0805000900F2154
:101ED000901E00F01BF80548416821F0E06141F0D8
:101EE0000071416008BD0000001002400000014088
:101EF000002809DB00F01F02012191404009800009
:101F000000F1E020C0F8001170470000F0B40E4B63
:101F10001B680C46C3F30223C3F10705042D00D947
:101F20000425191D072901D2002300E0DB1E01262C
:101F300006FA05F1491E214099409E40761E164042
:101F40003143F0BC01F0FEBB0CED00E0064900F0AF
:101F5000070208684FF6FF03184040EA0220034AD0
:101F600010430860704700000CED00E00000FA0527
:101F70002DE9F0470F46050061D0434E306800F070
:101F80000700B84209D2306820F0070038433060BB
:101F9000306800F00700B84251D128683B4C8107F7
:101FA00012D5400703D5606840F4E060606028788F
:101FB000000703D5606840F4605060606068A968FD
:101FC00020F0F000084360602878C00728D06868D7
:101FD000012810D02168022810D0890700292EDAA4
:101FE000616821F0030101436160FFF751FC804605
:101FF00041F288390DE021688903EFE78901EDE7B7
:10200000FFF746FCA0EB0801494502D90320BDE8D3
:10201000F0876068696800F00C00B0EB810FEFD1C9
:10202000306800F00700B8420BD9306820F0070094
:1020300038433060306800F00700B84201D001201A
:10204000E5E72878400705D56068E96820F4E06096
:10205000084360602878000706D56068296920F485
:10206000605040EAC100606000F048F86168084ACA
:10207000C1F30311515CC840064908600648006876
:10208000FFF7D8FE0020C2E7002002400010024007
:102090009280000890010020880100200F22026039
:1020A0000C4A536803F003034360536803F0F003E2
:1020B0008360536803F4E063C36052684FF4E063E5
:1020C00003EAD20202610448006800F007000860D9
:1020D00070470000001002400020024004480549FB
:1020E00000684968044AC1F30221515CC840704746
:1020F0009001002000100240A28000080E4A5168A2
:102100000E4801F00C03042B11D0082B0FD10C4802
:10211000C1F38343C903C05C0AD55168084AC1F3BF
:102120004041921E515C054A5043B0FBF1F07047AC
:1021300004494843704700000010024000127A0032
:102140008280000800093D002DE9F84F040070D09E
:102150002078C04DC00749D06868C0F381000128CD
:1021600007D06868C0F38100022809D16868C003FD
:1021700006D52868800339D560680028E7D035E0A7
:102180006068B0F5803F0BD010B1B0F5A02F11D032
:10219000286820F480302860286820F4802002E03D
:1021A000286840F480302860606890B1FFF770FBC9
:1021B00006460AE0286840F480202860F0E700BF67
:1021C000FFF766FB801B642873D828688003F7D567
:1021D0000CE0FFF75DFB064605E000BFFFF758FB8C
:1021E000801B6428F0D828688003F7D420789A4EA2
:1021F00080074FF001094FF0000839D5686810F0EA
:102200000C0F07D06868C0F38100022809D1686804
:10221000C00306D42868800714D52069012808D196
:1022200010E02069B0B1C6F80090FFF731FB074617
:1022300005E00AE1FFF72CFBC01B0228C4D8286880
:102240008007F7D52868616920F0F80040EAC100EE
:1022500028600DE0C6F80080FFF71AFB074604E08F
:10226000FFF716FBC01B022823D828688007F7D485
:10227000207800072CD57948A169D9B1C0F8009021
:10228000FFF706FB074604E0FFF702FBC01B02282E
:102290000FD8686A8007F7D571484FF4FA51006883
:1022A000B0FBF1F0009000BF0098411E0091FAD2FF
:1022B0000EE080E0C0F80080FFF7EAFA074604E08D
:1022C000FFF7E6FAC01B022875D8686A8007F7D4C2
:1022D0002078400760D5E8690027C00008D4E86985
:1022E00040F08050E861E869012700F080500090DC
:1022F0005C480168C90513D40168834641F48071C4
:102300000160FFF7C5FA824606E000BFFFF7C0FA9A
:10231000A0EB0A0064284ED8DBF80000C005F5D514
:10232000E06801280AD008B1052813D0286A20F0F7
:1023300001002862286A20F0040002E0286A40F0C8
:1023400001002862E06841F2883B98B1FFF7A0FAEB
:1023500082460BE0286A40F004002862EEE700BFE6
:10236000FFF796FAA0EB0A0159455AD8286A800768
:10237000F6D50CE0FFF78CFA824605E0FFF788FA05
:10238000A0EB0A0159454CD8286A8007F6D41FB142
:10239000E86920F08050E861E06988B36968C1F3BA
:1023A0008101022944D00228C6F8608004D0FFF7DA
:1023B0006FFA044638E034E0FFF76AFA074604E0B3
:1023C000FFF766FAC01B02282BD828688001F7D4D3
:1023D000206AB0F5803F05D16868A16820F400301C
:1023E00008436860D4E908010843696821F474115E
:1023F00008436860C6F86090FFF74AFA044606E0B2
:1024000025E000BFFFF744FA001B022809D828681E
:102410008001F7D51BE000BFFFF73AFA001B022846
:1024200002D90320BDE8F88F28688001F4D40EE0BB
:102430000128F7D06868226A00F48031914204D103
:10244000616A00F47010884201D00120EAE70020A0
:10245000E8E70000001002400000424280044242CF
:10246000900100200070004070B5040009D0606A3F
:10247000002540B125616561A56294F8510040B125
:102480000CE0012070BD6068B0F5827FF4D0E5619A
:10249000F2E784F85050204600F03FF8022084F81C
:1024A00051002068016821F040010160A088218965
:1024B00000F4827001F404410843A18901F4006131
:1024C0000843217C01F002010843217D01F0010154
:1024D0000843218B01F400710843217F01F038018A
:1024E000084394F8201001F080010843218D01F485
:1024F0000051084321680860A069042101EA1040E6
:10250000216848602068C16921F40061C161656586
:10251000012084F85100002070BD70472DE9F84F6C
:10252000044690F850000026984615468A46012831
:102530000CD0012784F85070FFF7AAF9814694F86F
:102540005100B346012804D002269AE00220BDE8DB
:10255000F88FBAF1000F6FD0002D6DD0032084F8F2
:102560005100C4F854B0C4F830A0A586E586C4F87C
:1025700038B0A4F83CB0A4F83EB0C4F844B0C4F8F5
:1025800040B0A068B0F5004F09D12068016821F083
:10259000400101602068016841F4804101602068C9
:1025A0000168490603D4016841F040010160E06818
:1025B000B0F5006F606803D058B3012D29D049E011
:1025C00008B1012D1FD1206B21680088C86006E08A
:1025D00020688168890709D5216B0988C160206B53
:1025E000801C2063E08E401EE0860CE0FFF750F96F
:1025F000A0EB0901414503D3B8F1FF3F03D006E04A
:10260000B8F1000F03D0E08E0028E1D125E00326C9
:1026100035E0206B21680078087306E02068816847
:1026200089070AD5216B09780173206B401C206350
:10263000E08E401EE0860DE01FE0FFF729F9A0EBD9
:102640000901414503D3B8F1FF3F03D0DFE7B8F1FB
:10265000000FDCD0E08E0028E0D14A4641462046FB
:1026600000F058FE08B120206065A06818B9206805
:10267000C16880680090606D08B1012601E084F8AF
:10268000517084F850B0304661E77047704710B51C
:1026900090F83C20012A22D0012280F83C20CA6810
:1026A0008C6822F4407222434C6822F480622243F8
:1026B0000C6822F4006222430C6922F48052224307
:1026C0004C6922F400522243C969002322F480425B
:1026D0000A4301684A6480F83C30002010BD0220A3
:1026E00010BD000070B590F83C20012A2CD00124C8
:1026F00080F83C40022280F83D2003685A689D68BB
:1027000022F070060A6832435A60104B02689A42FF
:102710000ED00F4B9A420BD0B2F1804F08D00D4B28
:102720009A4205D00C4B9A4202D00C4B9A4204D1EB
:10273000496825F080031943916080F83D400021ED
:1027400080F83C10084670BD022070BD002C01408E
:10275000003401400004004000080040000C00402C
:1027600010B50446022249B104290ED0082913D01D
:1027700094F84500012816D0012010BD94F84200BD
:102780000128F9D184F842200FE094F84300012891
:10279000F2D184F8432008E094F844000128EBD1FA
:1027A00084F8442001E084F845200422206800F0E9
:1027B000AFFE2068416C41F4004141640E4920683D
:1027C00088420ED00D4988420BD0B0F1804F08D01E
:1027D0000B49884205D00B49884202D00A498842F9
:1027E00004D1816801F00701062903D0016841F096
:1027F00001010160002010BD002C014000340140A7
:102800000004004000080040000C004010B5040027
:1028100003D094F83D0010B107E0012010BD002066
:1028200084F83C00204600F01FF8022084F83D00A8
:10283000211D206800F026FE012084F8460084F85F
:102840003E0084F83F0084F8400084F8410084F89A
:10285000420084F8430084F8440084F8450084F87A
:102860003D00002010BD000008B500680649884200
:1028700008D10648816941F400618161806900F4F2
:102880000060009008BD0000002C014000100240D4
:1028900090F83D10012901D001207047022180F8F5
:1028A0003D100168CA6842F00102CA6000680E4922
:1028B00088420ED00D4988420BD0B0F1804F08D02D
:1028C0000B49884205D00B49884202D00A49884208
:1028D00004D1816801F00701062903D0016841F0A5
:1028E0000101016000207047002C014000340140CC
:1028F0000004004000080040000C004070B5044691
:1029000090F83C000025012817D0012684F83C608F
:10291000022084F83D002068826822F0770222F4C9
:102920007F4282600868502838D00DDC20284FD0C4
:1029300005DC90B3102811D14AE0022070BD302888
:1029400046D040280AD13BE060282FD070280DD017
:10295000B0F5805F03D0B0F5005F12D0012584F898
:102960003D60002084F83C00284670BDCB68D1E96A
:102970000121206800F0D9FD2068816841F07701CD
:1029800009E0CB68D1E90121206800F0CEFD206884
:10299000816841F480418160E1E719E0CA684968D3
:1029A000206800F097FE5021206806E0CA68496858
:1029B000206800F0A0FE6021206800F0C0FDCEE796
:1029C000CA684968206800F085FE40212068F4E765
:1029D000226801461046F0E7704770B5044600686B
:1029E00001694FF00005C943890715D4C168C9437F
:1029F000890711D4E91E01610120207720688069D0
:102A00008007204602D0FFF7E7FF04E000F0BEF8A1
:102A1000204600F050F9257720680169C94349072D
:102A200017D4C168C943490713D46FF00401016189
:102A3000022020772068806910F4407F204602D071
:102A4000FFF7CAFF04E000F0A1F8204600F033F9D8
:102A5000257720680169C943090716D4C168C943AD
:102A6000090712D46FF00801016104202077206863
:102A7000C0698007204602D0FFF7AEFF04E000F0F7
:102A800085F8204600F017F9257720680169C943C9
:102A9000C90617D4C168C943C90613D46FF0100121
:102AA0000161082020772068C06910F4407F20462B
:102AB00002D0FFF791FF04E000F068F8204600F034
:102AC000FAF8257720680169C943C90708D1C168A8
:102AD000C943C90704D1891E0161204600F0ECF802
:102AE00020680169C943090609D4C168C9430906B8
:102AF00005D46FF0800101612046FFF7C6FD206814
:102B00000169C943490609D4C168C943490605D4C6
:102B10006FF040010161204600F0D5F8206801699E
:102B2000C94389060BD4C168C943890607D46FF02D
:102B3000200101612046BDE87040FFF7A7BD70BDD0
:102B400000B585B0002100910191029103910068C8
:102B50000B49884212D10B48816941F0080181611B
:102B60008069694600F0080004904FF4004000902E
:102B70000220019003900448FEF784FD05B000BDDB
:102B8000002C014000100240000C0140704770B55D
:102B9000044690F83C0000260D4601280FD0012085
:102BA00084F83C006AB1042A1DD0082A2FD00C2AD0
:102BB0003FD00126002084F83C00304670BD022042
:102BC00070BD206800F0C4FC2068816941F00801F4
:102BD00081612068816921F0040181612068816937
:102BE0002A69114311E0206800F0E2FC2068816945
:102BF00041F4006181612068816921F48061816113
:102C0000206881692A6941EA02218161D2E720684E
:102C100000F004FD2068C16941F00801C16120682D
:102C2000C16921F00401C1612068C1692A691143A9
:102C300011E0206800F026FD2068C16941F40061C0
:102C4000C1612068C16921F48061C1612068C169E6
:102C50002A6941EA0221C161ACE710B5040003D042
:102C600094F83D0010B107E0012010BD002084F869
:102C70003C00204600F01EF8022084F83D00211D93
:102C8000206800F0FFFB012084F8460084F83E0035
:102C900084F83F0084F8400084F8410084F8420042
:102CA00084F8430084F8440084F8450084F83D002B
:102CB000002010BD704770470068B0F1804F01D10F
:102CC000FFF79EB870477047FEE701684A69D24334
:102CD00052050FD46FF480624A61002140F8301F22
:102CE000202242738173026942F00402026101737F
:102CF00001207047002070472DE9F84F0446C06A54
:102D00001E4693460D4621680A6842F480620A60B6
:102D1000082807D0012805D010F5803F02D0206B8D
:102D2000112804D12068016841F4807101604FF0DE
:102D300001195B46002249462046009600F0CCF877
:102D40004FF4007840B120680068C00501D5C4F890
:102D500040800320BDE8F88F2069DFF884A0B0F53B
:102D6000804F0FD00620216800EAD51747F0F00009
:102D7000086133465A460AF10601204600F0F4F88D
:102D800058BB03E0E8B240F001001CE02168E8B263
:102D9000086133465A465146204600F0E5F8E0B94E
:102DA0002068416981690091016841F48071016086
:102DB0005B46002249462046009600F08DF8002828
:102DC000C1D147F0F1002168086133465A465146A7
:102DD000204600F0C9F80028BCD00120BAE7000066
:102DE00002000100F8B50446C06A1E460D461746AB
:102DF000082807D0012805D010F5803F02D0206BAD
:102E0000122804D12068016841F4807101601346E2
:102E100000224FF001112046009600F05DF840B10D
:102E200020680068C00502D54FF4007020640320BC
:102E3000F8BD2069B0F5804F0ED00620216800EA69
:102E4000D51040F0F000086133463A460B49204661
:102E500000F08AF878B902E005F0FE0000E0E8B280
:102E600021680861054933463A46891F204600F02B
:102E70007BF80028DCD00120F8BD0000080001002C
:102E800070B516460D4604461EE02046FFF71DFFAE
:102E900008B1012070BD681C16D0FEF7F9FC801B3C
:102EA000A84200D885B920684069C04340070BD5C7
:102EB000002044F8300F20216173A073216941F094
:102EC000200121612073E4E720684069C043400786
:102ED000DBD4002070BD00002DE9F047984617466E
:102EE0000D460446C1F30746DDF820902AE000BFF6
:102EF000B8F1FF3F26D0FEF7CBFCA0EB090141451E
:102F000002D8B8F1000F1DD12068012E16D08069BB
:102F100025EA00000004000C12D00020B84211D1B4
:102F2000002044F8300F20216173A073216941F023
:102F30002001216120730120BDE8F0874069E7E7A7
:102F40000120EBE72068012E0AD0806925EA000005
:102F50000004000C06D00020B842C9D00020EBE7E6
:102F60004069F3E70120F7E72DE9F0479846164658
:102F70000D4604464FF000094FF0200AC1F3074701
:102F800023E020684069C043400515D420680168EB
:102F900041F40071016021686FF480604861C4F8F9
:102FA000309084F83DA084F83E90216C41F00401FB
:102FB000216484F83C9021E0701C06D0FEF768FC88
:102FC000A0EB0800B04203D816B1012F1FD021E0BA
:102FD0002068012F15D0806925EA00000004000C4C
:102FE00018D000BF44F8309F84F80DA084F80E90EC
:102FF000216941F02001216184F80C900120BDE895
:10300000F087406925EA00000004000CEAD120683E
:10301000406901E02068806925EA00000004000C96
:10302000AFD1ECE72DE9F041002590460E4604466D
:10303000202728E04069C043C0060CD454F8301B58
:103040006FF01000486144F810596777A577206A3F
:103050002062257714E0FEF71BFCA0EB0800B042CD
:1030600000D886B920684069C04340060BD544F8B3
:10307000305F6773A573206940F0200020612573DD
:103080000120BDE8F08120684169C9434906D1D4D7
:103090000020F6E770B516460D4604461EE02046B1
:1030A000FFF713FE08B1012070BD681C16D0FEF7B3
:1030B000EFFB801BA84200D885B920684069C04357
:1030C00000060BD5002044F8300F20216173A07357
:1030D000216941F0200121612073E4E72068406903
:1030E000C0430006DBD4002070BD000010B500F026
:1030F000B7FC00F01DFC00F065FB01F0F9FC29486D
:10310000FEF7EAF92848FEF7E7F92848FEF7E4F960
:103110002748FEF7E1F90C2326A20421012000F044
:10312000E1FD02210C2327A2084600F0DBFD0C2361
:1031300026A20221042000F0D5FD0C2325A20F2198
:10314000022000F0CFFD0C2324A20F21032000F069
:10315000C9FD0C2323A20F21042000F0C3FD00228F
:103160000821042000F08CFE204C214A0021A0619F
:10317000204800F09DFF1E4AA060243200211E4816
:1031800000F096FF1A4AE060483200211B4800F028
:103190008FFF174A20616C320021194800F088FF28
:1031A000606110BD00000020C4000020DC00002091
:1031B000F400002053637265656E20436F6E746582
:1031C0006E743A0054656D703A20000048756D6960
:1031D0003A2000004B6579313A202A004B6579325C
:1031E0003A202A004B6579333A202A001800002043
:1031F000346200087D39000809380008AD3800083D
:10320000753700080D4810B50B4901600C49416045
:1032100000214FF480428160C0E903124161816165
:10322000C1610162FEF73AFB002803D0BDE81040FF
:10323000FEF74FB910BD000000580040AC0200205E
:10324000A086010010B596B000240F94109411943C
:10325000129413941C2108A81494FDF737F9202127
:103260006846FDF733F92948274901604721C0E93D
:10327000011440F2F311C0E903148021C0E90541B3
:10328000FFF7C4FA08B1FEF724F94FF480500F900D
:103290000FA91E48FFF732FB08B1FEF71AF91B48C9
:1032A000FFF7DBFC08B1FEF714F9139413A91748D4
:1032B0001494FFF717FA08B1FEF70BF96020CDE977
:1032C00008040A940B940C940D94082208A90F4842
:1032D0000E94FFF75CFC08B1FEF7FBF800944FF486
:1032E0000050CDE9044002940194039469460748D4
:1032F0000794FFF7CCF908B1FEF7EBF80348FFF7A6
:103300001FFC16B010BD0000002C0140000300207F
:10331000FEE7FEE738B50B46009204460022802106
:1033200000F008F8002804D0606D40F020006065CF
:10333000032038BD2DE9F8431E46914688460446D1
:10334000089DFEF7A5FA401B351AFEF7A1FA0746BD
:1033500025480068C0F3CB30684338E0701C37D094
:10336000FEF796FAC01BA84203D215B1009860B3CD
:103370002CE02068416821F0E00141606068B0F510
:10338000827F0BD1A068B0F5004F02D0B0F5806FFE
:1033900004D12068016821F040010160A06AB0F505
:1033A000005F09D12068016821F4005101602068A4
:1033B000016841F400510160012084F851000020AF
:1033C00084F850000320BDE8F8830025401E0090DB
:1033D0002068816838EA010004D000214945BDD148
:1033E0000020F0E70121F9E79001002010B55020FE
:1033F00080F31188BFF34F8FBFF36F8F02F06EFA27
:1034000018B104494FF080500860002080F3118803
:1034100010BD000004ED00E030B58FB028216846F3
:10342000FDF754F814210AA8FDF750F8012108040B
:10343000CDE900100024029402250491CDE9075043
:103440004FF4E01009906846FEF77EFE08B172B6B0
:10345000FEE70F20CDE90A054FF48060CDE90C406E
:1034600002210AA80E94FEF783FD002801D072B64F
:10347000FEE70FB030BD70470148FFF7AEBA00005D
:103480000C020020F0B502681C4B1D4D1D4E1E4F56
:103490001E4C4FF0804C984209D0A04207D06045A6
:1034A00005D0A84203D0B04201D0B84204D122F0E6
:1034B000700E4A6842EA0E02984209D0A04207D034
:1034C000604505D0A84203D0B04201D0B84203D134
:1034D00022F44075CA682A434D6922F080022A43CB
:1034E00002608A68C2620A688262984201D0A04281
:1034F00001D10969016301214161F0BD002C014046
:103500000004004000080040000C0040003401406E
:1035100010B501F01F030421046A99408C43046232
:10352000016A9A401143016210BD10B5846842EAF5
:10353000032224F47F440A432243826010BD826840
:1035400022F070020A4342F00701816070470000D8
:10355000F0B5036A026A22F00102026242688469DD
:10356000124E24F073050C682C4323F002058B687F
:103570002B430D4DA84201D0B04205D123F00807DE
:10358000CB683B4323F00403A84201D0B04205D1ED
:103590004D6922F4407215438A692A43426084616E
:1035A000496841630362F0BD002C014000340140D2
:1035B000F0B5026A036A23F010030362436884696A
:1035C0000D6824F4E64444EA05248D6822F02002C4
:1035D00042EA05120F4D104EA84201D0B04206D16A
:1035E000CF6822F0800242EA071222F04002A8428D
:1035F00001D0B04207D14D6923F4406343EA85030B
:103600008D6943EA8503436084614968816302628E
:10361000F0BD0000002C014000340140F0B5026A0A
:10362000036A23F4807303624368C46922F400725E
:1036300024F073050C68124E2C438D6842EA052273
:103640000E4DA84201D0B04206D1CF6822F40062EC
:1036500042EA072222F48062A84201D0B04207D198
:103660004D6923F4405343EA05138D6943EA05137A
:103670004360C4614968C1630262F0BD002C01402F
:103680000034014030B5046A026A22F480520262BA
:103690004268C3690D6823F4E64343EA05238D6855
:1036A00024F4005444EA0534084DA84202D0084DE1
:1036B000A84204D14D6922F4804242EA8512426058
:1036C000C36149680164046230BD0000002C014000
:1036D0000034014010B5036A046A24F00104046256
:1036E000846924F0F00444EA021423F00A020A4335
:1036F0008461026210BD10B5036A046A24F01004EC
:103700000462846923F0A00324F4704444EA023282
:1037100043EA01118261016210BDFEE7490050EAEF
:10372000C12018BF04204A0D18BF40F0010040F22C
:10373000FF72B2EB515F08BF40F00200012808BFE2
:10374000052070470907090E002804DB00F1E0207E
:1037500080F80014704700F00F0000F1E02080F8BE
:10376000141D704730380A2801D20120704700200C
:10377000704700004FF0FF3540F2F3162A46002153
:103780003F2000F03DFC0446C00702D00C48FDF786
:1037900020FF200702D50A48FDF70FFFA00701D53B
:1037A00001F0BAF9E00601D501F004FA600702D58C
:1037B000304600F015F8A006E0D500F01DF8DDE772
:1037C0000000002010B50548FDF786FE002000F03F
:1037D00007F8BDE810400148FDF7FBBE0C010020D2
:1037E0004FF4FA71884200D9084602490968C86353
:1037F0007047000000030020024900200968C863E8
:1038000070470000000300201CB5274D00231A4616
:103810006946A86900F0F6FA58B90C23072102207E
:10382000009A00F081FA0C2307210420019A00F08D
:1038300041FA002211463F2000F0E2FB04002FD4A1
:10384000E00705D00C232A221521022000F0A2F95E
:10385000200705D50C234F221521022000F09AF9EC
:10386000A00705D50C232A221521032000F092F988
:10387000E00605D50C234F221521032000F08AF91C
:10388000600705D50C232A221521042000F082F9B7
:10389000A00605D50C234F221521042000F07AF94B
:1038A0000A2000F059FAB1E7180000201CB50B4CB3
:1038B0004FF47A750949091D081F00F011F848B93D
:1038C000206800906068002301901A466946A0694C
:1038D00000F010FB284600F03FFAEBE7180000204C
:1038E0007FB5064610A00D4600684FF47A74039029
:1038F000022303AA882100940C48FEF7BBF938B9CB
:10390000062301AA892109480094FEF78BF810B11B
:10391000012004B070BD2A46314601A8FDF766FEBD
:103920000028F6D00220F4E7E0000000AC020020FE
:103930001CB50AA00223006801904FF47A70009031
:1039400001AA88210648FEF795F908B101201CBD9F
:103950000F20FDF785FE00201CBD00002130000077
:10396000AC02002010B50446FDF718FE401C02D042
:10397000207D08B1022010BD012010BD0EB51C48ED
:103980006E4607C88DE807000024254656F8250036
:10399000FFF7E8FF012802D002280CD010E025B183
:1039A000012D05D044F004040AE044F0010407E0CE
:1039B00044F0020404E0ADB1012D16D044F020041F
:1039C0006D1CEDB2032DE1D344B10A4D2146E868E8
:1039D00000F0D0FA2146686900F0CCFA0A2000F025
:1039E000BBF9D1E744F00804EAE744F01004E7E744
:1039F000C462000818000020FEF70AFAFFF70CFD69
:103A0000FFF700FCFFF71EFC08210548FEF7A8FEA3
:103A100000F0BCF9FFF76AFB00F0D4F9FEE7000004
:103A20000003002010B5A0B000240021204600F0C3
:103A30009BF880216846FCF749FD802269460748CB
:103A400001F047F880226946044801F042F8641CFE
:103A5000E4B2082CE9D320B010BD0000940000208F
:103A600010B5404800F096FF6420FDF7F9FD3D4891
:103A700001F000F86420FDF7F3FDAE21394801F0B4
:103A80001CF80021374801F018F81021354801F0E2
:103A900014F84021334801F010F88121314801F039
:103AA0000CF8CF212F4801F008F8A1212D4801F092
:103AB00004F8C8212B4801F000F8A621294800F09D
:103AC000FCFFA821274800F0F8FF3F21254800F01F
:103AD000F4FFD321234800F0F0FF0021214800F03B
:103AE000ECFFD5211F4800F0E8FF80211D4800F0C1
:103AF000E4FFD9211B4800F0E0FFF121194800F054
:103B0000DCFFDA21174800F0D8FF1221154800F039
:103B1000D4FFDB21134800F0D0FF4021114800F012
:103B2000CCFF20210F4800F0C8FF02210D4800F013
:103B3000C4FF8D210B4800F0C0FF1421094800F09C
:103B4000BCFFA421074800F0B8FFA621054800F0FB
:103B5000B4FFAF21034800F0B0FFBDE81040FFF70D
:103B600061BF00009400002010B50C4640F0B00189
:103B7000074800F0A2FF102040EA1411044800F0AA
:103B80009CFF04F00F01BDE81040014800F095BF14
:103B9000940000202DE9F047A2F1200404F0FF0971
:103BA000A1F1010808EB48044FEA440CA2F12004FB
:103BB000461EE4B204EB4407062B0DD04400A41EBD
:103BC000E5B26D1C0C2B12D0102B25D0182B3AD03F
:103BD000BDE8F0470823DDE7314A0CF0FF01F0B201
:103BE00002EB4704FFF7C0FF0622214653E02D49B0
:103BF000E0B20CF0FF0601EB87043146FFF7B4FF9B
:103C000006222146284800F064FFE8B23146FFF75B
:103C1000ABFF0622A11D3EE0C8000838C6B2234A09
:103C2000E0B202EB09143146FFF79EFF082221465D
:103C30001D4800F04EFFE8B23146FFF795FF08221D
:103C400004F1080127E008EB48008006050E06EBAA
:103C50004600C4B2164909EBC90001EB80062946AB
:103C60002046FFF781FF0C2231460F4800F031FF5C
:103C7000601CC0B22946FFF777FF0C2206F10C0149
:103C8000094800F026FFA41CE0B22946FFF76CFFAC
:103C90000C2206F11801BDE8F047034800F019BFF7
:103CA000D0620008F8640008940000206C690008E5
:103CB0005C6F00087FB506461C460D46104602F0B4
:103CC00011F802460B4605A16846FCF717FB234690
:103CD0006A462946304600F005F87FBD252E31663C
:103CE000252500002DE9F0471F46164688468146E7
:103CF000062B05D00C2F03D0102F01D0182F01D088
:103D0000012500E00225002409E000BF04FB058036
:103D1000C1B23B464846FFF73DFF641CE4B2325D4A
:103D2000002AF3D1BDE8F0877FB506461C460D4654
:103D3000104601F0D7FF02460B4605A16846FCF786
:103D4000DDFA23466A4629463046FFF7CBFF7FBDA2
:103D5000252E31664300000010B5EFF3058149B907
:103D6000EFF3108131B908490968022905D1EFF351
:103D7000118111B16FF0050403E0002408B101F0D6
:103D80005DF8204610BD0000E4010020EFF305803F
:103D900058B9EFF3108040B909490868022801D0EA
:103DA00030B109E0EFF3118030B16FF005007047DA
:103DB00001200860002070474FF0FF30704700007E
:103DC000E401002010B5EFF3058060B9EFF3108037
:103DD00048B90B490868022802D0012806D00BE038
:103DE000EFF3118040B16FF0050010BD02200860B4
:103DF00001F08CF8002010BD4FF0FF3010BD000026
:103E0000E4010020F8B51D466FF003026FF00206D2
:103E10004FF00004EFF305834BB9EFF3108333B990
:103E2000154B1B68022B17D1EFF31183A3B1F0B12F
:103E3000E9B1E5B9002200926A4601F07FFB012852
:103E400017D10098B0B10D494FF080500860BFF312
:103E50004F8FBFF36F8F0DE048B141B12A4601F09B
:103E6000D1FA012806D025B16FF0010402E0144612
:103E700000E034462046F8BDE401002004ED00E0F7
:103E8000F8B514464FF00005EFF305826ABBEFF377
:103E9000108252BB164A1268022A02D1EFF3118235
:103EA0001ABB10B309B3ACB1D4E902326BB1502ADA
:103EB0001BD32269CAB1676900FB01F6B74214D36C
:103EC0000025009501F018F907E072B9226962B97E
:103ED000626952B9002201F0EBF8050005D00CB17F
:103EE000216800E0002100F073FF2846F8BD0000C3
:103EF000E4010020F8B51D466FF003026FF00206E2
:103F00004FF00004EFF305834BB9EFF3108333B99F
:103F1000164B1B68022B18D1EFF31183ABB100B322
:103F2000F9B1F5B90022134600926A4601F00CFA85
:103F3000012818D10098B8B10D494FF080500860A1
:103F4000BFF34F8FBFF36F8F0EE050B149B1002325
:103F50002A4601F049F9012806D025B16FF0010485
:103F600002E0144600E034462046F8BDE40100209B
:103F700004ED00E03EB5040001D0002903DA6FF043
:103F80000300019035E04FF0FF300190EFF3058022
:103F900048B9EFF3108030B91748006802281DD1E6
:103FA000EFF31180D0B1002502A800902B4601222A
:103FB0000295204601F006FC002201AB1146204686
:103FC000009501F0FFFB029898B10C494FF080502A
:103FD0000860BFF34F8FBFF36F8F0AE00023012209
:103FE000204601F08BFB002201AB1146204601F078
:103FF00085FB01983EBD0000E401002004ED00E0D7
:104000002DE9F84F894605464FEA0206EFF3058091
:1040100048B9EFF3108030B924480068022805D170
:10402000EFF3118010B16FF005041EE0002D02DAED
:104030006FF0030419E05FEA897002D54FF00008C1
:1040400000E0A8460024924601F042FC8346E71EA9
:1040500053466A464146002001F0A4FC012807D0DF
:104060000EB36FF001040028F2D12046BDE8F88FAE
:1040700000982C4004435FEAC9700BD035EA040075
:10408000F3D056B101F024FCA0EB0B00504506D94B
:10409000002006E02542E8D1F3E73C46E5E7AAEB3D
:1040A00000008246D4E73C46DDE70000E401002042
:1040B000F0B585B04FEA01034FF00004EFF305813E
:1040C0000394A1BBEFF3108189BB21490968022940
:1040D00002D1EFF3118151BB48B3802618218DF82E
:1040E000104004AD42B3176807B13D4697691FB150
:1040F00039467F1E382F02D21779FF0702D00020E1
:1041000005B0F0BD576907B1BE08D2F808C0BCF1D0
:10411000000F0DD0D4685C2C18D312693AB137B1B6
:104120008DE806103246294601F0BDFA03900DE0F5
:10413000D7685FB912694AB903AACDE90012B2B2D1
:10414000294601F083FA012800D003940398D7E7A9
:10415000E40100202DE9F041134C0F460546666945
:104160002068001D00F03AFD681C07D137B12168B6
:10417000BDE8F0410D48091D00F080BD20683544C0
:10418000B5424560216805D2A068BDE8F041091D2F
:1041900000F05CBD6068091D00F058FD206B854291
:1041A00000D22563BDE8F08194010020380800208A
:1041B0002DE9F041054600F06DFD2D4C2069401CB5
:1041C000206120682B4F10B1E06930B32BE02560EF
:1041D0002069012827D1002606EB860007EB800026
:1041E00000F026FD761C382EF6D3234800F020FD83
:1041F0002148143000F01CFD1F48283000F018FD45
:104200001D483C3000F014FD1B48503000F010FDFC
:10421000194860601430A06005E02068E96AC06A4F
:10422000884200D82560E06A401CE0626864E86A61
:10423000A169884200D9A06100EB800007EB8000F3
:10424000291D00F01BFD00F045FDE06900280CD0A1
:104250002068E96AC06A884207D208494FF0805056
:104260000860BFF34F8FBFF36F8FBDE8F081000090
:104270009401002088030020E807002004ED00E0FE
:1042800038B500F007FD104CA068C8B90F4800F021
:10429000CFFC0E48143000F0CBFC0C4820601430EA
:1042A00060600A4B00202833009003F15002102177
:1042B0000A2000F021FFA06010B105A100F088FDE8
:1042C000BDE8384000F006BDD00100204C080020B9
:1042D000546D72510000000030B4026C0B46002A8D
:1042E0000BD0C1681144C1604468A14201D3016888
:1042F000C16030BC1846FCF79CB830BC70472DE953
:10430000F041856B174604460026026C82B1C7B1A6
:10431000E068FCF78EF8E168206C091AE160226819
:10432000914202D26168081AE060022F16D017E0AD
:104330002068A8B9606801F07BFB06460020606039
:104340000EE0A068FCF775F8216CA0680844A06036
:104350006168884204D32068A06001E005B16D1E49
:104360006D1CA5633046BDE8F08110B5044690F899
:10437000590058B101280CD002280FD0502080F3EA
:104380001188BFF34F8FBFF36F8FFEE7206B00F0F4
:10439000B5FC2046BDE8104000F0B0BC10BD0000E8
:1043A00010484FF44061420706D0C01D0D4920F06F
:1043B0000700411AC1F540610B4A00230144C2E9DC
:1043C00000030839103A21F0070111604B600B60BF
:1043D0000B1AC0E9001393604FF000405360D060A7
:1043E000704700001C100020F8010020144E154CEE
:1043F000A6F29C474FF08058DFF84C9012E000BFC7
:1044000000F048FCF068C568281D00F0E7FB206953
:10441000401E2061E068401EE06000F05BFC284622
:10442000FFF7A3FFE0680028EAD138680128F9D92E
:10443000C9F80080BFF34F8FBFF36F8FF2E7000022
:10444000240800209401002004ED00E070B51D4612
:10445000049C51B1C4F80020C4E90F010121204699
:1044600000F07EFE84F84C5070BD2460F4E72DE926
:10447000F0470E46DDE909841746824691009946C9
:10448000089DA522206BFCF719F86FF00301206B43
:1044900001EB8701084420F00707780707D0502078
:1044A00080F31188BFF34F8FBFF36F8FFEE72218A1
:1044B000315C82F83410315C11B1401C1028F6D305
:1044C000002684F84360382D00D33725E562C4E91F
:1044D0001356201D00F0B7FB04F1180000F0B3FBE9
:1044E0002461C5F138006462A061666584F8586093
:1044F0004A465146384600F03BFA2060B8F1000FBA
:1045000001D0C8F80040BDE8F087000030B511497F
:1045100000E011460A688242FBD34B685C18844273
:1045200003D1406818444860084643681C18944208
:1045300009D1084C103C2468A24209D052681A44A0
:1045400042600A6812680260814200D0086030BD93
:104550000460F9E7F801002070B5002441600B4DBC
:104560000061914206D8D11A8269914206D2011D9A
:10457000686807E09A4203D2994201D3012403E01C
:10458000011D286800F062FB204670BDD0010020AC
:1045900010B5044600F07EFBA06B28B15FF000046C
:1045A00000F098FB204610BD0124F9E730B589B032
:1045B000304D55E00498002806DADDE90601059A39
:1045C0009047049800284BDB069C606910B1201DC1
:1045D00000F004FB02A800F0B9F8024604980A288B
:1045E0003ED2DFE800F00505053D263705053D26EE
:1045F0000598A169034601442046FFF7ADFF00B3CB
:10460000616A20468847E069012829D1002000908E
:104610000598A169002342181946204601F012FBB3
:1046200078B9502080F31188BFF34F8FBFF36F8F9D
:10463000FEE70598A06128B1811813462046FFF7D0
:104640008BFF0DE0502080F31188BFF34F8FBFF335
:104650006F8FFEE794F82C0010B9204600F04EFB57
:10466000002204A9A86800F0CDFE0028A2D109B05C
:1046700030BD0000D00100202DE9FC410F46054669
:1046800000F088FC01A800F061F80446019818B118
:1046900001F046FABDE8FC81224EAFB170680068B7
:1046A000A8B30027291B3A46B06800F0A5FB01F02B
:1046B00037FA0028EED11C494FF080500860BFF354
:1046C0004F8FBFF36F8FE5E7A542EBD801F028FAD3
:1046D00030682746C068C468201D00F07FFAE06992
:1046E000012810D1A0692B4641193A462046FFF710
:1046F00033FF40B100200346014600902A46204681
:1047000001F0A0FA20B1616A20468847C2E707E0BD
:10471000502080F31188BFF34F8FBFF36F8FFEE7F8
:104720000127BFE7D001002004ED00E00648416802
:10473000096829B14168C968C96849680163704757
:104740004FF0FF31FAE700009401002070B50546F4
:1047500001F0BEF8064E04463069844203D200F0F0
:1047600009F8012000E0002028602046346170BD77
:10477000D0010020F8B5194D1FE0C068C468066874
:10478000201D00F02BFA616A20468847E069012865
:1047900013D1A0693044B04206D924616060211D64
:1047A000286800F053FA08E0002003460146009014
:1047B0003246204601F046FA38B1286801680029DF
:1047C000DBD16968C5E90010F8BD502080F311887D
:1047D000BFF34F8FBFF36F8FFEE70000D0010020C3
:1047E00008484068401C4FF0500080F3118804D006
:1047F000BFF34F8FBFF36F8FFEE7BFF34F8FBFF352
:104800006F8FFEE700020020074C2068016841B16D
:10481000C0680021D0F80000FFF72EFFFFF7C6FEAA
:10482000F3E701210020F7E7D00100202DE9F04156
:10483000044600F02FFA94F9455004F1240609E0EB
:10484000606A48B1304601F033F908B100F024FB4A
:104850006D1E6DB2002DF3DC4FF0FF3684F845601D
:1048600000F038FA00F016FA94F9445004F11007F9
:1048700009E0206948B1384601F01AF908B100F0A2
:104880000BFB6D1E6DB2002DF3DC84F84460BDE8B7
:10489000F04100F01FBA00002DE9F0410546002765
:1048A00000F078FB314E306808B9FFF779FDF06809
:1048B00005424BD1C5B3083568070ED005F0070097
:1048C000C0F108000544680707D0502080F3118824
:1048D000BFF34F8FBFF36F8FFEE72DB37068854234
:1048E00034D82248103001460C6801E020460C46BE
:1048F0006168A94202D221680029F7D131688C424F
:1049000024D007682168016060680837411B1029BE
:104910000FD96019420708D0502080F31188BFF3E7
:104920004F8FBFF36F8FFEE710E041606560FFF7C8
:10493000EDFD61687068401A7060B268904200D204
:10494000B060F06801430020C4E9000101F0E8F81C
:10495000780707D0502080F31188BFF34F8FBFF343
:104960006F8FFEE73846BDE8F0810000E8010020C7
:1049700010B5031F4FF080741C601B1F21F0010154
:104980001960191F024B0B60143940380A6010BDC2
:10499000E147000838B504004FF0FF355DD0314ADB
:1049A00061693148914207D1816941F48051816147
:1049B000816901F4805114E02C4A914207D1C16908
:1049C00041F48041C161C16901F4804109E0284A94
:1049D000914244D1C16941F40041C161C16901F40E
:1049E00000410091816941F001018161806900F01D
:1049F00001000090A068FCF76FFD2068FCF76CFDDB
:104A0000E068FCF769FD6068FCF766FDD4E9040125
:104A1000016021694FF48270486021694FF40040C1
:104A2000886021690020C860226902211161226921
:104A3000012151612269490291612169C86121699D
:104A40000862216948622169886221690A20C86276
:104A50002069FDF709FD002800D0284638BD6FF019
:104A6000010038BD00300140001002400038004015
:104A7000003C004010B50446C068FCF79EFD0A20CB
:104A8000FCF7EEFDE068FCF7A4FD0A20FCF7E8FD6A
:104A9000E068FCF792FD0A20FCF7E2FD002010BD63
:104AA00013B538B10069FF23012201A9FDF736FDD6
:104AB00040B21CBD4FF0FF301CBD70B504460D4622
:104AC0004068FCF786FD29462046FFF7E9FF0020F5
:104AD00070BD70B5044615460E464068FCF76DFD86
:104AE000FF232A4631462069FDF718FD002070BDDE
:104AF00010B50848FCF7F0FC06481830FCF7ECFC51
:104B000004483030FCF7E8FC0248BDE8104048306B
:104B1000FCF7E2BC2401002010B52548FCF74DFD50
:104B200023483030FCF749FD21481830FCF751FD8F
:104B30001F484830FCF74DFD0120FCF791FD1C4853
:104B4000FCF747FD1A483030FCF737FD184818309D
:104B5000FCF733FD16484830FCF73BFD0120FCF71D
:104B60007FFD1348FCF735FD11483030FCF731FD6F
:104B70000F481830FCF721FD0D484830FCF71DFDAB
:104B80000120FCF76DFD0A48FCF717FD084830309E
:104B9000FCF71FFD06481830FCF71BFD04484830A1
:104BA000FCF70BFDBDE810400120FCF759BD0000EB
:104BB0002401002010B50848FCF70BFD064818300A
:104BC000FCF707FD04483030FCF703FD0248BDE860
:104BD00010404830FCF7FDBC24010020D0E9013230
:104BE00001699A60D0E901235A604A68824201D182
:104BF00082684A60002202610868401E08600868F6
:104C000070470000034B036003F15C0008608020E4
:104C10001060704764090020044B036003F15C00DE
:104C200008604FF48070106070470000C00B0020D7
:104C300000F108014FF0FF32C0E90112C1600161CB
:104C400000210160704700210161704730B50B6899
:104C50005A1C02D000F1080202E0026904E0224678
:104C6000546825689D42FAD953684B6099608A6000
:104C7000516008610168491C016030BD42684A60AA
:104C800093688B6093685960916008610168491C62
:104C900001607047502080F31188BFF34F8FBFF33E
:104CA0006F8F0A494868401C486001280CD10848A9
:104CB000006810F0FF0F07D0502080F31188BFF379
:104CC0004F8FBFF36F8FFEE7704700000002002098
:104CD00004ED00E00849486828B1401E486001D151
:104CE00080F311887047502080F31188BFF34F8FF5
:104CF000BFF36F8FFEE700000002002070B50028B0
:104D000027D0144DA0F108046168E868014207D17A
:104D1000502080F31188BFF34F8FBFF36F8FFEE7F2
:104D200022683AB1502080F31188BFF34F8FBFF350
:104D30006F8FFEE78143616000F02CF9606869685D
:104D4000084468602046FFF7E1FBBDE8704000F0D2
:104D5000E7BE70BDE80100204FF0E02000210161B6
:104D6000816105494FF47A720968B1FBF2F1491E7D
:104D700041610721016170479001002010B5FBF7E8
:104D800099FA114910280ED300F1E02090F8F003B1
:104D90000A78904207D2502080F31188BFF34F8FDA
:104DA000BFF36F8FFEE709480068896800F4E06090
:104DB000884207D9502080F31188BFF34F8FBFF38B
:104DC0006F8FFEE710BD0000000200200CED00E038
:104DD00010B5084B002200BF53F832401CB1521CE2
:104DE000082AF9D310BD43F8321003EBC201486022
:104DF00010BD00004803002070B515460E4604465D
:104E0000FFF748FF94F944100020491C01D184F8B1
:104E1000440094F94510491C01D184F84500FFF77E
:104E200059FFA06B28B92A46314604F1240000F04E
:104E300051F82046BDE87040FFF7F8BC10B50200FD
:104E400014D00F48806B38B1502080F31188BFF325
:104E50004F8FBFF36F8FFEE700F09CF800211046E4
:104E6000FFF778F900F05CFE002807D105494FF004
:104E700080500860BFF34F8FBFF36F8F10BD0000ED
:104E80009401002004ED00E002498A6A0260496949
:104E90004160704794010020014901204862704739
:104EA0009401002010B50C4650B109490968183129
:104EB000FFF7CCFE2046BDE810400121FFF74AB9BC
:104EC000502080F31188BFF34F8FBFF36F8FFEE741
:104ED0009401002070B514460D4668B10A4909686E
:104EE0001831FFF7CBFE0CB14FF0FF3521462846B5
:104EF000BDE87040FFF72EB9502080F31188BFF352
:104F00004F8FBFF36F8FFEE79401002030B587B05D
:104F10000024039405AA04A903A80494FFF772FED1
:104F2000DDE903010094CDE90110002315A1174824
:104F3000059A00F0B8FB164D002868631FD000F0FA
:104F400051FE012809D0401C19D1502080F311884E
:104F5000BFF34F8FBFF36F8FFEE7502080F31188B0
:104F6000BFF34F8FBFF36F8F4FF0FF3028630120E7
:104F7000E8616C6107B0BDE8304000F045B807B0AB
:104F800030BD000049444C4500000000ED430008DE
:104F9000940100200248816B491C81637047000026
:104FA00094010020164810B5816B11B101214162B6
:104FB00010BD002141628169124A01E0B9B1491E68
:104FC00001EB810352F82330002BF7D001EB810372
:104FD00002EB830202F1080453685B685360A3424A
:104FE00001D15B685360DA680260816110BD5020B6
:104FF00080F31188BFF34F8FBFF36F8FFEE7000080
:1050000094010020880300201CB5264908780190EF
:10501000FF20087008788DF800009DF800009DF8CA
:10502000002000F0F000904207D0502080F311885B
:10503000BFF34F8FBFF36F8FFEE79DF800001A4B51
:1050400000F0500018700720986005E09DF80020DF
:1050500052008DF80020401E9DF800201206F5D465
:105060009860032807D0502080F31188BFF34F8F3A
:10507000BFF36F8FFEE74FF440709860019808709F
:105080000A48016841F470010160016841F0704113
:105090000160FFF761FE00205860FBF7D5F80020A3
:1050A0001CBD000000E400E00002002020ED00E054
:1050B000F8B517460E46050014D0DEB105FB06F024
:1050C0005030FFF7E9FB04000AD0002084F84600C6
:1050D00004F150023B46314628460094FFF7B6F9EA
:1050E0002046F8BD502080F31188BFF34F8FBFF3E7
:1050F0006F8FFEE70020E3E738B5049D18B153B188
:10510000CAB181B120E0502080F31188BFF34F8FE6
:10511000BFF36F8FFEE7502080F31188BFF34F8FEE
:10512000BFF36F8FFEE7502080F31188BFF34F8FDE
:10513000BFF36F8FFEE739B1502080F31188BFF3C2
:105140004F8FBFF36F8FFEE750241C46012384F876
:1051500046302B460094FFF779F9204638BD000011
:1051600070B50D46040025D0FFF794FDD4E90F205B
:10517000216802FB001161600021A1632168A16028
:105180000A46D4E90F01401E00FB0121E1602146DF
:105190004FF0FF3001F8440F487004F110008DB15A
:1051A000FFF746FD04F12400FFF742FDFFF792FDF3
:1051B000012070BD502080F31188BFF34F8FBFF3E3
:1051C0006F8FFEE721690029F0D000F071FC002804
:1051D000ECD004494FF080500860BFF34F8FBFF30D
:1051E0006F8FE3E704ED00E02DE9FF4782B01D4635
:1051F0008A464FF00008040003D0BAF1000F08D02F
:1052000011E0502080F31188BFF34F8FBFF36F8FF1
:10521000FEE7206C38B1502080F31188BFF34F8F28
:10522000BFF36F8FFEE7022D0AD1E06B012807D094
:10523000502080F31188BFF34F8FBFF36F8FFEE7CD
:1052400000F038FB3F4F4FF000094FF0805648B94F
:10525000049838B1502080F31188BFF34F8FBFF30B
:105260006F8FFEE7FFF716FDA06BE16B884207D357
:10527000022D05D00498D0B1B8F1000F1AD01EE06D
:105280002A4651462046FFF73AF8616A19B104F1FF
:10529000240000F00DFC20B13E60BFF34F8FBFF340
:1052A0006F8FFFF717FD012006B0BDE8F087FFF70D
:1052B00011FD22E06846FFF7E7FD4FF00108FFF718
:1052C00009FDFFF767FEFFF7E5FC94F94400401C79
:1052D00001D184F8449094F94500401C01D184F830
:1052E0004590FFF7F7FC04A9684600F075F930B166
:1052F0002046FFF79BFA00F013FC0020D4E7FFF7ED
:10530000C9FCA06BE16B884213D1FFF7E3FC04F109
:1053100010000499FFF7C6FD2046FFF787FA00F05A
:10532000FFFB00289ED13E60BFF34F8FBFF36F8F0E
:1053300098E7FFF7CFFC2046FFF778FA00F0F0FB84
:1053400090E7000004ED00E02DE9F0471F4690468D
:105350008946040003D0B9F1000F08D011E05020B5
:1053600080F31188BFF34F8FBFF36F8FFEE7206C80
:1053700038B1502080F31188BFF34F8FBFF36F8F88
:10538000FEE7022F0AD1E06B012807D0502080F3FE
:105390001188BFF34F8FBFF36F8FFEE7FFF7EEFC6F
:1053A0005020EFF3118680F31188BFF34F8FBFF3C6
:1053B0006F8FA06BE16B884206D3022F04D00020D0
:1053C00086F31188BDE8F08794F945503A4649467E
:1053D0002046FEF794FF681C04D06D1C84F84550ED
:1053E0000120EDE7606A0028FAD004F1240000F003
:1053F0005FFB0028F4D0B8F1000FF1D00121C8F80C
:105400000010EDE72DE9F747002683B08A46040037
:1054100003D0BAF1000F08D011E0502080F31188BA
:10542000BFF34F8FBFF36F8FFEE7206C38B1502072
:1054300080F31188BFF34F8FBFF36F8FFEE700F04B
:1054400039FADFF8F4804FF000094FF0805748B97F
:10545000059838B1502080F31188BFF34F8FBFF308
:105460006F8FFEE7FFF716FCA56BC5B151462046CE
:10547000FEF732FF6D1EA563206950B104F11000E4
:1054800000F016FB28B1C8F80070BFF34F8FBFF3D0
:105490006F8FFFF71FFC012006B0BDE8F08705986D
:1054A00008B11EB106E0FFF715FC27E06846FFF7DC
:1054B000EBFC0126FFF70EFCFFF76CFDFFF7EAFBA4
:1054C00094F94400401C01D184F8449094F94500BB
:1054D000401C01D184F84590FFF7FCFB05A9684604
:1054E00000F07AF8002820460AD0FFF79FF900F074
:1054F00017FB2046FFF74CF80028B3D00020CBE77D
:10550000FFF746F890B104F124000599FFF7CAFCB3
:105510002046FFF78BF900F003FB0028A2D1C8F862
:105520000070BFF34F8FBFF36F8F9BE72046FFF7ED
:105530007DF900F0F5FA95E704ED00E02DE9F0477C
:1055400090468946040003D0B9F1000F08D011E05D
:10555000502080F31188BFF34F8FBFF36F8FFEE7AA
:10556000206C38B1502080F31188BFF34F8FBFF308
:105570006F8FFEE7FFF702FC5020EFF3118680F3F8
:105580001188BFF34F8FBFF36F8FA76BF7B194F9FB
:10559000445049462046FEF79FFE7F1EA763681CC5
:1055A00004D06D1C84F84450012010E020690028CC
:1055B000FAD004F1100000F07BFA0028F4D0B8F122
:1055C000000FF1D00121C8F80010EDE7002086F3AC
:1055D0001188BDE8F08700002DE9F0410C46050078
:1055E00011D0C4B1FFF756FB174B5A696E6820689B
:1055F000911B471C17D02F689B6A9F4219D0964277
:1056000017D8012410E0502080F31188BFF34F8F8A
:10561000BFF36F8FFEE7502080F31188BFF34F8FE9
:10562000BFF36F8FFEE70024FFF754FB2046BDE871
:10563000F081884205D9401A20602846FFF724FCF3
:10564000F1E700202060DCE7940100202DE9FF5FF6
:105650008346DDE90E87994616468A469000FFF795
:105660001BF905001CD05C20FFF716F9040014D0CC
:105670000020256384F85900CDE90240CDE9008778
:105680004B46324651465846FEF7F1FE2046FEF79D
:105690008FFD012004B0BDE8F09F2846FFF72EFBE8
:1056A0004FF0FF30F6E7F0B585B0DDE90B640A9DF9
:1056B000A6B1DCB15C2700972663022684F8596006
:1056C000002604AFCDE90246CDE90057FEF7CFFE34
:1056D0002046FEF76DFD049805B0F0BD502080F324
:1056E0001188BFF34F8FBFF36F8FFEE7502080F319
:1056F0001188BFF34F8FBFF36F8FFEE72DE9F041A5
:105700001F4690460D46012690B10446FFF7C2FAA7
:105710000FB1606D386094F85800022184F8581079
:10572000B8F1050F16D2DFE808F0150B0E141200C1
:10573000502080F31188BFF34F8FBFF36F8FFEE7C8
:10574000616D294301E0616D491C616502E0022839
:1057500003D06565012802D029E0002627E0201D3E
:10576000FFF73CFA144DE06AA969884200D9A861A4
:10577000124900EB800001EB8000211DFFF77EFA4B
:10578000A06A38B1502080F31188BFF34F8FBFF368
:105790006F8FFEE7E06A2968C96A884207D908491D
:1057A0004FF080500860BFF34F8FBFF36F8FFFF74C
:1057B00091FA3046BDE8F081940100208803002072
:1057C00004ED00E02DE9F0471F46DDF820909246F9
:1057D0000D4604004FF001081AD0FFF7CFFA502011
:1057E000EFF3118680F31188BFF34F8FBFF36F8FF4
:1057F0000FB1606D386094F85800022184F8581099
:10580000BAF1050F16D2DFE80AF0150B0E141200DC
:10581000502080F31188BFF34F8FBFF36F8FFEE7E7
:10582000616D294301E0616D491C616502E0022858
:1058300003D06565012803D030E04FF000082DE06B
:10584000A06A38B1502080F31188BFF34F8FBFF3A7
:105850006F8FFEE7144DA86B18B104F118011348BF
:105860000DE0201DFFF7BAF9E06AA969884200D966
:10587000A8610F4900EB800001EB8000211DFFF7BC
:10588000FDF9E06A2968C96A884207D90120B9F19F
:10589000000F02D0C9F8000000E0686286F31188AA
:1058A0004046BDE8F0870000940100201008002069
:1058B000880300200548C16919B1806B18B1002028
:1058C00070470120704702207047000094010020BB
:1058D0000148406970470000940100202DE9F04123
:1058E0002E4C0027A06B40B1206A401C2062606AE9
:1058F00000B101273846BDE8F0816669761C666113
:1059000013D16068006838B1502080F31188BFF36C
:105910004F8FBFF36F8FFEE76068A1686160A06082
:10592000A06A401CA062FEF701FF206BDFF87080C8
:10593000864209D36068006880B16068C068C56845
:10594000686886420DD220632068C06A00EB80013F
:1059500058F821000128CAD90127C8E74FF0FF30C5
:10596000F1E7281DFFF73AF9A86A18B105F1180008
:10597000FFF734F9E86AA169884200D9A06100EB19
:10598000800108EB8100291DFFF778F9E86A21689A
:10599000C96A8842CED30127CCE7000094010020D9
:1059A000880300202DE9F0411E461546884607462B
:1059B000FFF770F91C4C206890F85800022814D0AA
:1059C0002068416DB94341652168012081F8580084
:1059D0005EB101213046FEF7BDFB14494FF0805007
:1059E0000860BFF34F8FBFF36F8FFFF773F9FFF7B7
:1059F00051F915B12068406D2860206890F8580072
:105A0000022801D0002505E02068416D21EA080147
:105A1000416501252168002081F85800FFF75AF9F7
:105A20002846BDE8F08100009401002004ED00E06C
:105A300070B504004FF0000133D01B4D286884423C
:105A400007D0502080F31188BFF34F8FBFF36F8FC3
:105A5000FEE7206D38B1401E2065E36CE26A9A4291
:105A60001FD040B11DE0502080F31188BFF34F8F4D
:105A7000BFF36F8FFEE7201DFFF7B0F8E06CE06228
:105A8000C0F13800A061E06AA969884200D9A86124
:105A9000064900EB800001EB8000211DFFF7EEF8C6
:105AA0000121084670BD00009401002088030020F9
:105AB00070B5C068C46854B104F118000646FFF719
:105AC0008DF8144DA86B50B13146134815E05020A5
:105AD00080F31188BFF34F8FBFF36F8FFEE7201D58
