:020000040800F2
:10000000500F0020E1010008870F0008830F00084F
:10001000850F00084D020008811200080000000052
:10002000000000000000000000000000490100087E
:100030004F020008000000008D010008F90F0008C1
:10004000FB010008FB010008FB010008FB010008A0
:10005000FB010008FB010008FB010008FB01000890
:10006000FB010008FB010008FB010008FB01000880
:10007000FB010008FB010008FB010008FB01000870
:10008000FB010008FB010008FB010008FB01000860
:10009000FB010008FB010008FB010008FB01000850
:1000A000FB010008FB010008FB010008FB01000840
:1000B00085100008FB010008FB010008FB01000897
:1000C000FB010008FB010008FB010008FB01000820
:1000D000FB010008FB010008FB010008FB01000810
:1000E000FB010008FB010008FB010008FB01000800
:1000F000FB010008FB010008FB010008FB010008F0
:10010000FB010008FB010008FB010008FB010008DF
:10011000FB010008FB010008FB010008FB010008CF
:10012000FB010008FB010008FB010008FB010008BF
:10013000DFF810D000F078F80048004731130008CD
:10014000AFF30080500F0020224B19680868B0E818
:10015000F00F80F30988BFF36F8F4FF0000080F33A
:1001600011884EF00D0E7047000000000648006830
:10017000006880F3088862B661B6BFF34F8FBFF3A3
:100180006F8F00DF00BF00BF08ED00E0EFF30980D4
:10019000BFF36F8F0F4B1A6820E9F00F106008B59E
:1001A0004FF0500080F31188BFF34F8FBFF36F8F74
:1001B00001F032FB4FF0000080F31188BDE80840E9
:1001C00019680868B0E8F00F80F30988BFF36F8FF3
:1001D000704700BF40000020EFF30580704700002B
:1001E0000648804706480047FEE7FEE7FEE7FEE7D1
:1001F000FEE7FEE7FEE7FEE7FEE7FEE78310000806
:1002000031010008D2B201E000F8012B491EFBD2F7
:1002100070470022F6E710B513460A460446194611
:10022000FFF7F0FF204610BD064C074D06E0E068E2
:1002300040F0010394E8070098471034AC42F6D32D
:10024000FFF77AFF581A0008781A0008FEE770478F
:1002500010B586B000210091019102914B1E0391CF
:10026000F0B3264C02682649A24207D18A6942F0BF
:1002700004028A61896901F004012AE0214CA2424A
:1002800007D18A6942F008028A61896901F0080190
:100290001FE01D4CA24207D18A6942F010028A6118
:1002A000896901F0100114E0184CA24207D18A6953
:1002B00042F020028A61896901F0200109E0144CB2
:1002C000A24218D18A6942F040028A61896901F02C
:1002D000400104918188009181680191C16800E02A
:1002E00009E00291016903910068694600F02AF86B
:1002F000002006B010BD1846FBE7000000080140D2
:1003000000100240000C01400010014000140140A8
:100310000018014010B530B181880068012200F05A
:100320000DF9002010BD4FF0FF3010BD10B530B1F9
:1003300081880068002200F001F9002010BD4FF014
:10034000FF3010BD2DE9F84FDFF8C8910024A9F166
:10035000040B23460F2709F1040AABF1040ED1E088
:100360000125A54006EA0502AA4276D1DFF8A8C118
:100370004E68A6EB0C0866452BD00DDC032E34D05E
:1003800005DC36B3012E19D0022E2FD11BE0112E21
:1003900016D0122E2AD119E0B8F5881F19D006DC24
:1003A000B8F5803F15D0B8F5801F1FD111E0B8F522
:1003B000001F0ED0B8F5041F18D10AE0CB6815E075
:1003C000CB681B1D12E0CB6808330FE0CB680C3301
:1003D0000CE08B682BB1012B4FF0080303D0456173
:1003E00004E0042302E0056100E00023FF2A01D8B5
:1003F000064601E000F104064FEA840501D9A5F1A3
:100400002005D6F8008007FA05FC28EA0C0803FA54
:1004100005F548EA0508C6F800804D68ED0070D57E
:100420003E4DAE6946F00106AE61AD6924F00306AB
:1004300005F0010500953A4D06EB050CDCF8085077
:10044000A607360F07FA06F825EA0805DFF8D48074
:10045000404503D14FF0000825E052E0DFF8C880A6
:10046000404502D14FF001081DE0DFF8C080404553
:1004700002D14FF0020816E0DFF8B480404502D107
:100480004FF003080FE0DFF8AC80404502D14FF099
:10049000040808E0DFF8A080404502D14FF00508CD
:1004A00001E04FF0060808FA06F848EA0508CCF81B
:1004B00008804D68D9F80060ED024D4601D516431D
:1004C00000E096432E604D68DAF80060AD025546B4
:1004D00001D5164300E096432E604D68DBF80060BE
:1004E000AD035D4601D5164300E096432E604D688E
:1004F000DEF80060ED03754601D5164300E0964333
:100500002E60641C0A681646E2407FF429AFBDE8FD
:10051000F88F000008040140000011100010024094
:100520000000014000080140000C014000100140A3
:100530000014014000180140001C01400AB1016193
:1005400070470904FBE7000001488068704700001D
:1005500030000020024881680278114481607047B1
:1005600030000020074810B5016841F0100101601B
:10057000032000F08FF80F2000F006F800F03EF89E
:10058000002010BD0020024000B5014687B00022C7
:100590001C2000F05FF81C2000F04EF81448C169E0
:1005A00041F00101C161C06905A900F00100069098
:1005B000684600F017F900F035F90E494000B0FB2D
:1005C000F1F10D484FF08042491E0260416040F257
:1005D000E7320021C0E90321816000F0FBFA10B18D
:1005E000012007B000BD044800F022FBF9E700003D
:1005F0000010024040420F00A80000200C4808B53F
:10060000816941F001018161816901F0010100917D
:10061000C16941F08051C161C06900F08050009013
:100620000448416821F0E06141F00071416008BD7B
:100630000010024000000140002809DB00F01F020A
:10064000012191404009800000F1E020C0F8001134
:1006500070470000F0B40E4B1B680C46C3F3022336
:10066000C3F10705042D00D90425191D072901D25E
:10067000002300E0DB1E012606FA05F1491E214099
:1006800099409E40761E16403143F0BC00F002BEF9
:100690000CED00E0064900F0070208684FF6FF0382
:1006A000184040EA0220034A1043086070470000E7
:1006B0000CED00E00000FA052DE9F0470F460500BB
:1006C00061D0434E306800F00700B84209D230686C
:1006D00020F0070038433060306800F00700B8426F
:1006E00051D128683B4C810712D5400703D560687B
:1006F00040F4E06060602878000703D5606840F44B
:10070000605060606068A96820F0F0000843606095
:100710002878C00728D06868012810D021680228EE
:1007200010D0890700292EDA616821F00301014306
:100730006160FFF709FF804641F288390DE02168CA
:100740008903EFE78901EDE7FFF7FEFEA0EB080163
:10075000494502D90320BDE8F0876068696800F068
:100760000C00B0EB810FEFD1306800F00700B84209
:100770000BD9306820F0070038433060306800F053
:100780000700B84201D00120E5E72878400705D5E9
:100790006068E96820F4E06008436060287800073A
:1007A00006D56068296920F4605040EAC1006060A5
:1007B00000F058F86168084AC1F30311515CC84061
:1007C0000649086006480068FFF7DEFE0020C2E721
:1007D00000200240001002403E1A00083C000020A9
:1007E000340000200F2202600C4A536803F0030318
:1007F0004360536803F0F0038360536803F4E063DD
:10080000C36052684FF4E06303EAD2020261044815
:10081000006800F007000860704700000010024008
:10082000002002400448054900684968044AC1F3B1
:100830000221515CC84070473C000020001002407B
:100840004E1A00080448054900684968044AC1F383
:10085000C221515CC84070473C000020001002409B
:100860004E1A00080E4A51680E4801F00C03042B82
:1008700011D0082B0FD10C48C1F38343C903C05CCE
:100880000AD55168084AC1F34041921E515C054A9D
:100890005043B0FBF1F070470449484370470000F3
:1008A0000010024000127A002E1A000800093D00D4
:1008B0002DE9F84F040070D02078C04DC00749D012
:1008C0006868C0F38100012807D06868C0F3810020
:1008D000022809D16868C00306D52868800339D585
:1008E00060680028E7D035E06068B0F5803F0BD045
:1008F00010B1B0F5A02F11D0286820F48030286006
:10090000286820F4802002E0286840F480302860C5
:10091000606890B1FFF718FE06460AE0286840F4C8
:1009200080202860F0E700BFFFF70EFE801B6428E0
:1009300073D828688003F7D50CE0FFF705FE06465C
:1009400005E000BFFFF700FE801B6428F0D8286890
:100950008003F7D420789A4E80074FF001094FF0BA
:10096000000839D5686810F00C0F07D06868C0F32C
:100970008100022809D16868C00306D4286880076E
:1009800014D52069012808D110E02069B0B1C6F85B
:100990000090FFF7D9FD074605E00AE1FFF7D4FD17
:1009A000C01B0228C4D828688007F7D52868616969
:1009B00020F0F80040EAC10028600DE0C6F8008091
:1009C000FFF7C2FD074604E0FFF7BEFDC01B02288B
:1009D00023D828688007F7D4207800072CD57948D9
:1009E000A169D9B1C0F80090FFF7AEFD074604E059
:1009F000FFF7AAFDC01B02280FD8686A8007F7D549
:100A000071484FF4FA510068B0FBF1F0009000BF5C
:100A10000098411E0091FAD20EE080E0C0F80080FC
:100A2000FFF792FD074604E0FFF78EFDC01B02288A
:100A300075D8686A8007F7D42078400760D5E869E0
:100A40000027C00008D4E86940F08050E861E869F8
:100A5000012700F0805000905C480168C90513D45C
:100A60000168834641F480710160FFF76DFD8246A5
:100A700006E000BFFFF768FDA0EB0A0064284ED82F
:100A8000DBF80000C005F5D5E06801280AD008B100
:100A9000052813D0286A20F001002862286A20F077
:100AA000040002E0286A40F001002862E06841F298
:100AB000883B98B1FFF748FD82460BE0286A40F07A
:100AC00004002862EEE700BFFFF73EFDA0EB0A013D
:100AD00059455AD8286A8007F6D50CE0FFF734FD4F
:100AE000824605E0FFF730FDA0EB0A0159454CD8DE
:100AF000286A8007F6D41FB1E86920F08050E861C9
:100B0000E06988B36968C1F38101022944D00228F1
:100B1000C6F8608004D0FFF717FD044638E034E0E3
:100B2000FFF712FD074604E0FFF70EFDC01B022889
:100B30002BD828688001F7D4206AB0F5803F05D112
:100B40006868A16820F4003008436860D4E90801AF
:100B50000843696821F4741108436860C6F860901E
:100B6000FFF7F2FC044606E025E000BFFFF7ECFCCF
:100B7000001B022809D828688001F7D51BE000BFB8
:100B8000FFF7E2FC001B022802D90320BDE8F88F22
:100B900028688001F4D40EE00128F7D06868226A42
:100BA00000F48031914204D1616A00F470108842EF
:100BB00001D00120EAE70020E8E700000010024031
:100BC00000004242800442423C000020007000408D
:100BD0007047704710B5040003D094F83D0010B181
:100BE00007E0012010BD002084F83C00204600F002
:100BF0001EF8022084F83D00211D206800F048FA0C
:100C0000012084F8460084F83E0084F83F0084F810
:100C1000400084F8410084F8420084F8430084F8DE
:100C2000440084F8450084F83D00002010BD704762
:100C300090F83D10012901D001207047022180F871
:100C40003D100168CA6842F00102CA6000680E499E
:100C500088420ED00D4988420BD0B0F1804F08D0A9
:100C60000B49884205D00B49884202D00A49884284
:100C700004D1816801F00701062903D0016841F021
:100C80000101016000207047002C01400034014048
:100C90000004004000080040000C0040704770B5A0
:100CA0000446006801694FF00005C943890715D45F
:100CB000C168C943890711D4E91E01610120207769
:100CC000206880698007204602D0FFF7E7FF04E034
:100CD00000F098F8204600F096F825772068016922
:100CE000C943490717D4C168C943490713D46FF0F2
:100CF00004010161022020772068806910F4407FA0
:100D0000204602D0FFF7CAFF04E000F07BF820463F
:100D100000F079F8257720680169C943090716D4DE
:100D2000C168C943090712D46FF0080101610420AA
:100D300020772068C0698007204602D0FFF7AEFF09
:100D400004E000F05FF8204600F05DF825772068A9
:100D50000169C943C90617D4C168C943C90613D478
:100D60006FF010010161082020772068C06910F43D
:100D7000407F204602D0FFF791FF04E000F042F8E8
:100D8000204600F040F8257720680169C943C9076B
:100D900008D1C168C943C90704D1891E0161204631
:100DA00000F032F820680169C943090609D4C16816
:100DB000C943090605D46FF0800101612046FFF7A1
:100DC00007FF20680169C943490609D4C168C943BE
:100DD000490605D46FF040010161204600F01BF880
:100DE00020680169C94389060BD4C168C9438906D3
:100DF00007D46FF0200101612046BDE87040FFF785
:100E0000E8BE70BD704770470068B0F1804F01D1F7
:100E1000FFF7A0BB7047704770B5040004D094F88A
:100E20004100002510B106E0012070BD84F840505B
:100E3000204600F023F8242084F841002068C1688F
:100E400021F40051C160204600F068F92068016972
:100E500021F4904101612068416921F02A0141613A
:100E60002068C16841F40051C1606564202084F8A5
:100E7000410084F842006563002070BD30B5006811
:100E8000164985B0884226D11548816941F48041D0
:100E90008161816901F480410491816941F004011B
:100EA00081618069002400F0040004904FF4007018
:100EB00000900220CDE9010403200A4D0390694609
:100EC0002846FFF73FFA2815CDE900046946284671
:100ED0000294FFF737FA05B030BD0000003801403A
:100EE00000100240000801402DE9F843044690F844
:100EF00041001F4616460D46202802D00220BDE8BC
:100F0000F8837DB176B100206064212084F841002F
:100F1000FFF71AFBA6848046E684A068B0F5805FE0
:100F200002D003E00120EAE7206910B12E46002537
:100F30000EE000260CE08021204600F04BF9A0B91D
:100F4000AEB116F8010B21684860E08C401EE084C9
:100F5000E08C43464FF0000200970028EBD14FF0A1
:100F60004001204600F036F930B10320C7E735F8DC
:100F7000020BC0F30800E6E7202084F841000020BF
:100F8000BDE7FEE7FEE7FEE70EB50F480124A0F53A
:100F900080710094CDE901100C4B40220CA10F4848
:100FA00000F074FC0E4D104B402228600D48009458
:100FB000A0F58071CDE901100CA1084800F066FC95
:100FC000686000F0EFFBFEE78806002000000020CC
:100FD0006C6564315F737461746963000D1300089C
:100FE00028000020D4070020140000206C65643223
:100FF0005F7374617469630010B5502080F31188C9
:10100000BFF34F8FBFF36F8F00F05CFC18B1044942
:101010004FF080500860002080F3118810BD000060
:1010200004ED00E030B58FB028216846FFF7F1F8F5
:1010300014210AA8FFF7EDF801210804CDE90010FA
:101040000024029402250491CDE907504FF4E010EA
:1010500009906846FFF72CFC08B172B6FEE70F2036
:10106000CDE90A054FF48060CDE90C4002210AA8C1
:101070000E94FFF721FB002801D072B6FEE70FB0F7
:1010800030BD70470148FFF70ABE0000A8000020ED
:10109000F0B502681C4B1D4D1D4E1E4F1E4C4FF0EF
:1010A000804C984209D0A04207D0604505D0A842A4
:1010B00003D0B04201D0B84204D122F0700E4A6889
:1010C00042EA0E02984209D0A04207D0604505D0FE
:1010D000A84203D0B04201D0B84203D122F44075F7
:1010E000CA682A434D6922F080022A4302608A6856
:1010F000C2620A688262984201D0A04201D10969A5
:10110000016301214161F0BD002C01400004004059
:1011100000080040000C00400034014070B5044657
:1011200000680169E26821F44051114301612169BD
:10113000A0680843616908432168CA6841F20C63EA
:101140009A430243CA6020684169A26921F4407150
:10115000114341611E492068884202D1FFF772FBAA
:1011600001E0FFF75FFB00EBC00101EB00126068DC
:1011700064218000B2FBF0F3B3FBF1F36FF01806CB
:101180007343B2FBF0F5B2FBF0F605EB83053223B7
:1011900003EB0515B5FBF1F5B6FBF1F605F0F0052F
:1011A00005EB0615B2FBF0F6B2FBF0F0B0FBF1F088
:1011B0006FF01802504306EB800003EB0010B0FB09
:1011C000F1F0216800F00F002844886070BD000035
:1011D000003801402DE9F041984617460E46044676
:1011E000069D27E0681C25D02DB1FFF7ADF9A0EBD7
:1011F0000800A8421ED920680C3050E8001F21F4D6
:10120000D07140E80012002AF5D12068143050E86F
:10121000001F21F0010140E80012002AF5D1202032
:1012200084F8410084F84200002084F84000032044
:10123000BDE8F0812068006836EA000004D0002094
:10124000B842CFD00020F3E70120F9E70B4910B5F1
:10125000094AC1E90020002088600C22C860C1E969
:1012600004028861C8610846FFF7D6FD002801D056
:101270004FF0FF3010BD0000003801402008002072
:10128000FEE70000014A024900F023B8F512000809
:10129000A40000200907090E002804DB00F1E0206B
:1012A00080F80014704700F00F0000F1E02080F893
:1012B000141D704702E008C8121F08C1002AFAD1A5
:1012C00070477047002001E001C1121F002AFBD1C6
:1012D00070472DE9F04116460F460446002503E00D
:1012E0003946B047641C6D1C20780028F8D1284688
:1012F000BDE8F08113B54FF6FF730122694602483D
:10130000FFF7F2FD00981CBD200800200446FEF700
:101310009FFF4FF4FA752046FEF7FCFF284600F0C9
:1013200029FA2046FFF702F8284600F023FAF2E7F0
:10133000FFF718F9FFF776FE4FF4E130FFF786FF6D
:1013400002A0FFF79FFFFFF71FFEFEE748656C6CEA
:101350006F204672656552544F530D0A000000001D
:101360002DE9F041184C0F460546E6682068001D3F
:1013700000F064F938B9206890F82C1001208840FA
:10138000216981432161681C07D137B12168BDE81B
:10139000F0410E48091D00F095B920683544B5426A
:1013A0004560216805D2E06BBDE8F041091D00F001
:1013B00071B9A06B091D00F06DF9A06A854200D2D9
:1013C000A562BDE8F081000040000020380B00203D
:1013D0002DE9F041054600F081F92D4CA068401C34
:1013E000A06020682B4F10B1606930B32BE02560FE
:1013F000A068012827D1002606EB860007EB8000B5
:1014000000F03AF9761C202EF6D3234800F034F988
:101410002148143000F030F91F48283000F02CF932
:101420001D483C3000F028F91B48503000F024F9EA
:101430001948A0631430E06305E02068E96AC06AD7
:10144000884200D82560606A401C6062E96A012019
:10145000226988401043206101EB810007EB800086
:10146000291D00F02FF900F047F9606900280CD021
:101470002068E96AC06A884207D208494FF0805064
:101480000860BFF34F8FBFF36F8FBDE8F08100009E
:101490004000002068080020E80A002004ED00E079
:1014A00010B5044690F8490030B1012808D1204613
:1014B000BDE8104000F02AB9206B00F027F9F6E7EC
:1014C00010BD0000144E154CA6F52F774FF0805834
:1014D000DFF84C9012E000BF00F000F9F068C5683A
:1014E000281D00F0ABF8A068401EA0606068401E98
:1014F000606000F001F92846FFF7D2FF606800281D
:10150000EAD138680128F9D9C9F80080BFF34F8FB4
:10151000BFF36F8FF2E70000240B00204000002093
:1015200004ED00E02DE9F0479A46DDE909748146B3
:101530006FF00303206B03EB8202089E104420F03F
:101540000708002561B1002023180A5C83F83420C5
:101550000A5C12B1401C1028F6D384F8435001E015
:1015600084F83450202E00D31F26201DE66200F0A0
:101570008EF804F1180000F08AF82461C6F120000A
:101580006462A061656484F848505246494640460A
:1015900000F042F82060002F00D03C60BDE8F087EA
:1015A00030B5114900E011460A688242FBD34B680E
:1015B0005C18844203D14068184448600846436878
:1015C0001C18944209D1084C183C2468A24209D046
:1015D00052681A4442600A6812680260814200D070
:1015E000086030BD0460F9E79C0000200548816B6D
:1015F000096821B1816BC9680968816270474FF041
:10160000FF31FAE740000020502080F31188BFF33B
:101610004F8FBFF36F8FFEE710B5031F4FF080743D
:101620001C601B1F21F001011960191F024B0B6088
:10163000143940380A6010BD09160008D0E901329B
:1016400001699A60D0E901235A604A68824201D157
:1016500082684A60002202610868401E08600868CB
:1016600070470000034B036003F14C0008608020CA
:1016700010607047F000002000F108014FF0FF32C9
:10168000C0E90112C16001610021016070470021C1
:101690000161704730B50B685A1C02D000F1080296
:1016A00002E0026904E02246546825689D42FAD9A6
:1016B00053684B6099608A60516008610168491CF9
:1016C000016030BD42684A6093688B6093685960DE
:1016D000916008610168491C01607047502080F3E7
:1016E0001188BFF34F8FBFF36F8F02480168491C09
:1016F000016070478000002003490868401E0860B0
:1017000001D180F3118870478000002070B5002857
:101710001BD00E4DA0F1080461686869014214D025
:101720002268002A11D18143616000F06DF8606881
:101730006968084468602046FFF732FF2869401C4A
:101740002861BDE8704000F017B970BD840000202A
:101750004FF0E02000210161816105494FF4FA5208
:101760000968B1FBF2F1491E416103210161704733
:101770003C00002010B5020009D000F045F800211F
:101780001046FFF7EDFD00F0F7F8002807D10449F7
:101790004FF080500860BFF34F8FBFF36F8F10BDC5
:1017A00004ED00E030B587B00024039405AA04A935
:1017B00003A80494FFF756FFDDE903010094CDE987
:1017C000011000230CA10E48059A00F05FF80D4DA2
:1017D000E86270B1502080F31188BFF34F8FBFF3E0
:1017E0006F8F4FF0FF30A86201206861EC6000F05D
:1017F00035F8286B07B030BD49444C450000000067
:10180000C5140008400000200248416B491C416398
:1018100070470000400000200E48416B11B10121CB
:10182000C16170470021C16101690B4AB1FA81F1C0
:10183000C1F11F0101EB810102EB810101F10803FC
:101840004A6852684A609A4201D152684A60D16837
:10185000016070474000002068080020094810B56A
:10186000016841F470010160016841F0704101605C
:10187000FFF76EFF044900200860FEF777FC0020A8
:1018800010BD000020ED00E080000020F0B585B024
:101890000026DDE90B540A9F7CB175B12563022552
:1018A00084F8495004AD00970396CDE90154FFF741
:1018B00039FE2046FFF78CFD00E00496049805B041
:1018C000F0BD00002DE9F041294C0027606B28B1E4
:1018D000A069401CA0613846BDE8F081E668761C2E
:1018E000E66008D1A06BE16BA163E063206A401C55
:1018F0002062FFF77BFEA06ADFF87880864209D37A
:10190000A06B0068A0B1A06BC068C568686886421B
:1019100011D2A0622068C06A00EB800158F8210053
:10192000012800D90127E0690028D4D00127D2E797
:101930004FF0FF30EDE7281DFFF780FEA86A18B1D1
:1019400005F11800FFF77AFEE86A0121226981405B
:101950001143216100EB800108EB8100291DFFF795
:10196000B1FEE86A2168C96A8842C9D30127C7E77E
:1019700040000020680800202DE9F047002426469A
:10198000FFF7ACFE264D686B401E6863686BE0BBDA
:10199000A968244F0120C1B3A7F52A798046386889
:1019A000E8B1F868C46804F11800FFF747FE201D8D
:1019B000FFF744FEE06A2A6908FA00F11143296141
:1019C00000EB800109EB8100211DFFF77BFEE06A3F
:1019D0002968C96A8842E2D3C5F81C80DFE70CB1E8
:1019E000FFF704FEAC694CB14FEA0807FFF76AFF46
:1019F00000B1EF61641EF9D10020A861E86920B14F
:101A0000094901263007086000E003E0BFF34F8F6B
:101A1000BFF36F8FFFF770FE3046BDE8F087000020
:101A200040000020100B002004ED00E00102020342
:101A30000405060708090A0B0C0D0E0F1010000014
:101A4000000000000000010203040607080900006E
:101A50000000010203040000781A000800000020C2
:101A6000A8000000B4120008201B0008A8000020F5
:101A7000A80E0000C4120008000801404000000049
:101A80000100000001000000020000000008014009
:101A90002000000001000000010000000200000022
:101AA0000000000000000000010000001000000025
:101AB000000000000024F40000000000000000000E
:101AC0000000000000000000000000000000000016
:101AD0000000000000000000000000000000000006
:101AE00000000000000000001F00000000000000D7
:101AF0000000000000000000AAAAAAAA000000003E
:101B000000000000000000000000000000000000D5
:101B100000000000000000000000000000000000C5
:0400000508000131BD
:00000001FF
