:020000040800F2
:10000000B0300020E10100082B1600085F15000841
:1000100029160008E3070008FD1900080000000089
:10002000000000000000000000000000490100087E
:10003000E5070008000000008D01000875170008A2
:10004000FB010008FB010008FB010008FB010008A0
:10005000FB010008FB010008FB010008FB01000890
:10006000FB010008FB010008FB010008FB01000880
:10007000FB010008FB010008FB010008FB01000870
:10008000FB010008FB010008FB010008FB01000860
:10009000FB010008FB010008FB010008FB01000850
:1000A000FB010008FB010008FB010008FB01000840
:1000B00001180008FB010008FB010008FB01000813
:1000C000FB010008FB010008FB010008FB01000820
:1000D000FB010008FB010008FB010008FB01000810
:1000E000FB010008FB010008FB010008FB01000800
:1000F000FB010008FB010008FB010008FB010008F0
:10010000FB010008FB010008FB010008FB010008DF
:10011000FB010008FB010008FB010008FB010008CF
:10012000FB010008FB010008FB010008FB010008BF
:10013000DFF810D000F09AFA004800477124000858
:10014000AFF30080B0300020224B19680868B0E897
:10015000F00F80F30988BFF36F8F4FF0000080F33A
:1001600011884EF00D0E7047000000000648006830
:10017000006880F3088862B661B6BFF34F8FBFF3A3
:100180006F8F00DF00BF00BF08ED00E0EFF30980D4
:10019000BFF36F8F0F4B1A6820E9F00F106008B59E
:1001A0004FF0500080F31188BFF34F8FBFF36F8F74
:1001B00002F0E6FE4FF0000080F31188BDE8084031
:1001C00019680868B0E8F00F80F30988BFF36F8FF3
:1001D000704700BFC8000020EFF3058070470000A3
:1001E0000648804706480047FEE7FEE7FEE7FEE7D1
:1001F000FEE7FEE7FEE7FEE7FEE7FEE7FD17000885
:1002000031010008202A04DB203A21FA02F0002103
:10021000704721FA02F3D040C2F120029140084316
:100220001946704740EA01039B0703D009E008C95B
:10023000121F08C0042AFAD203E011F8013B00F8AB
:10024000013B521EF9D27047D2B201E000F8012BF7
:10025000491EFBD270470022F6E710B513460A4646
:1002600004461946FFF7F0FF204610BD30B50B4697
:10027000014600202022012409E021FA02F59D42D6
:1002800005D303FA02F5491B04FA02F52844151EAA
:10029000A2F10102F1DC30BD2DE9F05F054600203E
:1002A00092469B4688460646814640241BE02846E7
:1002B000414647462246FFF7A5FF53465A46C01A15
:1002C000914110D311461846224600F0E1F92D1A4B
:1002D00067EB01084F4622460120002100F0D8F9C3
:1002E00017EB00094E41201EA4F10104DFDC484653
:1002F00031462A464346BDE8F09F2DE9FE4F804631
:1003000081EA0300C00F0C46009021F0004123F069
:100310000045B8EB0200A94105D24046214690466F
:100320001C460B46024623F00040104347D0270DE1
:10033000C7F30A00C3F30A510290401A0190402803
:100340006BDAC3F3130040F4801B0098924620B18F
:100350000023D2EB030A63EB0B0B01985946C0F163
:100360004002504600F094F906460D465046594664
:10037000019A00F09CF910EB08006141002487EA23
:10038000115284EAE7731A4340D0009A62B3019A8B
:10039000012A4FEA075215DC001B61EB02014FF006
:1003A000004202EA0752CDE90042001C41F58011EB
:1003B00032462B4600F09CF903B0BDE8F08F404672
:1003C0002146F9E7001B61EB0201001C41F5801397
:1003D00000185B412018A2F5001747EB030140EA23
:1003E000D570B6196D4111E06D084FEA360645EA41
:1003F000C0754FEA0752001B61EB0201001C41F57A
:10040000801149084FEA30000019514132462B460D
:1004100003B0BDE8F04F00F05CB900980122400045
:100420000023D0EB020263EBE073009821464FEA11
:10043000E074B8EB000061EB0401E9E783F00043EE
:100440005BE781F0004158E72DE9FE4F81EA0304A4
:1004500004F0004421F0004100944FF0000B23F021
:10046000004350EA01045ED052EA03045BD0C3F3B8
:100470000A54C1F30A552C44A4F2F3340194A0FBAE
:100480000254C1F3130141F48011C3F3130343F485
:10049000801301FB024400FB034E840A970A44EADE
:1004A000815447EA8357A4FB076802958D0A05FB30
:1004B00007854FEA932C04FB0C542705029D4FEA55
:1004C000065847EA1637B5EB08056EEB070C870EA2
:1004D000920E47EA811742EA8312A7FB0201B6EBAC
:1004E0000B0164EB00042B0D43EA0C335E1844EB64
:1004F0001C50DA465146E7FB0201C5F313044FEAEC
:100500000B3343EA14534FEA0432019C43EA0603D7
:10051000A4F10C040294009CCDE900B400F0E8F8CA
:1005200003B0BDE8F08F00200146F9E72DE9F04D5A
:1005300081EA030404F0004B21F0004514464FF01B
:10054000000A23F0004150EA050220D054EA0102DB
:100550001DD0C5F30A570246C5F31303C1F31300B8
:10056000C1F30A5640F4801543F48013A7EB060844
:10057000101BD64608F2FD3873EB050002D308F1D4
:10058000010801E092185B41B8F1000F03DA002086
:100590000146BDE8F08D00204FF4801106468446E8
:1005A0000EE0171B73EB050705D3121B63EB050366
:1005B00006434CEA010C49084FEA300092185B41AF
:1005C00050EA0107EDD152EA030012D082EA04009A
:1005D00083EA0501084305D0101BAB4106D2012276
:1005E000002306E000224FF0004302E06FF001021A
:1005F00053101AEB06004CEB085110EB0A0041EBCC
:100600000B01BDE8F04D00F064B8C1F30A52C1F32C
:10061000130140F2FF3341F480119A4202DA0020C4
:100620000146704740F233439A42A2F2334202DC61
:100630005242FFF7E7BD00F02BB8000030B5041EB2
:1006400071F1000404DB4FF00044404264EB01010F
:10065000141E73F1000405DB1C464FF000435242A8
:1006600063EB0403994208BF904230BD064C074D2E
:1006700006E0E06840F0010394E807009847103472
:10068000AC42F6D3FFF758FD2C3A00084C3A00086C
:10069000202A04DB203A00FA02F100207047914042
:1006A000C2F1200320FA03F3194390407047202A37
:1006B00006DBCB17203A41FA02F043EAE07306E08A
:1006C00041FA02F3D040C2F120029140084319469A
:1006D000704710B5141E73F1000408DA401C41F194
:1006E000000192185B411A4301D120F0010010BDB6
:1006F0002DE9F04D92469B4611B1B1FA81F202E02C
:10070000B0FA80F220329046FFF7C2FF04460F464F
:1007100040EA0A0041EA0B0153465A46084313D007
:10072000114653EA010019D0C8F140025046FFF7C4
:1007300069FD05460E46504659464246FFF7A8FF5A
:10074000084305D0012004E020463946BDE8F08D7D
:100750000020054346EAE0762C4337430A986305B8
:10076000E40AA0EB08000022FD0A44EA47540A30DC
:1007700002D500200146E9E7010510196941DDE9CC
:10078000084500196941BDE8F04DA2E770B58C1825
:1007900010F8015B15F0070301D110F8013B2A1195
:1007A00006D110F8012B03E010F8016B01F8016B82
:1007B0005B1EF9D12B0705D40023521E0DD401F87E
:1007C000013BFAE710F8013BCB1A921C03E013F847
:1007D000015B01F8015B521EF9D5A142D8D300207C
:1007E00070BDFEE77047000010B586B00021009193
:1007F000019102914B1E0391F0B3264C0168264AE9
:10080000A14207D1916941F004019161916901F020
:1008100004012AE0214CA14207D1916941F008016D
:100820009161916901F008011FE01D4CA14207D1BF
:10083000916941F010019161916901F0100114E09A
:10084000184CA14207D1916941F020019161916951
:1008500001F0200109E0144CA14218D1916941F046
:1008600040019161916901F04001049181880091FA
:1008700081680191C16800E009E00291016903917A
:100880000068694600F042F8002006B010BD184626
:10089000FBE700000008014000100240000C01408E
:1008A00000100140001401400018014010B5040080
:1008B0004FF0FF310BD0A068012808D0A188206834
:1008C00000F01CF900B101202075002010BD084681
:1008D00010BD10B54FF0FF3238B1816829B1818861
:1008E000006800F010F9002010BD104610BD10B5D2
:1008F0004FF0FF3240B1816831B181880068012238
:1009000000F009F9002010BD104610BD2DE9F84F88
:10091000DFF8C0910024A9F1040B23464FF00F0823
:1009200009F1040AABF1040ECCE00127A7403A40DC
:10093000BA4272D1DFF8A0C14D68A5EB0C0665453F
:100940002BD00DDC032D34D005DC35B3012D19D0AF
:10095000022D2FD11BE0112D16D0122D2AD119E016
:10096000B6F5881F19D006DCB6F5803F15D0B6F570
:10097000801F1FD111E0B6F5001F0ED0B6F5041F81
:1009800018D10AE0CB6815E0CB681B1D12E0CB68DC
:1009900008330FE0CB680C330CE08B682BB1012BD4
:1009A0004FF0080303D0476104E0042302E007612D
:1009B00000E00023FF2A01D8064601E000F104060A
:1009C0004FEA840501D9A5F12005376808FA05FC2E
:1009D00027EA0C0703FA05F547EA050737604D6873
:1009E000ED006ED53D4DAE6946F00106AE61AD69D4
:1009F00024F0030605F001050095394D7719BE680E
:100A0000A5072D0F08FA05FC26EA0C06DFF8D4C06E
:100A1000604503D14FF0000C25E052E0DFF8C8C07C
:100A2000604502D14FF0010C1DE0DFF8C0C0604509
:100A300002D14FF0020C16E0DFF8B4C0604502D1DD
:100A40004FF0030C0FE0DFF8ACC0604502D14FF06F
:100A5000040C08E0DFF8A0C0604502D14FF0050C9F
:100A600001E04FF0060C0CFA05FC4CEA060CC7F846
:100A700008C04D68D9F80060ED024D4601D5164317
:100A800000E096432E604D68DAF80060AD025546EE
:100A900001D5164300E096432E604D68DBF80060F8
:100AA000AD035D4601D5164300E096432E604D68C8
:100AB000DEF80060ED03754601D5164300E096436D
:100AC0002E60641C0A6832FA04F57FF42EAFBDE88C
:100AD000F88F0000080401400000111000100240CF
:100AE0000000014000080140000C014000100140DE
:100AF0000014014000180140001C014080680840BB
:100B000000D001207047C26821EA02030A4043EA8C
:100B10000241016170470AB1016170470904FBE7B6
:100B20000148806870470000B800002002488168D2
:100B30000278114481607047B8000020074810B562
:100B4000016841F010010160032000F08FF80F20D0
:100B500000F006F800F03EF8002010BD0020024032
:100B600000B5014687B000221C2000F05FF81C2071
:100B700000F04EF81448C16941F00101C161C0693B
:100B800005A900F001000690684600F01DF900F08C
:100B90003BF90E494000B0FBF1F10D484FF08042A7
:100BA000491E0260416040F2E7320021C0E90321A2
:100BB000816000F0FDFA10B1012007B000BD0448CB
:100BC00000F024FBF9E700000010024040420F0053
:100BD000380100200C4808B5816941F001018161AC
:100BE000816901F001010091C16941F08051C16149
:100BF000C069064900F080500090486820F0E0602D
:100C000040F00070486008BD001002400000014044
:100C1000002809DB00F01F020121914040098000FB
:100C200000F1E020C0F8001170470000F0B40E4B56
:100C30001B68C3F30223C3F10704042C00D9042466
:100C40001D1D072D01D2002300E0DB1E012606FA40
:100C500004F56D1E0D409D409E40761E164045EAEF
:100C60000601F0BC00F0F6BE0CED00E0064A00F014
:100C7000070110684FF6FF03184040EA01200349BE
:100C800008431060704700000CED00E00000FA051A
:100C90002DE9F0470D46040067D0DFF81881D8F839
:100CA000000000F00700A8420CD2D8F8001021F094
:100CB00007012943C8F80010D8F8000000F0070029
:100CC000A84252D120683C4E810712D5400703D577
:100CD000706840F4E06070602078000703D57068A9
:100CE00040F4605070607068A16820F0F000084324
:100CF00070602078C00727D06068012810D0316864
:100D0000022810D0890700292FDA716821F0030129
:100D100001437160FFF704FF074641F288390CE098
:100D200031688903EFE78901EDE7FFF7F9FEC11BA1
:100D3000494502D90320BDE8F0877068616800F07A
:100D40000C00B0EB810FF0D1D8F80010404601F054
:100D50000701A9420BD9016821F00701294301606D
:100D6000006800F00700A84201D00120E3E72078E6
:100D7000400705D57068E16820F4E06008437060C2
:100D80002078000706D57068216920F4605040EA99
:100D9000C100706000F058F87168084AC1F303118F
:100DA000515CC8400649086006480068FFF7D8FE55
:100DB0000020C0E70020024000100240123A000864
:100DC000C4000020BC0000200F2202600C4A5368BF
:100DD00003F003034360536803F0F0038360536838
:100DE00003F4E063C36052684FF4E06303EAD202A5
:100DF00002610448006800F00700086070470000C6
:100E0000001002400020024004480549006849687B
:100E1000044AC1F30221515CC8407047C40000205D
:100E200000100240223A0008044805490068496859
:100E3000044AC1F3C221515CC8407047C40000207D
:100E400000100240223A00080E4B59680E4801F08B
:100E50000C02042A11D0082A0FD10C48C1F3834296
:100E6000C903805C0AD55968084AC1F34041921E03
:100E7000515C054A5043B0FBF1F0704704494843C8
:100E8000704700000010024000127A00023A000889
:100E900000093D002DE9F84F04006FD02078BE4DC9
:100EA000C00747D06868C0F38100012807D0686890
:100EB000C0F38100022809D16868C00306D52868FC
:100EC000800337D560680028E7D033E06068B0F56C
:100ED000803F0BD010B1B0F5A02F11D0286820F4BE
:100EE00080302860286820F4802002E0286840F4E0
:100EF00080302860606888B1FFF712FE064609E07E
:100F0000286840F480202860F0E7FFF709FE801B86
:100F1000642873D828688003F7D50BE0FFF700FE3C
:100F2000064604E0FFF7FCFD801B6428F1D8286822
:100F30008003F7D42078DFF8648280074FF0010A3D
:100F40004FF0000939D5686810F00C0F07D06868B9
:100F5000C0F38100022809D16868C00306D428685C
:100F6000800714D52069012808D110E02069B0B1AC
:100F7000C8F800A0FFF7D4FD064605E007E1FFF73B
:100F8000CFFD801B0228C4D828688007F7D52868C1
:100F9000616920F0F80040EAC10028600DE0C8F85F
:100FA0000090FFF7BDFD064604E0FFF7B9FD801B8A
:100FB000022823D828688007F7D4207800072CD58A
:100FC0007748A169D9B1C0F800A0FFF7A9FD06468E
:100FD00004E0FFF7A5FD801B02280FD8686A800790
:100FE000F7D570484FF4FA510068B0FBF1F000906B
:100FF00000BF0098411E0091FAD20EE07CE0C0F8DC
:101000000090FFF78DFD064604E0FFF789FD801B89
:10101000022871D8686A8007F7D4207840075BD52A
:10102000E8690027C00008D4E86940F08050E86112
:10103000E869012700F0805000905B480168C9050D
:1010400011D40168834641F480710160FFF768FDA7
:10105000064604E0FFF764FD801B64284CD8DBF8EB
:101060000000C005F6D5E06801280AD008B10528BF
:1010700013D0286A20F001002862286A20F00400BA
:1010800002E0286A40F001002862E06841F2883BF3
:1010900088B1FFF745FD064609E0286A40F00400E4
:1010A0002862EEE7FFF73CFD811B59455BD8286AB3
:1010B0008007F7D50BE0FFF733FD064604E0FFF7A6
:1010C0002FFD811B59454ED8286A8007F7D41FB1E0
:1010D000E86920F08050E861E069A8B36968C1F36D
:1010E0008101022946D00228484606D0C8F860008F
:1010F000FFF716FD044639E035E04746C8F86000C2
:10110000FFF70EFD064604E0FFF70AFD801B0228EC
:1011100029D828688001F7D4206AB0F5803F05D12E
:101120006868A16820F4003008436860D4E90801C9
:101130000843696821F4741108436860C7F860A027
:10114000FFF7EEFC044605E023E0FFF7E9FC001B97
:10115000022808D828688001F7D51AE0FFF7E0FCDC
:10116000001B022802D90320BDE8F88F28688001FF
:10117000F4D40EE00128F7D06868226A00F48031C8
:10118000914204D1616A00F47010884201D00120BC
:10119000EAE70020E8E700000010024000004242B9
:1011A00080044242C4000020007000407047704735
:1011B00010B5040003D094F83D0010B107E0012001
:1011C00010BD002084F83C00204600F01EF80220EC
:1011D00084F83D00211D206800F018FB012084F8F0
:1011E000460084F83E0084F83F0084F8400084F80C
:1011F000410084F8420084F8430084F8440084F8F5
:10120000450084F83D00002010BD704790F83D1067
:10121000012901D001207047022180F83D100168AA
:10122000CA6842F00102CA6000680E4988420ED0C6
:101230000D4988420BD0B0F1804F08D00B4988424D
:1012400005D00B49884202D00A49884204D18168FE
:1012500001F00701062903D0016841F00101016096
:1012600000207047002C0140003401400004004081
:1012700000080040000C0040704770B5044600684C
:1012800001694FF00005C943890715D4C168C943F6
:10129000890711D4E91E0161012020772068806947
:1012A0008007204602D0FFF7E7FF04E000F098F83F
:1012B000204600F096F8257720680169C943490760
:1012C00017D4C168C943490713D46FF00401016101
:1012D000022020772068806910F4407F204602D0E9
:1012E000FFF7CAFF04E000F07BF8204600F079F831
:1012F000257720680169C943090716D4C168C94325
:10130000090712D46FF008010161042020772068DA
:10131000C0698007204602D0FFF7AEFF04E000F06E
:101320005FF8204600F05DF8257720680169C94321
:10133000C90617D4C168C943C90613D46FF0100198
:101340000161082020772068C06910F4407F2046A2
:1013500002D0FFF791FF04E000F042F8204600F0D1
:1013600040F8257720680169C943C90708D1C168D9
:10137000C943C90704D1891E0161204600F032F833
:1013800020680169C943090609D4C168C94309062F
:1013900005D46FF0800101612046FFF707FF206848
:1013A0000169C943490609D4C168C943490605D43E
:1013B0006FF040010161204600F01BF820680169D0
:1013C000C94389060BD4C168C943890607D46FF0A5
:1013D000200101612046BDE87040FFF7E8BE70BD06
:1013E000704770470068B0F1804F01D1FFF79EBB96
:1013F0007047704770B5040004D094F84100002590
:1014000010B106E0012070BD84F84050204600F085
:1014100023F8242084F841002068C16821F4005199
:10142000C160204600F038FA2068016921F490413B
:1014300001612068416921F02A0141612068C16889
:1014400041F40051C1606564202084F8410084F8B3
:1014500042006563002070BD30B50068164985B054
:10146000884226D11548816941F4804181618169B2
:1014700001F480410491816941F004018161806936
:10148000002400F0040004904FF40070009002204B
:10149000CDE9010403200A4D039069462846FFF771
:1014A00035FA2815CDE90004694628460294FFF76D
:1014B0002DFA05B030BD0000003801400010024098
:1014C000000801402DE9F843044690F841001F460A
:1014D00015460E46202802D00220BDE8F8837EB1D2
:1014E00075B100206064212084F84100FFF718FBEB
:1014F000A5848046E584A068B0F5805F02D003E053
:101500000120EAE7206910B1354600260EE00025EB
:101510000CE08021204600F01BFAA0B9ADB115F80F
:10152000010B21684860E08C401EE084E08C43465B
:101530004FF0000200970028EBD14FF04001204609
:1015400000F006FA30B10320C7E736F8020BC0F30B
:101550000800E6E7202084F841000020BDE7FEE710
:1015600008B50446FFF740F9174E0025204600F065
:10157000EDFE032824D11548844206D100220095AF
:1015800002231146306802F051F81148844206D116
:101590000022009502231146706802F047F80D48BA
:1015A000844206D10022009502231146B06802F061
:1015B0003DF8002000F074FF014607A000F02CFF6A
:1015C0000A2001F011FCD1E7480000207000002043
:1015D00088000020A0000020257320676976652020
:1015E0006E6F7469636500000446FFF7FDF82046DE
:1015F000FFF77DF94FF0FF352A460121002001F069
:1016000071FA002000F04CFF014603A000F004FF37
:101610002046FFF75EF9EFE7257320676574206EBB
:101620006F74696365000000FEE7FEE71CB500F01B
:10163000C9FE2648006820B9122225A12AA000F080
:10164000DFF900240120CDE90004020223462AA18B
:101650002C4801F0BFFF2C480225CDE900502B4B50
:1016600080222BA12D4801F0B5FF27482C4B001DEF
:10167000CDE9005080222BA1284801F0ABFF224881
:101680002B4B0830CDE9005080222AA1234801F0DD
:10169000A1FF0325CDE90054294B802229A12C4824
:1016A00001F098FFCDE900542A4B80222AA1284856
:1016B00001F090FFCDE900542A4B80222AA1244852
:1016C00001F088FF01F00AFCFEE700005400002052
:1016D0002E2E5C436F72655C5372635C72746F7321
:1016E0005F6D61696E2E63004572726F723A2025DC
:1016F000732C2025640D0A006C6F675F7461736B37
:1017000000000000452400084800002000000020E0
:101710004C6564315F5461736B000000E91500088B
:10172000180000204C6564325F5461736B00000048
:10173000300000204C6564335F5461736B0000001F
:10174000700000204B6579315F5461736B000000BD
:1017500061150008880000204B6579325F54617381
:101760006B000000A00000204B6579335F5461736B
:101770006B00000010B5502080F31188BFF34F8F2D
:10178000BFF36F8F01F0F6FF18B104494FF080509E
:101790000860002080F3118810BD000004ED00E017
:1017A00030B58FB028216846FEF755FD14210AA8F0
:1017B000FEF751FD0120010400248DE81300049080
:1017C0004FF4E010CDE90810022507956846FFF7B1
:1017D00061FB08B172B6FEE70F20CDE90A054FF4B0
:1017E0008060CDE90C4002210AA80E94FFF750FA60
:1017F000002801D072B6FEE70FB030BD7047000080
:101800000148FFF73ABD000038010020F0B502683A
:101810001C4D1D4E1D4FDFF878C01E4B4FF0804E03
:10182000A84209D0984207D0704505D0B04203D0F5
:10183000B84201D0604503D122F070044A682243C7
:10184000A84209D0984207D0704505D0B04203D0D5
:10185000B84201D0604503D122F44074CA682243E3
:101860004C6922F08002224302608A68C2620A68E0
:101870008262A84201D0984201D109690163012125
:101880004161F0BD002C0140000400400008004010
:10189000000C00400034014070B504460068016946
:1018A000E26821F4405111430161A16820690143BC
:1018B000606901432068C26841F20C639A430A439D
:1018C000C26020684169A26921F4407111434161FD
:1018D0001E492068884202D1FFF7A6FA01E0FFF70F
:1018E00093FA00EBC00101EB0011606864228000F4
:1018F000B1FBF0F3B3FBF2F36FF018067343B1FBE7
:10190000F0F5B1FBF0F605EB8305322303EB05158B
:10191000B5FBF2F5B6FBF2F605F0F00505EB0615A2
:10192000B1FBF0F6B1FBF0F0B0FBF2F06FF0180194
:10193000484306EB800003EB0010B0FBF2F0216897
:1019400000F00F002844886070BD0000003801409E
:101950002DE9F0411E46174688460446069D26E0BE
:10196000681C24D025B1FFF7DBF8801BA8421ED9E4
:1019700020680C3050E8001F21F4D07140E80012BC
:10198000002AF5D12068143050E8001F21F0010131
:1019900040E80012002AF5D1202084F8410084F8A4
:1019A0004200002084F840000320BDE8F081206858
:1019B000016838EA010004D00020B842D0D00020ED
:1019C000F3E70120F9E700000B4910B5094AC1E926
:1019D0000020002088600C22C860C1E904028861F0
:1019E000C8610846FFF706FD002801D04FF0FF3020
:1019F00010BD00000038014080010020FEE700001B
:101A00000FB4054B10B503A9044A029800F004F97D
:101A100010BC5DF814FB00003523000834010020E1
:101A20007CB50C001D461646014601D0601E00E044
:101A30000020CDE90010064B6A462946304600F0EA
:101A4000EBF8002C02D0009A002111707CBD000040
:101A50001F2300080907090E002804DB00F1E0201D
:101A600080F80014704700F00F0000F1E02080F8CB
:101A7000141D704702E008C8121F08C1002AFAD1DD
:101A800070477047002001E001C1121F002AFBD1FE
:101A9000704700002DE9FF5F82B00021DDE90430CE
:101AA000020DDDF840B0034318D044F61050A2F206
:101AB000FF3242431514119801281FD0A5EB0B00EB
:101AC000401C5FEA000A4FF000064E4FDFF83891E5
:101AD000B046504615D5CAF1000413E01198012410
:101AE0004AA3012801D16FEA0B010298119AC0E9BB
:101AF0000031C0E9024206B0BDE8F09FCBF1000022
:101B0000DFE704460021404A491842EB0450CDE982
:101B1000001012E0E00707D032463B4640464946F7
:101B2000FEF792FC8046894632463B4610461946EF
:101B3000FEF78AFC06460F466410002CEAD1DDE968
:101B40000401DDE90023BAF1000F06DAFEF77CFCA0
:101B500042464B46FEF778FC05E0FEF7E7FC4246BE
:101B60004B46FEF7E3FC04460E460022284BFEF7E8
:101B700065FD03D84FF0FF30014607E00022254BFA
:101B800020463146FEF7B9FBFEF73FFD102409E081
:101B9000002C0ADB0A220023FEF77EFB039B303277
:101BA0001A55641E50EA0102F2D1641C039AC4F172
:101BB00011031444119A012A03D0012208430DD1C4
:101BC0000AE0084304D000204FF0110B119072E797
:101BD000A3EB0B056D1E0DE05B4504DD4FF000022D
:101BE00005F1010504E003DA4FF00002A5F101055B
:101BF000002AECD002981199C0E90231C0E90045F1
:101C000079E70000000014400000F03F30000000C1
:101C10000000F0430000E03F2DE9FF4F95B09A46E9
:101C2000884606460025EEE1252877D10024274680
:101C3000F94A0121039400E0044316F8013F203BD8
:101C400001FA03F01042F7D130782A2811D06FF052
:101C50002F033078A0F13002092A16D8039A44F0F5
:101C6000020402EB820203EB42021044761C039052
:101C7000EFE758F8042B0392002A03DA504244F4A9
:101C80000054039044F00204761C30782E2816D1BC
:101C900016F8010F44F004042A280DD06FF02F022B
:101CA0003078A0F13003092B09D807EB870302EB4A
:101CB0004303C718761CF3E758F8047B761C30788A
:101CC0006C280FD006DC4C2817D068280DD06A2865
:101CD00014D104E0742810D07A280FD10DE044F418
:101CE00000140AE044F4801401E044F440147278D3
:101CF000824202D104F58014761C761C3078662866
:101D00000BD013DC582877D009DC002875D0452883
:101D1000F6D04628F4D047281AD193E118E063287A
:101D200035D0642879D0652812D18BE1702873D022
:101D300008DC6728F1D069286FD06E280DD06F2895
:101D400006D1ACE073282CD0752874D0782853D0F5
:101D50005246179990476D1C54E1C4F30250022873
:101D600009D003280DD0D8F8001004280DD00D603C
:101D700008F1040846E1D8F80010EA17C1E900525A
:101D8000F6E7D8F800100D80F2E70D70F0E718F8CC
:101D9000041B8DF8001000208DF80100EB46012097
:101DA00003E058F804BB4FF0FF3061074FF000012B
:101DB00002D40DE009F101018946B9420FDA8145EB
:101DC000F8DB1BF809100029F4D108E009F1010142
:101DD00089468142FADB1BF809100029F6D10398E5
:101DE0005346A0EB090721463846179A00F080FABF
:101DF000284400EB090507E044E008E10DE01BF88A
:101E0000010B524617999047B9F10109F7D2534691
:101E100021463846179AF2E039E00A21C4F302520B
:101E20004FF0000B0091022A06D058F8040BC1179E
:101E3000032A09D00AE023E008F1070020F0070296
:101E4000F2E80201904605E000B2C117042A01D170
:101E500040B2C117002906DA0A460021404261EB70
:101E600002012D2202E0220504D52B228DF8042048
:101E7000012203E0E20701D02022F7E7914657E074
:101E80000A2100E010214FF0000B00910BE010211F
:101E90004FF0000B44F004040827009103E00820F1
:101EA0004FF0000B0090C4F30252022A05D058F8FC
:101EB000040B0021032A08D008E008F1070020F0F5
:101EC0000702F2E80201904603E080B2042A00D142
:101ED000C0B24FF0000922072AD53278702A07D005
:101EE000DDF800C08CF0100C5CEA0B0C05D00EE0A5
:101EF00040228DF80420012208E050EA010306D0B8
:101F000030238DF804308DF8052002229146009B85
:101F100083F0080353EA0B030AD150EA010201D10E
:101F2000620705D530228DF804204FF001097F1E8D
:101F30003278582A04D039A20C920CAA02920BE0F3
:101F40003BA2F9E75B46009AFEF7A6F90C9B9B5C67
:101F5000029A521E0292137050EA0102F2D10298C4
:101F600004A9081A00F1200B600702D524F480347C
:101F700000E001275F4502DDA7EB0B0000E0002039
:101F800000EB0B01009003984944401A0390E003D2
:101F900006D453462146179A039800F0A9F9054440
:101FA000002706E001A85246C05D179990476D1CB6
:101FB0007F1C4F45F6DBE0030CD553462146179AAC
:101FC000039800F095F9054404E030205246179933
:101FD00090476D1C0099481E00900029F5DC08E030
:101FE0000298029952460078491C0291179990472D
:101FF0006D1CBBF10001ABF1010BF1DC5BE100F00A
:1020000065F90544761C307800287FF40DAE19B0D0
:102010002846BDE8F08F0000092801003031323336
:102020003435363738396162636465660000000014
:1020300030313233343536373839414243444546FE
:1020400000000000600700D4062708F1070020F018
:102050000700F0E80223804603F0004C5FEA0C0022
:1020600001D097A009E0200501D596A005E0E00782
:1020700001D095A001E0AFF24C001390307823F02E
:10208000004365280CD006DC452809D046281DD021
:1020900047287FD13BE0662818D067287AD136E000
:1020A0000021112F01DB112000E0781CCDE9000197
:1020B00004A90CA8FFF7EEFCDDE90D010C9A4FF026
:1020C000000B07F10109109200914EE04FF0004023
:1020D0000097CDE9011004A90CA8FFF7DBFCDDE9AE
:1020E0000D020C9B0F994FF0000B9146109300923C
:1020F00011B9791C00EB0109B7EB090003D4C0F159
:10210000FF3B07F10109A9EB0700019042E0012F15
:1021100000DA01270021112F01DD112000E03846EF
:10212000CDE9000104A90CA8FFF7B4FCDDE90D011D
:102130000C9A00914FF0000BB946109221070FD472
:10214000009A4A4503DA914601E0A9F10109B9F183
:10215000010F05DD109AA9F10101515C3029F4D07D
:10216000B84202DA10F1040F03DA0121CDE90110BF
:1021700010E0002803DC8344A9EB000102E0411CCD
:10218000494500DD8946A0EB0B00401C01904FF053
:1021900000400290200705D40198484502DB4FF02B
:1021A000FF30019000208DF84B0002980DF14B0795
:1021B000B0F1004F25D002200C902B200D900298FA
:1021C00000280CDA404202902D200D9007E00A21F1
:1021D0000298FEF74BF83031029007F8011D0C9978
:1021E000481E0C900029F2DC02980028EFD1791EDD
:1021F0000D980870307800F0200040F0450007F896
:10220000020D11A8C01BC01D02901398007800B1E8
:10221000012000EB0901019801EBE07102980144F3
:102220000398401A401E0390E00306D4534621460B
:10223000179A039800F05CF805441398007818B1D9
:102240005246179990476D1CE00323D5534621460B
:10225000179A039800F04CF805441BE0BBF1000FFF
:1022600007DB0098584504DD1098179910F80B000B
:1022700001E0179930205246904701980BF1010B6D
:10228000401E05F10105019004D12E2052461799F8
:1022900090476D1CB9F10001A9F10109DEDC05E0F0
:1022A00017F8010B5246179990476D1C0299481E6A
:1022B00002900029F4DC53462146179A03989EE6C3
:1022C0002D0000002B000000200000002DE9F0414F
:1022D000044600251E461746880404D405E0394606
:1022E0002020B0476D1C641EF9D52846BDE8F0815A
:1022F0002DE9F041044600251E469046C80301D54D
:10230000302700E02027880404D505E04146384600
:10231000B0476D1C641EF9D52846BDE8F0814A68B7
:10232000002A06D00A68531C0B6010704868401ED3
:102330004860704713B54FF6FF73012269460248A3
:10234000FFF7C0F800981CBD8001002070B505465D
:102350001B48854202D1A0F118040EE0184918313B
:102360008D4202D1A1F1280407E0154930318D4298
:1023700002D1A1F1380400E000248CB12846FEF718
:1023800095FA401C0DD0287D20B901202070FEF761
:10239000C7FB6060287D012802D12078012801D088
:1023A000002070BD00202070FEF7BAFB6168401A63
:1023B0006060B0F5FA6F01D8032070BD042070BDD5
:1023C0007000002010B500228021202000F09AFE2D
:1023D000074C206030B90C2206A10BA0FFF710FBC0
:1023E000206808B1002010BD4FF0FF3010BD000084
:1023F000540000202E2E5C436F72655C5372635C48
:102400006C6F672E630000004572726F723A202570
:10241000732C2025640D0A000FB4802100B5A1B0F3
:1024200023AB6846229AFFF7FBFA054800231A46B9
:102430006946006800F00EFF21B05DF814FB000053
:1024400054000020A0B0074C4FF0FF352A466946E3
:10245000206800F0BFFF0128F8D1694602A0FFF70D
:10246000CFFAF3E75400002025730D0A00000000A6
:10247000FEF764FBFFF794F94FF4E130FFF7A4FA9D
:1024800002A0FFF7BDFAFFF7D1F8FEE748656C6CD4
:102490006F204672656552544F530D0A00000000CC
:1024A00010B510B104461CB108E006480468FAE70C
:1024B00040F64E1204A10CA0FFF7A2FA04F134007A
:1024C00010BD0000C80000202E2E5C746869726484
:1024D0005F6C69625C4672656552544F535C74610F
:1024E000736B732E630000004572726F723A202581
:1024F000732C2025640D0A002DE9F041184E0F467B
:102500000446F5683068001D00F04CFB38B93068AF
:1025100090F82C1001208840316981433161601CA2
:1025200007D137B13168BDE8F0410E48091D00F010
:1025300072BB30682C44AC424460316805D2F06B09
:10254000BDE8F041091D00F04EBBB06B091D00F065
:102550004AFBB06A844200D2B462BDE8F081000058
:10256000C8000020980400202DE9F041054600F045
:102570005FFB2D4EB068401CB06030682B4F10B12F
:10258000706930B32BE03560B068012827D1002492
:1025900004EB840007EB800000F017FB641C202C88
:1025A000F6D3234800F011FB2148143000F00DFB56
:1025B0001F48283000F009FB1D483C3000F005FBA7
:1025C0001B48503000F001FB1948B0631430F06331
:1025D00005E03068E96AC06A884200D83560706AF0
:1025E0000121401C7062E86A326981401143316107
:1025F00000EB800007EB8000291D00F00CFB00F0D1
:1026000057FB706900280CD03068E96AC06A8842BC
:1026100007D208494FF080500860BFF34F8FBFF3D7
:102620006F8FBDE8F0810000C8000020C8010020C5
:102630004804002004ED00E030B4026C0B46002A90
:102640000BD0C1681144C1608468A14201D3016804
:10265000C16030BC1846FDF7E5BD30BC70472DE9C0
:10266000F041856B164604460027026CFAB17EB134
:10267000E068FDF7D7FDE168206C091AE160226887
:10268000914202D2A168081AE060022E0DD00EE03D
:102690006068FDF7C7FD216C606808446060A16850
:1026A000884204D32068606001E005B16D1E6D1C96
:1026B000A5633846BDE8F08110B50446006B00F014
:1026C0002DFB2046BDE8104000F028BB10484FF419
:1026D0002051420706D0C01D0D4920F00700411AC5
:1026E000C1F520510B4A00230144C2E90003083917
:1026F000183A21F0070111604B600B600B1AC0E91A
:10270000001393604FF00040536050617047000029
:10271000AC0400202C010020134E144DA6F52F7799
:102720004FF08058DFF8489011E000F081FAF0682F
:10273000C468201D00F036FAA868401EA8606868CA
:10274000401E686000F0B4FA2046FFF7B5FF6868E5
:102750000028EAD138680128F9D9C9F80080BFF308
:102760004F8FBFF36F8FF2E784040020C800002072
:1027700004ED00E02DE9F05FDDE90B940D468346A2
:102780006FF00301206B01EB820108440A9E20F0E8
:1027900007089A465FEA487005D040F25E321AA1F7
:1027A00021A0FFF72DF9002765B100202218295C30
:1027B00082F83410295C11B1401C1028F6D384F83B
:1027C000437001E084F83470202E00D31F26201DB2
:1027D000E66200F005FA04F1180000F001FA246145
:1027E000C6F120006462A061676484F848705246B4
:1027F0005946404600F064F92060B9F1000F01D05D
:10280000C9F80040BDE8F09F2E2E5C7468697264C0
:102810005F6C69625C4672656552544F535C7461CB
:10282000736B732E630000004572726F723A20253D
:10283000732C2025640D0A0030B5114900E01146C3
:102840000A688242FBD34B685C18844203D140681B
:1028500018444860084643681C18944209D1084C43
:10286000183C2468A24209D052681A4442600A689F
:1028700012680260814200D0086030BD0460F9E750
:102880002C01002010B5044600F0D2F9A06B20B155
:10289000002400F00DFA204610BD0124F9E70000E5
:1028A0000548816B096821B1816BC968096881623B
:1028B00070474FF0FF31FAE7C80000200848406831
:1028C000401C04D0CC2207A113A0FFF799F8502098
:1028D00080F31188BFF34F8FBFF36F8FFEE70000C7
:1028E000080100202E2E5C74686972645F6C696256
:1028F0005C4672656552544F535C706F72746162CE
:102900006C655C525644535C41524D5F434D335CA1
:10291000706F72742E6300004572726F723A2025D8
:10292000732C2025640D0A002DE9F041044600F0C7
:102930007FF994F9455004F1240609E0606A48B132
:10294000304600F093FF08B100F092FA6D1E6DB2B0
:10295000002DF3DC4FF0FF3684F8456000F0A8F955
:1029600000F066F994F9445004F1100709E0206979
:1029700048B1384600F07AFF08B100F079FA6D1ED0
:102980006DB2002DF3DC84F84460BDE8F04100F046
:102990008FB900002DE9F0410446002600F0E8FA66
:1029A000364F386808B9FFF791FE7869044258D16C
:1029B000002C56D004F10805A54252D968070ED064
:1029C00005F00700C0F108002844A84249D905468F
:1029D000400704D09A222AA135A0FFF711F8002D54
:1029E0003FD0786885423CD82449183108460468AD
:1029F00001E0214604466068A84202D2206800280F
:102A0000F7D13868B84684422BD00E682068086039
:102A100060680836401B10280ED96719780704D063
:102A2000CD2217A122A0FEF7EBFF6068401B786063
:102A300038466560FFF700FF6168D8F80400424639
:102A4000401AC8F80400D8F80830984200D29060C4
:102A5000506901430020C4E90001D068401CC8F857
:102A60000C0000F055FF700705D04FF4877204A1E9
:102A70000FA0FEF7C5FF3046BDE8F081140100202D
:102A80002E2E5C74686972645F6C69625C46726564
:102A90006552544F535C706F727461626C655C4D2B
:102AA000656D4D616E675C686561705F342E6300B3
:102AB0004572726F723A2025732C2025640D0A002E
:102AC00010B5031F4FF080741C601B1F21F0010123
:102AD0001960191F024B0B60143940380A6010BD91
:102AE000BD2800082DE9F04115460F46040005D029
:102AF00041F252221DA125A0FEF782FF00F098F8B6
:102B0000264E306800EB8400406C88B931680120A3
:102B1000214481F848005DB101212846FFF7ECFC13
:102B20001F494FF080500860BFF34F8FBFF36F8F86
:102B300000F0BEF800F07CF8306800EB8400456CD3
:102B4000002055B127B1316801EB8401486404E0ED
:102B50003268691E02EB840251643168214481F8B5
:102B6000480000F0A5F82846BDE8F0812E2E5C74E0
:102B7000686972645F6C69625C4672656552544F45
:102B8000535C7461736B732E630000004572726F47
:102B9000723A2025732C2025640D0A00C8000020FD
:102BA00004ED00E0D0E9013201699A60D0E9012327
:102BB0005A604A68824201D182684A6000220261FA
:102BC0000868401E08600868704700F108014FF06F
:102BD000FF32C0E90112C16001610021016070474C
:102BE00000210161704730B50C68621C02D000F111
:102BF000080202E0026904E01A4653681D68A54213
:102C0000FAD953684B6099608A6051600861016825
:102C1000491C016030BD42684A6093688B609368CC
:102C20005960916008610168491C016070470000AB
:102C3000502080F31188BFF34F8FBFF36F8F094986
:102C40004868401C486001280AD10748006810F015
:102C5000FF0F05D040F2711204A111A0FEF7D0BE03
:102C6000704700000801002004ED00E02E2E5C7487
:102C7000686972645F6C69625C4672656552544F44
:102C8000535C706F727461626C655C525644535C45
:102C900041524D5F434D335C706F72742E63000080
:102CA0004572726F723A2025732C2025640D0A003C
:102CB00010B5084C606828B94FF4BC7206A113A087
:102CC000FEF79EFE6068401E606001D180F31188AF
:102CD00010BD0000080100202E2E5C74686972642B
:102CE0005F6C69625C4672656552544F535C706FED
:102CF000727461626C655C525644535C41524D5F24
:102D0000434D335C706F72742E6300004572726FB6
:102D1000723A2025732C2025640D0A0070B5002816
:102D20002DD0174DA0F1080460686969084205D1EB
:102D30004FF4917213A11FA0FEF762FE206828B124
:102D400040F223120FA11BA0FEF75AFE60686969CA
:102D5000084214D02268002A11D18843606000F034
:102D600007F960686968084468602046FFF764FDF9
:102D70002869401C2861BDE8704000F0C9BD70BDE5
:102D8000140100202E2E5C74686972645F6C6962A5
:102D90005C4672656552544F535C706F7274616229
:102DA0006C655C4D656D4D616E675C686561705FFB
:102DB000342E63004572726F723A2025732C2025E1
:102DC000640D0A004FF0E020002101618161054996
:102DD0004FF4FA520968B1FBF2F1491E4161032137
:102DE00001617047C400002010B5040012D00E49E4
:102DF000496B29B140F23F520CA114A0FEF700FE2E
:102E000000F0B6F800212046FFF776FB00F080FDC9
:102E1000002807D111494FF080500860BFF34F8F51
:102E2000BFF36F8F10BD0000C80000202E2E5C7411
:102E3000686972645F6C69625C4672656552544F82
:102E4000535C7461736B732E630000004572726F84
:102E5000723A2025732C2025640D0A0004ED00E051
:102E600002490A6A0260C96841607047C8000020D0
:102E700001490120C8617047C800002070B50D46A7
:102E8000040005D140F6114207A10FA0FEF7B8FDDE
:102E90001148016820461831FFF7A5FE2846BDE815
:102EA00070400121FFF728BB2E2E5C7468697264A4
:102EB0005F6C69625C4672656552544F535C746125
:102EC000736B732E630000004572726F723A202597
:102ED000732C2025640D0A00C80000207CB514481E
:102EE0000025CDE900502B46802212A1134800F0A6
:102EF00071FB0F4C2C3C012802D0401C10D015E077
:102F0000502080F31188BFF34F8FBFF36F8F4FF0C6
:102F1000FF30A06201206061E56000F075F805E017
:102F200040F6360206A10EA0FEF76AFD206B7CBDBE
:102F3000F400002049444C45000000001927000817
:102F40002E2E5C74686972645F6C69625C4672659F
:102F50006552544F535C7461736B732E63000000B1
:102F60004572726F723A2025732C2025640D0A0079
:102F70000248416B491C416370470000C8000020B3
:102F800070B5134D686B10B10120E86170BD002071
:102F9000E86128690F4EB0FA80F0C0F11F0000EB25
:102FA000800456F8240028B940F6F7320AA112A08E
:102FB000FEF726FD06EB840000F10802416849682F
:102FC0004160914201D149684160C868286070BD84
:102FD000C8000020C80100202E2E5C74686972644D
:102FE0005F6C69625C4672656552544F535C7461F4
:102FF000736B732E630000004572726F723A202566
:10300000732C2025640D0A007CB52A4D2878019088
:10301000FF20287028788DF800009DF800009DF8AA
:10302000001000F0F000884205D040F21D1222A1ED
:103030002EA0FEF7E5FC9DF80000304C00F050009B
:1030400020700720A06006E0401EA0609DF80000F0
:1030500040008DF800009DF800000006A068F3D441
:1030600003280ED040F2311213A120A0FEF7C8FCB5
:10307000A068032805D04FF49D720FA11BA0FEF796
:10308000BFFC207A000200F4E060A0600198287084
:103090001B48016841F470010160016841F0704112
:1030A0000160FFF78FFE00206060FDF75FF80020F1
:1030B0007CBD000000E400E02E2E5C746869726440
:1030C0005F6C69625C4672656552544F535C706F09
:1030D000727461626C655C525644535C41524D5F40
:1030E000434D335C706F72742E6300004572726FD3
:1030F000723A2025732C2025640D0A000801002057
:1031000020ED00E02DE9F0410E46040005D14FF41A
:10311000C37217A11EA0FEF773FC04FB06F54EB1A7
:10312000B5FBF6F0A04205D04FF4C77210A118A06D
:10313000FEF766FC05F14807AF4205D840F2911250
:103140000BA113A0FEF75CFC3846FFF723FC05003B
:1031500009D005F14801284646B10160C0E90F4693
:10316000012100F01DF82846BDE8F0810060F5E778
:103170002E2E5C74686972645F6C69625C4672656D
:103180006552544F535C71756575652E6300000080
:103190004572726F723A2025732C2025640D0A0047
:1031A00070B50D46040005D140F20D121CA124A0FB
:1031B000FEF726FCFFF73CFDD4E90F20216802FB57
:1031C0000011A1600021A163216861600A46D4E971
:1031D0000F01401E00FB0121E16021464FF0FF304E
:1031E00001F8440F487004F110004DB1FFF7EDFCF9
:1031F00004F12400FFF7E9FCFFF75AFD012070BD40
:1032000021690029F8D000F031FB0028F4D01049E2
:103210004FF080500860BFF34F8FBFF36F8FEBE725
:103220002E2E5C74686972645F6C69625C467265BC
:103230006552544F535C71756575652E63000000CF
:103240004572726F723A2025732C2025640D0A0096
:1032500004ED00E02DE9FF4F83B01F468B460400CC
:103260004FF0000605D14FF443724DA154A0FEF774
:10327000C7FBBBF1000F07D1206C28B140F20D3223
:1032800047A14FA0FEF7BCFB022F08D1E06B01283D
:1032900005D040F20E3242A149A0FEF7B1FB00F08A
:1032A0005BFA38B9059828B140F211323CA144A02C
:1032B000FEF7A6FB4FF0000A4FF08058DFF81091A0
:1032C000FFF7B6FCA06BE16B884205D3022F03D059
:1032D0000598C8B1DEB11EE03A4659462046FFF7D0
:1032E000BEF9616A19B104F1240000F0BFFA28B1F7
:1032F000C9F80080BFF34F8FBFF36F8FFFF7D8FC83
:10330000012007B0BDE8F08FFFF7D2FC21E068464E
:10331000FFF7A6FD0126FFF7CBFCFFF729FEFFF71D
:1033200087FC94F94400401C01D184F844A094F92E
:103330004500401C01D184F845A0FFF7B9FC05A960
:10334000684600F0F5F830B12046FFF7EDFA00F0DE
:10335000DFFA0020D5E7FFF76BFCA06BE16B88423A
:1033600001D1012500E00025FFF7A2FC95B104F191
:1033700010000599FFF782FD2046FFF7D5FA00F00F
:10338000C7FA00289CD1C9F80080BFF34F8FBFF364
:103390006F8F95E72046FFF7C7FA00F0B9FA8FE77D
:1033A0002E2E5C74686972645F6C69625C4672653B
:1033B0006552544F535C71756575652E630000004E
:1033C0004572726F723A2025732C2025640D0A0015
:1033D00004ED00E02DE9F74783B08A4604004FF082
:1033E000000605D140F22F5244A14CA0FEF708FB85
:1033F000BAF1000F07D1206C28B140F233523FA13F
:1034000046A0FEF7FDFA00F0A7F938B9059828B1F3
:103410004FF4A76239A141A0FEF7F2FA00274FF05E
:103420008058DFF80891FFF703FCA56BC5B1514642
:103430002046FFF701F96D1EA563206950B104F124
:10344000100000F013FA28B1C9F80080BFF34F8FC5
:10345000BFF36F8FFFF72CFC012006B0BDE8F087AB
:10346000059808B11EB106E0FFF722FC27E0684688
:10347000FFF7F6FC0126FFF71BFCFFF779FDFFF7CE
:10348000D7FB94F94400401C01D184F8447094F9AE
:103490004500401C01D184F84570FFF709FC05A9DF
:1034A000684600F045F8002820460AD0FFF73CFAAD
:1034B00000F02EFA2046FFF7E5F90028B3D00020EF
:1034C000CBE7FFF7DFF990B104F124000599FFF78E
:1034D000D5FC2046FFF728FA00F01AFA0028A2D1FE
:1034E000C9F80080BFF34F8FBFF36F8F9BE7204673
:1034F000FFF71AFA00F00CFA95E700002E2E5C7424
:10350000686972645F6C69625C4672656552544FAB
:10351000535C71756575652E630000004572726FAE
:10352000723A2025732C2025640D0A0004ED00E07A
:103530002DE9F0410C46050005D140F6EB4218A1FB
:103540001FA0FEF75DFA2CB940F6EC4214A11CA0B6
:10355000FEF756FAFFF76CFB1D4EF1686B682268A8
:10356000C81A571C0AD02F68D6F820C00026674515
:1035700006D08B4204D8012526600BE0002509E027
:10358000824205D9101A20602846FFF769FCF5E74A
:1035900001252660FFF78CFB2846BDE8F08100007E
:1035A0002E2E5C74686972645F6C69625C46726539
:1035B0006552544F535C7461736B732E630000004B
:1035C0004572726F723A2025732C2025640D0A0013
:1035D000C80000202DE9FF5F8346DDE90E8799468C
:1035E00016468A469000FFF7D5F905001AD04C2000
:1035F000FFF7D0F9040012D025630021CDE9024184
:10360000CDE900874B46324651465846FFF7B2F89F
:103610002046FEF7A9FF012004B0BDE8F09F284630
:10362000FFF77CFB4FF0FF30F6E700002DE9F04795
:10363000DDF82080994615460E0004464FF001073C
:1036400005D041F2F42235A13CA0FEF7D9F92CB9FE
:1036500041F2F52231A139A0FEF7D2F9FFF7E8FADD
:1036600004EB8600B8F1000F02D0426CC8F80020CD
:10367000A11911F8486F02220A70DFF8D080B9F161
:10368000050F11D2DFE809F01903060C0A00416C9E
:10369000294301E0416C491C41640EE0022E01D037
:1036A00045640AE0002733E0D8F80C0028B141F265
:1036B0002A321AA121A0FEF7A3F9012E28D1201D3C
:1036C000FFF770FAE06A0121D8F8102081404546E2
:1036D0001143C8F810101E4900EB800001EB800078
:1036E000211DFFF798FAA06A28B141F239320BA1E7
:1036F00012A0FEF785F9E06A2968C96A884207D9ED
:1037000014494FF080500860BFF34F8FBFF36F8FA5
:10371000FFF7CEFA3846BDE8F08700002E2E5C7425
:10372000686972645F6C69625C4672656552544F89
:10373000535C7461736B732E630000004572726F8B
:10374000723A2025732C2025640D0A00C800002041
:10375000C801002004ED00E00548416919B1406B43
:1037600018B1002070470120704702207047000008
:10377000C80000202DE9F0412E4F0026786B28B1BB
:10378000B869401CB8613046BDE8F081FD686D1C29
:10379000FD6011D1B86B006828B140F6BC2226A1AB
:1037A0002DA0FEF72DF9B86BF96BB963F863386A91
:1037B000401C3862FFF774F8B86ADFF8AC808542C5
:1037C00009D3B86B0068A0B1B86BC068C468606802
:1037D000854211D2B8623868C06A00EB800158F89F
:1037E0002100012800D90126F8690028CBD0012644
:1037F000C9E74FF0FF30EDE7201DFFF7D3F9A06ACE
:1038000018B104F11800FFF7CDF9E06A01213A6917
:1038100081401143396100EB800108EB8100211DDB
:10382000FFF7F9F9E06A3968C96A8842C9D3012605
:10383000C7E70000C80000202E2E5C74686972641F
:103840005F6C69625C4672656552544F535C74618B
:10385000736B732E630000004572726F723A2025FD
:10386000732C2025640D0A00C80100202DE9F041C9
:10387000C068C4682CB94FF4476216A11DA0FEF7BA
:10388000BFF804F118000746FFF78CF91D4D686B6F
:10389000012660B139461C48FFF7BDF9E06A296886
:1038A000C96A884213D90120EE61BDE8F081201D6C
:1038B000FFF778F9E06A2A6906FA00F111432961F5
:1038C000124900EB800001EB8000211DE4E700209D
:1038D000EBE700002E2E5C74686972645F6C6962AD
:1038E0005C4672656552544F535C7461736B732E02
:1038F000630000004572726F723A2025732C2025F8
:10390000640D0A00C800002070040020C8010020D7
:103910002DE9F0472B4D00242746686B28B940F667
:10392000A90229A130A0FEF76BF8FFF781F9686BB7
:10393000401E6863686BE8BBA8682F490126C8B3BE
:10394000A1F52A798846D8F80010E9B1D8F80C001A
:10395000C46804F11800FFF725F9201DFFF722F9CC
:10396000E06A2A6906FA00F11143296100EB80013F
:1039700009EB8100211DFFF74EF9E06A2968C96A49
:103980008842E0D3EE61DEE70CB1FEF789FFAC6957
:103990003CB1FFF7EFFE00B1EE61641EF9D10020EB
:1039A000A861E86930B11549012738070860BFF3FD
:1039B0004F8F00E001E0BFF36F8FFFF779F93846D2
:1039C000BDE8F087C80000202E2E5C746869726420
:1039D0005F6C69625C4672656552544F535C7461FA
:1039E000736B732E630000004572726F723A20256C
:1039F000732C2025640D0A007004002004ED00E003
:103A0000010202030405060708090A0B0C0D0E0F3C
:103A1000101000000000000000000102030406076F
:103A20000809000000000102030400004C3A0008ED
:103A300000000020380100008C070008883A0008C8
:103A400038010020782F0000841A00081135080181
:103A500040405A0104820219180A1520180A12104F
:103A600018012875100140086940290829180A150D
:103A700004186964A9182904298851033124F4021F
:083A8000131F1AAA010128001E
:0400000508000131BD
:00000001FF
