:020000040800F2
:1000000028300020E1010008D7140008D3140008AC
:10001000D51400088D070008E5170008000000004F
:10002000000000000000000000000000490100087E
:100030008F070008000000008D0100085D15000812
:10004000FB010008FB010008FB010008FB010008A0
:10005000FB010008FB010008FB010008FB01000890
:10006000FB010008FB010008FB010008FB01000880
:10007000FB010008FB010008FB010008FB01000870
:10008000FB010008FB010008FB010008FB01000860
:10009000FB010008FB010008FB010008FB01000850
:1000A000FB010008FB010008FB010008FB01000840
:1000B000E9150008FB010008FB010008FB0100082E
:1000C000FB010008FB010008FB010008FB01000820
:1000D000FB010008FB010008FB010008FB01000810
:1000E000FB010008FB010008FB010008FB01000800
:1000F000FB010008FB010008FB010008FB010008F0
:10010000FB010008FB010008FB010008FB010008DF
:10011000FB010008FB010008FB010008FB010008CF
:10012000FB010008FB010008FB010008FB010008BF
:10013000DFF810D000F09AFA004800479522000836
:10014000AFF3008028300020224B19680868B0E81F
:10015000F00F80F30988BFF36F8F4FF0000080F33A
:1001600011884EF00D0E7047000000000648006830
:10017000006880F3088862B661B6BFF34F8FBFF3A3
:100180006F8F00DF00BF00BF08ED00E0EFF30980D4
:10019000BFF36F8F0F4B1A6820E9F00F106008B59E
:1001A0004FF0500080F31188BFF34F8FBFF36F8F74
:1001B00002F0D4FE4FF0000080F31188BDE8084043
:1001C00019680868B0E8F00F80F30988BFF36F8FF3
:1001D000704700BF44000020EFF305807047000027
:1001E0000648804706480047FEE7FEE7FEE7FEE7D1
:1001F000FEE7FEE7FEE7FEE7FEE7FEE7E71500089D
:1002000031010008202A04DB203A21FA02F0002103
:10021000704721FA02F3D040C2F120029140084316
:100220001946704740EA01039B0703D009E008C95B
:10023000121F08C0042AFAD203E011F8013B00F8AB
:10024000013B521EF9D27047D2B201E000F8012BF7
:10025000491EFBD270470022F6E710B513460A4646
:1002600004461946FFF7F0FF204610BD30B50B4697
:10027000014600202022012409E021FA02F59D42D6
:1002800005D303FA02F5491B04FA02F52844151EAA
:10029000A2F10102F1DC30BD2DE9F05F054600203E
:1002A00092469B4688460646814640241BE02846E7
:1002B000414647462246FFF7A5FF53465A46C01A15
:1002C000914110D311461846224600F0E1F92D1A4B
:1002D00067EB01084F4622460120002100F0D8F9C3
:1002E00017EB00094E41201EA4F10104DFDC484653
:1002F00031462A464346BDE8F09F2DE9FE4F804631
:1003000081EA0300C00F0C46009021F0004123F069
:100310000045B8EB0200A94105D24046214690466F
:100320001C460B46024623F00040104347D0270DE1
:10033000C7F30A00C3F30A510290401A0190402803
:100340006BDAC3F3130040F4801B0098924620B18F
:100350000023D2EB030A63EB0B0B01985946C0F163
:100360004002504600F094F906460D465046594664
:10037000019A00F09CF910EB08006141002487EA23
:10038000115284EAE7731A4340D0009A62B3019A8B
:10039000012A4FEA075215DC001B61EB02014FF006
:1003A000004202EA0752CDE90042001C41F58011EB
:1003B00032462B4600F09CF903B0BDE8F08F404672
:1003C0002146F9E7001B61EB0201001C41F5801397
:1003D00000185B412018A2F5001747EB030140EA23
:1003E000D570B6196D4111E06D084FEA360645EA41
:1003F000C0754FEA0752001B61EB0201001C41F57A
:10040000801149084FEA30000019514132462B460D
:1004100003B0BDE8F04F00F05CB900980122400045
:100420000023D0EB020263EBE073009821464FEA11
:10043000E074B8EB000061EB0401E9E783F00043EE
:100440005BE781F0004158E72DE9FE4F81EA0304A4
:1004500004F0004421F0004100944FF0000B23F021
:10046000004350EA01045ED052EA03045BD0C3F3B8
:100470000A54C1F30A552C44A4F2F3340194A0FBAE
:100480000254C1F3130141F48011C3F3130343F485
:10049000801301FB024400FB034E840A970A44EADE
:1004A000815447EA8357A4FB076802958D0A05FB30
:1004B00007854FEA932C04FB0C542705029D4FEA55
:1004C000065847EA1637B5EB08056EEB070C870EA2
:1004D000920E47EA811742EA8312A7FB0201B6EBAC
:1004E0000B0164EB00042B0D43EA0C335E1844EB64
:1004F0001C50DA465146E7FB0201C5F313044FEAEC
:100500000B3343EA14534FEA0432019C43EA0603D7
:10051000A4F10C040294009CCDE900B400F0E8F8CA
:1005200003B0BDE8F08F00200146F9E72DE9F04D5A
:1005300081EA030404F0004B21F0004514464FF01B
:10054000000A23F0004150EA050220D054EA0102DB
:100550001DD0C5F30A570246C5F31303C1F31300B8
:10056000C1F30A5640F4801543F48013A7EB060844
:10057000101BD64608F2FD3873EB050002D308F1D4
:10058000010801E092185B41B8F1000F03DA002086
:100590000146BDE8F08D00204FF4801106468446E8
:1005A0000EE0171B73EB050705D3121B63EB050366
:1005B00006434CEA010C49084FEA300092185B41AF
:1005C00050EA0107EDD152EA030012D082EA04009A
:1005D00083EA0501084305D0101BAB4106D2012276
:1005E000002306E000224FF0004302E06FF001021A
:1005F00053101AEB06004CEB085110EB0A0041EBCC
:100600000B01BDE8F04D00F064B8C1F30A52C1F32C
:10061000130140F2FF3341F480119A4202DA0020C4
:100620000146704740F233439A42A2F2334202DC61
:100630005242FFF7E7BD00F02BB8000030B5041EB2
:1006400071F1000404DB4FF00044404264EB01010F
:10065000141E73F1000405DB1C464FF000435242A8
:1006600063EB0403994208BF904230BD064C074D2E
:1006700006E0E06840F0010394E807009847103472
:10068000AC42F6D3FFF758FDDC380008FC38000810
:10069000202A04DB203A00FA02F100207047914042
:1006A000C2F1200320FA03F3194390407047202A37
:1006B00006DBCB17203A41FA02F043EAE07306E08A
:1006C00041FA02F3D040C2F120029140084319469A
:1006D000704710B5141E73F1000408DA401C41F194
:1006E000000192185B411A4301D120F0010010BDB6
:1006F0002DE9F04D92469B4611B1B1FA81F202E02C
:10070000B0FA80F220329046FFF7C2FF04460F464F
:1007100040EA0A0041EA0B0153465A46084313D007
:10072000114653EA010019D0C8F140025046FFF7C4
:1007300069FD05460E46504659464246FFF7A8FF5A
:10074000084305D0012004E020463946BDE8F08D7D
:100750000020054346EAE0762C4337430A986305B8
:10076000E40AA0EB08000022FD0A44EA47540A30DC
:1007700002D500200146E9E7010510196941DDE9CC
:10078000084500196941BDE8F04DA2E7FEE7704752
:1007900010B586B000210091019102914B1E03918A
:1007A000F0B3264C02682649A24207D18A6942F07A
:1007B00004028A61896901F004012AE0214CA24205
:1007C00007D18A6942F008028A61896901F008014B
:1007D0001FE01D4CA24207D18A6942F010028A61D3
:1007E000896901F0100114E0184CA24207D18A690E
:1007F00042F020028A61896901F0200109E0144C6D
:10080000A24218D18A6942F040028A61896901F0E6
:10081000400104918188009181680191C16800E0E4
:1008200009E00291016903910068694600F02AF825
:10083000002006B010BD1846FBE70000000801408C
:1008400000100240000C0140001001400014014063
:100850000018014010B528B18188006800F00EF939
:10086000002010BD4FF0FF3010BD10B530B18188B1
:100870000068012200F00AF9002010BD4FF0FF309F
:1008800010BD00002DE9F84FDFF8C8910024A9F150
:10089000040B23460F2709F1040AABF1040ED1E043
:1008A0000125A54006EA0502AA4276D1DFF8A8C1D3
:1008B0004E68A6EB0C0866452BD00DDC032E34D019
:1008C00005DC36B3012E19D0022E2FD11BE0112EDC
:1008D00016D0122E2AD119E0B8F5881F19D006DCDF
:1008E000B8F5803F15D0B8F5801F1FD111E0B8F5DD
:1008F000001F0ED0B8F5041F18D10AE0CB6815E030
:10090000CB681B1D12E0CB6808330FE0CB680C33BB
:100910000CE08B682BB1012B4FF0080303D045612D
:1009200004E0042302E0056100E00023FF2A01D86F
:10093000064601E000F104064FEA840501D9A5F15D
:100940002005D6F8008007FA05FC28EA0C0803FA0F
:1009500005F548EA0508C6F800804D68ED0070D539
:100960003E4DAE6946F00106AE61AD6924F0030666
:1009700005F0010500953A4D06EB050CDCF8085032
:10098000A607360F07FA06F825EA0805DFF8D4802F
:10099000404503D14FF0000825E052E0DFF8C88061
:1009A000404502D14FF001081DE0DFF8C08040450E
:1009B00002D14FF0020816E0DFF8B480404502D1C2
:1009C0004FF003080FE0DFF8AC80404502D14FF054
:1009D000040808E0DFF8A080404502D14FF0050888
:1009E00001E04FF0060808FA06F848EA0508CCF8D6
:1009F00008804D68D9F80060ED024D4601D51643D8
:100A000000E096432E604D68DAF80060AD0255466E
:100A100001D5164300E096432E604D68DBF8006078
:100A2000AD035D4601D5164300E096432E604D6848
:100A3000DEF80060ED03754601D5164300E09643ED
:100A40002E60641C0A681646E2407FF429AFBDE8B8
:100A5000F88F00000804014000001110001002404F
:100A60000000014000080140000C0140001001405E
:100A70000014014000180140001C0140C26821EA36
:100A800002030A4043EA0241016170470AB1016171
:100A900070470904FBE700000148806870470000C8
:100AA0003400002002488168027811448160704758
:100AB00034000020074810B5016841F010010160C2
:100AC000032000F08FF80F2000F006F800F03EF849
:100AD000002010BD0020024000B5014687B0002272
:100AE0001C2000F05FF81C2000F04EF81448C1698B
:100AF00041F00101C161C06905A900F00100069043
:100B0000684600F017F900F035F90E494000B0FBD7
:100B1000F1F10D484FF08042491E0260416040F201
:100B2000E7320021C0E90321816000F0FBFA10B137
:100B3000012007B000BD044800F022FBF9E70000E7
:100B40000010024040420F00B40000200C4808B5DD
:100B5000816941F001018161816901F00101009128
:100B6000C16941F08051C161C06900F080500090BE
:100B70000448416821F0E06141F00071416008BD26
:100B80000010024000000140002809DB00F01F02B5
:100B9000012191404009800000F1E020C0F80011DF
:100BA00070470000F0B40E4B1B680C46C3F30223E1
:100BB000C3F10705042D00D90425191D072901D209
:100BC000002300E0DB1E012606FA05F1491E214044
:100BD00099409E40761E16403143F0BC00F02EBE78
:100BE0000CED00E0064900F0070208684FF6FF032D
:100BF000184040EA0220034A104308607047000092
:100C00000CED00E00000FA052DE9F0470F46050065
:100C100061D0434E306800F00700B84209D2306816
:100C200020F0070038433060306800F00700B84219
:100C300051D128683B4C810712D5400703D5606825
:100C400040F4E06060602878000703D5606840F4F5
:100C5000605060606068A96820F0F0000843606040
:100C60002878C00728D06868012810D02168022899
:100C700010D0890700292EDA616821F003010143B1
:100C80006160FFF709FF804641F288390DE0216875
:100C90008903EFE78901EDE7FFF7FEFEA0EB08010E
:100CA000494502D90320BDE8F0876068696800F013
:100CB0000C00B0EB810FEFD1306800F00700B842B4
:100CC0000BD9306820F0070038433060306800F0FE
:100CD0000700B84201D00120E5E72878400705D594
:100CE0006068E96820F4E0600843606028780007E5
:100CF00006D56068296920F4605040EAC100606050
:100D000000F058F86168084AC1F30311515CC8400B
:100D10000649086006480068FFF7DEFE0020C2E7CB
:100D20000020024000100240C238000840000020AD
:100D3000380000200F2202600C4A536803F00303BE
:100D40004360536803F0F0038360536803F4E06387
:100D5000C36052684FF4E06303EAD20202610448C0
:100D6000006800F0070008607047000000100240B3
:100D7000002002400448054900684968044AC1F35C
:100D80000221515CC8407047400000200010024022
:100D9000D23800080448054900684968044AC1F38C
:100DA000C221515CC8407047400000200010024042
:100DB000D23800080E4A51680E4801F00C03042B8B
:100DC00011D0082B0FD10C48C1F38343C903C05C79
:100DD0000AD55168084AC1F34041921E515C054A48
:100DE0005043B0FBF1F0704704494843704700009E
:100DF0000010024000127A00B238000800093D00DD
:100E00002DE9F84F040070D02078C04DC00749D0BC
:100E10006868C0F38100012807D06868C0F38100CA
:100E2000022809D16868C00306D52868800339D52F
:100E300060680028E7D035E06068B0F5803F0BD0EF
:100E400010B1B0F5A02F11D0286820F480302860B0
:100E5000286820F4802002E0286840F48030286070
:100E6000606890B1FFF718FE06460AE0286840F473
:100E700080202860F0E700BFFFF70EFE801B64288B
:100E800073D828688003F7D50CE0FFF705FE064607
:100E900005E000BFFFF700FE801B6428F0D828683B
:100EA0008003F7D420789A4E80074FF001094FF065
:100EB000000839D5686810F00C0F07D06868C0F3D7
:100EC0008100022809D16868C00306D42868800719
:100ED00014D52069012808D110E02069B0B1C6F806
:100EE0000090FFF7D9FD074605E00AE1FFF7D4FDC2
:100EF000C01B0228C4D828688007F7D52868616914
:100F000020F0F80040EAC10028600DE0C6F800803B
:100F1000FFF7C2FD074604E0FFF7BEFDC01B022835
:100F200023D828688007F7D4207800072CD5794883
:100F3000A169D9B1C0F80090FFF7AEFD074604E003
:100F4000FFF7AAFDC01B02280FD8686A8007F7D5F3
:100F500071484FF4FA510068B0FBF1F0009000BF07
:100F60000098411E0091FAD20EE080E0C0F80080A7
:100F7000FFF792FD074604E0FFF78EFDC01B022835
:100F800075D8686A8007F7D42078400760D5E8698B
:100F90000027C00008D4E86940F08050E861E869A3
:100FA000012700F0805000905C480168C90513D407
:100FB0000168834641F480710160FFF76DFD824650
:100FC00006E000BFFFF768FDA0EB0A0064284ED8DA
:100FD000DBF80000C005F5D5E06801280AD008B1AB
:100FE000052813D0286A20F001002862286A20F022
:100FF000040002E0286A40F001002862E06841F243
:10100000883B98B1FFF748FD82460BE0286A40F024
:1010100004002862EEE700BFFFF73EFDA0EB0A01E7
:1010200059455AD8286A8007F6D50CE0FFF734FDF9
:10103000824605E0FFF730FDA0EB0A0159454CD888
:10104000286A8007F6D41FB1E86920F08050E86173
:10105000E06988B36968C1F38101022944D002289C
:10106000C6F8608004D0FFF717FD044638E034E08E
:10107000FFF712FD074604E0FFF70EFDC01B022834
:101080002BD828688001F7D4206AB0F5803F05D1BD
:101090006868A16820F4003008436860D4E908015A
:1010A0000843696821F4741108436860C6F86090C9
:1010B000FFF7F2FC044606E025E000BFFFF7ECFC7A
:1010C000001B022809D828688001F7D51BE000BF63
:1010D000FFF7E2FC001B022802D90320BDE8F88FCD
:1010E00028688001F4D40EE00128F7D06868226AED
:1010F00000F48031914204D1616A00F4701088429A
:1011000001D00120EAE70020E8E7000000100240DB
:101110000000424280044242400000200070004033
:101120007047704710B5040003D094F83D0010B12B
:1011300007E0012010BD002084F83C00204600F0AC
:101140001EF8022084F83D00211D206800F052FAAC
:10115000012084F8460084F83E0084F83F0084F8BB
:10116000400084F8410084F8420084F8430084F889
:10117000440084F8450084F83D00002010BD70470D
:1011800090F83D10012901D001207047022180F81C
:101190003D100168CA6842F00102CA6000680E4949
:1011A00088420ED00D4988420BD0B0F1804F08D054
:1011B0000B49884205D00B49884202D00A4988422F
:1011C00004D1816801F00701062903D0016841F0CC
:1011D0000101016000207047002C014000340140F3
:1011E0000004004000080040000C0040704770B54B
:1011F0000446006801694FF00005C943890715D40A
:10120000C168C943890711D4E91E01610120207713
:10121000206880698007204602D0FFF7E7FF04E0DE
:1012200000F098F8204600F096F8257720680169CC
:10123000C943490717D4C168C943490713D46FF09C
:1012400004010161022020772068806910F4407F4A
:10125000204602D0FFF7CAFF04E000F07BF82046EA
:1012600000F079F8257720680169C943090716D489
:10127000C168C943090712D46FF008010161042055
:1012800020772068C0698007204602D0FFF7AEFFB4
:1012900004E000F05FF8204600F05DF82577206854
:1012A0000169C943C90617D4C168C943C90613D423
:1012B0006FF010010161082020772068C06910F4E8
:1012C000407F204602D0FFF791FF04E000F042F893
:1012D000204600F040F8257720680169C943C90716
:1012E00008D1C168C943C90704D1891E01612046DC
:1012F00000F032F820680169C943090609D4C168C1
:10130000C943090605D46FF0800101612046FFF74B
:1013100007FF20680169C943490609D4C168C94368
:10132000490605D46FF040010161204600F01BF82A
:1013300020680169C94389060BD4C168C94389067D
:1013400007D46FF0200101612046BDE87040FFF72F
:10135000E8BE70BD704770470068B0F1804F01D1A2
:10136000FFF7A0BB7047704770B5040004D094F835
:101370004100002510B106E0012070BD84F8405006
:10138000204600F023F8242084F841002068C1683A
:1013900021F40051C160204600F072F92068016913
:1013A00021F4904101612068416921F02A014161E5
:1013B0002068C16841F40051C1606564202084F850
:1013C000410084F842006563002070BD30B50068BC
:1013D000164985B0884226D11548816941F480417B
:1013E0008161816901F480410491816941F00401C6
:1013F00081618069002400F0040004904FF40070C3
:1014000000900220CDE9010403200A4D03906946B3
:101410002846FFF737FA2815CDE900046946284623
:101420000294FFF72FFA05B030BD000000380140EC
:1014300000100240000801402DE9F843044690F8EE
:1014400041001F4616460D46202802D00220BDE866
:10145000F8837DB176B100206064212084F84100DA
:10146000FFF71AFBA6848046E684A068B0F5805F8B
:1014700002D003E00120EAE7206910B12E460025E2
:101480000EE000260CE08021204600F055F9A0B9BE
:10149000AEB116F8010B21684860E08C401EE08474
:1014A000E08C43464FF0000200970028EBD14FF04C
:1014B0004001204600F040F930B10320C7E735F87D
:1014C000020BC0F30800E6E7202084F8410000206A
:1014D000BDE7FEE7FEE7FEE71CB500F085FE002055
:1014E0000124CDE90040034622020DA10F4802F07D
:1014F0005DF80F480F4BCDE9004080220EA1114846
:1015000002F054F80A48104B001DCDE9004080223B
:101510000EA1114802F04AF801F05AFCFEE7000063
:101520006C6F675F7461736B0000000069220008D4
:1015300028000020000000206C6564315F74617336
:101540006B00000035210008140000206C65643237
:101550005F7461736B0000007921000810B55020A2
:1015600080F31188BFF34F8FBFF36F8F02F058F8ED
:1015700018B104494FF080500860002080F31188B2
:1015800010BD000004ED00E030B58FB028216846A2
:10159000FEF761FE14210AA8FEF75DFE0121080492
:1015A000CDE900100024029402250491CDE90750F2
:1015B0004FF4E01009906846FFF722FC08B172B6BC
:1015C000FEE70F20CDE90A054FF48060CDE90C401D
:1015D00002210AA80E94FFF717FB002801D072B66B
:1015E000FEE70FB030BD70470148FFF700BE0000B6
:1015F000B4000020F0B502681C4B1D4D1D4E1E4F5F
:101600001E4C4FF0804C984209D0A04207D0604554
:1016100005D0A84203D0B04201D0B84204D122F094
:10162000700E4A6842EA0E02984209D0A04207D0E2
:10163000604505D0A84203D0B04201D0B84203D1E2
:1016400022F44075CA682A434D6922F080022A4379
:1016500002608A68C2620A688262984201D0A0422F
:1016600001D10969016301214161F0BD002C0140F4
:101670000004004000080040000C0040003401401D
:1016800070B5044600680169E26821F440511143D5
:1016900001612169A0680843616908432168CA683B
:1016A00041F20C639A430243CA6020684169A2690F
:1016B00021F44071114341611E492068884202D1E2
:1016C000FFF768FB01E0FFF755FB00EBC00101EB02
:1016D0000012606864218000B2FBF0F3B3FBF1F309
:1016E0006FF018067343B2FBF0F5B2FBF0F605EBB2
:1016F0008305322303EB0515B5FBF1F5B6FBF1F6D7
:1017000005F0F00505EB0615B2FBF0F6B2FBF0F0C4
:10171000B0FBF1F06FF01802504306EB800003EBD2
:101720000010B0FBF1F0216800F00F002844886041
:1017300070BD0000003801402DE9F0419846174681
:101740000E460446069D27E0681C25D02DB1FFF704
:10175000A3F9A0EB0800A8421ED920680C3050E87D
:10176000001F21F4D07140E80012002AF5D1206852
:10177000143050E8001F21F0010140E80012002A57
:10178000F5D1202084F8410084F84200002084F83C
:1017900040000320BDE8F0812068006836EA0000C0
:1017A00004D00020B842CFD00020F3E70120F9E7B1
:1017B0000B4910B5094AC1E90020002088600C22BD
:1017C000C860C1E904028861C8610846FFF7CCFD22
:1017D000002801D04FF0FF3010BD0000003801405C
:1017E000FC000020FEE700000FB4054B10B503A974
:1017F000044A029800F004F910BC5DF814FB0000E4
:101800001D210008B00000207CB50C001D461646C6
:10181000014601D0601E00E00020CDE90010064B1B
:101820006A462946304600F0EBF8002C02D0009AB8
:10183000002111707CBD0000072100080907090E76
:10184000002804DB00F1E02080F80014704700F06D
:101850000F0000F1E02080F8141D704702E008C876
:10186000121F08C1002AFAD170477047002001E01A
:1018700001C1121F002AFBD1704700002DE9FF5F54
:1018800082B00021DDE90430020DDDF840B00343F1
:1018900018D044F61050A2F2FF32424315141198AA
:1018A00001281FD0A5EB0B00401C5FEA000A4FF097
:1018B00000064E4FDFF83891B046504615D5CAF1B4
:1018C000000413E0119801244AA3012801D16FEA12
:1018D0000B010298119AC0E90031C0E9024206B03A
:1018E000BDE8F09FCBF10000DFE704460021404A4D
:1018F000491842EB0450CDE9001012E0E00707D090
:1019000032463B4640464946FEF79EFD80468946A4
:1019100032463B4610461946FEF796FD06460F46F0
:101920006410002CEAD1DDE90401DDE90023BAF1FD
:10193000000F06DAFEF788FD42464B46FEF784FDAF
:1019400005E0FEF7F3FD42464B46FEF7EFFD044689
:101950000E460022284BFEF771FE03D84FF0FF30F1
:10196000014607E00022254B20463146FEF7C5FC24
:10197000FEF74BFE102409E0002C0ADB0A220023AC
:10198000FEF78AFC039B30321A55641E50EA0102AE
:10199000F2D1641C039AC4F111031444119A012A70
:1019A00003D0012208430DD10AE0084304D00020EF
:1019B0004FF0110B119072E7A3EB0B056D1E0DE0BC
:1019C0005B4504DD4FF0000205F1010504E003DA98
:1019D0004FF00002A5F10105002AECD00298119900
:1019E000C0E90231C0E9004579E700000000144079
:1019F0000000F03F300000000000F0430000E03F36
:101A00002DE9FF4F95B09A46884606460025EEE13F
:101A1000252877D100242746F94A0121039400E0C4
:101A2000044316F8013F203B01FA03F01042F7D1BE
:101A300030782A2811D06FF02F033078A0F13002CF
:101A4000092A16D8039A44F0020402EB820203EB3F
:101A500042021044761C0390EFE758F8042B0392DF
:101A6000002A03DA504244F40054039044F0020484
:101A7000761C30782E2816D116F8010F44F0040495
:101A80002A280DD06FF02F023078A0F13003092BF7
:101A900009D807EB870302EB4303C718761CF3E76B
:101AA00058F8047B761C30786C280FD006DC4C2864
:101AB00017D068280DD06A2814D104E0742810D0FB
:101AC0007A280FD10DE044F400140AE044F48014A5
:101AD00001E044F440147278824202D104F580148B
:101AE000761C761C307866280BD013DC582877D00B
:101AF00009DC002875D04528F6D04628F4D04728C0
:101B00001AD193E118E0632835D0642879D065288C
:101B100012D18BE1702873D008DC6728F1D06928D6
:101B20006FD06E280DD06F2806D1ACE073282CD072
:101B3000752874D0782853D05246179990476D1C59
:101B400054E1C4F30250022809D003280DD0D8F87C
:101B5000001004280DD00D6008F1040846E1D8F803
:101B60000010EA17C1E90052F6E7D8F800100D801E
:101B7000F2E70D70F0E718F8041B8DF80010002054
:101B80008DF80100EB46012003E058F804BB4FF04C
:101B9000FF3061074FF0000102D40DE009F10101AF
:101BA0008946B9420FDA8145F8DB1BF80910002994
:101BB000F4D108E009F1010189468142FADB1BF802
:101BC00009100029F6D103985346A0EB09072146D6
:101BD0003846179A00F080FA284400EB090507E020
:101BE00044E008E10DE01BF8010B524617999047BD
:101BF000B9F10109F7D2534621463846179AF2E067
:101C000039E00A21C4F302524FF0000B0091022A7E
:101C100006D058F8040BC117032A09D00AE023E0C4
:101C200008F1070020F00702F2E80201904605E003
:101C300000B2C117042A01D140B2C117002906DA47
:101C40000A460021404261EB02012D2202E02205FA
:101C500004D52B228DF80420012203E0E20701D0F5
:101C60002022F7E7914657E00A2100E010214FF0CB
:101C7000000B00910BE010214FF0000B44F0040426
:101C80000827009103E008204FF0000B0090C4F3F8
:101C90000252022A05D058F8040B0021032A08D06A
:101CA00008E008F1070020F00702F2E80201904680
:101CB00003E080B2042A00D1C0B24FF0000922072D
:101CC0002AD53278702A07D0DDF800C08CF0100CCD
:101CD0005CEA0B0C05D00EE040228DF804200122B6
:101CE00008E050EA010306D030238DF804308DF867
:101CF000052002229146009B83F0080353EA0B0360
:101D00000AD150EA010201D1620705D530228DF8CF
:101D100004204FF001097F1E3278582A04D039A2DE
:101D20000C920CAA02920BE03BA2F9E75B46009AE8
:101D3000FEF7B2FA0C9B9B5C029A521E0292137041
:101D400050EA0102F2D1029804A9081A00F1200B0E
:101D5000600702D524F4803400E001275F4502DDEE
:101D6000A7EB0B0000E0002000EB0B0100900398B4
:101D70004944401A0390E00306D453462146179A7B
:101D8000039800F0A9F90544002706E001A852468F
:101D9000C05D179990476D1C7F1C4F45F6DBE00333
:101DA0000CD553462146179A039800F095F905443F
:101DB00004E030205246179990476D1C0099481E48
:101DC00000900029F5DC08E002980299524600785C
:101DD000491C0291179990476D1CBBF10001ABF1B2
:101DE000010BF1DC5BE100F065F90544761C30780D
:101DF00000287FF40DAE19B02846BDE8F08F000032
:101E000009280100303132333435363738396162D0
:101E10006364656600000000303132333435363794
:101E2000383941424344454600000000600700D471
:101E3000062708F1070020F00700F0E8022380469B
:101E400003F0004C5FEA0C0001D097A009E02005E8
:101E500001D596A005E0E00701D095A001E0AFF222
:101E60004C001390307823F0004365280CD006DC3A
:101E7000452809D046281DD047287FD13BE0662859
:101E800018D067287AD136E00021112F01DB11200C
:101E900000E0781CCDE9000104A90CA8FFF7EEFCD6
:101EA000DDE90D010C9A4FF0000B07F101091092CA
:101EB00000914EE04FF000400097CDE9011004A9D9
:101EC0000CA8FFF7DBFCDDE90D020C9B0F994FF02E
:101ED000000B91461093009211B9791C00EB010997
:101EE000B7EB090003D4C0F1FF3B07F10109A9EBEF
:101EF0000700019042E0012F00DA01270021112F95
:101F000001DD112000E03846CDE9000104A90CA84C
:101F1000FFF7B4FCDDE90D010C9A00914FF0000BC6
:101F2000B946109221070FD4009A4A4503DA914628
:101F300001E0A9F10109B9F1010F05DD109AA9F13C
:101F40000101515C3029F4D0B84202DA10F1040FDB
:101F500003DA0121CDE9011010E0002803DC8344FD
:101F6000A9EB000102E0411C494500DD8946A0EBD8
:101F70000B00401C01904FF000400290200705D458
:101F80000198484502DB4FF0FF30019000208DF8AA
:101F90004B0002980DF14B07B0F1004F25D0022005
:101FA0000C902B200D90029800280CDA40420290F1
:101FB0002D200D9007E00A210298FEF757F93031E5
:101FC000029007F8011D0C99481E0C900029F2DCC4
:101FD00002980028EFD1791E0D980870307800F033
:101FE000200040F0450007F8020D11A8C01BC01DDD
:101FF00002901398007800B1012000EB09010198CC
:1020000001EBE071029801440398401A401E0390CE
:10201000E00306D453462146179A039800F05CF873
:1020200005441398007818B15246179990476D1CD3
:10203000E00323D553462146179A039800F04CF845
:1020400005441BE0BBF1000F07DB0098584504DD99
:102050001098179910F80B0001E01799302052469C
:10206000904701980BF1010B401E05F1010501900D
:1020700004D12E205246179990476D1CB9F10001EA
:10208000A9F10109DEDC05E017F8010B52461799AA
:1020900090476D1C0299481E02900029F4DC5346BB
:1020A0002146179A03989EE62D0000002B000000A1
:1020B000200000002DE9F041044600251E46174689
:1020C000880404D405E039462020B0476D1C641E06
:1020D000F9D52846BDE8F0812DE9F04104460025F8
:1020E0001E469046C80301D5302700E0202788040B
:1020F00004D505E041463846B0476D1C641EF9D54D
:102100002846BDE8F0814A68002A06D00A68531CB8
:102110000B6010704868401E4860704713B54FF65A
:10212000FF73012269460248FFF786F900981CBD3B
:10213000FC00002005460024FEF72AFB2846FEF797
:1021400094FB4FF4FA762846FEF784FB641CE4B255
:10215000042C05D104A000F071F8002000F082FEEC
:10216000304600F0F9FCEEE77461736B3120737553
:102170007370656E6400000070B505460024FEF7BC
:1021800007FB2846FEF771FB4FF4FA762846FEF768
:1021900061FB641CE4B2082C03D0304600F0DCFC88
:1021A000F4E708A000F04AF80A4C206800F0BAFDF5
:1021B00009A000F043F800206060BDE8704000F026
:1021C00007BD00007461736B3120726573756D65B6
:1021D00000000000280000207461736B32206465E9
:1021E0006C6574650000000010B50022802120207D
:1021F00000F074FF074C206030B90C2206A10BA040
:10220000FFF7F2FA206808B1002010BD4FF0FF3050
:1022100010BD0000300000202E2E5C436F72655C04
:102220005372635C6C6F672E630000004572726FBF
:10223000723A2025732C2025640D0A000FB48021EA
:1022400000B5A1B023AB6846229AFFF7DDFA054836
:1022500000231A466946006800F0E8FF21B05DF8E7
:1022600014FB000030000020A0B0074D4FF0FF34F9
:1022700022466946286801F099F80128F8D1694694
:1022800002A0FFF7B1FAF3E73000002025730D0A32
:1022900000000000FEF70EFCFFF776F94FF4E13086
:1022A000FFF786FA02A0FFF79FFAFFF715F9FEE79E
:1022B00048656C6C6F204672656552544F530D0A29
:1022C000000000002DE9F041184C0F460546E66875
:1022D0002068001D00F01EFB38B9206890F82C1013
:1022E00001208840216981432161681C07D137B1F1
:1022F0002168BDE8F0410E48091D00F044BB20688C
:102300003544B5424560216805D2E06BBDE8F04137
:10231000091D00F020BBA06B091D00F01CFBA06A8A
:10232000854200D2A562BDE8F08100004400002093
:10233000140400202DE9F041054600F031FB2D4C3E
:10234000A068401CA06020682B4F10B1606930B3BA
:102350002BE02560A068012827D1002606EB860027
:1023600007EB800000F0E9FA761C202EF6D3234814
:1023700000F0E3FA2148143000F0DFFA1F4828305B
:1023800000F0DBFA1D483C3000F0D7FA1B48503013
:1023900000F0D3FA1948A0631430E06305E0206828
:1023A000E96AC06A884200D82560606A401C6062A1
:1023B000E96A0120226988401043206101EB810015
:1023C00007EB8000291D00F0DEFA00F029FB6069B0
:1023D00000280CD02068E96AC06A884207D2084900
:1023E0004FF080500860BFF34F8FBFF36F8FBDE891
:1023F000F08100004400002044010020C4030020BC
:1024000004ED00E030B4026C0B46002A0BD0C1682A
:102410001144C1608468A14201D30168C16030BC2D
:102420001846FDF7FFBE30BC70472DE9F041856BC3
:10243000164604460027026CFAB17EB1E068FDF74B
:10244000F1FEE168206C091AE1602268914202D233
:10245000A168081AE060022E0DD00EE06068FDF75A
:10246000E1FE216C606808446060A168884204D382
:102470002068606001E005B16D1E6D1CA5633846E3
:10248000BDE8F08110B50446006B00F0FFFA20466D
:10249000BDE8104000F0FABA10484FF4205142074E
:1024A00006D0C01D0D4920F00700411AC1F520518A
:1024B0000B4A00230144C2E900030839183A21F00D
:1024C000070111604B600B600B1AC0E900139360A9
:1024D0004FF0004053605061704700002804002016
:1024E000A8000020144E154CA6F52F774FF0805809
:1024F000DFF84C9012E000BF00F052FAF068C568B7
:10250000281D00F007FAA068401EA0606068401E09
:10251000606000F085FA2846FFF7B4FF6068002885
:10252000EAD138680128F9D9C9F80080BFF34F8F84
:10253000BFF36F8FF2E7000000040020440000208A
:1025400004ED00E02DE9F05FDDE90B940E468346D3
:102550006FF00301206B01EB820108440A9F20F019
:1025600007089A465FEA487005D040F25E321AA129
:1025700021A0FFF739F9002566B100202218315C4F
:1025800082F83410315C11B1401C1028F6D384F865
:10259000435001E084F83450202F00D31F27201D22
:1025A000E76200F0D5F904F1180000F0D1F92461D8
:1025B000C7F120006462A061656484F84850524607
:1025C0005946404600F094F92060B9F1000F01D05F
:1025D000C9F80040BDE8F09F2E2E5C7468697264F3
:1025E0005F6C69625C4672656552544F535C7461FE
:1025F000736B732E630000004572726F723A202570
:10260000732C2025640D0A0030B5114900E01146F5
:102610000A688242FBD34B685C18844203D140684D
:1026200018444860084643681C18944209D1084C75
:10263000183C2468A24209D052681A4442600A68D1
:1026400012680260814200D0086030BD0460F9E782
:10265000A800002010B5044600F0A2F9A06B28B134
:102660005FF0000400F0DCF9204610BD0124F9E71A
:102670000548816B096821B1816BC968096881626D
:1026800070474FF0FF31FAE74400002008484068E7
:10269000401C04D0CC2207A113A0FFF7A5F85020BE
:1026A00080F31188BFF34F8FBFF36F8FFEE70000F9
:1026B000840000202E2E5C74686972645F6C69620D
:1026C0005C4672656552544F535C706F7274616200
:1026D0006C655C525644535C41524D5F434D335CD4
:1026E000706F72742E6300004572726F723A20250B
:1026F000732C2025640D0A0070B50025040005D157
:1027000040F21D7207A10FA0FFF76EF81149606932
:10271000884205D1A06A2839884201D000B9012534
:10272000284670BD2E2E5C74686972645F6C6962A5
:102730005C4672656552544F535C7461736B732EC3
:10274000630000004572726F723A2025732C2025B9
:10275000640D0A00140400202DE9F041044600F045
:102760001FF994F9455004F1240609E0606A48B164
:10277000304600F0D1FF08B100F09EFA6D1E6DB238
:10278000002DF3DC4FF0FF3684F8456000F048F987
:1027900000F006F994F9445004F1100709E02069AB
:1027A00048B1384600F0B8FF08B100F085FA6D1E58
:1027B0006DB2002DF3DC84F84460BDE8F04100F018
:1027C0002FB900002DE9F0410546002600F0BEFBC0
:1027D000364F386808B9FFF75FFE7869054258D16F
:1027E000002D56D005F10804AC4252D960070ED036
:1027F00004F00700C0F108002044A04249D9044673
:10280000400704D09A222AA135A0FEF7EDFF002C44
:102810003FD0786884423CD82448183001460D687F
:1028200001E028460D466968A14202D229680029C4
:10283000F7D13968B8468D422BD006682968016007
:1028400068680836001B10280ED92F19780704D0A5
:10285000CD2217A122A0FEF7C7FF6868001B786091
:1028600038466C60FFF7D0FE6A68D8F8041040461E
:10287000891AC8F80410D8F80830994200D281604B
:1028800041690A430021C5E90012C168491CC8F822
:102890000C1000F093FF700705D04FF4877204A16D
:1028A0000FA0FEF7A1FF3046BDE8F08190000020A8
:1028B0002E2E5C74686972645F6C69625C46726536
:1028C0006552544F535C706F727461626C655C4DFD
:1028D000656D4D616E675C686561705F342E630085
:1028E0004572726F723A2025732C2025640D0A0000
:1028F00010B5031F4FF080741C601B1F21F00101F5
:102900001960191F024B0B60143940380A6010BD62
:102910008D260008D0E9013201699A60D0E90123CF
:102920005A604A68824201D182684A60002202618C
:102930000868401E08600868704700F108014FF001
:10294000FF32C0E90112C1600161002101607047DE
:1029500000210161704730B50B685A1C02D000F1AC
:10296000080202E0026904E02246546825689D429C
:10297000FAD953684B6099608A60516008610168B8
:10298000491C016030BD42684A6093688B6093685F
:102990005960916008610168491C0160704700003E
:1029A000502080F31188BFF34F8FBFF36F8F094919
:1029B0004868401C486001280AD10748006810F0A8
:1029C000FF0F05D040F2711204A111A0FEF70CBF59
:1029D000704700008400002004ED00E02E2E5C749F
:1029E000686972645F6C69625C4672656552544FD7
:1029F000535C706F727461626C655C525644535CD8
:102A000041524D5F434D335C706F72742E63000012
:102A10004572726F723A2025732C2025640D0A00CE
:102A200010B5084C606828B94FF4BC7206A113A019
:102A3000FEF7DAFE6068401E606001D180F3118805
:102A400010BD0000840000202E2E5C746869726442
:102A50005F6C69625C4672656552544F535C706F7F
:102A6000727461626C655C525644535C41524D5FB6
:102A7000434D335C706F72742E6300004572726F49
:102A8000723A2025732C2025640D0A0070B50028A9
:102A90002DD0174DA0F1080460686969084205D17E
:102AA0004FF4917213A11FA0FEF79EFE206828B17B
:102AB00040F223120FA11BA0FEF796FE6168686921
:102AC000014214D02268002A11D18143616000F0D4
:102AD0003DFA60686968084468602046FFF794FD25
:102AE0002869401C2861BDE8704000F067BE70BDD9
:102AF000900000202E2E5C74686972645F6C6962BD
:102B00005C4672656552544F535C706F72746162BB
:102B10006C655C4D656D4D616E675C686561705F8D
:102B2000342E63004572726F723A2025732C202573
:102B3000640D0A004FF0E020002101618161054928
:102B40004FF4FA520968B1FBF2F1491E41610321C9
:102B5000016170474000002010B5040012D00E48FB
:102B6000406B28B140F23F520CA114A0FEF73CFE8E
:102B700000F0ECF900212046FFF7A4FB00F01EFE58
:102B8000002807D111494FF080500860BFF34F8FE4
:102B9000BFF36F8F10BD0000440000202E2E5C7428
:102BA000686972645F6C69625C4672656552544F15
:102BB000535C7461736B732E630000004572726F17
:102BC000723A2025732C2025640D0A0004ED00E0E4
:102BD00070B50546FFF7E4FE234C05B92568281DAE
:102BE000FFF798FE58B9E86A204A00EB800152F8D6
:102BF000211021B901218140206988432061A86A00
:102C000018B105F11800FFF785FE606A401C60628C
:102C10002068854207D1291D1548FFF7B4FE60687A
:102C2000401C606007E0A068401EA0602846FFF7D7
:102C300029FCFFF71DFDFFF7F3FE6069002812D0A5
:102C4000206885420FD1606B28B140F2D24209A1C1
:102C500010A0FEF7C9FD13494FF080500860BFF384
:102C60004F8FBFF36F8F70BD4400002044010020E0
:102C7000000400202E2E5C74686972645F6C6962C7
:102C80005C4672656552544F535C7461736B732E6E
:102C9000630000004572726F723A2025732C202564
:102CA000640D0A0004ED00E002490A6A0260C96886
:102CB000416070474400002001490120C86170470D
:102CC0004400002070B50D46040005D140F61142C5
:102CD00007A10FA0FEF788FD1148016820461831B2
:102CE000FFF739FE2846BDE870400121FFF7EABA38
:102CF0002E2E5C74686972645F6C69625C467265F2
:102D00006552544F535C7461736B732E6300000003
:102D10004572726F723A2025732C2025640D0A00CB
:102D20004400002070B5040005D140F2477219A19B
:102D300020A0FEF759FD234D2868844229D0002C9D
:102D400027D0FFF72DFE2046FFF7D6FCE8B1201D67
:102D5000FFF7E0FDE06A01212A6981401143296102
:102D6000194900EB800001EB8000211DFFF70BFEED
:102D7000E06A2968C96A884207D314494FF0805035
:102D80000860BFF34F8FBFF36F8FBDE87040FFF750
:102D900047BE70BD2E2E5C74686972645F6C696298
:102DA0005C4672656552544F535C7461736B732E4D
:102DB000630000004572726F723A2025732C202543
:102DC000640D0A00440000204401002004ED00E0EE
:102DD0007CB514480025CDE900502B46802212A175
:102DE000134800F0E3FB0F4C2C3C012802D0401CA0
:102DF00010D015E0502080F31188BFF34F8FBFF340
:102E00006F8F4FF0FF30A06201206061E56000F03D
:102E1000E9F805E040F6360206A10EA0FEF7E4FC54
:102E2000206B7CBD7000002049444C450000000030
:102E3000E52400082E2E5C74686972645F6C696218
:102E40005C4672656552544F535C7461736B732EAC
:102E5000630000004572726F723A2025732C2025A2
:102E6000640D0A0070B50446FFF79AFD274D04B9BA
:102E70002C68201DFFF74EFD58B9E06A244A00EB8C
:102E8000800152F8211021B901218140286988432D
:102E90002861A06A18B104F11800FFF73BFD211D5D
:102EA0001C48FFF770FD94F848000026012801D166
:102EB00084F84860FFF7B4FD686928B1FFF770FD3A
:102EC000FFF7D6FBFFF7ACFD2868844211D1686993
:102ED00080B1686B28B140F2F3620FA116A0FEF733
:102EE00083FC19494FF080500860BFF34F8FBFF348
:102EF0006F8F70BD07480068A968884201D12E60B5
:102F000070BDBDE8704000F029B80000440000200A
:102F100044010020140400202E2E5C746869726441
:102F20005F6C69625C4672656552544F535C7461B4
:102F3000736B732E630000004572726F723A202526
:102F4000732C2025640D0A0004ED00E00248416B5B
:102F5000491C4163704700004400002070B5134CC9
:102F6000606B10B10120E06170BD0020E06120695C
:102F70000F4EB0FA80F0C0F11F0000EB800556F84C
:102F8000250028B940F6F7320AA112A0FEF72CFC62
:102F900006EB850000F108024168496841609142F2
:102FA00001D149684160C868206070BD44000020BC
:102FB000440100202E2E5C74686972645F6C696243
:102FC0005C4672656552544F535C7461736B732E2B
:102FD000630000004572726F723A2025732C202521
:102FE000640D0A007CB5294D28780190FF202870D7
:102FF00028788DF800009DF800009DF8001000F082
:10300000F000884205D040F21D1221A12DA0FEF74C
:10301000EBFB9DF800002F4C00F0500020700720C3
:10302000A06005E09DF8001049008DF80010401EDA
:103030009DF800100906F5D4A06003280ED040F2D8
:10304000311213A11FA0FEF7CFFBA068032805D003
:103050004FF49D720EA11BA0FEF7C6FB207A000262
:1030600000F4E060A060019828701B48016841F4FA
:1030700070010160016841F070410160FFF75AFD85
:1030800000206060FDF772F800207CBD00E400E0E5
:103090002E2E5C74686972645F6C69625C4672654E
:1030A0006552544F535C706F727461626C655C5210
:1030B0005644535C41524D5F434D335C706F7274A4
:1030C0002E6300004572726F723A2025732C202502
:1030D000640D0A008400002020ED00E02DE9F0419D
:1030E0000E46050005D14FF4C37217A11EA0FEF7CE
:1030F0007BFB05FB06F44EB1B4FBF6F0A84205D00D
:103100004FF4C77210A118A0FEF76EFB04F1480738
:10311000A74205D840F291120BA113A0FEF764FB61
:103120003846FFF74FFB040009D004F14801204660
:1031300046B10160C0E90F56012100F01DF820469C
:10314000BDE8F0810060F5E72E2E5C74686972645A
:103150005F6C69625C4672656552544F535C717571
:103160006575652E630000004572726F723A202506
:10317000732C2025640D0A0070B50D46040005D19E
:1031800040F20D121CA124A0FEF72EFBFFF708FC55
:10319000D4E90F20216802FB0011A1600021A16386
:1031A000216861600A46D4E90F01401E00FB01213D
:1031B000E16021464FF0FF3001F8440F487004F100
:1031C00010004DB1FFF7B9FB04F12400FFF7B5FB88
:1031D000FFF726FC012070BD21690029F8D000F01E
:1031E0009BFA0028F4D010494FF080500860BFF3DC
:1031F0004F8FBFF36F8FEBE72E2E5C74686972649C
:103200005F6C69625C4672656552544F535C7175C0
:103210006575652E630000004572726F723A202555
:10322000732C2025640D0A0004ED00E02DE9FF4712
:1032300082B01D468A464FF00008040005D14FF4C5
:1032400043724DA154A0FEF7CFFABAF1000F07D197
:10325000206C28B140F20D3247A14FA0FEF7C4FA0E
:10326000022D08D1E06B012805D040F20E3242A1B8
:1032700049A0FEF7B9FA00F0C5F938B9049828B1A9
:1032800040F211323CA144A0FEF7AEFA464F4FF097
:1032900000094FF0805600BFFFF782FBA06BE16B87
:1032A000884207D3022D05D00498D0B1B8F1000FA1
:1032B0001AD01EE02A4651462046FFF7B6F8616A4A
:1032C00019B104F1240000F027FA20B13E60BFF3E9
:1032D0004F8FBFF36F8FFFF7A3FB012006B0BDE850
:1032E000F087FFF79DFB22E06846FFF7DDFC4FF01B
:1032F0000108FFF795FBFFF729FEFFF751FB94F953
:103300004400401C01D184F8449094F94500401CCD
:1033100001D184F84590FFF783FB04A9684600F0CB
:10332000F3F830B12046FFF717FA00F047FA002013
:10333000D4E7FFF735FBA06BE16B884213D1FFF7B1
:103340006FFB04F110000499FFF7BCFC2046FFF767
:1033500003FA00F033FA00289ED13E60BFF34F8F8E
:10336000BFF36F8F98E7FFF75BFB2046FFF7F4F999
:1033700000F024FA90E700002E2E5C7468697264F5
:103380005F6C69625C4672656552544F535C71753F
:103390006575652E630000004572726F723A2025D4
:1033A000732C2025640D0A0004ED00E02DE9F74799
:1033B000002683B08A46040005D140F22F5245A171
:1033C0004CA0FEF711FABAF1000F07D1206C28B11A
:1033D00040F233523FA147A0FEF706FA00F012F97F
:1033E00038B9059828B14FF4A7623AA141A0FEF779
:1033F000FBF9DFF810814FF000094FF0805700BF54
:10340000FFF7CEFAA56BC5B151462046FEF7FAFF8D
:103410006D1EA563206950B104F1100000F07CF925
:1034200028B1C8F80070BFF34F8FBFF36F8FFFF75D
:10343000F7FA012006B0BDE8F087059808B11EB183
:1034400006E0FFF7EDFA27E06846FFF72DFC0126BE
:10345000FFF7E6FAFFF77AFDFFF7A2FA94F94400C6
:10346000401C01D184F8449094F94500401C01D1DE
:1034700084F84590FFF7D4FA05A9684600F044F8AF
:10348000002820460AD0FFF767F900F097F9204698
:10349000FFF7E0F80028B3D00020CBE7FFF7DAF819
:1034A00090B104F124000599FFF70CFC2046FFF7CA
:1034B00053F900F083F90028A2D1C8F80070BFF3D7
:1034C0004F8FBFF36F8F9BE72046FFF745F900F062
:1034D00075F995E72E2E5C74686972645F6C696299
:1034E0005C4672656552544F535C71756575652E07
:1034F000630000004572726F723A2025732C2025FC
:10350000640D0A0004ED00E02DE9F0410C460500D1
:1035100005D140F6EB4218A11FA0FEF765F92CB9C2
:1035200040F6EC4214A11CA0FEF75EF9FFF738FA52
:103530001D4EF2686B682068D11A471C0AD02F68AC
:10354000D6F820C00026674506D0934204D801254E
:1035500026600BE0002509E0884205D9401A20606A
:103560002846FFF7A1FBF5E701252660FFF758FA8B
:103570002846BDE8F08100002E2E5C7468697264F4
:103580005F6C69625C4672656552544F535C74614E
:10359000736B732E630000004572726F723A2025C0
:1035A000732C2025640D0A00440000202DE9FF5FE4
:1035B0008346DDE90E87994616468A469000FFF756
:1035C00001F905001AD04C20FFF7FCF8040012D0D6
:1035D00025630021CDE90241CDE900874B46324603
:1035E00051465846FEF7AEFF2046FEF7A3FE0120E7
:1035F00004B0BDE8F09F2846FFF748FA4FF0FF30CF
:10360000F6E700000548416919B1406B18B1002088
:1036100070470120704702207047000044000020DE
:103620002DE9F0412E4C0026606B28B1A069401CAA
:10363000A0613046BDE8F081E5686D1CE56011D100
:10364000A06B006828B140F6BC2226A12DA0FEF791
:10365000CBF8A06BE16BA163E063206A401C2062A1
:10366000FFF706F8A06ADFF8AC80854209D3A06BAB
:103670000068A0B1A06BC068C7687868854211D2A5
:10368000A0622068C06A00EB800158F82100012880
:1036900000D90126E0690028CBD00126C9E74FF008
:1036A000FF30EDE7381DFFF735F9B86A18B107F1BB
:1036B0001800FFF72FF9F96A0120226988401043AA
:1036C000206101EB810108EB8100391DFFF75BF9F7
:1036D000F86A2168C96A8842C9D30126C7E7000091
:1036E000440000202E2E5C74686972645F6C69620D
:1036F0005C4672656552544F535C7461736B732EF4
:10370000630000004572726F723A2025732C2025E9
:10371000640D0A00440100202DE9F041C068C4682E
:103720002CB94FF4476216A11DA0FEF75DF804F115
:1037300018000746FFF7EEF81D4D686B012660B1D3
:1037400039461C48FFF71FF9E06A2968C96A8842B0
:1037500013D90120EE61BDE8F081201DFFF7DAF8F2
:10376000E16A2A6906FA01F01043286101EB810041
:10377000114901EB8000211DE4E70020EBE7000088
:103780002E2E5C74686972645F6C69625C46726557
:103790006552544F535C7461736B732E6300000069
:1037A0004572726F723A2025732C2025640D0A0031
:1037B00044000020EC030020440100202DE9F047E4
:1037C0002C4C00252E46606B28B940F6A9022AA190
:1037D00031A0FEF709F8FFF7E3F8606B401E606365
:1037E000606BE0BBA168304F0120C1B3A7F52A7917
:1037F00080463868E8B1F868C56805F11800FFF739
:1038000089F8281DFFF786F8E86A226908FA00F1AE
:103810001143216100EB800109EB8100291DFFF7B5
:10382000B2F8E86A2168C96A8842E2D3C4F81C8009
:10383000DFE70DB1FEF71CFFA5694DB14FEA0807A0
:10384000FFF7EEFE00B1E7616D1EF9D10020A06127
:10385000E06920B1154901263007086000E003E067
:10386000BFF34F8FBFF36F8FFFF7DAF83046BDE835
:10387000F0870000440000202E2E5C74686972649A
:103880005F6C69625C4672656552544F535C74614B
:10389000736B732E630000004572726F723A2025BD
:1038A000732C2025640D0A00EC03002004ED00E0D9
:1038B000010202030405060708090A0B0C0D0E0F8E
:1038C00010100000000000000000010203040607C1
:1038D000080900000000010203040000FC38000891
:1038E00000000020B40000005C180008B039000897
:1038F000B4000020742F00006C180008000801407C
:103900004000000001000000010000000200000073
:10391000000801402000000001000000010000003C
:103920000200000000000000000000000000000095
:103930000100000010000000000000000024F4005E
:103940000000000000000000000000000000000077
:103950000000000000000000000000000000000067
:103960000000000000000000000000000000000057
:103970001F00000000000000000000000000000028
:1039800000000000AAAAAAAA00000000000000008F
:103990000000000000000000000000000000000027
:1039A0000000000000000000000000000000000017
:0400000508000131BD
:00000001FF
