:020000040800F2
:100000002832002065020008450F0008290F00086B
:10001000430F00086B030008BD100008000000003B
:10002000000000000000000000000000CD010008FA
:100030006D0300080000000011020008990F00087D
:100040007F0200087F0200087F0200087F0200088C
:100050007F0200087F0200087F0200087F0200087C
:100060007F0200087F0200087F0200087F0200086C
:100070007F0200087F0200087F0200087F0200085C
:100080007F0200087F0200087F0200087F0200084C
:100090007F0200087F0200087F0200087F0200083C
:1000A0007F0200087F0200087F0200087F0200082C
:1000B000251000087F0200087F0200087F02000868
:1000C0007F0200087F0200087F0200087F0200080C
:1000D0007F0200087F0200087F0200087F020008FC
:1000E0007F0200087F0200087F0200087F020008EC
:1000F0007F0200087F0200087F0200087F020008DC
:100100007F0200087F0200087F0200087F020008CB
:100110007F0200087F0200087F0200087F020008BB
:100120007F0200087F0200087F0200087F020008AB
:1001300000F002F800F03AF80AA090E8000C8244BF
:100140008344AAF10107DA4501D100F02FF8AFF29C
:10015000090EBAE80F0013F0010F18BFFB1A43F0A5
:100160000103184798160000B8160000103A24BF83
:1001700078C878C1FAD8520724BF30C830C144BF0C
:1001800004680C607047000000230024002500264E
:10019000103A28BF78C1FBD8520728BF30C148BFEA
:1001A0000B6070471FB51FBD10B510BD00F0A4F85F
:1001B0001146FFF7F7FF00F092FF00F0C2F803B41A
:1001C000FFF7F2FF03BC00F0C9F80000224B1968EA
:1001D0000868B0E8F00F80F30988BFF36F8F4FF025
:1001E000000080F311884EF00D0E704700000000F3
:1001F00006480068006880F3088862B661B6BFF3FD
:100200004F8FBFF36F8F00DF00BF00BF08ED00E02E
:10021000EFF30980BFF36F8F0F4B1A6820E9F00FDF
:10022000106008B54FF0500080F31188BFF34F8F76
:10023000BFF36F8F01F0B2F94FF0000080F3118827
:10024000BDE8084019680868B0E8F00F80F3098835
:10025000BFF36F8F704700BF38000020EFF30580B9
:10026000704700000948804709480047FEE7FEE75D
:10027000FEE7FEE7FEE7FEE7FEE7FEE7FEE7FEE756
:1002800004480549054A064B704700002310000842
:1002900031010008282C002028320020282E0020C0
:1002A000282E00204FF0000200B5134694469646D3
:1002B000203922BFA0E80C50A0E80C50B1F1200179
:1002C000BFF4F7AF090728BFA0E80C5048BF0CC027
:1002D0005DF804EB890028BF40F8042B08BF704785
:1002E00048BF20F8022B11F0804F18BF00F8012BF7
:1002F0007047704770477047754600F02BF8AE4660
:1003000005006946534620F00700854618B020B521
:10031000FFF7B6FFBDE820404FF000064FF00007A2
:100320004FF000084FF0000B21F00701AC46ACE89D
:10033000C009ACE8C009ACE8C009ACE8C0098D460A
:10034000704710B50446AFF300802046BDE810406A
:10035000FFF735BF00487047C82B0020014918201F
:10036000ABBEFEE7260002007047FEE770470000C4
:1003700010B586B000210091019102914B1E0391AE
:10038000F0B3264C02682649A24207D18A6942F09E
:1003900004028A61896901F004012AE0214CA24229
:1003A00007D18A6942F008028A61896901F008016F
:1003B0001FE01D4CA24207D18A6942F010028A61F7
:1003C000896901F0100114E0184CA24207D18A6932
:1003D00042F020028A61896901F0200109E0144C91
:1003E000A24218D18A6942F040028A61896901F00B
:1003F000400104918188009181680191C16800E009
:1004000009E00291016903910068694600F030F843
:10041000002006B010BD1846FBE7000000080140B0
:1004200000100240000C0140001001400014014087
:100430000018014010B528B18188006800F014F957
:10044000002010BD4FF0FF3010BD000070B5044615
:1004500000F012F90546601C02D0044800780444FC
:1004600000F00AF9401BA042FAD370BD280000201A
:100470002DE9F84FDFF8C8910024A9F1040B2346B9
:100480000F2709F1040AABF1040ED1E00125A540C4
:1004900006EA0502AA4276D1DFF8A8C14E68A6EBAB
:1004A0000C0866452BD00DDC032E34D005DC36B3AA
:1004B000012E19D0022E2FD11BE0112E16D0122E94
:1004C0002AD119E0B8F5881F19D006DCB8F5803FAD
:1004D00015D0B8F5801F1FD111E0B8F5001F0ED060
:1004E000B8F5041F18D10AE0CB6815E0CB681B1DD6
:1004F00012E0CB6808330FE0CB680C330CE08B685C
:100500002BB1012B4FF0080303D0456104E0042315
:1005100002E0056100E00023FF2A01D8064601E061
:1005200000F104064FEA840501D9A5F12005D6F8AB
:10053000008007FA05FC28EA0C0803FA05F548EAEA
:100540000508C6F800804D68ED0070D53E4DAE69D7
:1005500046F00106AE61AD6924F0030605F0010521
:1005600000953A4D06EB050CDCF80850A607360F4F
:1005700007FA06F825EA0805DFF8D480404503D1DC
:100580004FF0000825E052E0DFF8C880404502D176
:100590004FF001081DE0DFF8C080404502D14FF068
:1005A000020816E0DFF8B480404502D14FF003089E
:1005B0000FE0DFF8AC80404502D14FF0040808E0BE
:1005C000DFF8A080404502D14FF0050801E04FF070
:1005D000060808FA06F848EA0508CCF808804D68CD
:1005E000D9F80060ED024D4601D5164300E0964370
:1005F0002E604D68DAF80060AD02554601D516430D
:1006000000E096432E604D68DBF80060AD035D4668
:1006100001D5164300E096432E604D68DEF8006079
:10062000ED03754601D5164300E096432E60641C29
:100630000A681646E2407FF429AFBDE8F88F000053
:1006400008040140000011100010024000000140A9
:1006500000080140000C014000100140001401405E
:1006600000180140001C0140C26821EA02030A4050
:1006700043EA024101617047014880687047000009
:100680002800002002488168027811448160704788
:1006900028000020074810B5016841F010010160F2
:1006A000032000F08FF80F2000F006F800F03EF86D
:1006B000002010BD0020024000B5014687B0002296
:1006C0001C2000F05FF81C2000F04EF81448C169AF
:1006D00041F00101C161C06905A900F00100069067
:1006E000684600F017F900F035F90E494000B0FBFC
:1006F000F1F10D484FF08042491E0260416040F226
:10070000E7320021C0E90321816000F0EBFA10B16B
:10071000012007B000BD044800F012FBF9E700001B
:100720000010024040420F009C0000200C4808B519
:10073000816941F001018161816901F0010100914C
:10074000C16941F08051C161C06900F080500090E2
:100750000448416821F0E06141F00071416008BD4A
:100760000010024000000140002809DB00F01F02D9
:10077000012191404009800000F1E020C0F8001103
:1007800070470000F0B40E4B1B680C46C3F3022305
:10079000C3F10705042D00D90425191D072901D22D
:1007A000002300E0DB1E012606FA05F1491E214068
:1007B00099409E40761E16403143F0BC00F07FBC4D
:1007C0000CED00E0064900F0070208684FF6FF0351
:1007D000184040EA0220034A1043086070470000B6
:1007E0000CED00E00000FA052DE9F0470F4605008A
:1007F00061D0434E306800F00700B84209D230683B
:1008000020F0070038433060306800F00700B8423D
:1008100051D128683B4C810712D5400703D5606849
:1008200040F4E06060602878000703D5606840F419
:10083000605060606068A96820F0F0000843606064
:100840002878C00728D06868012810D021680228BD
:1008500010D0890700292EDA616821F003010143D5
:100860006160FFF709FF804641F288390DE0216899
:100870008903EFE78901EDE7FFF7FEFEA0EB080132
:10088000494502D90320BDE8F0876068696800F037
:100890000C00B0EB810FEFD1306800F00700B842D8
:1008A0000BD9306820F0070038433060306800F022
:1008B0000700B84201D00120E5E72878400705D5B8
:1008C0006068E96820F4E060084360602878000709
:1008D00006D56068296920F4605040EAC100606074
:1008E00000F048F86168084AC1F30311515CC84040
:1008F0000649086006480068FFF7DEFE0020C2E7F0
:100900000020024000100240E217000834000020DE
:100910002C0000200F2202600C4A536803F00303EE
:100920004360536803F0F0038360536803F4E063AB
:10093000C36052684FF4E06303EAD20202610448E4
:10094000006800F0070008607047000000100240D7
:10095000002002400448054900684968044AC1F380
:100960000221515CC8407047340000200010024052
:10097000F21700080E4A51680E4801F00C03042BD0
:1009800011D0082B0FD10C48C1F38343C903C05CBD
:100990000AD55168084AC1F34041921E515C054A8C
:1009A0005043B0FBF1F070470449484370470000E2
:1009B0000010024000127A00D217000800093D0022
:1009C0002DE9F84F040070D02078C04DC00749D001
:1009D0006868C0F38100012807D06868C0F381000F
:1009E000022809D16868C00306D52868800339D574
:1009F00060680028E7D035E06068B0F5803F0BD034
:100A000010B1B0F5A02F11D0286820F480302860F4
:100A1000286820F4802002E0286840F480302860B4
:100A2000606890B1FFF728FE06460AE0286840F4A7
:100A300080202860F0E700BFFFF71EFE801B6428BF
:100A400073D828688003F7D50CE0FFF715FE06463B
:100A500005E000BFFFF710FE801B6428F0D828686F
:100A60008003F7D420789A4E80074FF001094FF0A9
:100A7000000839D5686810F00C0F07D06868C0F31B
:100A80008100022809D16868C00306D4286880075D
:100A900014D52069012808D110E02069B0B1C6F84A
:100AA0000090FFF7E9FD074605E00AE1FFF7E4FDE6
:100AB000C01B0228C4D828688007F7D52868616958
:100AC00020F0F80040EAC10028600DE0C6F8008080
:100AD000FFF7D2FD074604E0FFF7CEFDC01B02285A
:100AE00023D828688007F7D4207800072CD57948C8
:100AF000A169D9B1C0F80090FFF7BEFD074604E038
:100B0000FFF7BAFDC01B02280FD8686A8007F7D527
:100B100071484FF4FA510068B0FBF1F0009000BF4B
:100B20000098411E0091FAD20EE080E0C0F80080EB
:100B3000FFF7A2FD074604E0FFF79EFDC01B022859
:100B400075D8686A8007F7D42078400760D5E869CF
:100B50000027C00008D4E86940F08050E861E869E7
:100B6000012700F0805000905C480168C90513D44B
:100B70000168834641F480710160FFF77DFD824684
:100B800006E000BFFFF778FDA0EB0A0064284ED80E
:100B9000DBF80000C005F5D5E06801280AD008B1EF
:100BA000052813D0286A20F001002862286A20F066
:100BB000040002E0286A40F001002862E06841F287
:100BC000883B98B1FFF758FD82460BE0286A40F059
:100BD00004002862EEE700BFFFF74EFDA0EB0A011C
:100BE00059455AD8286A8007F6D50CE0FFF744FD2E
:100BF000824605E0FFF740FDA0EB0A0159454CD8BD
:100C0000286A8007F6D41FB1E86920F08050E861B7
:100C1000E06988B36968C1F38101022944D00228E0
:100C2000C6F8608004D0FFF727FD044638E034E0C2
:100C3000FFF722FD074604E0FFF71EFDC01B022858
:100C40002BD828688001F7D4206AB0F5803F05D101
:100C50006868A16820F4003008436860D4E908019E
:100C60000843696821F4741108436860C6F860900D
:100C7000FFF702FD044606E025E000BFFFF7FCFC9D
:100C8000001B022809D828688001F7D51BE000BFA7
:100C9000FFF7F2FC001B022802D90320BDE8F88F01
:100CA00028688001F4D40EE00128F7D06868226A31
:100CB00000F48031914204D1616A00F470108842DE
:100CC00001D00120EAE70020E8E700000010024020
:100CD0000000424280044242340000200070004084
:100CE0007047704710B5040003D094F83D0010B170
:100CF00007E0012010BD002084F83C00204600F0F1
:100D00001EF8022084F83D00211D206800F090F9B3
:100D1000012084F8460084F83E0084F83F0084F8FF
:100D2000400084F8410084F8420084F8430084F8CD
:100D3000440084F8450084F83D00002010BD704751
:100D400090F83D10012901D001207047022180F860
:100D50003D100168CA6842F00102CA6000680E498D
:100D600088420ED00D4988420BD0B0F1804F08D098
:100D70000B49884205D00B49884202D00A49884273
:100D800004D1816801F00701062903D0016841F010
:100D90000101016000207047002C01400034014037
:100DA0000004004000080040000C0040704770B58F
:100DB0000446006801694FF00005C943890715D44E
:100DC000C168C943890711D4E91E01610120207758
:100DD000206880698007204602D0FFF7E7FF04E023
:100DE00000F098F8204600F096F825772068016911
:100DF000C943490717D4C168C943490713D46FF0E1
:100E000004010161022020772068806910F4407F8E
:100E1000204602D0FFF7CAFF04E000F07BF820462E
:100E200000F079F8257720680169C943090716D4CD
:100E3000C168C943090712D46FF008010161042099
:100E400020772068C0698007204602D0FFF7AEFFF8
:100E500004E000F05FF8204600F05DF82577206898
:100E60000169C943C90617D4C168C943C90613D467
:100E70006FF010010161082020772068C06910F42C
:100E8000407F204602D0FFF791FF04E000F042F8D7
:100E9000204600F040F8257720680169C943C9075A
:100EA00008D1C168C943C90704D1891E0161204620
:100EB00000F032F820680169C943090609D4C16805
:100EC000C943090605D46FF0800101612046FFF790
:100ED00007FF20680169C943490609D4C168C943AD
:100EE000490605D46FF040010161204600F01BF86F
:100EF00020680169C94389060BD4C168C9438906C2
:100F000007D46FF0200101612046BDE87040FFF773
:100F1000E8BE70BD704770470068B0F1804F01D1E6
:100F2000FFF7B0BB70477047FEE70446FFF720FAB3
:100F30004FF4FA752046FFF77DFA2846FFF786FA48
:100F4000F8E7FEE7FEE700001CB500250124094B89
:100F5000802209A10B48CDE9004500F059FB0A4B5E
:100F600080220AA10748CDE9004500F051FB00F0BE
:100F7000E5FAFEE7000000204C65645F5461736B86
:100F8000000000002B0F0008140000204C656432A4
:100F90005F5461736B00000010B5502080F311881E
:100FA000BFF34F8FBFF36F8F00F05EFB18B10449A2
:100FB0004FF080500860002080F3118810BD0000C1
:100FC00004ED00E030B58FB028216846FFF76AF9DC
:100FD00014210AA8FFF766F901210804CDE90010E1
:100FE0000024029402250491CDE907504FF4E0104B
:100FF00009906846FFF7E4FC08B172B6FEE70F20DF
:10100000CDE90A054FF48060CDE90C4002210AA821
:101010000E94FFF7E9FB002801D072B6FEE70FB08F
:1010200030BD70470148FFF7C2BE00009C000020A1
:10103000F0B502681C4B1D4D1D4E1E4F1E4C4FF04F
:10104000804C984209D0A04207D0604505D0A84204
:1010500003D0B04201D0B84204D122F0700E4A68E9
:1010600042EA0E02984209D0A04207D0604505D05E
:10107000A84203D0B04201D0B84203D122F4407557
:10108000CA682A434D6922F080022A4302608A68B6
:10109000C2620A688262984201D0A04201D1096905
:1010A000016301214161F0BD002C014000040040BA
:1010B00000080040000C004000340140FEE7090732
:1010C000090E002804DB00F1E02080F800147047CE
:1010D00000F00F0000F1E02080F8141D7047FFF7CA
:1010E000D9FAFFF76FFF0020FFF72EFFFEE70000A1
:1010F0002DE9F041054600F0D5F92D4CA068401CC3
:10110000A06020682B4F10B1606930B32BE02560E0
:10111000A068012827D1002606EB860007EB800097
:1011200000F0A5F9761C202EF6D3234800F09FF995
:101130002148143000F09BF91F48283000F097F93F
:101140001D483C3000F093F91B48503000F08FF9F7
:101150001948A0631430E06305E02068E96AC06ABA
:10116000884200D82560606A401C6062E96A0120FC
:10117000226988401043206101EB810007EB800069
:10118000291D00F082F900F09BF9606900280CD05D
:101190002068E96AC06A884207D208494FF0805047
:1011A0000860BFF34F8FBFF36F8FBDE8F081000081
:1011B00038000020E40000206403002004ED00E07B
:1011C00010B50446006B00F085F92046BDE81040DC
:1011D00000F080B910484FF42051420706D0C01DDE
:1011E0000D4920F00700411AC1F520510B4A002398
:1011F0000144C2E900030839183A21F007011160DF
:101200004B600B600B1AC0E9001393604FF0004075
:101210005360506170470000C80300209400002014
:10122000144E154CA6F52F774FF08058DFF84C90F0
:1012300012E000BF00F036F9F068C568281D00F024
:1012400003F9A068401EA0606068401E606000F066
:1012500037F92846FFF7B4FF60680028EAD13868FC
:101260000128F9D9C9F80080BFF34F8FBFF36F8F02
:10127000F2E70000A00300203800002004ED00E0A9
:101280002DE9F0479A46DDE9097481466FF00303C2
:10129000206B03EB8202089E104420F00708002513
:1012A00061B1002023180A5C83F834200A5C12B173
:1012B000401C1028F6D384F8435001E084F83450E1
:1012C000202E00D31F26201DE66200F0DBF804F17B
:1012D000180000F0D7F82461C6F120006462A06114
:1012E000656484F8485052464946404600F09AF8F2
:1012F0002060002F00D03C60BDE8F08730B5114978
:1013000000E011460A688242FBD34B685C188442B5
:1013100003D1406818444860084643681C1894424A
:1013200009D1084C183C2468A24209D052681A44DA
:1013300042600A6812680260814200D0086030BDD5
:101340000460F9E7940000200548816B096821B129
:10135000816BC9680968816270474FF0FF31FAE715
:1013600038000020502080F31188BFF34F8FBFF367
:101370006F8FFEE72DE9F0410546002700F006F9E2
:10138000274E306808B9FFF725FF7069054241D143
:10139000F5B305F10804AC423CD9600707D004F06E
:1013A0000700C0F108002044A04233D904467CB3B2
:1013B000706884422ED81A48183001460D6801E042
:1013C00028460D466968A14202D229680029F7D152
:1013D00031688D421ED00768296801606868083747
:1013E000011B102904D9281941606C60FFF786FFA2
:1013F00069687068401A7060B268904200D2B0604C
:10140000706901430020C5E90001F068401C00E05C
:1014100000E0F06000F082F93846BDE8F08100009D
:101420007C00002010B5031F4FF080741C601B1F50
:1014300021F001011960191F024B0B60143940386B
:101440000A6010BD65130008D0E9013201699A6095
:10145000D0E901235A604A68824201D182684A6019
:10146000002202610868401E08600868704700F1A9
:1014700008014FF0FF32C0E90112C1600161002193
:101480000160704700210161704742684A609368BB
:101490008B6093685960916008610168491C016024
:1014A00070470000502080F31188BFF34F8FBFF3C7
:1014B0006F8F02480168491C016070477800002066
:1014C00003490868401E086001D180F31188704705
:1014D0007800002070B500281BD00E4DA0F1080444
:1014E00061686869014214D02268002A11D18143E1
:1014F000616000F04BF860686968084468602046E5
:10150000FFF7FCFE2869401C2861BDE8704000F030
:1015100005B970BD7C0000204FF0E0200021016182
:10152000816105494FF4FA520968B1FBF2F1491E95
:101530004161032101617047340000207CB50F48F0
:101540000025CDE900502B4680220DA10E4800F069
:101550005FF80A4C2C3C01280ED1502080F31188F2
:10156000BFF34F8FBFF36F8F4FF0FF30A0620120AA
:101570006061E56000F034F8206B7CBD6400002001
:1015800049444C4500000000211200080248416B0C
:10159000491C416370470000380000200E48416B31
:1015A00011B10121C16170470021C16101690B4A7C
:1015B000B1FA81F1C1F11F0101EB810102EB81015F
:1015C00001F108034A6852684A609A4201D15268A0
:1015D0004A60D1680160704738000020E4000020B4
:1015E000094810B5016841F470010160016841F0DB
:1015F00070410160FFF790FF044900200860FEF78A
:10160000F7FD002010BD000020ED00E07800002074
:101610002DE9FF5F8346DDE90E87994616468A4627
:101620009000FFF7A7FE05001AD04C20FFF7A2FE9E
:10163000040012D025630021CDE90241CDE90087E5
:101640004B46324651465846FFF71AFE2046FFF7F2
:101650004FFD012004B0BDE8F09F2846FFF73AFF98
:101660004FF0FF30F6E700002DE9F041294C00274C
:10167000606B28B1A069401CA0613846BDE8F081CC
:10168000E668761CE66008D1A06BE16BA163E063BD
:10169000206A401C2062FFF757FEA06ADFF87880BE
:1016A000864209D3A06B0068A0B1A06BC068C56872
:1016B0006868864211D2A0622068C06A00EB80018F
:1016C00058F82100012800D90127E0690028D4D06A
:1016D0000127D2E74FF0FF30EDE7281DFFF7B4FEFA
:1016E000A86A18B105F11800FFF7AEFEE86A0121FB
:1016F000226981401143216100EB800108EB8100E8
:10170000291DFFF7C2FEE86A2168C96A8842C9D369
:101710000127C7E738000020E40000202DE9F0474A
:1017200000242646FFF7BEFE264D686B401E686308
:10173000686BE0BBA968244F0120C1B3A7F52A79E3
:1017400080463868E8B1F868C46804F11800FFF70B
:101750007BFE201DFFF778FEE06A2A6908FA00F197
:101760001143296100EB800109EB8100211DFFF786
:101770008CFEE06A2968C96A8842E2D3C5F81C80F9
:10178000DFE70CB1FFF7E0FDAC694CB14FEA0807A9
:10179000FFF76AFF00B1EF61641EF9D10020A86174
:1017A000E86920B1094901263007086000E003E03C
:1017B000BFF34F8FBFF36F8FFFF782FE3046BDE858
:1017C000F0870000380000208C03002004ED00E0CA
:1017D000010202030405060708090A0B0C0D0E0F8F
:1017E00010100000000000000000010203040607C2
:1017F0000809000000000102030400001C18000892
:10180000000000209C0000006C010008B8180008CF
:101810009C0000208C310000880100080008014075
:101820004000000001000000010000000200000074
:10183000000801402000000001000000010000003D
:101840000200000001000000100000000000000085
:101850000024F40000000000000000000000000070
:101860000000000000000000000000000000000078
:101870000000000000000000000000000000000068
:10188000000000001F000000000000000000000039
:1018900000000000AAAAAAAA0000000000000000A0
:1018A0000000000000000000000000000000000038
:0818B000000000000000000030
:0400000508000131BD
:00000001FF
