:020000040800F2
:1000000010320020E1010008031B0008FF1A00085D
:10001000011B000807080008CD26000800000000AA
:10002000000000000000000000000000490100087E
:1000300009080008000000008D0100087523000871
:10004000FB010008FB010008FB010008FB010008A0
:10005000FB010008FB010008FB010008FB01000890
:10006000FB010008FB010008FB010008FB01000880
:10007000FB010008FB010008FB010008FB01000870
:10008000FB010008FB010008FB010008FB01000860
:10009000FB010008FB010008FB010008FB01000850
:1000A000FB010008FB010008FB010008FB01000840
:1000B000012400080D240008FB010008FB010008D2
:1000C000FB010008FB010008FB010008FB01000820
:1000D000FB010008FB010008FB010008FB01000810
:1000E000FB010008FB010008FB010008FB01000800
:1000F000FB010008FB010008FB010008FB010008F0
:10010000FB010008FB010008FB010008FB010008DF
:10011000FB010008FB010008FB010008FB010008CF
:10012000FB010008FB010008FB010008FB010008BF
:10013000DFF810D000F0ACFA00480047793500082D
:10014000AFF3008010320020224B19680868B0E835
:10015000F00F80F30988BFF36F8F4FF0000080F33A
:1001600011884EF00D0E7047000000000648006830
:10017000006880F3088862B661B6BFF34F8FBFF3A3
:100180006F8F00DF00BF00BF08ED00E0EFF30980D4
:10019000BFF36F8F0F4B1A6820E9F00F106008B59E
:1001A0004FF0500080F31188BFF34F8FBFF36F8F74
:1001B00004F002FA4FF0000080F31188BDE8084017
:1001C00019680868B0E8F00F80F30988BFF36F8FF3
:1001D000704700BF68010020EFF305807047000002
:1001E0000648804706480047FEE7FEE7FEE7FEE7D1
:1001F000FEE7FEE7FEE7FEE7FEE7FEE7FD23000879
:1002000031010008202A04DB203A21FA02F0002103
:10021000704721FA02F3D040C2F120029140084316
:10022000194670470649074A0868504343F23902A5
:10023000104408604008704701490860704700009A
:10024000D40100206D4EC64140EA01039B0703D054
:1002500009E008C9121F08C0042AFAD203E011F805
:10026000013B00F8013B521EF9D27047D2B201E0C7
:1002700000F8012B491EFBD270470022F6E710B5AB
:1002800013460A4604461946FFF7F0FF204610BD04
:1002900030B50B46014600202022012409E021FA56
:1002A00002F59D4205D303FA02F5491B04FA02F553
:1002B0002844151EA2F10102F1DC30BD2DE9F05FEA
:1002C0000546002092469B468846064681464024C5
:1002D0001BE02846414647462246FFF793FF534618
:1002E0005A46C01A914110D311461846224600F0D2
:1002F000E1F92D1A67EB01084F4622460120002143
:1003000000F0D8F917EB00094E41201EA4F10104BA
:10031000DFDC484631462A464346BDE8F09F2DE9DA
:10032000FE4F804681EA0300C00F0C46009021F08A
:10033000004123F00045B8EB0200A94105D2404638
:10034000214690461C460B46024623F000401043CF
:1003500047D0270DC7F30A00C3F30A510290401A91
:10036000019040286BDAC3F3130040F4801B00981F
:10037000924620B10023D2EB030A63EB0B0B0198EA
:100380005946C0F14002504600F094F906460D4629
:1003900050465946019A00F09CF910EB0800614163
:1003A000002487EA115284EAE7731A4340D0009A86
:1003B00062B3019A012A4FEA075215DC001B61EB78
:1003C00002014FF0004202EA0752CDE90042001C50
:1003D00041F5801132462B4600F09CF903B0BDE890
:1003E000F08F40462146F9E7001B61EB0201001C3B
:1003F00041F5801300185B412018A2F5001747EB68
:10040000030140EAD570B6196D4111E06D084FEA5D
:10041000360645EAC0754FEA0752001B61EB020140
:10042000001C41F5801149084FEA30000019514184
:1004300032462B4603B0BDE8F04F00F05CB900989F
:10044000012240000023D0EB020263EBE07300982E
:1004500021464FEAE074B8EB000061EB0401E9E7E4
:1004600083F000435BE781F0004158E72DE9FE4F40
:1004700081EA030404F0004421F0004100944FF0AD
:10048000000B23F0004350EA01045ED052EA03045B
:100490005BD0C3F30A54C1F30A552C44A4F2F334DD
:1004A0000194A0FB0254C1F3130141F48011C3F382
:1004B000130343F4801301FB024400FB034E840A40
:1004C000970A44EA815447EA8357A4FB07680295D8
:1004D0008D0A05FB07854FEA932C04FB0C54270576
:1004E000029D4FEA065847EA1637B5EB08056EEB52
:1004F000070C870E920E47EA811742EA8312A7FB88
:100500000201B6EB0B0164EB00042B0D43EA0C3344
:100510005E1844EB1C50DA465146E7FB0201C5F376
:1005200013044FEA0B3343EA14534FEA0432019C9D
:1005300043EA0603A4F10C040294009CCDE900B444
:1005400000F0E8F803B0BDE8F08F00200146F9E7BD
:100550002DE9F04D81EA030404F0004B21F0004541
:1005600014464FF0000A23F0004150EA050220D063
:1005700054EA01021DD0C5F30A570246C5F313031E
:10058000C1F31300C1F30A5640F4801543F48013FD
:10059000A7EB0608101BD64608F2FD3873EB0500E2
:1005A00002D308F1010801E092185B41B8F1000F95
:1005B00003DA00200146BDE8F08D00204FF48011E1
:1005C000064684460EE0171B73EB050705D3121B86
:1005D00063EB050306434CEA010C49084FEA30007F
:1005E00092185B4150EA0107EDD152EA030012D0A4
:1005F00082EA040083EA0501084305D0101BAB41E1
:1006000006D20122002306E000224FF0004302E060
:100610006FF0010253101AEB06004CEB085110EB7F
:100620000A0041EB0B01BDE8F04D00F064B8C1F3E6
:100630000A52C1F3130140F2FF3341F480119A4290
:1006400002DA00200146704740F233439A42A2F298
:10065000334202DC5242FFF7D5BD00F02BB8000058
:1006600030B5041E71F1000404DB4FF00044404239
:1006700064EB0101141E73F1000405DB1C464FF00E
:100680000043524263EB0403994208BF904230BDDD
:10069000064C074D06E0E06840F0010394E80700CF
:1006A00098471034AC42F6D3FFF746FD7C6B000848
:1006B0009C6B0008202A04DB203A00FA02F100209B
:1006C00070479140C2F1200320FA03F31943904090
:1006D0007047202A06DBCB17203A41FA02F043EAA2
:1006E000E07306E041FA02F3D040C2F120029140EB
:1006F00008431946704710B5141E73F1000408DA58
:10070000401C41F1000192185B411A4301D120F0D5
:10071000010010BD2DE9F04D92469B4611B1B1FA92
:1007200081F202E0B0FA80F220329046FFF7C2FF79
:1007300004460F4640EA0A0041EA0B0153465A4676
:10074000084313D0114653EA010019D0C8F1400202
:100750005046FFF757FD05460E465046594642465D
:10076000FFF7A8FF084305D0012004E020463946E2
:10077000BDE8F08D0020054346EAE0762C43374380
:100780000A986305E40AA0EB08000022FD0A44EA87
:1007900047540A3002D500200146E9E70105101947
:1007A0006941DDE9084500196941BDE8F04DA2E75E
:1007B00070B58C1810F8015B15F0070301D110F823
:1007C000013B2A1106D110F8012B03E010F8016B50
:1007D00001F8016B5B1EF9D12B0705D40023521ED3
:1007E0000DD401F8013BFAE710F8013BCB1A921C3B
:1007F00003E013F8015B01F8015B521EF9D5A14239
:10080000D8D3002070BDFEE77047000010B586B059
:1008100000210091019102914B1E0391F0B3264CEF
:100820000168264AA14207D1916941F00401916112
:10083000916901F004012AE0214CA14207D191699C
:1008400041F008019161916901F008011FE01D4C20
:10085000A14207D1916941F010019161916901F0C4
:10086000100114E0184CA14207D1916941F0200118
:100870009161916901F0200109E0144CA14218D165
:10088000916941F040019161916901F04001049149
:100890008188009181680191C16800E009E00291BE
:1008A000016903910068694600F056F8002006B01F
:1008B00010BD1846FBE70000000801400010024090
:1008C000000C0140001001400014014000180140DC
:1008D00010B504004FF0FF310BD0A068012808D0FC
:1008E000A188206800F030F900B1012020750020B7
:1008F00010BD084610BD10B54FF0FF3240B1816801
:1009000031B181880068012200F023F9002010BD78
:10091000104610BD10B54FF0FF3240B1816831B1C3
:1009200081880068002200F014F9002010BD1046F4
:1009300010BD000070B5044600F010F90546601CBB
:1009400002D004480078044400F008F9401BA0429B
:10095000FAD370BD580100202DE9F84FDFF8C0919F
:100960000024A9F1040B23464FF00F0809F1040AF3
:10097000ABF1040ECCE00127A7403A40BA4272D155
:10098000DFF8A0C14D68A5EB0C0665452BD00DDC4A
:10099000032D34D005DC35B3012D19D0022D2FD114
:1009A0001BE0112D16D0122D2AD119E0B6F5881FA3
:1009B00019D006DCB6F5803F15D0B6F5801F1FD1E3
:1009C00011E0B6F5001F0ED0B6F5041F18D10AE0ED
:1009D000CB6815E0CB681B1D12E0CB6808330FE035
:1009E000CB680C330CE08B682BB1012B4FF0080364
:1009F00003D0476104E0042302E0076100E0002324
:100A0000FF2A01D8064601E000F104064FEA8405FA
:100A100001D9A5F12005376808FA05FC27EA0C077B
:100A200003FA05F547EA050737604D68ED006ED516
:100A30003D4DAE6946F00106AE61AD6924F0030696
:100A400005F001050095394D7719BE68A5072D0FF2
:100A500008FA05FC26EA0C06DFF8D4C0604503D18D
:100A60004FF0000C25E052E0DFF8C8C0604502D12D
:100A70004FF0010C1DE0DFF8C0C0604502D14FF01F
:100A8000020C16E0DFF8B4C0604502D14FF0030C51
:100A90000FE0DFF8ACC0604502D14FF0040C08E075
:100AA000DFF8A0C0604502D14FF0050C01E04FF027
:100AB000060C0CFA05FC4CEA060CC7F808C04D6899
:100AC000D9F80060ED024D4601D5164300E096438B
:100AD0002E604D68DAF80060AD02554601D5164328
:100AE00000E096432E604D68DBF80060AD035D4684
:100AF00001D5164300E096432E604D68DEF8006095
:100B0000ED03754601D5164300E096432E60641C44
:100B10000A6832FA04F57FF42EAFBDE8F88F0000C2
:100B200008040140000011100010024000000140C4
:100B300000080140000C0140001001400014014079
:100B400000180140001C01408068084000D00120CE
:100B500070470AB1016170470904FBE701488068EA
:100B60007047000058010020024881680278114453
:100B70008160704758010020074810B5016841F0B6
:100B800010010160032000F08FF80F2000F006F83C
:100B900000F03EF8002010BD0020024000B50146E4
:100BA00087B000221C2000F05FF81C2000F04EF8F7
:100BB0001448C16941F00101C161C06905A900F093
:100BC00001000690684600F01DF900F03BF90E495F
:100BD0004000B0FBF1F10D484FF08042491E026029
:100BE000416040F2E7320021C0E90321816000F05A
:100BF0004BFC10B1012007B000BD044800F090FC90
:100C0000F9E700000010024040420F00DC01002024
:100C10000C4808B5816941F001018161816901F0E9
:100C200001010091C16941F08051C161C06906496B
:100C300000F080500090486820F0E06040F00070C4
:100C4000486008BD0010024000000140002809DB98
:100C500000F01F02012191404009800000F1E020D6
:100C6000C0F8001170470000F0B40E4B1B68C3F3CE
:100C70000223C3F10704042C00D904241D1D072DF1
:100C800001D2002300E0DB1E012606FA04F56D1EEA
:100C90000D409D409E40761E164045EA0601F0BC80
:100CA00001F040BD0CED00E0064A00F007011068BD
:100CB0004FF6FF03184040EA012003490843106043
:100CC000704700000CED00E00000FA052DE9F04748
:100CD0000D46040067D0DFF81881D8F8000000F056
:100CE0000700A8420CD2D8F8001021F007012943D0
:100CF000C8F80010D8F8000000F00700A84252D150
:100D000020683C4E810712D5400703D5706840F437
:100D1000E06070602078000703D5706840F4605090
:100D200070607068A16820F0F0000843706020785F
:100D3000C00727D06068012810D03168022810D081
:100D4000890700292FDA716821F0030101437160DE
:100D5000FFF704FF074641F288390CE03168890348
:100D6000EFE78901EDE7FFF7F9FEC11B494502D91D
:100D70000320BDE8F0877068616800F00C00B0EBFC
:100D8000810FF0D1D8F80010404601F00701A942C8
:100D90000BD9016821F0070129430160006800F0C8
:100DA0000700A84201D00120E3E72078400705D5DD
:100DB0007068E16820F4E060084370602078000704
:100DC00006D57068216920F4605040EAC100706067
:100DD00000F058F87168084AC1F30311515CC8402B
:100DE0000649086006480068FFF7D8FE0020C0E703
:100DF0000020024000100240616B000864010020E6
:100E00005C0100200F2202600C4A536803F00303C8
:100E10004360536803F0F0038360536803F4E063B6
:100E2000C36052684FF4E06303EAD20202610448EF
:100E3000006800F0070008607047000000100240E2
:100E4000002002400448054900684968044AC1F38B
:100E50000221515CC840704764010020001002402C
:100E6000716B00080448054900684968044AC1F3E9
:100E7000C221515CC840704764010020001002404C
:100E8000716B00080E4B59680E4801F00C02042AE1
:100E900011D0082A0FD10C48C1F38342C903805CEA
:100EA0000AD55968084AC1F34041921E515C054A6F
:100EB0005043B0FBF1F070470449484370470000CD
:100EC0000010024000127A00516B000800093D003A
:100ED0002DE9F84F04006FD02078BE4DC00747D0F1
:100EE0006868C0F38100012807D06868C0F38100FA
:100EF000022809D16868C00306D52868800337D561
:100F000060680028E7D033E06068B0F5803F0BD020
:100F100010B1B0F5A02F11D0286820F480302860DF
:100F2000286820F4802002E0286840F4803028609F
:100F3000606888B1FFF712FE064609E0286840F4B1
:100F400080202860F0E7FFF709FE801B642873D833
:100F500028688003F7D50BE0FFF700FE064604E0A3
:100F6000FFF7FCFD801B6428F1D828688003F7D4C4
:100F70002078DFF8648280074FF0010A4FF0000903
:100F800039D5686810F00C0F07D06868C0F381008D
:100F9000022809D16868C00306D42868800714D5E0
:100FA0002069012808D110E02069B0B1C8F800A07C
:100FB000FFF7D4FD064605E007E1FFF7CFFD801BF4
:100FC0000228C4D828688007F7D52868616920F00E
:100FD000F80040EAC10028600DE0C8F80090FFF773
:100FE000BDFD064604E0FFF7B9FD801B022823D8AB
:100FF00028688007F7D4207800072CD57748A169A6
:10100000D9B1C0F800A0FFF7A9FD064604E0FFF73C
:10101000A5FD801B02280FD8686A8007F7D57048A5
:101020004FF4FA510068B0FBF1F0009000BF009857
:10103000411E0091FAD20EE07CE0C0F80090FFF76C
:101040008DFD064604E0FFF789FD801B022871D85C
:10105000686A8007F7D4207840075BD5E8690027E5
:10106000C00008D4E86940F08050E861E8690127D1
:1010700000F0805000905B480168C90511D40168F8
:10108000834641F480710160FFF768FD064604E085
:10109000FFF764FD801B64284CD8DBF80000C00516
:1010A000F6D5E06801280AD008B1052813D0286ACF
:1010B00020F001002862286A20F0040002E0286A7B
:1010C00040F001002862E06841F2883B88B1FFF7F8
:1010D00045FD064609E0286A40F004002862EEE774
:1010E000FFF73CFD811B59455BD8286A8007F7D57F
:1010F0000BE0FFF733FD064604E0FFF72FFD811BF1
:1011000059454ED8286A8007F7D41FB1E86920F006
:101110008050E861E069A8B36968C1F381010229E0
:1011200046D00228484606D0C8F86000FFF716FDF2
:10113000044639E035E04746C8F86000FFF70EFD89
:10114000064604E0FFF70AFD801B022829D828681C
:101150008001F7D4206AB0F5803F05D16868A168A6
:1011600020F4003008436860D4E908010843696846
:1011700021F4741108436860C7F860A0FFF7EEFC23
:10118000044605E023E0FFF7E9FC001B022808D82D
:1011900028688001F7D51AE0FFF7E0FC001B022861
:1011A00002D90320BDE8F88F28688001F4D40EE04E
:1011B0000128F7D06868226A00F48031914204D196
:1011C000616A00F47010884201D00120EAE7002033
:1011D000E8E7000000100240000042428004424262
:1011E000640100200070004070B5040009D0606AFE
:1011F000002540B125616561A56294F8510040B1B8
:101200000CE0012070BD6068B0F5827FF4D0E5612C
:10121000F2E784F85050204600F03FF8022084F8AE
:1012200051002068016821F040010160A0882189F7
:1012300000F4827001F404410843A18901F40061C3
:101240000843217C01F002010843217D01F00101E6
:101250000843218B01F400710843217F01F038011C
:10126000084394F8201001F080010843218D01F417
:101270000051084321680860A069042101EA104078
:10128000216848602068C16921F40061C161656519
:10129000012084F85100002070BD70472DE9F84FFF
:1012A000044690F8500000261D4690468A460128C4
:1012B0000ED04FF0010984F85090FFF74FFC07461D
:1012C00094F851004146B346012804D0022696E026
:1012D0000220BDE8F88FBAF1000F6ED0B8F1000F10
:1012E0006BD0032084F85100C4F854B0C4F830A087
:1012F000A4F83480A4F83680C4F838B0A4F83CB020
:10130000A4F83EB0C4F844B0C4F840B0A068B0F54A
:10131000004F09D12068026822F040020260206874
:10132000026842F48042026020680268520603D4D8
:10133000026842F040020260E068B0F5006F606849
:1013400003D038B3012925D042E008B101291BD1CF
:10135000206B21680088C86006E0206881688907E2
:1013600009D5216B0988C160206B801C2063E08E49
:10137000401EE08608E0FFF7F1FBC01BA84202D345
:10138000681C01D004E01DB1E08E0028E5D122E008
:10139000032632E0206B21680078087306E020689D
:1013A000816889070AD5216B09780173206B401C7D
:1013B0002063E08E401EE0860AE01CE0FFF7CEFBD3
:1013C000C01BA84202D3681C02D0E1E7002DDFD089
:1013D000E08E0028E3D13A462946204600F0C6FEBA
:1013E00008B120206065A06818B92068C1688068CD
:1013F0000090606D08B1012601E084F8519084F8F6
:1014000050B0304665E770477047000070B590F8FF
:101410003C20012A2CD0012580F83C50022280F883
:101420003D2002685368946823F070060B683343CC
:101430005360104B02689A420ED00F4B9A420BD069
:10144000B2F1804F08D00D4B9A4205D00C4B9A4216
:1014500002D00C4B9A4204D1496824F0800319430E
:10146000916080F83D50002180F83C10084670BD26
:10147000022070BD002C01400034014000040040F7
:1014800000080040000C004010B5040003D094F8A0
:101490003D0010B107E0012010BD002084F83C00A1
:1014A000204600F01FF8022084F83D00211D20682E
:1014B00000F0DEFF012084F8460084F83E0084F846
:1014C0003F0084F8400084F8410084F8420084F82A
:1014D000430084F8440084F8450084F83D0000206F
:1014E00010BD000008B500680B49884212D10B48B6
:1014F000C16941F00201C161C069002200F002002F
:10150000009007211D20FFF7AFFBBDE808401D201C
:10151000FFF79CBB08BD0000000400400010024023
:1015200090F83D10012901D001207047022180F878
:101530003D100168CA6842F00102CA6000680E49A5
:1015400088420ED00D4988420BD0B0F1804F08D0B0
:101550000B49884205D00B49884202D00A4988428B
:1015600004D1816801F00701062903D0016841F028
:101570000101016000207047002C0140003401404F
:101580000004004000080040000C00400168CA68E8
:1015900022F00102CA6001680A6A41F211131A427C
:1015A00007D10A6A9B101A4203D10A6822F001028D
:1015B0000A60012180F83D100020704770B5044694
:1015C00090F83C000025012817D0012684F83C60E3
:1015D000022084F83D002068826822F0770222F41D
:1015E0007F4282600868502838D00DDC20284FD018
:1015F00005DC90B3102811D14AE0022070BD3028DC
:1016000046D040280AD13BE060282FD070280DD06A
:10161000B0F5805F03D0B0F5005F12D0012584F8EB
:101620003D60002084F83C00284670BDCB68D1E9BD
:101630000121206800F062FF2068816841F0770195
:1016400009E0CB68D1E90121206800F057FF20684C
:10165000816841F480418160E1E719E0CA68496826
:10166000206800F05DFF5021206806E0CA684968E4
:10167000206800F066FF6021206800F049FFCEE797
:10168000CA684968206800F04BFF40212068F4E7F1
:10169000226801461046F0E7704770B504460068BE
:1016A00001694FF00005C943890715D4C168C943D2
:1016B000890711D4E91E0161012020772068806923
:1016C0008007204602D0FFF7E7FF04E000F098F81B
:1016D000204600F096F8257720680169C94349073C
:1016E00017D4C168C943490713D46FF004010161DD
:1016F000022020772068806910F4407F204602D0C5
:10170000FFF7CAFF04E000F07BF8204600F079F80C
:10171000257720680169C943090716D4C168C94300
:10172000090712D46FF008010161042020772068B6
:10173000C0698007204602D0FFF7AEFF04E000F04A
:101740005FF8204600F05DF8257720680169C943FD
:10175000C90617D4C168C943C90613D46FF0100174
:101760000161082020772068C06910F4407F20467E
:1017700002D0FFF791FF04E000F042F8204600F0AD
:1017800040F8257720680169C943C90708D1C168B5
:10179000C943C90704D1891E0161204600F032F80F
:1017A00020680169C943090609D4C168C94309060B
:1017B00005D46FF0800101612046FFF724FE206808
:1017C0000169C943490609D4C168C943490605D41A
:1017D0006FF040010161204600F0DAF820680169ED
:1017E000C94389060BD4C168C943890607D46FF081
:1017F000200101612046BDE87040FFF705BE70BDC5
:1018000070477047FEB504460068B0F1804F01D1C3
:10181000FFF7AAF95649206888427DD1554C3225F8
:10182000E069401CB0FBF5F1E06105FB110000260A
:1018300040BB8DF8006001AA6946206A03F00CFAEB
:1018400004F10E01012807D19DF80000012803D101
:10185000887808B9012088708878474A125C0A7035
:101860004A7882F001024A7028B10F2801D900207D
:1018700000E0401C88703F49002301AA0E31606AD5
:1018800003F0C4F8E0691421B0FBF1F201FB12008F
:1018900038BBE088401C80B2E0802189884220D398
:1018A000FEF7C0FC032790FBF7F107FB110032495C
:1018B0000023C91F02AA496800918DF80000207812
:1018C0008DF802006946A06A03F0A0F8FEF7AAFCB2
:1018D00090FBF7F107FB11006189401C4843208110
:1018E000E680E069C821B0FBF1F201FB120038BBD1
:1018F000A088401C81B20A20B1FBF0F2A18000FB5D
:10190000121189B9A189891C89B2B1FBF0F0C0B26A
:10191000A1812070082800E029E001D9082020706A
:10192000C1B216A001F0FCFDA088A0F1320132295D
:1019300001D2372008E0A0F16401322901D265818B
:1019400003E0962801D32D2060811049019A4FF0C1
:10195000805022B10860BFF34F8FBFF36F8F029AA0
:10196000002A04D00860BFF34F8FBFF36F8FFEBD16
:101970000004004000000020B75200085370656565
:101980006420757020746F202564000004ED00E071
:10199000704770B5040004D094F84100002510B1E0
:1019A00006E0012070BD84F84050204600F024F885
:1019B000242084F841002068C16821F40051C160EE
:1019C000204600F0D1FD2068016921F490410161B9
:1019D0002068416921F02A0141612068C16841F411
:1019E0000051C1606564202084F8410084F8420001
:1019F0006563002070BD000030B50068164985B0F1
:101A0000884226D11548816941F48041816181690C
:101A100001F480410491816941F004018161806990
:101A2000002400F0040004904FF4007000900220A5
:101A3000CDE9010403200A4D039069462846FEF7CC
:101A40008BFF2815CDE90004694628460294FEF76D
:101A500083FF05B030BD0000003801400010024097
:101A6000000801402DE9F843044690F841001F4664
:101A700015460E46202802D00220BDE8F8837EB12C
:101A800075B100206064212084F84100FFF766F8FA
:101A9000A5848046E584A068B0F5805F02D003E0AD
:101AA0000120EAE7206910B1354600260EE0002546
:101AB0000CE08021204600F0B3FDA0B9ADB115F8CF
:101AC000010B21684860E08C401EE084E08C4346B6
:101AD0004FF0000200970028EBD14FF04001204664
:101AE00000F09EFD30B10320C7E736F8020BC0F3CB
:101AF0000800E6E7202084F841000020BDE7FEE76B
:101B0000FEE7FEE72DE9F05F0C4607460025181BAF
:101B10000A99914600F10108A1EB090000F1010BBF
:101B200043E0772C14DD09EB0500C1B2E2B2384680
:101B300001F01FFE0026C4F17F0A07E0386800218B
:101B40000368026918469047761CF6B2B245F5DC88
:101B5000772C12D809EB0500C1B2E2B2384601F089
:101B600008FE002607E0386800210368026918466D
:101B70009047761CF6B2B045F5DC002C13DA09EB81
:101B80000500C1B20022384601F0F3FD6042C6B242
:101B900007E0386800210368026918469047761C00
:101BA000F6B2B045F5DC6D1CADB2AB45B9DC00203A
:101BB000BDE8F09F0346012000E05843491EFCD2D7
:101BC000704700002DE9F84F0D460746581B0A994B
:101BD000914600F101080024A1EB0900401C00908F
:101BE00050E0772D18DD09EB0400C1B2EAB23846A7
:101BF00001F0BFFD26480026C5F17F0B00EBC40AAB
:101C000008E038681AF80610036802691846904719
:101C1000761CF6B2B345F4DC772D16D809EB040038
:101C2000C1B2EAB2384601F0A4FD1948002600EB23
:101C3000C40A08E038681AF80610036802691846F2
:101C40009047761CF6B2B045F4DC002D17DA09EBAC
:101C50000400C1B20022384601F08BFD6842C6B2D2
:101C60000B4800EBC40A08E038681AF8061003684D
:101C7000026918469047761CF6B2B045F4DC641C45
:101C80000098A4B2A042ACDC0020BDE8F88F0000B0
:101C90000F6300082DE9F84F0D460746581B0A99B7
:101CA000914600F101080024A1EB0900401C0090BE
:101CB00050E06F2D18DD09EB0400C1B2EAB23846DE
:101CC00001F057FD26480026C5F17F0B00EB041AF2
:101CD00008E038681AF80610036802691846904749
:101CE000761CF6B2B345F4DC6F2D16D809EB040070
:101CF000C1B2EAB2384601F03CFD1948002600EBBB
:101D0000041A08E038681AF80610036802691846D1
:101D10009047761CF6B2B045F4DC002D17DA09EBDB
:101D20000400C1B20022384601F023FD6842C6B269
:101D30000B4800EB041A08E038681AF8061003682C
:101D4000026918469047761CF6B2B045F4DC641C74
:101D50000098A4B2A042ACDC0020BDE8F88F0000DF
:101D60001F6300082DE9F84F0D460746581B0A99D6
:101D7000914600F101080024A1EB0900401C0090ED
:101D800050E06F2D18DD09EB0400C1B2EAB238460D
:101D900001F0EFFC26480026C5F17F0B00EB041A8A
:101DA00008E038681AF80610036802691846904778
:101DB000761CF6B2B345F4DC6F2D16D809EB04009F
:101DC000C1B2EAB2384601F0D4FC1948002600EB53
:101DD000041A08E038681AF8061003680269184601
:101DE0009047761CF6B2B045F4DC002D17DA09EB0B
:101DF0000400C1B20022384601F0BBFC6842C6B202
:101E00000B4800EB041A08E038681AF8061003685B
:101E1000026918469047761CF6B2B045F4DC641CA3
:101E20000098A4B2A042ACDC0020BDE8F88F00000E
:101E30003F6300082DE9F84F0D460746581B0A99E5
:101E4000914600F101080024A1EB0900401C00901C
:101E50005CE0642D1CDD09EB0400C1B2EAB2384637
:101E600001F087FC04EBC4002B4900EB4000002686
:101E7000C5F17F0B00EB010A08E038681AF806107C
:101E80000368026918469047761CF6B2B345F4DC45
:101E9000642D1AD809EB0400C1B2EAB2384601F049
:101EA00068FC04EBC4001C4900EB4000002600EB7A
:101EB000010A08E038681AF8061003680269184633
:101EC0009047761CF6B2B045F4DC002D1BDA09EB26
:101ED0000400C1B20022384601F04BFC6842C6B291
:101EE00004EBC4000C4900EB400000EB010A08E0E1
:101EF00038681AF806100368026918469047761C7D
:101F0000F6B2B045F4DC641C0098A4B2A042A0DC98
:101F10000020BDE8F88F0000245E00082DE9FF5F77
:101F200088460E9992468346A1EB0A00002500F1EF
:101F300001091FE00AEB0500C1B208F0FF02584694
:101F400001F017FC0E490F98002401EB00200399C3
:101F500000EB0517A1EB0806761C07E0DBF8002074
:101F6000395D106812699047641CE4B2A642F5DC42
:101F70006D1CADB2A945DDDC04B00020BDE8F09FCA
:101F80003F5E00082DE9FF5F83460E989246A0EB66
:101F90000A008846002500F1010921E00AEB05004E
:101FA000C1B208F0FF02584601F0E3FB0F980F4959
:101FB00000EB800001EB001003990024A1EB080660
:101FC00000EB0517761C07E0DBF80020395D106890
:101FD00012699047641CE4B2A642F5DC6D1CADB2F8
:101FE000A945DBDC04B00020BDE8F09F3F6000089D
:101FF0002DE9FF5F88460E9992468346A1EB0A00C1
:10200000002500F101091CE00AEB0500C1B208F04F
:10201000FF02584601F0ADFB03990D480024A1EBE7
:10202000080600EBC517761C07E0DBF80020395DD9
:10203000106812699047641CE4B2A642F5DC6D1C7E
:10204000ADB2A945E0DC04B00020BDE8F09F00007F
:102050004F6700082DE9FF5F88460E999246834638
:10206000A1EB0A00002500F101091CE00AEB0500C4
:10207000C1B208F0FF02584601F07BFB03990D48FE
:102080000024A1EB080600EBC517761C07E0DBF87F
:102090000020395D106812699047641CE4B2A642C2
:1020A000F5DC6D1CADB2A945E0DC04B00020BDE854
:1020B000F09F00004F6300082DE9FF5F9146DDE9C6
:1020C0000E1B8246A1EB0900002500F1010820E06B
:1020D00009EB0500C1B25046019A01F04AFB2B21E1
:1020E00005FB01F00E49002401EB0017039901984C
:1020F0000E1A761C09E004EB0B00DAF80020395CBC
:10210000106812699047641CE4B2A642F3DC6D1CAF
:10211000ADB2A845DCDC04B00020BDE8F09F0000B3
:10212000C45800082DE9F0471E46174689468246E6
:1021300000244FF00A08089D13E0291B0A20491EBD
:10214000FFF738FDB6FBF0F1B1FBF8F208FB121314
:102150003819C2B249465046303301F025FB641CA1
:10216000E4B2AC42E9D30020BDE8F08738B50B46B5
:10217000009204460022802100F008F8002804D0D4
:10218000606D40F020006065032038BD2DE9F84304
:102190001E46914688460446089DFEF7DFFC401B1C
:1021A000351AFEF7DBFC074625480068C0F3CB3044
:1021B000684338E0701C37D0FEF7D0FCC01BA84243
:1021C00003D215B1009860B32CE02068416821F07B
:1021D000E00141606068B0F5827F0BD1A068B0F586
:1021E000004F02D0B0F5806F04D12068016821F063
:1021F00040010160A06AB0F5005F09D12068016864
:1022000021F4005101602068016841F4005101602F
:10221000012084F85100002084F850000320BDE81C
:10222000F8830025401E00902068816838EA01008C
:1022300004D000204845BDD10020F0E70120F9E797
:10224000640100201CB501F041F92F48006820B955
:102250003C222EA133A000F03BFA002203210520EE
:1022600002F06CFA334C00220121A062022002F03D
:1022700065FA206200220321012002F05FFA606209
:10228000216A11B108B1A06A20B942221FA125A07C
:1022900000F01EFA2849294801F088F9274D284600
:1022A00069688847A968284688470226002526705D
:1022B000A5800120CDE9000504022B46224620A17D
:1022C000224802F083FD1B481C4B1430CDE900600E
:1022D00022461FA1204802F079FD1649042018313A
:1022E000CDE90001154B22461CA11F4802F06EFDEE
:1022F0000320CDE90005002380221CA11C4802F028
:1023000065FD02F007F9FEE72C0000202E2E5C434D
:102310006F72655C5372635C72746F735F6D616939
:102320006E2E63004572726F723A2025732C202541
:10233000640D0A0000000020300100209000002001
:102340006C6F675F7461736B000000004D350008AF
:1023500044697370000000000530000867616D6516
:102360006F76657200000000493300084B65790004
:102370003534000810B5502080F31188BFF34F8F1B
:10238000BFF36F8F02F0F2FD18B104494FF0805097
:102390000860002080F3118810BD000004ED00E00B
:1023A00030B58FB028216846FDF767FF14210AA8D1
:1023B000FDF763FF0120010400248DE81300049061
:1023C0004FF4E010CDE90810022507956846FEF7A6
:1023D0007FFD08B172B6FEE70F20CDE90A054FF484
:1023E0008060CDE90C4002210AA80E94FEF76EFC35
:1023F000002801D072B6FEE70FB030BD7047000074
:102400000148FFF74AB90000DC0100200148FFF74E
:1024100044B90000E402002010B586B0002413483F
:10242000009401940294039404940F49059401606C
:102430004721C0E9011440F2E731C0E903148021CB
:102440008161FFF721F84FF48050009069460748FA
:10245000FFF7B4F82020CDE9040404A90348FEF7EF
:10246000D5FF06B010BD000000040040E4020020CB
:10247000F0B502681C4D1D4E1D4FDFF878C01E4B95
:102480004FF0804EA84209D0984207D0704505D041
:10249000B04203D0B84201D0604503D122F07004AD
:1024A0004A682243A84209D0984207D0704505D017
:1024B000B04203D0B84201D0604503D122F4407449
:1024C000CA6822434C6922F08002224302608A6873
:1024D000C2620A688262A84201D0984201D10969A9
:1024E000016301214161F0BD002C01400004004066
:1024F00000080040000C00400034014010B5846822
:1025000042EA032224F47F440A432243826010BD3E
:10251000826822F070020A4342F00701816070472E
:1025200010B5046A036A23F001030362836923F090
:10253000F00343EA021324F00A020A4383610262B1
:1025400010BD10B5036A046A24F0100404628469A3
:1025500023F0A00324F4704444EA023243EA011158
:102560008261016210BD000070B504460068016917
:10257000E26821F4405111430161A16820690143DF
:10258000606901432068C26841F20C639A430A43C0
:10259000C26020684169A26921F440711143416120
:1025A0001E492068884202D1FEF75CFC01E0FEF77C
:1025B00049FC00EBC00101EB00116068642280005F
:1025C000B1FBF0F3B3FBF2F36FF018067343B1FB0A
:1025D000F0F5B1FBF0F605EB8305322303EB0515AF
:1025E000B5FBF2F5B6FBF2F605F0F00505EB0615C6
:1025F000B1FBF0F6B1FBF0F0B0FBF2F06FF01801B8
:10260000484306EB800003EB0010B0FBF2F02168BA
:1026100000F00F002844886070BD000000380140C1
:102620002DE9F0411E46174688460446069D26E0E1
:10263000681C24D025B1FEF791FA801BA8421ED950
:1026400020680C3050E8001F21F4D07140E80012DF
:10265000002AF5D12068143050E8001F21F0010154
:1026600040E80012002AF5D1202084F8410084F8C7
:102670004200002084F840000320BDE8F08120687B
:10268000016838EA010004D00020B842D0D0002010
:10269000F3E70120F9E700000B4910B5094AC1E949
:1026A0000020002088600C22C860C1E90402886113
:1026B000C8610846FFF76DF9002801D04FF0FF30E0
:1026C00010BD00000038014030020020FEE700008D
:1026D0000FB4054B10B503A9044A029800F004F9A1
:1026E00010BC5DF814FB000031330008D801002055
:1026F0007CB50C001D461646014601D0601E00E068
:102700000020CDE90010064B6A462946304600F00D
:10271000EBF8002C02D0009A002111707CBD000063
:10272000EF2F00080907090E002804DB00F1E02064
:1027300080F80014704700F00F0000F1E02080F8EE
:10274000141D704702E008C8121F08C1002AFAD100
:1027500070477047002001E001C1121F002AFBD121
:10276000704700002DE9FF5F82B00021DDE90430F1
:10277000020DDDF840B0034318D044F61050A2F229
:10278000FF3242431514119801281FD0A5EB0B000E
:10279000401C5FEA000A4FF000064E4FDFF8389108
:1027A000B046504615D5CAF1000413E01198012433
:1027B0004AA3012801D16FEA0B010298119AC0E9DE
:1027C0000031C0E9024206B0BDE8F09FCBF1000045
:1027D000DFE704460021404A491842EB0450CDE9A6
:1027E000001012E0E00707D032463B46404649461B
:1027F000FDF73CFE8046894632463B461046194668
:10280000FDF734FE06460F466410002CEAD1DDE9E0
:102810000401DDE90023BAF1000F06DAFDF726FE18
:1028200042464B46FDF722FE05E0FDF791FE42468B
:102830004B46FDF78DFE04460E460022284BFDF761
:102840000FFF03D84FF0FF30014607E00022254B71
:1028500020463146FDF763FDFDF7E9FE102409E04F
:10286000002C0ADB0A220023FDF728FD039B3032EF
:102870001A55641E50EA0102F2D1641C039AC4F195
:1028800011031444119A012A03D0012208430DD1E7
:102890000AE0084304D000204FF0110B119072E7BA
:1028A000A3EB0B056D1E0DE05B4504DD4FF0000250
:1028B00005F1010504E003DA4FF00002A5F101057E
:1028C000002AECD002981199C0E90231C0E9004514
:1028D00079E70000000014400000F03F30000000E5
:1028E0000000F0430000E03F2DE9FF4F95B09A460D
:1028F000884606460025EEE1252877D100242746A4
:10290000F94A0121039400E0044316F8013F203BFB
:1029100001FA03F01042F7D130782A2811D06FF075
:102920002F033078A0F13002092A16D8039A44F018
:10293000020402EB820203EB42021044761C039075
:10294000EFE758F8042B0392002A03DA504244F4CC
:102950000054039044F00204761C30782E2816D1DF
:1029600016F8010F44F004042A280DD06FF02F024E
:102970003078A0F13003092B09D807EB870302EB6D
:102980004303C718761CF3E758F8047B761C3078AD
:102990006C280FD006DC4C2817D068280DD06A2888
:1029A00014D104E0742810D07A280FD10DE044F43B
:1029B00000140AE044F4801401E044F440147278F6
:1029C000824202D104F58014761C761C3078662889
:1029D0000BD013DC582877D009DC002875D04528A7
:1029E000F6D04628F4D047281AD193E118E063289E
:1029F00035D0642879D0652812D18BE1702873D046
:102A000008DC6728F1D069286FD06E280DD06F28B8
:102A100006D1ACE073282CD0752874D0782853D018
:102A20005246179990476D1C54E1C4F30250022896
:102A300009D003280DD0D8F8001004280DD00D605F
:102A400008F1040846E1D8F80010EA17C1E900527D
:102A5000F6E7D8F800100D80F2E70D70F0E718F8EF
:102A6000041B8DF8001000208DF80100EB460120BA
:102A700003E058F804BB4FF0FF3061074FF000014E
:102A800002D40DE009F101018946B9420FDA81450E
:102A9000F8DB1BF809100029F4D108E009F1010165
:102AA00089468142FADB1BF809100029F6D1039808
:102AB0005346A0EB090721463846179A00F080FAE2
:102AC000284400EB090507E044E008E10DE01BF8AD
:102AD000010B524617999047B9F10109F7D25346B5
:102AE00021463846179AF2E039E00A21C4F302522F
:102AF0004FF0000B0091022A06D058F8040BC117C2
:102B0000032A09D00AE023E008F1070020F00702B9
:102B1000F2E80201904605E000B2C117042A01D193
:102B200040B2C117002906DA0A460021404261EB93
:102B300002012D2202E0220504D52B228DF804206B
:102B4000012203E0E20701D02022F7E7914657E097
:102B50000A2100E010214FF0000B00910BE0102142
:102B60004FF0000B44F004040827009103E0082014
:102B70004FF0000B0090C4F30252022A05D058F81F
:102B8000040B0021032A08D008E008F1070020F018
:102B90000702F2E80201904603E080B2042A00D165
:102BA000C0B24FF0000922072AD53278702A07D028
:102BB000DDF800C08CF0100C5CEA0B0C05D00EE0C8
:102BC00040228DF80420012208E050EA010306D0DB
:102BD00030238DF804308DF8052002229146009BA9
:102BE00083F0080353EA0B030AD150EA010201D132
:102BF000620705D530228DF804204FF001097F1EB1
:102C00003278582A04D039A20C920CAA02920BE016
:102C10003BA2F9E75B46009AFDF750FB0C9B9B5CDF
:102C2000029A521E0292137050EA0102F2D10298E7
:102C300004A9081A00F1200B600702D524F480349F
:102C400000E001275F4502DDA7EB0B0000E000205C
:102C500000EB0B01009003984944401A0390E003F5
:102C600006D453462146179A039800F0A9F9054463
:102C7000002706E001A85246C05D179990476D1CD9
:102C80007F1C4F45F6DBE0030CD553462146179ACF
:102C9000039800F095F9054404E030205246179956
:102CA00090476D1C0099481E00900029F5DC08E053
:102CB0000298029952460078491C02911799904750
:102CC0006D1CBBF10001ABF1010BF1DC5BE100F02D
:102CD00065F90544761C307800287FF40DAE19B0F4
:102CE0002846BDE8F08F000009280100303132335A
:102CF0003435363738396162636465660000000038
:102D00003031323334353637383941424344454621
:102D100000000000600700D4062708F1070020F03B
:102D20000700F0E80223804603F0004C5FEA0C0045
:102D300001D097A009E0200501D596A005E0E007A5
:102D400001D095A001E0AFF24C001390307823F051
:102D5000004365280CD006DC452809D046281DD044
:102D600047287FD13BE0662818D067287AD136E023
:102D70000021112F01DB112000E0781CCDE90001BA
:102D800004A90CA8FFF7EEFCDDE90D010C9A4FF049
:102D9000000B07F10109109200914EE04FF0004046
:102DA0000097CDE9011004A90CA8FFF7DBFCDDE9D1
:102DB0000D020C9B0F994FF0000B9146109300925F
:102DC00011B9791C00EB0109B7EB090003D4C0F17C
:102DD000FF3B07F10109A9EB0700019042E0012F39
:102DE00000DA01270021112F01DD112000E0384613
:102DF000CDE9000104A90CA8FFF7B4FCDDE90D0141
:102E00000C9A00914FF0000BB946109221070FD495
:102E1000009A4A4503DA914601E0A9F10109B9F1A6
:102E2000010F05DD109AA9F10101515C3029F4D0A0
:102E3000B84202DA10F1040F03DA0121CDE90110E2
:102E400010E0002803DC8344A9EB000102E0411CF0
:102E5000494500DD8946A0EB0B00401C01904FF076
:102E600000400290200705D40198484502DB4FF04E
:102E7000FF30019000208DF84B0002980DF14B07B8
:102E8000B0F1004F25D002200C902B200D9002981D
:102E900000280CDA404202902D200D9007E00A2114
:102EA0000298FDF7F5F93031029007F8011D0C99F1
:102EB000481E0C900029F2DC02980028EFD1791E00
:102EC0000D980870307800F0200040F0450007F8B9
:102ED000020D11A8C01BC01D02901398007800B10C
:102EE000012000EB0901019801EBE0710298014417
:102EF0000398401A401E0390E00306D4534621462F
:102F0000179A039800F05CF805441398007818B1FC
:102F10005246179990476D1CE00323D5534621462E
:102F2000179A039800F04CF805441BE0BBF1000F22
:102F300007DB0098584504DD1098179910F80B002E
:102F400001E0179930205246904701980BF1010B90
:102F5000401E05F10105019004D12E20524617991B
:102F600090476D1CB9F10001A9F10109DEDC05E013
:102F700017F8010B5246179990476D1C0299481E8D
:102F800002900029F4DC53462146179A03989EE6E6
:102F90002D0000002B000000200000002DE9F04172
:102FA000044600251E461746880404D405E0394629
:102FB0002020B0476D1C641EF9D52846BDE8F0817D
:102FC0002DE9F041044600251E469046C80301D570
:102FD000302700E02027880404D505E04146384624
:102FE000B0476D1C641EF9D52846BDE8F0814A68DB
:102FF000002A06D00A68531C0B6010704868401EF7
:10300000486070472DE9F04F0546B1A087B04FF0FA
:10301000000A0068CDE9040A0726009681236C693E
:10302000524602212846A047AAA000F079FA4FF0A4
:10303000FF320121002000F0BBFFA9A000F070FAD0
:10304000A96828468847DFF8A8B2AA4E002203A93B
:10305000B06A01F053FD01280FD19DF80C109DF9C5
:103060000D200BEB81002BF821209DF80E208270A3
:103070000122C270A0A000F053FA002202A9706AD7
:1030800001F03CFD012804D19DF808109EA000F03D
:1030900047FA052000900C22AC69B388012128462C
:1030A000A04731787F230AEB010080B24FF40C7106
:1030B000B0FBF1F201FB120A0721CDE9001A06224A
:1030C000EC6900212846A04700246FF01A0904AFDC
:1030D000B04614E09CB10020801C0090395701F1EB
:1030E0001A0374B10022491CEE6B2846921CB047AB
:1030F00098F800003957012805D9401E04E0012046
:10310000EAE70122EFE70120081A40B238554845A6
:1031100001DA7F203855002C0BD04FF0000000F171
:1031200002000090395701F11A0305D14FF0010256
:1031300004E04FF00100F2E74FF000022E6A28464B
:1031400002F10202B047641CE4B2022CC2D39DF823
:103150000800022801D805240CE0082801D804241E
:1031600008E00F2801D8032404E0142801D8022421
:1031700000E0012498F801004646A04201D2024630
:1031800000E0224602D900F1010001E004F1010053
:10319000C0B2062800D9062000900F23EF6B002153
:1031A0002846B84774709DF80910601CCDE90001ED
:1031B0000F23AE6B224600212846B04700240BEBBC
:1031C00084075946F87818B354484FF0060910F8A8
:1031D0000480CDF8009031F92400A8F1010682198D
:1031E00013B2022C15D00022401C01B2D5F83CC00D
:1031F0002846521DE0473BF82400B978401A00B237
:10320000C8F100012BF82400884204DA0020F8708D
:1032100041E00122E8E7414B398802981B5D1944DF
:10322000491E09B224B1012C08D0022C0ED108E0AD
:1032300018290BD8C0B20E280ED907E01A29F9D9DF
:1032400004E01A2902D8C0B2062805D98CB1012C95
:1032500017D0022C1FD12DE000200246014600901D
:1032600024480223806901F0DDFD2D48FEF78EF928
:1032700017E0CDF80090BBF90010881903B2AE6AD0
:1032800006E0CDF80090BBF904108819EE6A03B28D
:1032900005222846B047641CE4B2032C8FD305985E
:1032A00088B120A000F03CF9002001F089F807B0B7
:1032B000BDE8F08FCDF80090BBF90810881903B273
:1032C00006222E6BE5E7142001F03EF8BDE6000073
:1032D0006400000047616D652053746172742100C1
:1032E00047616D652052756E6E696E672100000042
:1032F00024020020000000204E6577206361637483
:10330000757320256400000064696E6F206865692C
:10331000676874203D20256400000000B05200085A
:10332000E402002047616D65204F76657221000040
:1033300013B54FF6FF73012269460248FEF792FB70
:1033400000981CBD300200201CB504460020461E1B
:103350008DF804003246012100F02AFEA1682046C3
:103360008847062700977F23656B32460021204659
:10337000A8470F4D00970622A769AB880421204675
:10338000B847324601A9286A01F0B8FB0128F8D1F4
:1033900080F31388BFF34F8F06480168064A01F493
:1033A000E06111430160BFF34F8F00BFFDE70000F4
:1033B000000000200CED00E00400FA0570B50546A1
:1033C0001B48854202D1A0F118040EE018491831BB
:1033D0008D4202D1A1F1280407E0154930318D4218
:1033E00002D1A1F1380400E000248CB12846FDF799
:1033F0006FFA401C0DD0287D20B901202070FDF708
:10340000ADFB6060287D012802D12078012801D021
:10341000002070BD00202070FDF7A0FB6168401AFD
:103420006060B0F5FA6F01D8032070BD042070BD54
:10343000480000201FB51D4801AF002407C887E8D9
:1034400007001B4E012557F82400FDF7DFF9641C27
:10345000E4B2032CF7D3002457F82400FFF7AEFFA3
:10346000032807D0641CE4B2032CF5D3142000F029
:103470006BFFF0E7B07860B18DF8005000231A467A
:103480006946306A01F002FA611C0AA000F048F8AF
:10349000ECE70020B57002460146009002237069F7
:1034A00001F0C0FC0848FEF73BF8EDE7C852000801
:1034B000000000206B65792025642073686F7274AA
:1034C0002070726573730000E402002010B50022C2
:1034D0008021202001F032F9074C206030B90C2205
:1034E00006A10BA0FFF7F4F8206808B1002010BD7A
:1034F0004FF0FF3010BD00002C0000202E2E5C434A
:103500006F72655C5372635C6C6F672E63000000C2
:103510004572726F723A2025732C2025640D0A00C3
:103520000FB4802100B5A1B023AB6846229AFFF703
:10353000DFF8054800231A466946006801F0A6F93D
:1035400021B05DF814FB00002C000020A0B0074C57
:103550004FF0FF352A466946206801F0CFFA01286E
:10356000F8D1694602A0FFF7B3F8F3E72C0000207A
:1035700025730D0A00000000FDF7FEFAFEF710FFAC
:10358000FEF74AFF4FF4E130FFF786F802A0FFF79D
:103590009FF8FEF757FEFEE748656C6C6F20467299
:1035A000656552544F530D0A000000000268116017
:1035B0000368CA699A6003688A695A6003680A6A7C
:1035C000DA600068496A01610020704770B50646FC
:1035D000002500222946304600F0CBF8002432684E
:1035E0000021106812699047641CE4B2802CF6D365
:1035F0006D1CEDB2082DECD3002070BD10B5044653
:10360000006802688168104688476420FDF792F9D7
:103610002068D0E90021104688476420FDF78AF928
:103620002068AE210368C2681846904720680021D0
:103630000368C26818469047206810210368C26872
:1036400018469047206840210368C2681846904792
:10365000206881210268C368104698472068CF21FE
:103660000368C268184690472068A1210368C268B1
:10367000184690472068C8210368C26818469047DA
:103680002068A6210368C268184690472068A821D0
:103690000368C2681846904720683F210368C268E3
:1036A000184690472068D3210368C268184690479F
:1036B000206800210368C268184690472068D52119
:1036C0000368C26818469047206880210368C26872
:1036D000184690472068D9210368C2681846904769
:1036E0002068F1210368C268184690472068DA21F3
:1036F0000368C26818469047206812210368C268B0
:10370000184690472068DB210368C2681846904736
:10371000206840210368C26818469047206820212D
:103720000368C26818469047206802210368C2688F
:103730001846904720688D210368C2681846904754
:10374000206814210368C268184690472068A421A5
:103750000368C268184690472068A6210368C268BB
:10376000184690472168CA680868AF219047002032
:1037700010BD70B504460068154641F0B0010368FD
:10378000C26818469047102040EA15112068036867
:10379000C26818469047226805F00F011068D26889
:1037A0009047002070BD00002DE9F0470646480014
:1037B0008846D700801E083FC1B21D464FF0FF3932
:1037C000FAB23046FFF7D5FF1548002400EB051587
:1037D0002819A0F5805090F8001E3068036802692F
:1037E00018469047641CE4B2082CF1D309EB48005A
:1037F000C1B2FAB23046FFF7BCFF00242819A0F589
:10380000805090F8081E3068036802691846904797
:10381000641CE4B2082CF1D30020BDE8F08700005E
:10382000D45200082DE9F0411D4616460F46804649
:10383000002407E03019C2B239464046FFF7B4FF12
:10384000641CE4B22B5D002BF4D10020BDE8F081B4
:103850002DE9F041184E0F460446F5683068001D0A
:1038600000F006FC38B9306890F82C100120884030
:10387000316981433161601C07D137B13168BDE8DE
:10388000F0410E48091D00F02CBC30682C44AC42BD
:103890004460316805D2F06BBDE8F041091D00F0CD
:1038A00008BCB06B091D00F004FCB06A844200D271
:1038B000B462BDE8F081000068010020FC05002032
:1038C0002DE9F041054600F019FC2D4EB068401C72
:1038D000B06030682B4F10B1706930B32BE03560A9
:1038E000B068012827D1002404EB840007EB800096
:1038F00000F0D1FB641C202CF6D3234800F0CBFB56
:103900002148143000F0C7FB1F48283000F0C3FBEB
:103910001D483C3000F0BFFB1B48503000F0BBFBA3
:103920001948B0631430F06305E03068E96AC06A92
:10393000884200D83560706A0121401C7062E86AD4
:10394000326981401143316100EB800007EB800058
:10395000291D00F0C6FB00F011FC706900280CD096
:103960003068E96AC06A884207D208494FF080503F
:103970000860BFF34F8FBFF36F8FBDE8F081000089
:10398000680100202C030020AC05002004ED00E0BD
:1039900030B4026C0B46002A0BD0C1681144C160E0
:1039A0008468A14201D30168C16030BC1846FCF7AD
:1039B0004BBC30BC70472DE9F041856B174604467F
:1039C0000026026C82B1C7B1E068FCF73DFCE168FB
:1039D000206C091AE1602268914202D2A168081A9B
:1039E000E060022F16D017E02068A8B9A06801F0A7
:1039F00039FB06460020A0600EE06068FCF724FC5E
:103A0000216C606808446060A168884204D3206823
:103A1000606001E005B16D1E6D1CA5633046BDE818
:103A2000F08110B50446006B00F0DEFB2046BDE8D7
:103A3000104000F0D9BB000010484FF4205142075D
:103A400006D0C01D0D4920F00700411AC1F52051D4
:103A50000B4A00230144C2E900030839183A21F057
:103A6000070111604B600B600B1AC0E900139360F3
:103A70004FF0004053605061704700001006002076
:103A8000CC010020134E144DA6F52F774FF080582F
:103A9000DFF8489011E000F031FBF068C468201DA9
:103AA00000F0E6FAA868401EA8606868401E6860DA
:103AB00000F064FB2046FFF7B4FF68680028EAD1F5
:103AC00038680128F9D9C9F80080BFF34F8FBFF3D8
:103AD0006F8FF2E7E80500206801002004ED00E0A8
:103AE0002DE9F05FDDE90B940E4683466FF003018C
:103AF000206B01EB820108440A9D20F007079A46DB
:103B0000780705D040F25E321CA124A0FEF7E0FD4C
:103B10004FF0000866B100202218315C82F83410A2
:103B2000315C11B1401C1028F6D384F8438001E0C9
:103B300084F83480202D00D31F25E562C4E9115894
:103B4000201D00F0B3FA04F1180000F0AFFA246170
:103B5000C5F120006462A061C4F84C8084F85080F4
:103B600052465946384600F065F92060B9F1000F19
:103B700001D0C9F80040BDE8F09F00002E2E5C7413
:103B8000686972645F6C69625C4672656552544F25
:103B9000535C7461736B732E630000004572726F27
:103BA000723A2025732C2025640D0A0030B5114986
:103BB00000E011460A688242FBD34B685C188442DD
:103BC00003D1406818444860084643681C18944272
:103BD00009D1084C183C2468A24209D052681A4402
:103BE00042600A6812680260814200D0086030BDFD
:103BF0000460F9E7CC01002010B5044600F07EFA1D
:103C0000A06B20B1002400F0B9FA204610BD0124B9
:103C1000F9E700000548816B096821B1816BC9682B
:103C20000968816270474FF0FF31FAE768010020B0
:103C300008484068401C04D0CC2207A113A0FEF71E
:103C400047FD502080F31188BFF34F8FBFF36F8F74
:103C5000FEE70000A80100202E2E5C7468697264E3
:103C60005F6C69625C4672656552544F535C706F5D
:103C7000727461626C655C525644535C41524D5F94
:103C8000434D335C706F72742E6300004572726F27
:103C9000723A2025732C2025640D0A002DE9F0418D
:103CA000044600F02BFA94F9455004F1240609E08B
:103CB000606A48B1304601F031FA08B100F0F4FB17
:103CC0006D1E6DB2002DF3DC4FF0FF3684F84560B9
:103CD00000F054FA00F012FA94F9445004F110077D
:103CE00009E0206948B1384601F018FA08B100F03F
:103CF000DBFB6D1E6DB2002DF3DC84F84460BDE883
:103D0000F04100F03BBA00002DE9F04104460026E6
:103D100000F04AFC364F386808B9FFF78DFE786925
:103D2000044258D1002C56D004F10805A54252D9BE
:103D300068070ED005F00700C0F108002844A8422B
:103D400049D90546400704D09A222AA135A0FEF79A
:103D5000BFFC002D3FD0786885423CD824491831FB
:103D60000846046801E0214604466068A84202D281
:103D700020680028F7D13868B84684422BD00E68F6
:103D80002068086060680836401B10280ED9671943
:103D9000780704D0CD2217A122A0FEF799FC606815
:103DA000401B786038466560FFF700FF6168D8F80F
:103DB00004004246401AC8F80400D8F80830984277
:103DC00000D29060506901430020C4E90001D0682E
:103DD000401CC8F80C0001F0F3F9700705D04FF44F
:103DE000877204A10FA0FEF773FC3046BDE8F08196
:103DF000B40100202E2E5C74686972645F6C696285
:103E00005C4672656552544F535C706F72746162A8
:103E10006C655C4D656D4D616E675C686561705F7A
:103E2000342E63004572726F723A2025732C202560
:103E3000640D0A0010B5031F4FF080741C601B1F37
:103E400021F001011960191F024B0B601439403831
:103E50000A6010BD313C000838B504004FF0FF3552
:103E60005CD0314A60693149904207D1886940F499
:103E700080508861886900F4805014E02C4A904298
:103E800007D1C86940F48040C861C86900F4804027
:103E900009E0284A904243D1C86940F40040C86113
:103EA000C86900F400400090886940F00100886112
:103EB000886900F001000090A068FCF7A7FC20686A
:103EC000FCF7A4FCE068FCF7A1FC6068FCF79EFC32
:103ED000D4E90401016021694FF4827048602169CE
:103EE0004FF40040886021690020C86021690861A2
:103EF0002169486122694FF4007191612169C861AB
:103F000021690862216948622169886221690A2061
:103F1000C8622069FDF768F9002800D0284638BD3E
:103F20006FF0010038BD0000003001400010024079
:103F300000380040003C004010B50446C068FCF763
:103F4000DAFC0A20FCF7F6FCE068FCF7E3FC0A2048
:103F5000FCF7F0FCE068FCF7CEFC0A20FCF7EAFC7A
:103F6000002010BD13B538B10069FF23012201A95B
:103F7000FDF794F940B21CBD4FF0FF301CBD70B589
:103F800004460D464068FCF7C5FC29462046FFF76D
:103F9000E9FF002070BD70B504460D464068FCF78F
:103FA000AAFC29462046FFF7DDFF002070BD000077
:103FB0002DE9F04115460F46040005D041F252228A
:103FC0001DA125A0FEF784FB00F098F8264E30686E
:103FD00000EB8400C06C88B931680120214481F86D
:103FE00050005DB101212846FFF732FC1F494FF018
:103FF00080500860BFF34F8FBFF36F8F00F0BEF8A3
:1040000000F07CF8306800EB8400C56C002055B1EE
:1040100027B1316801EB8401C86404E03268691E8D
:1040200002EB8402D1643168214481F8500000F031
:10403000A5F82846BDE8F0812E2E5C74686972648C
:104040005F6C69625C4672656552544F535C746183
:10405000736B732E630000004572726F723A2025F5
:10406000732C2025640D0A006801002004ED00E097
:10407000D0E9013201699A60D0E901235A604A68A7
:10408000824201D182684A60002202610868401EB3
:1040900008600868704700F108014FF0FF32C0E97E
:1040A0000112C160016100210160704700210161BE
:1040B000704730B50C68621C02D000F1080202E0C3
:1040C000026904E01A4653681D68A542FAD953688C
:1040D0004B6099608A60516008610168491C016009
:1040E00030BD42684A6093688B6093685960916004
:1040F00008610168491C016070470000502080F38E
:104100001188BFF34F8FBFF36F8F09494868401C78
:10411000486001280AD10748006810F0FF0F05D059
:1041200040F2711204A111A0FEF7D2BA704700004C
:10413000A801002004ED00E02E2E5C746869726412
:104140005F6C69625C4672656552544F535C706F78
:10415000727461626C655C525644535C41524D5FAF
:10416000434D335C706F72742E6300004572726F42
:10417000723A2025732C2025640D0A0010B5084CD6
:10418000606828B94FF4BC7206A113A0FEF7A0FA2C
:104190006068401E606001D180F3118810BD00008E
:1041A000A80100202E2E5C74686972645F6C6962DD
:1041B0005C4672656552544F535C706F72746162F5
:1041C0006C655C525644535C41524D5F434D335CC9
:1041D000706F72742E6300004572726F723A202500
:1041E000732C2025640D0A0070B500282DD0174DC2
:1041F000A0F1080460686969084205D14FF4917222
:1042000013A11FA0FEF764FA206828B140F2231220
:104210000FA11BA0FEF75CFA60686969084214D020
:104220002268002A11D18843606000F0BDF96068FF
:104230006968084468602046FFF7B8FC2869401C9C
:104240002861BDE8704000F0BBBF70BDB401002024
:104250002E2E5C74686972645F6C69625C4672657C
:104260006552544F535C706F727461626C655C4D43
:10427000656D4D616E675C686561705F342E6300CB
:104280004572726F723A2025732C2025640D0A0046
:104290004FF0E02000210161816105494FF4FA529D
:1042A0000968B1FBF2F1491E4161032101617047C8
:1042B0006401002010B5FBF78FFF104C10280CD3C1
:1042C00000F1E02090F8F0032178884205D240F216
:1042D000B9220BA117A0FEF7FBF91A480068A168E4
:1042E00000F4E060884207D9BDE8104040F2C922DE
:1042F00003A110A0FEF7ECB910BD0000A80100203A
:104300002E2E5C74686972645F6C69625C467265CB
:104310006552544F535C706F727461626C655C528D
:104320005644535C41524D5F434D335C706F727421
:104330002E6300004572726F723A2025732C20257F
:10434000640D0A000CED00E010B5040012D00E4917
:10435000496B29B140F23F520CA114A0FEF7B8F905
:1043600000F022F900212046FFF772FA00F028FF42
:10437000002807D111494FF080500860BFF34F8FDC
:10438000BFF36F8F10BD0000680100202E2E5C74FB
:10439000686972645F6C69625C4672656552544F0D
:1043A000535C7461736B732E630000004572726F0F
:1043B000723A2025732C2025640D0A0004ED00E0DC
:1043C00070B50446FFF79AFE234D04B92C68201DF2
:1043D000FFF74EFE58B9E06A204A00EB800152F820
:1043E000211021B901218140286988432861A06AF0
:1043F00018B104F11800FFF73BFE686A401C6862C0
:104400002868844207D1211D1548FFF76AFE6868B5
:10441000401C686007E0A868401EA8602046FFF7BF
:1044200000FBFFF7F7FBFFF7A9FE6869002812D031
:10443000286884420FD1686B28B140F2D24209A1AA
:1044400010A0FEF745F913494FF080500860BFF304
:104450004F8FBFF36F8F70BD680100202C030020C9
:10446000E80500202E2E5C74686972645F6C6962D6
:104470005C4672656552544F535C7461736B732E66
:10448000630000004572726F723A2025732C20255C
:10449000640D0A0004ED00E002490A6A0260C9687E
:1044A000416070476801002001490120C8617047E0
:1044B0006801002070B50D46040005D140F6114298
:1044C00007A10FA0FEF704F9114801682046183132
:1044D000FFF7EFFD2846BDE870400121FFF7B8B9AE
:1044E0002E2E5C74686972645F6C69625C467265EA
:1044F0006552544F535C7461736B732E63000000FC
:104500004572726F723A2025732C2025640D0A00C3
:10451000680100207CB514480025CDE900502B46E9
:10452000802212A1134800F051FC0F4C2C3C0128B2
:1045300002D0401C10D015E0502080F31188BFF34A
:104540004F8FBFF36F8F4FF0FF30A062012060618B
:10455000E56000F075F805E040F6360206A10EA011
:10456000FEF7B6F8206B7CBD9401002049444C4511
:1045700000000000853A00082E2E5C7468697264A1
:104580005F6C69625C4672656552544F535C74613E
:10459000736B732E630000004572726F723A2025B0
:1045A000732C2025640D0A000248416B491C4163AD
:1045B000704700006801002070B5134D686B10B1A2
:1045C0000120E86170BD0020E86128690F4EB0FA53
:1045D00080F0C0F11F0000EB800456F8240028B9D9
:1045E00040F6F7320AA112A0FEF772F806EB84003B
:1045F00000F10802416849684160914201D149686F
:104600004160C868286070BD680100202C0300204C
:104610002E2E5C74686972645F6C69625C467265B8
:104620006552544F535C7461736B732E63000000CA
:104630004572726F723A2025732C2025640D0A0092
:104640007CB52A4D28780190FF20287028788DF8B5
:1046500000009DF800009DF8001000F0F000884276
:1046600005D040F21D1222A12EA0FEF731F89DF8D0
:104670000000304C00F0500020700720A06006E0E1
:10468000401EA0609DF8000040008DF800009DF8DD
:1046900000000006A068F3D403280ED040F23112C7
:1046A00013A120A0FEF714F8A068032805D04FF44A
:1046B0009D720FA11BA0FEF70BF8207A000200F4F8
:1046C000E060A060019828701B48016841F4700107
:1046D0000160016841F070410160FFF7D9FD0020E1
:1046E0006060FBF743FD00207CBD000000E400E0BB
:1046F0002E2E5C74686972645F6C69625C467265D8
:104700006552544F535C706F727461626C655C5299
:104710005644535C41524D5F434D335C706F72742D
:104720002E6300004572726F723A2025732C20258B
:10473000640D0A00A801002020ED00E02DE9F04101
:104740000E46040005D14FF4C37217A11EA0FDF759
:10475000BFFF04FB06F54EB1B5FBF6F0A04205D055
:104760004FF4C77210A118A0FDF7B2FF05F148077A
:10477000AF4205D840F291120BA113A0FDF7A8FF9C
:104780003846FFF7C1FA050009D005F1480128466F
:1047900046B10160C0E90F46012100F01DF828462E
:1047A000BDE8F0810060F5E72E2E5C7468697264E4
:1047B0005F6C69625C4672656552544F535C7175FB
:1047C0006575652E630000004572726F723A202590
:1047D000732C2025640D0A0070B50D46040005D128
:1047E00040F20D121CA124A0FDF772FFFFF786FC1A
:1047F000D4E90F20216802FB0011A1600021A16310
:10480000216861600A46D4E90F01401E00FB0121C6
:10481000E16021464FF0FF3001F8440F487004F189
:1048200010004DB1FFF737FC04F12400FFF733FC13
:10483000FFF7A4FC012070BD21690029F8D000F029
:104840006DFC0028F4D010494FF080500860BFF391
:104850004F8FBFF36F8FEBE72E2E5C746869726425
:104860005F6C69625C4672656552544F535C71754A
:104870006575652E630000004572726F723A2025DF
:10488000732C2025640D0A0004ED00E02DE9FF4F94
:1048900083B01F468B4604004FF0000605D14FF44D
:1048A00043724DA154A0FDF713FFBBF1000F07D1D8
:1048B000206C28B140F20D3247A14FA0FDF708FF50
:1048C000022F08D1E06B012805D040F20E3242A140
:1048D00049A0FDF7FDFE00F03BFB38B9059828B173
:1048E00040F211323CA144A0FDF7F2FE4FF0000A65
:1048F0004FF08058DFF81091FFF700FCA06BE16BE0
:10490000884205D3022F03D00598C8B1DEB11EE05E
:104910003A4659462046FFF74EF8616A19B104F14C
:10492000240000F0FBFB28B1C9F80080BFF34F8FD3
:10493000BFF36F8FFFF722FC012007B0BDE8F08FB7
:10494000FFF71CFC21E06846FFF7A6FD0126FFF7F4
:1049500015FCFFF729FEFFF7D1FB94F94400401C3A
:1049600001D184F844A094F94500401C01D184F899
:1049700045A0FFF703FC05A9684600F0D5F930B162
:104980002046FFF78BF900F01BFC0020D5E7FFF76E
:10499000B5FBA06BE16B884201D1012500E0002549
:1049A000FFF7ECFB95B104F110000599FFF782FDCC
:1049B0002046FFF773F900F003FC00289CD1C9F8EA
:1049C0000080BFF34F8FBFF36F8F95E72046FFF74F
:1049D00065F900F0F5FB8FE72E2E5C746869726450
:1049E0005F6C69625C4672656552544F535C7175C9
:1049F0006575652E630000004572726F723A20255E
:104A0000732C2025640D0A0004ED00E02DE9F04729
:104A10001F4690468946040005D14FF478722BA1B9
:104A200032A0FDF755FEB9F1000F07D1206C28B177
:104A300040F2E13225A12DA0FDF74AFE022F08D158
:104A4000E06B012805D040F2E23220A127A0FDF75B
:104A50003FFEFFF72FFC5020EFF3118680F3118803
:104A6000BFF34F8FBFF36F8FA06BE16B884206D30C
:104A7000022F04D0002086F31188BDE8F08794F956
:104A80004550A06B3A4649462046FEF794FF681C05
:104A900002D07F2D0ED013E0606AA0B104F1240093
:104AA00000F03CFB78B1B8F1000F0CD00121C8F840
:104AB000001008E040F26B4204A10CA0FDF708FED4
:104AC0006D1C84F845500120D5E700002E2E5C7443
:104AD000686972645F6C69625C4672656552544FC6
:104AE000535C71756575652E630000004572726FC9
:104AF000723A2025732C2025640D0A002DE9F74712
:104B000083B08A4604004FF0000605D140F22F52D0
:104B100044A14CA0FDF7DCFDBAF1000F07D1206CD9
:104B200028B140F233523FA146A0FDF7D1FD00F07D
:104B30000FFA38B9059828B14FF4A76239A141A0FE
:104B4000FDF7C6FD00274FF08058DFF80891FFF70A
:104B5000D5FAA56BC5B151462046FEF719FF6D1E6B
:104B6000A563206950B104F1100000F0D7FA28B114
:104B7000C9F80080BFF34F8FBFF36F8FFFF7FEFAC6
:104B8000012006B0BDE8F087059808B11EB106E027
:104B9000FFF7F4FA27E06846FFF77EFC0126FFF7EF
:104BA000EDFAFFF701FDFFF7A9FA94F94400401C64
:104BB00001D184F8447094F94500401C01D184F877
:104BC0004570FFF7DBFA05A9684600F0ADF800284C
:104BD00020460AD0FFF762F800F0F2FA2046FFF70D
:104BE0000BF80028B3D00020CBE7FFF705F890B111
:104BF00004F124000599FFF75DFC2046FFF74EF80D
:104C000000F0DEFA0028A2D1C9F80080BFF34F8F70
:104C1000BFF36F8F9BE72046FFF740F800F0D0FA14
:104C200095E700002E2E5C74686972645F6C69629F
:104C30005C4672656552544F535C71756575652E9F
:104C4000630000004572726F723A2025732C202594
:104C5000640D0A0004ED00E02DE9F0479046894616
:104C6000040005D140F22F7223A12BA0FDF730FDE7
:104C7000B9F1000F07D1206C28B14FF4E6621EA1F4
:104C800025A0FDF725FDFFF715FB5020EFF3118759
:104C900080F31188BFF34F8FBFF36F8FA66B2EB3D6
:104CA00094F9445049462046FEF772FE761EA663EC
:104CB000681C02D07F2D0ED013E02069A0B104F152
:104CC000100000F02BFA78B1B8F1000F0CD00121E0
:104CD000C8F8001008E040F2737207A10EA0FDF7BB
:104CE000F7FC6D1C84F84450012000E0002087F39D
:104CF0001188BDE8F08700002E2E5C74686972642C
:104D00005F6C69625C4672656552544F535C7175A5
:104D10006575652E630000004572726F723A20253A
:104D2000732C2025640D0A002DE9F0410C46050086
:104D300005D140F6EB4218A11FA0FDF7C9FC2CB924
:104D400040F6EC4214A11CA0FDF7C2FCFFF7D6F917
:104D50001D4EF1686B682268C81A571C0AD02F686C
:104D6000D6F820C00026674506D08B4204D801251E
:104D700026600BE0002509E0824205D9101A206068
:104D80002846FFF789FBF5E701252660FFF7F6F9CE
:104D90002846BDE8F08100002E2E5C7468697264BC
:104DA0005F6C69625C4672656552544F535C746116
:104DB000736B732E630000004572726F723A202588
:104DC000732C2025640D0A00680100202DE9FF5F87
:104DD0008346DDE90E87994616468A469000FEF71F
:104DE00093FF05001AD05420FEF78EFF040012D066
:104DF00025630021CDE90241CDE900874B463246CB
:104E000051465846FEF76CFE2046FEF759FD01203C
:104E100004B0BDE8F09F2846FFF7E6F94FF0FF30F9
:104E2000F6E700002DE9F047DDF8208099461546A9
:104E30000E0004464FF0010705D041F2F42235A1DF
:104E40003CA0FDF745FC2CB941F2F52231A139A077
:104E5000FDF73EFCFFF752F904EB8600B8F1000FB6
:104E600002D0C26CC8F80020A11911F8506F0222BC
:104E70000A70DFF8D080B9F1050F11D2DFE809F030
:104E80001903060C0A00C16C294301E0C16C491CDE
:104E9000C1640EE0022E01D0C5640AE0002733E0B1
:104EA000D8F80C0028B141F22A321AA121A0FDF74E
:104EB0000FFC012E28D1201DFFF7DAF8E06A01214E
:104EC000D8F81020814045461143C8F810101E49FB
:104ED00000EB800001EB8000211DFFF702F9A06AC2
:104EE00028B141F239320BA112A0FDF7F1FBE06AC3
:104EF0002968C96A884207D914494FF08050086070
:104F0000BFF34F8FBFF36F8FFFF738F93846BDE817
:104F1000F08700002E2E5C74686972645F6C6962B1
:104F20005C4672656552544F535C7461736B732EAB
:104F3000630000004572726F723A2025732C2025A1
:104F4000640D0A00680100202C03002004ED00E03D
:104F50000548416919B1406B18B100207047012024
:104F60007047022070470000680100202DE9F041E1
:104F70002E4F0026786B28B1B869401CB8613046C6
:104F8000BDE8F081FD686D1CFD6011D1B86B006853
:104F900028B140F6BC2226A12DA0FDF799FBB86BE5
:104FA000F96BB963F863386A401C3862FEF732FE69
:104FB000B86ADFF8AC80854209D3B86B0068A0B14D
:104FC000B86BC068C4686068854211D2B86238683E
:104FD000C06A00EB800158F82100012800D90126A1
:104FE000F8690028CBD00126C9E74FF0FF30EDE784
:104FF000201DFFF73DF8A06A18B104F11800FFF773
:1050000037F8E06A01213A6981401143396100EBC8
:10501000800108EB8100211DFFF763F8E06A396821
:10502000C96A8842C9D30126C7E700006801002089
:105030002E2E5C74686972645F6C69625C4672658E
:105040006552544F535C7461736B732E63000000A0
:105050004572726F723A2025732C2025640D0A0068
:105060002C03002070B504004FF0000638D01D4D11
:105070002868844205D041F23D021BA122A0FDF721
:1050800027FBA06C28B941F23E0217A11EA0FDF734
:105090001FFBA06C401EA064626CE16A91421FD0AD
:1050A000F0B9201DFEF7E4FF012130B994F82C007F
:1050B00001FA00F2286990432861606CE062C0F157
:1050C0002000A061E06A2A698140114329611249E8
:1050D00000EB800001EB8000211DFFF702F80126A4
:1050E000304670BD680100202E2E5C7468697264C1
:1050F0005F6C69625C4672656552544F535C7461C3
:10510000736B732E630000004572726F723A202534
:10511000732C2025640D0A002C0300202DE9F0419A
:10512000C068C4682CB94FF4476216A11DA0FDF7F2
:10513000CFFA04F118000746FEF79AFF1D4D686B81
:10514000012660B139461C48FEF7CBFFE06A2968AA
:10515000C96A884213D90120EE61BDE8F081201DA3
:10516000FEF786FFE06A2A6906FA00F11143296119
:10517000124900EB800001EB8000211DE4E70020D4
:10518000EBE700002E2E5C74686972645F6C6962E4
:105190005C4672656552544F535C7461736B732E39
:1051A000630000004572726F723A2025732C20252F
:1051B000640D0A0068010020D40500202C030020A3
:1051C0002DE9F0472B4D00242746686B28B940F69F
:1051D000A90229A130A0FDF77BFAFEF78FFF686BCB
:1051E000401E6863686BE8BBA8682F490126C8B3F6
:1051F000A1F52A798846D8F80010E9B1D8F80C0052
:10520000C46804F11800FEF733FF201DFEF730FFDD
:10521000E06A2A6906FA00F11143296100EB800176
:1052200009EB8100211DFEF75CFFE06A2968C96A6D
:105230008842E0D3EE61DEE70CB1FEF7EBFCAC692F
:105240003CB1FFF793FE00B1EE61641EF9D100207E
:10525000A861E86930B11549012738070860BFF334
:105260004F8F00E001E0BFF36F8FFEF787FF3846F6
:10527000BDE8F087680100202E2E5C7468697264B6
:105280005F6C69625C4672656552544F535C746131
:10529000736B732E630000004572726F723A2025A3
:1052A000732C2025640D0A00D405002004ED00E0D5
:1052B00008101000007F0000060A0F1215171919B8
:1052C0001715120F0A060000480000206000002099
:1052D0007800002000000000000000000000000036
:1052E00000000000000000F8000000000000003393
:1052F0003000000000100C06100C0600000000003A
:105300000000000040C07840C0784000043F040422
:105310003F040400007088FC08300000001820FFE3
:10532000211E0000F008F000E018000000211C031E
:105330001E211E0000F00888700000001E2123249A
:105340001927211010160E000000000000000000B8
:1053500000000000000000E0180402000000000748
:105360001820400000020418E0000000004020184F
:1053700007000000404080F0804040000202010F22
:1053800001020200000000F0000000000101011F06
:1053900001010100000000000000000080B070006A
:1053A00000000000000000000000000000010101FA
:1053B0000101010100000000000000000030300089
:1053C0000000000000000000806018040060180663
:1053D0000100000000E010080810E000000F10209D
:1053E00020100F00001010F8000000000020203FE7
:1053F0002020000000700808088870000030282471
:105400002221300000300888884830000018202011
:1054100020110E000000C02010F800000007042436
:10542000243F240000F8088888080800001921207B
:1054300020110E0000E0108888180000000F1120D5
:1054400020110E0000380808C83808000000003F8E
:10545000000000000070880808887000001C2221ED
:1054600021221C0000E010080810E000000031229A
:1054700022110F00000000C0C0000000000000303A
:10548000300000000000008000000000000080608C
:10549000000000000000804020100800000102040D
:1054A00008102000404040404040400004040404F4
:1054B00004040400000810204080000000201008B0
:1054C00004020100007048080808F00000000030E5
:1054D00036010000C030C828E810E0000718272473
:1054E00023140B000000C038E0000000203C230221
:1054F0000227382008F8888888700000203F202084
:1055000020110E00C03008080808380007182020B5
:105510002010080008F808080810E000203F2020AC
:1055200020100F0008F88888E8081000203F20208D
:105530002320180008F88888E8081000203F200081
:1055400003000000C03008080838000007182020B9
:10555000221E020008F808000008F808203F210178
:1055600001213F20000808F8080800000020203F23
:105570002020000000000808F8080800C080808093
:105580007F00000008F888C028180800203F20018C
:105590002638200008F8080000000000203F2020E6
:1055A0002020300008F8F800F8F80800203F003FFD
:1055B000003F200008F830C00008F808203F200015
:1055C00007183F00E01008080810E0000F10202026
:1055D00020100F0008F808080808F000203F2101FB
:1055E00001010000E01008080810E0000F18242452
:1055F00038504F0008F8888888887000203F2000C5
:10560000030C30200070880808083800003820217A
:1056100021221C00180808F8080818000000203F84
:105620002000000008F808000008F808001F2020EB
:1056300020201F000878880000C8380800000738BC
:105640000E010000F80800F80008F800033C07000D
:10565000073C0300081868808068180820302C0375
:10566000032C30200838C800C83808000000203F4C
:105670002000000010080808C8380800203826213B
:1056800020201800000000FE020202000000007F3F
:1056900040404000000C30C000000000000000014D
:1056A0000638C00000020202FE0000000040404038
:1056B0007F0000000000040202020400000000005D
:1056C00000000000000000000000000080808080DA
:1056D00080808080000202040000000000000000C2
:1056E000000000000000808080800000001924225B
:1056F00022223F2008F8008080000000003F112097
:1057000020110E000000008080800000000E11209B
:1057100020201100000000808088F800000E112079
:1057200020103F200000808080800000001F222287
:1057300022221300008080F0888888180020203FF3
:10574000202000000000808080808000006B949406
:105750009493600008F8008080800000203F2100C2
:1057600000203F2000809898000000000020203F8B
:1057700020200000000000809898000000C0808079
:10578000807F000008F8000080808000203F240215
:105790002D302000000808F8000000000020203F05
:1057A000202000008080808080808000203F2000BA
:1057B0003F20003F8080008080800000203F21004B
:1057C00000203F200000808080800000001F2020FB
:1057D00020201F00808000808000000080FFA1202A
:1057E00020110E000000008080808000000E11203B
:1057F00020A0FF80808080008080800020203F21CA
:10580000200001000000808080808000003324247C
:1058100024241900008080E0808000000000001F28
:10582000202000008080000000808000001F2020D9
:1058300020103F20808080000080808000010E309A
:105840000806010080800080008080800F300C03FB
:105850000C300F0000808000808080000020312EFE
:105860000E312000808080000080808080818E70DA
:105870001806010000808080808080000021302C8C
:105880002221300000000000807C020200000000A5
:10589000003F404000000000FF000000000000004A
:1058A000FF0000000002027C800000000040403F3A
:1058B00000000000000601010202040400000000D4
:1058C00000000000808080808080808080808080D8
:1058D000808080808080C0C060202020C080808048
:1058E00080808080808080808080808080808080B8
:1058F0008080808080808080808080808080C020C8
:105900002020202040C08080808080808080808017
:105910008080808080808080808080808080808087
:105920008080808080808080808080808080808077
:105930008080808080808080808080808080808067
:105940008080808080808080808080808080808057
:105950008080808080808080808080808080808047
:105960008080808080808080808040404040808037
:105970008080808080808080808080808080808027
:105980008080808080808080808080808080808017
:105990008080808080808080808080808080808007
:1059A0008080808080C020204080808080808080B7
:1059B00080808080808080808080808080808080E7
:1059C00080808080808080808080808080808080D7
:1059D00080808080808080808080808080808080C7
:1059E00080808080808080808080808080808080B7
:1059F00080804060602020202020E0C08080808067
:105A00008080808080808080808080808080808096
:105A10008080808080808080808080808080808086
:105A20008080808080808080808080808080808076
:105A30008080808080808080808080808080808066
:105A40008080808080808080808080808080808056
:105A50008080808080804040408080808080808006
:105A60008080808080808080808080808080808036
:105A70008080808080808080808080808080808026
:105A80008080808080808080808080808080808016
:105A900080808080C0202020404080808080808066
:105AA00080808080808080808080808080808080F6
:105AB00080808080808080808080808080808080E6
:105AC00080808080808080808080808080808080D6
:105AD0008080808040206040404080808080808046
